:020000041000EA
:10E000000000022019F000104DEE001057F0001033
:10E0100059F000105BF000105DF0001000000000EF
:10E020000000000000000000000000005FF0001091
:10E0300061F000100000000063F0001065F00010B7
:10E0400069F000106BF000106DF000106FF0001020
:10E0500071F0001073F0001075F0001077F00010F0
:10E0600079F000107BF000107DF000107FF00010C0
:10E0700081F0001083F0001085F0001087F0001090
:10E0800089F000108BF000108DF000108FF0001060
:10E0900091F0001093F0001095F0001097F0001030
:10E0A000D1ED0010D9ED00109DF000109FF0001090
:10E0B000A1F00010A3F00010A5F00010A7F00010D0
:10E0C000A9F00010ABF00010ADF00010AFF00010A0
:10E0D000B1F00010B3F00010B5F00010B7F0001070
:10E0E000B9F00010BBF00010BDF00010BFF0001040
:10E0F000C1F00010C3F00010C5F00010C7F0001010
:10E10000C9F00010CBF00010CDF00010CFF00010DF
:10E11000D1F00010D3F00010D5F00010D7F00010AF
:10E12000D9F00010DBF00010DDF00010DFF000107F
:10E13000E1F00010E3F00010E5F00010E7F000104F
:10E14000E9F00010EBF00010EDF00010EFF000101F
:10E15000F1F00010F3F00010F5F00010F7F00010EF
:10E16000F9F00010FBF00010FDF00010FFF00010BF
:10E1700001F1001003F1001005F1001007F100108B
:10E1800009F100100BF100100DF100100FF100105B
:10E1900011F1001013F1001015F1001017F100102B
:10E1A00019F100101BF100101DF100101FF10010FB
:10E1B00021F1001023F1001025F1001027F10010CB
:10E1C00029F100102BF100102DF100102FF100109B
:10E1D00031F1001033F1001035F1001037F100106B
:10E1E000000000000000000000000000000000002F
:10E1F000000000000000000000000000000000001F
:10E200000048804719F000100348044B834202D0B5
:10E21000034B03B118477047CC0B0020CC0B0020F8
:10E22000000000000548064B1B1AD90F01EBA301A3
:10E23000491002D0034B03B118477047CC0B0020A4
:10E24000CC0B00200000000010B5064C237843B929
:10E25000FFF7DAFF044B13B10448AFF3008001234A
:10E26000237010BD000C002000000000285B02108D
:10E2700008B5054B1BB105490548AFF30080BDE863
:10E280000840FFF7CFBF00BF00000000040C0020D3
:10E29000285B02102DE9F047DFF8DCA0374EDAF8F2
:10E2A0000430ADF5007DDBB1DFF8D490DFF8D48029
:10E2B000354F0AF104050024484603F0E7F855F805
:10E2C000041F404603F0E2F8384603F0DFF83368F5
:10E2D000986806F0DBFADAF804300134A342EBD890
:10E2E000274DDFF8A880284F08241FE08DF800E1B3
:10E2F00000F0BCFB034601336946204612D000F013
:10E30000CFFB0346002B28460CDD03F0BFF8009935
:10E31000404603F0BBF8384603F0B8F83368986815
:10E3200006F0B4FA0134E4B2782C13D0A4F1180347
:10E33000DBB2DFF85CC04FF0010E1E2B40AA714625
:10E3400020462CFA03FCD1D81CF0010FCED0744427
:10E35000E4B2EBE70F4803F099F80F4805F0C2FF6D
:10E36000094803F093F83368986806F08FFA0020A4
:10E370000DF5007DBDE8F087200C002098050020F9
:10E38000CCE40110D8E40110E4E40110E8E4011049
:10E3900001000140F4E4011000E50110000000005C
:10E3A00010B562B61A4C00F0F1FB882219482146DC
:10E3B00000F006FC184B22689A421CD0174803F064
:10E3C00065F8174805F08EFF164803F05FF8164B06
:10E3D0001B68986806F05AFA09A1D1E900010AA35E
:10E3E000D3E90023C4E90001C4E9022309488822D3
:10E3F000214600F0E7FBBDE8104000F033BB00BF52
:10E40000EFBEADDE02000000111111111211111149
:10E41000200C002000C00710EFBEADDE08E50110A3
:10E4200014E50110E4E40110980500202DE9F04105
:10E43000244F7B68ADF5007D002B37D03D1D0026B5
:10E440004FF0020803E07B680136B3422ED955F83D
:10E45000040F00F009FB012140AA04468DF8008159
:10E4600000F004FB034601336946204623D000F048
:10E4700017FB01301FD0009A2B689A42E3D0023676
:10E48000114803F003F8114857F8261002F0FEFF78
:10E490000F4802F0FBFF0F4B1B68986806F0F6F977
:10E4A0004FF0FF300DF5007DBDE8F08100200DF547
:10E4B000007DBDE8F081044802F0E8FF064805F061
:10E4C00011FFE5E7200C002030E501105CE50110AC
:10E4D000E4E40110980500203CE501102DE9F04F1F
:10E4E000294F7B68ADF5017DA3B3DFF8A080DFF88D
:10E4F000A090DFF8A0B0DFF8A0A03E1D002556F8E0
:10E50000040F00F0B1FA0323012140AA04468DF85C
:10E51000003100F0ABFA034601336946204605F1AD
:10E5200001051CD000F0BCFA03460133484616D062
:10E5300002F0ACFF31686A46584602F0A7FF504629
:10E5400002F0A4FFD8F80030986806F09FF97B68C5
:10E55000AB42D4D800200DF5017DBDE8F08F0F4807
:10E5600002F094FF0E4805F0BDFE0B4802F08EFF4E
:10E57000D8F80030986806F089F94FF0FF300DF5B3
:10E58000017DBDE8F08F00BF200C00209805002021
:10E59000CCE401107CE50110E4E4011030E5011049
:10E5A00088E5011030B5ADF5017D044600F05CFA58
:10E5B000042340AA012105468DF8003100F056FAE7
:10E5C000013026D06946284600F06AFA013020D092
:10E5D000184802F05BFF21461748184C02F056FF1E
:10E5E000174802F053FF2368986806F04FF9114866
:10E5F00002F04CFF6946134802F048FF104802F051
:10E6000045FF2368986806F041F900200DF5017D6B
:10E6100030BD0D4802F03AFF0C4805F063FE084893
:10E6200002F034FF054B1B68986806F02FF94FF095
:10E63000FF30EBE7CCE40110A4E5011098050020C1
:10E64000E4E40110B0E5011030E50110B4E501107B
:10E6500008B5134C002000F083FC204600F09EFE1D
:10E66000012000F07DFC204600F098FE022000F022
:10E6700077FC204600F092FE002000F091FC20463E
:10E6800000F08CFE012000F08BFC204600F086FE9E
:10E69000022000F085FC204600F080FEDAE700BF93
:10E6A00020A1070010B5FFF7C1FEF8B92648274C96
:10E6B00002F0ECFE264805F015FE264802F0E6FEC4
:10E6C0002368986806F0E2F8FFF708FFF0B12248E7
:10E6D00002F0DCFE214805F005FE1E4802F0D6FEE1
:10E6E0002368BDE81040986806F0D0B81A4802F0D8
:10E6F000CDFE1B4805F0F6FD164802F0C7FE134B91
:10E700001B68BDE81040986806F0C0B8154802F0D4
:10E71000BDFE1549154802F0B9FE0E4802F0B6FEDE
:10E720002368986806F0B2F8114802F0AFFE11486D
:10E7300005F0D8FD074802F0A9FE2368986806F0A6
:10E74000A5F8FFF785FF00BF08E501109805002038
:10E75000F4E50110E4E4011030E5011010E60110C9
:10E76000D0E50110CCE4011030E6011038E60110CC
:10E77000F4E4011040E6011010B582B01648694675
:10E78000072200F0B9F91549684606F0A9FE88B9D4
:10E790000446134802F07AFE124805F0A3FD124821
:10E7A00002F074FE114B1B68986806F06FF8204663
:10E7B00002B010BD0E4802F069FE0E4805F092FD51
:10E7C000094802F063FE094B1B6898684FF0FF345C
:10E7D00006F05CF8EBE700BF48E6011054E60110D4
:10E7E00008E501105CE60110E4E401109805002042
:10E7F00030E501106CE6011000B585B0FFF7BCFFF5
:10E8000010B105B05DF804FB0F480B2201A900F020
:10E8100073F90E496A4601A806F0EEF80098FFF772
:10E82000C1FE0028EDD10A4802F030FE094805F08B
:10E8300059FD094802F02AFE084B1B68986806F04B
:10E8400025F805B05DF804FB7CE601108CE60110AC
:10E85000F4E4011090E60110E4E4011098050020B2
:10E8600010B586B0164801A9112200F045F91549E6
:10E8700001A806F035FE88B90446134802F006FEEA
:10E88000124805F02FFD124802F000FE114B1B68E4
:10E89000986805F0FBFF204606B010BD0E4802F058
:10E8A000F5FD0E4805F01EFD094802F0EFFD094B8D
:10E8B0001B6898684FF0FF3405F0E8FFEBE700BFF6
:10E8C00098E60110A8E6011008E50110BCE6011069
:10E8D000E4E401109805002030E50110CCE60110B9
:10E8E00070B586B0FFF7BCFF08B106B070BD044636
:10E8F0000B223048304E03A9CDE9014400F0FCF86A
:10E900002E4901AA03A806F077F82D480B2203A987
:10E9100000F0F2F8294902AA03A806F06DF8716820
:10E92000002935D0029D331D204602E00130884287
:10E930002ED053F8042FAA42F8D1831C019A214803
:10E9400046F8232000F03AF91B491E481E4C882245
:10E9500000F038F91D4802F099FDDDE901211C485D
:10E9600002F094FD1B4802F091FD2368986805F0C1
:10E970008DFF194802F08AFD184805F0B3FC1548D0
:10E9800002F084FD2368986805F080FF06B070BD32
:10E99000134802F07BFD0299124802F077FD0D4802
:10E9A00002F074FD084B1B68986805F06FFF06B015
:10E9B00070BD00BFDCE60110200C00208CE60110C9
:10E9C000F0E6011000C007109805002008E50110CE
:10E9D00004E70110E4E40110F4E4011024E701105D
:10E9E00030E501102CE701102DE9F0418AB0FFF766
:10E9F000D7FCDFF86480194F02AE194D0FCD3446B5
:10EA00000FC495E80F0084E80F00082269464046CD
:10EA100000F072F83946684606F070FC00F12803F1
:10EA20000DEB0300002400F8284C56F8341068461B
:10EA300006F056FD48B10134042CDED056F83410EF
:10EA4000684606F04DFD0028F5D10AAB03EBC4047F
:10EA500054F81C3C9847D0E764E7011078E50110B2
:10EA600094E7011000F0BAB8C0B2704770B5044620
:10EA70000D46164600F036F900280DDB33462A46CF
:10EA80000021204600F07CF9002805DB012120460A
:10EA900000F00CF9C01770BD4FF0FF3070BD00BF23
:10EAA00070B504460E4602E00CD000F077FC20461C
:10EAB00000F0B8F800284FF03200F5DA4FF0FF35DB
:10EAC000284670BD204600F0CFF8B0F5807F05469F
:10EAD000F6DC0028F2DBC2B233460321204600F008
:10EAE00037F90028EADB0121204600F015F900285B
:10EAF000E4DB284670BD00BFF8B507461248134E48
:10EB00000C46154602F0C2FC384602F0BFFC104825
:10EB100002F0BCFC3368986805F0B8FE002005F0F0
:10EB2000B5FE0C4802F0B2FC3368986805F0AEFE02
:10EB3000336829465A68204605F052FFBDE8F84080
:10EB4000054805F0CFBB00BF08E50110980500207F
:10EB5000E4E40110B4E7011060E70110094A536AC8
:10EB6000D90703D5516A21F0010151629B0700D4F6
:10EB70007047044A0448536A23F00203536205F0C5
:10EB8000B1BB00BF00900240C0E7011008B50849C2
:10EB9000172000F03DFC074B4FF400021A604FF4C1
:10EBA000407000F081FDBDE80840034801F022BE3E
:10EBB0005DEB001000E100E000A0024016F0B0BFE5
:10EBC00000F070BD0B4611461A4600F069BD00BF4B
:10EBD000014800F0CDBF00BF00E0014010B50C4877
:10EBE0000022012100F060FF044660B9094908488D
:10EBF00000F0A4FF0849242000F00AFC074B102273
:10EC00005A60204610BD064805F06CFB204610BD3A
:10EC100000E00140A0860100D1EB001000E100E01F
:10EC2000E8E7011010B50F498AB00424CDE90210BD
:10EC3000002301228DF806400DF107010DF10604B5
:10EC400002A8CDE90442CDE90612CDE908338DF8DA
:10EC5000073000F087FF0028A8BF9DF807000AB022
:10EC600010BD00BF00E0014010B50F498AB0052477
:10EC7000CDE90210002301228DF806400DF10701B5
:10EC80000DF1060402A8CDE90442CDE90612CDE952
:10EC900008338DF8073000F065FF0028A8BF9DF805
:10ECA00007000AB010BD00BF00E0014030B58BB0D6
:10ECB00005460B4A0292012000238DF8040001AAA8
:10ECC000022402A8CDE90424CDE90633CDE90833B6
:10ECD0008DF80510039500F045FF0BB030BD00BF67
:10ECE00000E0014010B58AB004460A488DF80510CE
:10ECF00000230222029001A902A8CDE90412CDE965
:10ED00000633CDE908338DF80420039400F02AFF80
:10ED10000AB010BD00E0014030B58BB005460B4A8B
:10ED20000292042000230DEB00028DF8040002245F
:10ED300002A8CDE90424CDE90633CDE908338DF8E6
:10ED40000510039500F00EFF0BB030BD00E0014050
:10ED500030B58BB0094D8DF8071003900DF1070108
:10ED60000120CDE90410002402A8CDE90632CDE946
:10ED70000844029500F0F6FE0BB030BD00E0014003
:10ED800070B5CAB08C46054619460DF125001446EB
:10ED90008DF824C006F094FD084B019309AE0023C2
:10EDA000013401A8CDE90533CDE907330295049478
:10EDB000039600F0D7FE4AB070BD00BF00E00140EE
:10EDC00008B50346014802F061FBFEE704E80110C4
:10EDD000002000F0CFBD00BF012000F0CBBD00BF80
:10EDE00010B5002000F05CFB012000F059FB402032
:10EDF00000F056FB104B022218684FF4E13101F08D
:10EE000051FD041E0CDB00F0EBF858B900F088F857
:10EE1000044660B9094B0A484322DA6000F0BEFAA2
:10EE2000204610BD074908486F22FFF7C9FF054972
:10EE300005487422FFF7C4FF000000200044004092
:10EE4000400D030020E8011088E8011000BF704762
:10EE50004FF0FF30704700BF4FF0FF30704700BFEA
:10EE60004FF0FF30704700BF4FF0FF30704700BFDA
:10EE7000F8B5E0B9002A19DD104D0E468F180C4682
:10EE800002E0BB420FD01C46284601F003FEC1B28F
:10EE90002170284601F000FE22780D2A04F10103BA
:10EEA000EFD10A232370C6F10106A019F8BD06F0C0
:10EEB00001FB092303604FF0FF30F8BD0020044040
:10EEC000F8B5431E012B21D8002A174612DD531E28
:10EED000124E4C1ECD1814F8013F0A2B0CD00F48CF
:10EEE00001F0DEFD0028FAD02178304601F0D4FD93
:10EEF000AC42F0D13846F8BD084801F0D1FD0028F9
:10EF0000FAD00D21304601F0C7FDE8E706F0D2FA4D
:10EF1000092303604FF0FF30F8BD00BF002004401C
:10EF2000F8B50D4B1F68A7B100250C4C2E46D4E94F
:10EF3000000100F0F1FC204600F0E8FB013500285C
:10EF400018BF6FF00706AF4204F10C04EFD1304652
:10EF5000F8BD3E463046F8BD90E8011094E8011037
:10EF60000B4B1B68834210B504460BD9094B04EBCD
:10EF7000440403EB840253F824005168BDE81040B8
:10EF800000F0E0BC044905483B22FFF719FFEDE71C
:10EF900090E8011094E80110D4E8011028E901106C
:10EFA0000B4B1B68834210B504460BD9094B04EB8D
:10EFB000440403EB840253F824005168BDE8104078
:10EFC00000F0AABC044905484622FFF7F9FEEDE728
:10EFD00090E8011094E80110D4E8011028E901102C
:10EFE000F8B50B4B1F6887B100240A4D264628460A
:10EFF00000F08CFB0134002818BF6FF00706BC42FC
:10F0000005F10C05F3D13046F8BD3E463046F8BD5B
:10F01000B8E80110BCE801104748854647488047DA
:10F0200080B94749474A484B9B1A03DD043BC858FF
:10F03000D050FBDC4549464A00209142BCBF41F814
:10F04000040BFAE7434880474348804743488047DA
:10F05000FFF7FEFFFEE7FEE7FEE7FEE7FEE7FEE75F
:10F06000FEE7FEE7FEE7FEE7FEE7FEE7FEE7FEE778
:10F07000FEE7FEE7FEE7FEE7FEE7FEE7FEE7FEE768
:10F08000FEE7FEE7FEE7FEE7FEE7FEE7FEE7FEE758
:10F09000FEE7FEE7FEE7FEE7FEE7FEE7FEE7FEE748
:10F0A000FEE7FEE7FEE7FEE7FEE7FEE7FEE7FEE738
:10F0B000FEE7FEE7FEE7FEE7FEE7FEE7FEE7FEE728
:10F0C000FEE7FEE7FEE7FEE7FEE7FEE7FEE7FEE718
:10F0D000FEE7FEE7FEE7FEE7FEE7FEE7FEE7FEE708
:10F0E000FEE7FEE7FEE7FEE7FEE7FEE7FEE7FEE7F8
:10F0F000FEE7FEE7FEE7FEE7FEE7FEE7FEE7FEE7E8
:10F10000FEE7FEE7FEE7FEE7FEE7FEE7FEE7FEE7D7
:10F11000FEE7FEE7FEE7FEE7FEE7FEE7FEE7FEE7C7
:10F12000FEE7FEE7FEE7FEE7FEE7FEE7FEE7FEE7B7
:10F13000FEE7FEE7FEE7FEE70000022005F2001012
:10F14000E85B021000000020CC0B0020000C002027
:10F150006817002009F20010C1570110E9E90010FA
:10F160000B4A08B50346106828B10A4903448B428C
:10F1700007D8136008BD08480649106003448B4255
:10F18000F7D906F097F90C2303604FF0FF3008BD64
:10F19000A80C002000F00120701700204FF08043E1
:10F1A0009A6802F46062B2F5206F20D011D9B2F5EE
:10F1B000406F17D00F4B1049B2F5606F18BF0B4668
:10F1C0004FF080420D499268C2F38212D3400B6027
:10F1D000704752B1084947F23053B2F5C06F18BFBB
:10F1E0000B46EDE74FF40043EAE7054BE8E74FF441
:10F1F000E103E5E7C068780400E1F5056817002041
:10F20000008793030020704710B50A4C0A4BA36097
:10F210000A4801F0EDFAD4F8883043F47003C4F8DA
:10F220008830BFF34F8FBFF36F8FFFF7B7FFFFF744
:10F23000D7FD10BD00ED00E000E0001000A002408E
:10F2400038B54FF0E02318499C691A6922F48032DE
:10F250000A601A69D2071FD46FF07F4405225C61EF
:10F260004FF080759C611A61104B114A1968002398
:10F27000A0FB01010EF07CFF0E4BB0FBF5F205FB8D
:10F28000120084421A600AD81A6801321A602544B2
:10F29000094B281A186038BD5D690135E4E7064B53
:10F2A000201A186038BD00BFB00C0020681700207D
:10F2B00040420F0004000020B40C002010B50C4C9C
:10F2C0000C4B22681960002A0EDC08B9002010BD22
:10F2D000FFF7B6FF2368002BF8DD4FF0E02213693B
:10F2E00043F002031361F1E76FF0050010BD00BFAA
:10F2F00004000020AC0C0020F8B5174C2368002B4C
:10F300001EDB26682EBB154B4FF0E0251B68AA6953
:10F310009A421ED8124F3B685BB16FF00F009847BE
:10F32000104B3E601A682A614FF0FF3323600020C3
:10F33000F8BD0C4A4FF0FF3312682A612360F6E7EC
:10F34000074C2368002BF2D000209847002323604D
:10F35000EDE76FF00500F8BD04000020B40C0020BC
:10F36000AC0C0020B00C002010B5094C236823B170
:10F370006FF00F00984700232360064A064B106881
:10F380004FF0E0214FF0FF3208611A6010BD00BF5E
:10F39000AC0C0020B00C00200400002038B5184C44
:10F3A0002268002A29DC08B9002038BDFFF748FF91
:10F3B0004FF0E02202E01369DB031AD42368002B2C
:10F3C000F9DC104B1A684FF0E0218B699342FCD8AE
:10F3D0000D4D2B6823B16FF00F00984700232B6071
:10F3E0000A4B4FF0E022196811614FF0FF332360A0
:10F3F000DAE72368013B2360E0E76FF0050038BDE2
:10F4000004000020B40C0020AC0C0020B00C002044
:10F41000F8B50F4E0F4BB2689A4204460D4600F104
:10F42000100707D018460C494FF4F07206F048FA5E
:10F430000346B060002C43F8275007DB074A6109F8
:10F44000012304F01F04A34042F82130F8BD00BF9F
:10F4500000ED00E0000E002000E0001000E100E000
:10F460003F2808D90D4A4038D168C0B201238340F3
:10F470000B43D36070471F284FF0804207D92038D4
:10F48000916CC0B2012383400B4393647047516A6F
:10F49000012383400B435362704700BF00000840C4
:10F4A0003F2809D90E494038CB68C0B201228240BA
:10F4B00023EA0203CB6070471F284FF0804108D930
:10F4C00020388B6CC0B20122824023EA02038B6495
:10F4D00070474B6A0122824023EA02034B62704765
:10F4E0000000084010B507280AD8DFE800F00C0932
:10F4F000092333475B04BDE81040364800F006B9E5
:10F500006FF0020010BD4FF080440021A36843F467
:10F510008023A3604FF47A70FFF7D0FE03E0FFF77B
:10F52000EBFE063052D1A3685901F8D5FFF71CFF56
:10F53000002010BD00214FF47A70FFF7BFFE4FF09E
:10F54000804403E0FFF7D8FE06303FD1A3689A005D
:10F55000ECD4F7E74FF080440021A36843F4002384
:10F56000A3604FF47A70FFF7A9FE03E0FFF7C4FE33
:10F5700006302BD1A3681B01F8D5D7E74FF08044A4
:10F580000021A36843F48013A3604FF47A70FFF75F
:10F5900095FE03E0FFF7B0FE063017D1A368D80050
:10F5A000C4D4F7E74FF080440021A36843F400334C
:10F5B000A3604FF47A70FFF781FE03E0FFF79CFE33
:10F5C000063003D1A3689B01B0D4F7E76FF00900C0
:10F5D00010BD00BF8CE901103F2809D940380F4900
:10F5E000C0B2012282408A608B681A42FCD1704707
:10F5F0001F280AD92038C0B201224FF08041824032
:10F600004A644B6C1A42FCD1704701224FF0804192
:10F6100082404A604B681A42FCD1704700000840A3
:10F62000820733D100F17043B3F5002F84460A46B8
:10F6300029D3A0F18453B3F5804F27D220F00F03D4
:10F64000A3F18453B3F5804F20D243F6F073034007
:10F6500003F5002300B50F4883B0614616F05CFA4D
:10F660004FF08042136843F04003136013685B0659
:10F67000FCD44FF08052084B126801921B68019332
:10F6800003B05DF804FB054B0340E3E76FF00200B5
:10F69000704700BF0090024000200010F0FF0700FC
:10F6A00016F036BA16F030BA00F000B810F4407315
:10F6B00006D0054A11684A6A134300204B6270471E
:10F6C0006FF00200704700BF08000020C10710B5AE
:10F6D000044608D4A2070BD463070ED42046BDE825
:10F6E000104001F0BDBB0020FFF7DAFEA207F3D502
:10F6F0000120FFF7D5FE6307F0D54020FFF7D0FECD
:10F700002046BDE8104001F0ABBB00BF70B57F4B99
:10F7100005689D42044637D003F580539D4220D0B2
:10F7200003F5EE2303F580639D427FD07848281AC5
:10F73000B0FA80F04009C000FFF7C8FF744B2268A0
:10F740009A4215D06268217A284600F04BF9D0B968
:10F75000637A042B00F2D780DFE803F05A4C3E2F87
:10F7600018000220FFF7B2FF694B22689A42E9D1E4
:10F77000237A012B00F0BB80022B00F0A580002B28
:10F7800056D06FF0100070BD0120D5E72B6E626877
:10F7900023EA02032B666B6E13436B66D5F8B83011
:10F7A00023EA0203C5F8B830594BA17A9D4239D0FB
:10F7B0002846BDE8704000F0FFB82B6E6268134326
:10F7C0002B666B6E23EA02036B66D5F8B83023EA2A
:10F7D0000203C5F8B830E7E72B6E626823EA02033C
:10F7E0002B666B6E13436B66D5F8B8301343C5F8C0
:10F7F000B830D9E72B6E626813432B666B6E23EA31
:10F8000002036B66D5F8B8301343C5F8B830CBE7C0
:10F810002B6E626823EA02032B666B6E23EA0203F7
:10F820006B66C1E70029ACD0002070BD042083E7DF
:10F830006368384958001A010E6A00F0020002F0AD
:10F840002002024326EA02020A628A68C3F34003E6
:10F85000034322EA03038B60637A042B91D8DFE829
:10F8600003F0261B031B030062682A49D300086AC1
:10F8700003F0100302F00106334320EA03030B6296
:10F8800056019300086A03F0040306F04006334370
:10F8900020EA03030B6287E71E4962680E6AD30001
:10F8A00002F0010003F0100330430343E7E762680E
:10F8B000184893005101066A03F0040301F0400167
:10F8C0000B43334303626FE76368124958001A0120
:10F8D0000E6A00F0020002F02002024332430A6284
:10F8E0008A68C3F34003034313438B60B4E7636840
:10F8F000084958001A010E6A00F0020002F02002C6
:10F9000002433243A0E76FF0020070BD0080004068
:10F9100000060840006C0040084A904201D000F008
:10F9200043B8074810B4046ACA0001F0010121433A
:10F9300002F010030B4310BC03627047000608403E
:10F94000006C0040094A904201D000F02FB810B47A
:10F95000074CCA00206A02F0100201F0010142EADD
:10F96000010320EA0303236210BC7047000608402D
:10F97000006C004001F086BA034A904201D000F0CA
:10F9800017B8024AD161704700060840006800407D
:10F99000034B984201D000F00DB8024BD869704774
:10F9A0000006084000680040C1617047016270476E
:10F9B00081647047006C704759B1012906D1D0F8B5
:10F9C000C0301343C0F8C030002070476FF0020011
:10F9D0007047D0F8C03023EA0203C0F8C0300020DE
:10F9E000704700BF036B13430363426005292CD8A3
:10F9F000DFE801F00A12191F2503C0F8882082678A
:10FA0000C266826000207047426142600267C2673E
:10FA1000C0F8882000207047026142600267C26718
:10FA2000C0F88820EEE7C0F88820C26702678260CD
:10FA3000E8E7C0F88820C267C2668260E2E7C0F8E3
:10FA40008820826702678260DCE76FF002007047FF
:10FA500000F0FAB808B5114B98420DD0104B9842FF
:10FA600011D0104B984215D13820FFF7F9FC342003
:10FA7000FFF7B2FD002008BD0D20FFF7F1FC1020BC
:10FA8000FFF7AAFDF6E71C20FFF7EAFC2020FFF7AE
:10FA9000A3FDEFE76FF0010008BD00BF00D00140FB
:10FAA00000E0014000F00140C0B370B504460D46CF
:10FAB0001646FFF7CFFF1B4B9C4212D01A4B9C42BD
:10FAC0001CD01A4B9C4226D13820FFF7E9FC18487D
:10FAD000FFF71CFE324629462046BDE8704000F084
:10FAE0004DB80D20FFF7DCFC1248FFF70FFE324641
:10FAF00029462046BDE8704000F040B81C20FFF7C2
:10FB0000CFFC0D48FFF702FE324629462046BDE8ED
:10FB1000704000F033B86FF0010070BD4FF0FF305F
:10FB2000704700BF00D0014000E0014000F00140FC
:10FB300068E9011080E9011074E9011000F09EB835
:10FB400000F0ECB800F0FAB800F00CB900F018B909
:10FB500000F034B900F04AB900F050B900F056B9DD
:10FB600000F058B900F0C2B900F090BA00F09EBAA7
:10FB7000014B196800F008BE0C000020F8B5002801
:10FB800057D00F46102115460446FFF7E9FF0646F9
:10FB900008B13046F8BD236843F0010323602046D6
:10FBA000FFF7D8FF2046FFF7D7FF02212046FFF7D7
:10FBB000DDFF06212046FFF7D7FFDFB123681E4A8D
:10FBC00043F00203944223602FD01C4B9C420FD081
:10FBD00003F580539C4214BF4FF0FF340224184BAE
:10FBE00004EB440403EBC40301225A603046F8BD21
:10FBF0000124F4E73A4629462046FFF729FF0E4B39
:10FC00009C4209D003F580539C4210D00D4FBC425A
:10FC100014BF4FF0FF370227094B07EB470103EBF7
:10FC2000C10300225A603046F8BD3446D7E70127A9
:10FC3000F2E74FF0FF36ACE700D0014000E00140B2
:10FC40000810002000F001400346A0B16AB9B1F5E8
:10FC5000806F0DD27F29C26484BF4FF40042C2641A
:10FC6000C26C0A430020DA6470476FF010007047DE
:10FC70006FF0020070474FF0FF30704700283FD010
:10FC800010B4214AA1F574236FF4107423449342F5
:10FC900013D31E4B99422FD81D4B1B685B08B3FB37
:10FCA000F1F35B089A1EB2F5FF7F03F1FF3323D80F
:10FCB000436310BC8363FFF743BF154B154C1B68B0
:10FCC0005B08B3FBF1F14A00A4FB01C14908A4FBA6
:10FCD0000242013952080F2902F1FF320CDC0F2ACF
:10FCE0000ADC090289B2D2B20A43C26302680A4935
:10FCF00042F400420260D2E76FF0020010BC70478D
:10FD00004FF0FF30704700BF009F240040E13300F8
:10FD100068170020ABAAAAAA801A06000649436BFE
:10FD2000826B0868C2F30802C3F308031344400857
:10FD3000B0FBF3F0704700BF6817002070B1036B91
:10FD400013F0010F036B04D143F0010303630020A0
:10FD5000704743F002030363002070474FF0FF3009
:10FD6000704700BF48B1036B43F004030363036BA8
:10FD700013F00403FBD1184670474FF0FF30704773
:10FD8000C8B1C1B1AAB100B5002301F1FF3E07E03F
:10FD9000C16A01335FFA81FC9A420EF803C005D0B4
:10FDA00041688907F4D518465DF804FB10465DF8F4
:10FDB00004FB104670474FF0FF30704798B191B187
:10FDC0007AB1002301F1FF3C06E001339A421CF8AE
:10FDD0000310C9B2C16204D04168C906F5D51846FE
:10FDE0007047104670474FF0FF307047C36943F0CB
:10FDF0008003C361C3691B06FCD47047436A43F0A8
:10FE000080034362436A1B06FCD470478160026131
:10FE1000704700BF002865D0036843F001032DE957
:10FE2000F04103600768036843F480630E460446AC
:10FE300007F480670360002943D000252BE0FFF71B
:10FE4000ADFA236823F0800323600A20FFF7A6FAA7
:10FE5000236813F400784FF00A002BD1FFF79EFAC5
:10FE6000236843F0800323600A20FFF797FA236892
:10FE70009A054FF00A001DD5FFF790FA236843F06A
:10FE8000400323600A20FFF789FA2368DB0525D4A5
:10FE90000135AE4215D00A20FFF780FA236823F01F
:10FEA000400323600A20FFF779FA2368D9054FF051
:10FEB0000A00C4D52368013543F0C003AE42236075
:10FEC000E9D16FF008001FB9236823F48063236031
:10FED000236823F001032360BDE8F0814046002F32
:10FEE000F6D1F1E74FF0FF30704700BF2DE9F04148
:10FEF000D0E900437F2B00F2C380634B9C42054650
:10FF000008D003F580539C4204D003F580539C42F3
:10FF100040F0B08023689E0740F1AF8007226FF069
:10FF20007F412046FFF71AFE2046FFF715FE2046C8
:10FF3000FFF710FE6A690023E360636142BBEA6871
:10FF40006B685B00E362236B43F0010300262363CD
:10FF5000202704E0A36813F4FE4F11D1EA6896420B
:10FF600019D2A3689806F5D5A968921B314420469A
:10FF7000FFF7EEFDA760A36813F4FE4F0644EDD033
:10FF8000EE602046FFF7E0FD6FF00800BDE8F0816D
:10FF9000EA68002AD4D1002211212046FFF7DEFDB5
:10FFA0006B69002B4AD0B3F5807F88BF00232362A2
:10FFB0002046FFF7C7FD266B16F00206FBD16B68E3
:10FFC0006A695B0043F00103E362002A36D0102720
:10FFD0004FF001081DE0A36813F4FE4329D1A16886
:10FFE0006A69C90713D59642A2EB06010FD9B1F58C
:10FFF000807F8CBF23622162236B43F00203236363
:020000041001E9
:100000006B68C4F808805B0043F00103E36296422A
:1000100014D2A36813F0110FDDD02969921B31446B
:100020002046FFF793FDA760A36813F4FE43064440
:10003000D5D06E612046FFF787FDA5E7AB6973B1A8
:10004000236B43F002032363A368DB07FCD5412342
:10005000A360A06810F4FE4096D1BDE8F081236B48
:1000600043F004032363A3685A06FCD5A368DB07A7
:10007000EAD5ECE76FF00200EFE76FF00600ECE77F
:100080006FF01000E9E700BF00D001408269D2B2F2
:100090008A42034607D3C26922F4706242EA012110
:1000A0000020D96170476FF0020070478269C2F387
:1000B00007228A42034607D3426A22F4706242EA68
:1000C00001210020596270476FF00200704700BFA5
:1000D0002DE9F84FDFF898A2DFF898925AF82060DF
:1000E00059F82080054620B3012800F09C80A24CDE
:1000F000DFF888B202280CBF234600235BF820708B
:100100009B6813F4FE4F40F0B280FA68B242114689
:100110002FD87B69434546D9A16811F0110F37D11B
:10012000B24200F0EB804AF8256049F82580BDE82E
:10013000F88F934CDFF844B2A368DBF8007013F437
:10014000FE4FE2D0A368A360236923612046E560E7
:100150006561FFF7F9FCDBF80000C36913B16FF0CC
:1001600008019847E5606561A368A360236923617E
:1001700096E0A368990600F19880E36843F02003B5
:10018000E3607B699845CED2A16811F0110FC7D00A
:100190003969A3EB080241442046FFF7D7FC10233E
:1001A000F968A3608044B142BDD17B69434540F00A
:1001B000A5800023E3606361A368A360BB69226933
:1001C0002261002B40F0B380236B43F004032363D0
:1001D000A36813F4FE4F6A4B00F0BC809C4200F011
:1001E000DA8003F580539C4200F00581DBF80800BB
:1001F000C369002B00F0E3806FF0080198470023EB
:10020000E3606361A368A3605D4B226922619C4245
:1002100000F0CD805B4B9C4200F0E4800222002382
:100220004BF8223083E7574CDFF850B1A368DBF876
:10023000047013F4FE4F3FF468AFA368A360236912
:1002400023610026E66020466661FFF77DFCDBF84F
:100250000400C369002B00F0C7806FF008019847C5
:10026000E6606661A368A3602369236118E0A36860
:10027000A360236923610025E56020466561FFF7DF
:1002800063FCDBF80800C369002B7DD06FF0080128
:100290009847E5606561A368A3602369236102252F
:1002A00000234BF82530BDE8F88FB968921B314424
:1002B0002046FFF74DFCFA6806442023B242A360B3
:1002C0003FF65BAFE36823F02003E3607B697FF4D4
:1002D00059AF002B3FF46AAF226B42F00202226357
:1002E0000122A260E268984542F00102E260BFF498
:1002F0005DAFA26812F0110F7FF44AAFA268D20777
:100300007FF511AF0122A260B8F1000F14D17A6815
:100310005200B3F5807F42F00102E2628CBFC4F864
:1003200020802362E36843F01103E360FBE6236B64
:1003300043F0020323634BE7A3EB0802B2F5807F8F
:1003400088BF002298452262ECD3E36823F01103B2
:10035000E360E8E69C422CD003F580539C4236D003
:10036000DBF80800C36953B30021984747E700BF93
:10037000EC0F0020E00F002000F00140F80F0020FB
:1003800000D0014000E00140E3606361A368A36026
:100390002369236183E7DBF80000C369002B7FF446
:1003A0002BAFE3606361A368A3602369236100222C
:1003B00035E7DBF80000C369002BD5D1F1E7114A1E
:1003C000D3605361936893601369136126E7DBF888
:1003D0000400C369002BC7D1E3606361A368A36015
:1003E0002369236101221AE7E3606361A368A360C4
:1003F0002369236154E7DBF80400C369002B7FF411
:10040000FBAEE9E700F001402DE9F04715460E4646
:100410001268B249D0F80890002711401F600446C6
:100420000768984600295AD119F4FE4F40F0CF8052
:10043000D30640F1A48119F0100F00F04881002E7E
:1004400000F05C81002202212046B0471023A36007
:100450002369DA0705D5002206212046B04701238B
:1004600023612A6848F22003134200F0DF8019F06C
:10047000200F09F4004A00F0FC80002E00F04581B6
:10048000032100222046B0472023A3602369990757
:1004900000F1F580BAF1000F40F0FA8019F0400F3A
:1004A00000F06881C8F800A0424604212046B04709
:1004B0008B4A002340219442A1602B606B600AD0DC
:1004C000884B9C4200F0318103F580539C420CBF65
:1004D00002234FF0FF33844A002142F8231019F41D
:1004E000800F11D01EB1002211462046B0474FF4B4
:1004F0008003A3600823A3604FF40043A36047F682
:1005000011732B6001236B6019F4000F0ED01EB124
:10051000002201212046B0474FF40003A3600823C6
:10052000A3604FF620732B6002236B6019F0080F55
:1005300017D017F4006200F08C801EB10022012158
:100540002046B0474FF480020823A2604FF40041D8
:10055000A3604FF620720223A1602A606B60BDE8A1
:10056000F08719F4FE4FFAD06FF00803C8F8003096
:100570001EB1424604212046B04707236FF07F4258
:10058000A2602361636A43F080036362636A1B06AF
:10059000FCD4E36943F08003E361E36913F0800373
:1005A000FBD14F4A2B6094426B600AD04D4B9C426A
:1005B00000F0BF8003F580539C4214BF4FF0FF331F
:1005C0000223494A002142F82310BDE8F0876FF06A
:1005D0000803C8F8003016B142460421B04707228C
:1005E0006FF07F412046FFF7B9FA2046FFF7B4FAD3
:1005F0002046FFF7AFFA3A4A002394422B606B6023
:100600000AD0384B9C4200F0928003F580539C4204
:100610000CBF02234FF0FF33334A002142F823106E
:100620002A6848F2200313427FF421AF6B689807D1
:100630003FF51DAF19F0400F3FF451AF0023C8F84C
:100640000030002E3FF434AF424604212046B0472C
:100650002EE716B111462046B04708234FF400019B
:10066000A16047F61172A36001232A606B60BDE8A8
:10067000F087236913F0020338D0002E5BD00022EC
:1006800005212046B04702232361BAF1000FD1D0E3
:100690000023C8F80030424604212046B047104AE3
:1006A00000234FF400419442A1602B606B6009D09D
:1006B0000C4B9C4259D003F580539C420CBF022343
:1006C0004FF0FF33084A002142F82310B2E72369B4
:1006D000DB07A6D5002E7FF4BEAEC0E60800C00042
:1006E00000D0014000E00140F80F0020BAF1000FF7
:1006F000A0D0C8F80030002ED1D0CCE71023A360E2
:100700002369D9073FF5ABAEABE62023A36023698D
:100710009A0721D4BAF1000F23D119F0400F26D146
:1007200019F4800F7FF4E3AEEEE60123D3E6012354
:1007300072E7012345E702232361BAF1000F10D1CC
:1007400019F0400F13D119F4800F7FF4D0AE19F4D3
:10075000000F7FF4E1AEE9E602232361BAF1000F56
:10076000DBD00023C8F8003099E70123AAE7C8F8D6
:1007700000609DE619F4800F7FF4B5AEC4E66B68A7
:10078000D8073FF558AE4CE730B5174B984285B0C7
:10079000044624D003F58053984205D003F58053D6
:1007A00098421ED005B030BD012023689B0704D5B8
:1007B00005B0BDE83040FFF78BBCE5680B4B6269C4
:1007C00053F82010CDE9025201AB02AA2046FFF7F0
:1007D0001BFEDDE90223E260636105B030BD00204D
:1007E000E3E70220E1E700BF00D00140F80F00205E
:1007F00000F002B800F018B8D0F80031012223F060
:100800000103C0F80031C0F80027D0F80031DA0346
:10081000FBD5D0F8003143F00103C0F80031D0F827
:100820000031DB03FBD57047D0F8003123F0010322
:10083000C0F80031704700BF08B5164B984210D081
:10084000154B984214D0154B984218D0144B98422F
:100850001CD14420FEF7C0FE4420FEF701FE00201C
:1008600008BD0B20FEF7B8FE0920FEF7F9FDF6E7FC
:100870000C20FEF7B1FE0A20FEF7F2FDEFE71C2088
:10088000FEF7AAFE2120FEF7EBFDE8E76FF002007D
:1008900008BD00BF00200440003004400040044078
:1008A0000014084070B504460E461546FFF7C4FF15
:1008B000A8BB022D2DD0042D18D0204B9C421BD05C
:1008C0001F4B9C422CD01F4B9C4230D01E4B9C4255
:1008D00023D11E48FEF71AFF4420FEF7E1FD2A4609
:1008E00031462046BDE8704000F0F8B80620FEF71B
:1008F000F9FD124B9C42E3D11548FEF707FF092092
:10090000FEF7CEFD2A4631462046BDE8704000F095
:10091000E5B80520FEF7E6FDCFE76FF0020070BDF9
:100920000C48FEF7F3FE0A20FEF7BAFDD7E70A48A7
:10093000FEF7ECFE2120FEF7B3FDD0E700200440D7
:1009400000300440004004400014084038E9011021
:100950005CE9011050E9011044E90110314B984263
:1009600010B5044615D003F58053984211D003F515
:10097000805398420DD003F57533984206D1052374
:10098000022A436114D0042A32D08AB16FF00200E7
:1009900010BD042AFAD0204600F0D8F80028F7DD70
:1009A000236843F40043236023681B03FCD510BD78
:1009B0004FF4E103B3FBF1F301FB03F2C2F5E102F3
:1009C00013B1B2EB510F00D90133174A136110680C
:1009D00000F44030B0F5803F05D0136813F4403F79
:1009E000D4D14FF4E100104B1B69B0FBF3F0D5E715
:1009F000036843F4803303600368B1F5166F43F472
:100A0000001303600AD9002343614FF48033B3FB22
:100A1000F1F301FB03F2C2F58032D1E70123436118
:100A2000F3E700BF0020044000140840124B984236
:100A30001CD003F58053984218D003F58053984298
:100A400014D003F57533984212D1036803F4403390
:100A5000B3F5803F05D0036813F4403F08D14FF44D
:100A6000E103064A1069B3FBF0F0704700F0BAB832
:100A70006FF00200704700BF0020044000140840DF
:100A800000F0F0B800F00EB900F030B900F084B911
:100A900000F09EB900F008B800F012B800F0B6B946
:100AA00000F0B8B900F0BCB910B504462046FFF715
:100AB000F5FF0028FAD02046BDE81040FFF7E6BF5A
:100AC00038B504460D462046FFF7EAFF0028FAD065
:100AD00029462046BDE83840FFF7DABF1A4B984256
:100AE00070B504460D4616460BD003F58053984268
:100AF00007D003F58053984203D003F5753398422D
:100B00001FD101212046FFF7CDFF00B170BD0821A4
:100B10002046FFF7B5FF0028F8D101462046FFF731
:100B2000B3FF0028F2D101462046FFF7ABFF0028B3
:100B3000ECD1324629462046FFF710FF00EAE0706C
:100B400070BD6FF0020070BD00200440224B98423F
:100B50000BD003F58053984207D003F58053984299
:100B600003D003F57533984232D10523012A10B41E
:100B7000436123D0022A14D01AB16FF0020010BCD6
:100B80007047164B1A685208B2FBF1F301FB1322AF
:100B900013B1B2EB510F00D9013310BC0361FFF761
:100BA00045BF04684FF4E10344F40034B3FBF1F3B0
:100BB00001FB03F2C2F5E1020460E9E70468084AB8
:100BC000B2FBF1F344F48034046001FB1322DFE74D
:100BD0006FF00200704700BF00200440681700203B
:100BE000C06878041C4B98420BD003F580539842A0
:100BF00007D003F58053984203D003F5753398422C
:100C000022D1036803F44033B3F5803F17D0036863
:100C100013F4403F0CD0036803F44033B3F5003FB6
:100C200008BF4FF4E10312D10069B3FBF0F0704745
:100C30000A4B00691B685B08B3FBF0F07047084B78
:100C40000069B3FBF0F070476FF002007047036873
:100C50006FF00200704700BF0020044068170020BA
:100C6000C06878040E4A904203460BD002F58052C9
:100C7000904207D002F58052904203D002F57532BF
:100C800090420AD10539032907D81A6822F4406234
:100C900042EA812200201A6070476FF0020070471C
:100CA00000200440104B98420BD003F5805398422B
:100CB00007D003F58053984203D003F5753398426B
:100CC00008D151B1012905D1036843F48053036071
:100CD000002070476FF002007047036823F48053D0
:100CE00003600020704700BF00200440294B984259
:100CF0000BD003F58053984207D003F580539842F8
:100D000003D003F57533984241D104293FD8DFE879
:100D100001F0111724310300036843F0100303604E
:100D2000036843F020030360036843F0400303605B
:100D300000207047036823F0100303600020704711
:100D4000036843F010030360036823F0200303608B
:100D5000036823F040030360EAE7036843F01003ED
:100D60000360036823F020030360036843F040033B
:100D70000360DDE7036843F010030360036843F09A
:100D800020030360036823F040030360D0E76FF0A3
:100D900002007047002004400C4B98420BD003F532
:100DA0008053984207D003F58053984203D003F54F
:100DB0007533984204D14368DB0604D4006A704757
:100DC0006FF0020070476FF00C0070470020044085
:100DD0000D4A904203460BD002F58052904207D054
:100DE00002F58052904203D002F57532904205D14F
:100DF000586810F0800004D1196270476FF002004B
:100E000070476FF00B007047002004404068C0F34B
:100E1000032070474068C0F30330C0F108007047FA
:100E20000E4A904203460BD002F58052904207D002
:100E300002F58052904203D002F57532904209D1FA
:100E40004A1E072A06D81A6822F00F021143002012
:100E5000196070476FF00200704700BF0020044027
:100E600010B5064C217831B905484FF4007204F0F2
:100E7000F3F901232370002010BD00BF50100020A3
:100E8000541200200328F8B507461DD818BB144D8E
:100E90002846FEF77DFD044601462846FEF76CFD18
:100EA0008CB1104E104D06EBC71605EBC715E307C6
:100EB00003D52B680BB130689847640806F1040627
:100EC00005F10405F3D1F8BD084909485A22FDF798
:100ED00077FF0025DCE7074B421E53F82250D7E787
:100EE00000800040541000205412002098E90110A6
:100EF00008EA011028EA0110024B0146186800F0C8
:100F00000BB800BF98050020024B0146186805F099
:100F100077BE00BF980500202DE9F04F01F10B05C9
:100F2000162D85B0064624D8102900F2B18003F0B2
:100F300081F9102518234FF0020CBA4F3B44A3F15E
:100F400008025C68944200F022816368E268A1684C
:100F500023F00303CA602344304691605A6842F08C
:100F600001025A60083403F06BF9204605B0BDE871
:100F7000F08F35F0070500F18B80A94200F28880E0
:100F800003F058F9B5F5FC7FC0F073816B0A00F0EF
:100F90008380042B00F22281AB0903F1390C03F1A9
:100FA000380E4FEACC039F4F3B44A3F108005C6826
:100FB000A04207D10DE0002AE16880F2E280884279
:100FC00007D00C46636823F003035A1B0F2AF2DD97
:100FD000F446DFF854823C69444500F0BF80636802
:100FE00023F00309A9EB05030F2B00F34781002B26
:100FF000C7E9048880F23181B9F5007FD7F804E0B1
:1010000080F0CC804FEAD90101314FEA5919012310
:1010100003FA09F357F83120A2604EEA030E07EBFA
:10102000C103083BE360C7F804E047F83140D460EF
:101030004FEAAC0301209840704534D810EA0E0FF7
:1010400007D12CF0030C400010EA0E0F0CF1040C39
:10105000F9D007EBCC0A5246E146D1680EE04B6866
:1010600023F00303A3EB050EBEF10F0F0C46C96876
:1010700000F3C180BEF1000F80F2E2808A42EED11F
:1010800009F1010919F0030F02F10802E5D121E18C
:101090000C233360002468E74FF400734FF0400CDA
:1010A0004FF03F0E7FE7BC68636823F00309A94552
:1010B00003D3A9EB05030F2B53DC5C4BDFF870B1B6
:1010C0001B68082003F1100804F0FAF9DBF800307F
:1010D00001900133A84404EB090205D008F1FF3860
:1010E0008044434203EA080841463046029204F035
:1010F000B9F9B0F1FF3F029A824600F0DC808242EB
:1011000000F2D7804B4B01991868404401F1FF3140
:101110001860844640F0FC801AEA010F40F0F88025
:10112000D7F808A0C84448F00102CAF80420424B8E
:101130001968814238BF1860404B1968814238BF36
:101140001860544622F00308A845A8EB050301D314
:101150000F2B06DC304603F073F89BE7D7F804E06A
:1011600066E7621943F0010345F00105656030460A
:10117000BA60536003F064F80834204605B0BDE857
:10118000F08FA2682344D16030468A60E6E6DC68CE
:10119000A3427FF4DAAE0CF1020C1AE7B9F5206F26
:1011A0004FEA59227ED3142A00F2158102F15C0322
:1011B000DB005B32F918FB580839994203D1F0E0A3
:1011C0009B68994204D05A6822F003024A45F7D836
:1011D000D968C4E902318C60DC6029E7142B6DD931
:1011E000542B00F201812B0B03F16F0C03F16E0EF7
:1011F0004FEACC03D7E63046A668621945F00105F0
:101200006560F1608E604EF00101C7E90422C2F80A
:101210000880C2F80C80516044F803E003F010F835
:101220000834A2E6180000202000002084140020CA
:101230001000002054140020801400207C14002092
:10124000234430465A6842F001025A6054F8083F7D
:10125000D9608B6002F0F4FF87E6A1443046D9F8EC
:10126000043043F00103C9F80430083402F0E8FF09
:101270007BE64FEAD50C05F108035EE6621943F000
:10128000010145F0010565603046C7E90422C2F856
:101290000880C2F80C80516044F8093002F0D0FF99
:1012A000083462E64FEA991202F13903DB00383262
:1012B00080E7BC4224D0BC68626843E703F15C0C61
:1012C00003F15B0E4FEACC036DE65AF8083953453B
:1012D00040F0D8801CF0030F0CF1FF3CF5D17B6887
:1012E00023EA00037B60400098423FF6DCAE18B969
:1012F000D9E6400009F104091842FAD0CC46A8E624
:10130000614B0199186808EB000C0139C3F800C063
:10131000DBF8000001301BBFAAEB02026244CBF8ED
:1013200000A01A601AF00702CDE9022342D0C2F1F0
:101330000802019B9244D044134408EA01001A1A9F
:1013400002EA010B5946304604F08CF8421C039B1C
:101350007AD0A0EB0A0000EB0B081868C7F808A0C9
:1013600048F001025844BC42CAF8042018603FF417
:10137000DEAEB9F10F0F42D96168A9F10C0222F07B
:10138000070201F0010111436160A1184FF0050C43
:101390000F2AC1F804C0C1F808C04AD8DAF80420FE
:1013A000C5E69210012000FA02F24EEA020EC7F8DA
:1013B00004E00EE7019B0AEB08020A409A1A02EACF
:1013C000010B5946304604F04DF8431C039BC0D135
:1013D000DDF808B0C1E7542A15D84FEA193202F1F6
:1013E0006F03DB006E32E5E6B3F5AA7F15D8EB0B91
:1013F00003F1780C03F1770E4FEACC03D3E5012318
:10140000CAF80430A6E6B2F5AA7F25D84FEAD93249
:1014100002F17803DB007732CCE640F2545293427B
:1014200025D8AB0C03F17D0C03F17C0E4FEACC0305
:10143000B9E5304604F10801019305F0E1FB019B99
:10144000D7F808A01868A9E7029A083A9044A8EBD0
:101450000A084FF0000B80E740F254539A420DD82F
:101460004FEA994202F17D03DB007C32A2E64FF4A1
:101470007E734FF07F0C4FF07E0E94E54FF47E7339
:101480007E2297E67B682EE7541400200FB400B547
:10149000074983B004AB086853F8042B81680193B3
:1014A00000F008F803B05DF804EB04B0704700BF2B
:1014B000980500202DE9F04FDFB01C4607919146BA
:1014C000834603F077FF03681993184604F098FAEF
:1014D0000822189000212EA80D9403F0BDFEBBF148
:1014E000000F04D0DBF83430002B01F07F80079B25
:1014F0005A6EB3F90C30D50702D4980540F19F8697
:10150000990407D407994A6E43F4005322F4005219
:101510008B814A661A0740F1CC80079A1269002A2B
:1015200000F0C78003F01A020A2A00F0D1800023DD
:10153000CDE93333CDE91B33CDE91D3313931A9332
:101540000A9300240023CDE9163435AA329290463E
:10155000CDF820B04D46089F2E468D4BD3F8E44081
:1015600003F022FF03462EA8009032462AA93846EF
:10157000A047002800F0CB80C0F2C1802A9A252A1B
:10158000034601D01E44E8E7771B044640F0C280C2
:1015900000238DF89F3099460B934FF0FF327378FC
:1015A0000992741C0134A3F120025A2A00F2F2803D
:1015B000DFE812F0C702F000F000C302F000F00014
:1015C000F0006A00F000F0007D02A002F000880246
:1015D000A902F000A5025B005B005B005B005B0002
:1015E0005B005B005B005B00F000F000F000F000CF
:1015F000F000F000F0007101F00008022203710118
:1016000071017101F000F000F000F0001E03F00025
:10161000F000DA02F000F000F0002602F0000B0308
:10162000F000F0001707F000F000F000F000F0000C
:10163000F000F000F0007101F000080258027101A2
:1016400071017101960258020402F0008C02F00050
:101650004D033F073B030402F00026027D003A07DA
:10166000F000F0004307F0007D00A3F130020021FC
:1016700014F8013B01EB810102EB4101A3F13002BF
:10168000092AF5D90B918EE7089F384603F092FEA0
:1016900043681D93184604F0B3F91E900646384679
:1016A00003F088FE83681B93002E40F02186237888
:1016B00078E7079D5846294603F080FC002841F052
:1016C000A683B5F90C3003F01A020A2A7FF42FAF73
:1016D0000799B1F90E20002AFFF629AF4A6ED50707
:1016E00002D4980541F1BF81079923464A465846DE
:1016F00001F004FD0A900A985FB0BDE8F08F08225F
:1017000000212EA803F0A8FD01231E4425E7771B26
:10171000044611D0349B3B443493339B0133072B55
:10172000C8E90057339313DC08F108080A9B3B44CF
:101730000A93002C7FF42CAF349BDDF820B0002BF3
:1017400041F0D680079B0022B3F90C30339212E0AF
:10175000DDE9071032AA01F04DFD48B90DF1D408BA
:10176000E4E7BB460C9B1BB10C99584605F048FAC0
:10177000079BB3F90C30079A526ED40740F11481DD
:10178000590601F150830A985FB0BDE8F08F00BFA1
:101790002C040020CDE90E34002BCDD000228DF892
:1017A000143101238DF89F2006930C929B460992D9
:1017B00014921092129245AD19F0020302D00699CC
:1017C0000231069119F08407349C05D10B990698D3
:1017D0000E1A002E00F3A78082B10122C8F804205F
:1017E000339A013201340DF19F01072A3494339268
:1017F000C8F8001000F3E18308F1080883B1339BB7
:1018000028AA01330234C8F80020072B4FF0020247
:1018100034943393C8F8042000F3DD8308F10808FA
:10182000802F00F0BE82099BA3EB0B06002E00F375
:10183000FD8219F4807F40F01982339BC8F8005074
:1018400001335C44072BC8F804B03494339300F39D
:101850004D8308F1080819F0040F05D00B9B069A78
:101860009D1A002D00F3C383DDE90A3206998A42EE
:10187000ACBF9B185B180A93002C40F00F83002329
:1018800033930C9B1BB10C99089805F0B9F90DF135
:10189000D4080F9D5FE6CDE90E340D9B073323F08E
:1018A0000703F3E802670D9327F000432393229682
:1018B000DDE922ABA84B4FF0FF3250465946CDE947
:1018C00016670CF0A7FB002840F03085A24B4FF0C4
:1018D000FF32504659460CF07FFB002840F0268529
:1018E00000220023304639460CF06CFB002841F002
:1018F0000F819DF89F20994D994B29F080090E99F1
:101900004729C8BF1D46002303210C9306918B462F
:101910000993149310931293002A3FF44DAF069B42
:101920000133069348E7102E339A41F33D828D48E8
:101930002195CDE91F372146079D089C15904FF052
:10194000100A074604E0103E102E08F1080816DDC4
:1019500001321031072AC8E9007ACDE93321F2DDDE
:1019600032AA294620460DF1D40801F043FC002894
:1019700040F03686103E102EDDE93321E8DCDDE94B
:101980001F37219D0C4601321599C8F800103444C8
:10199000072ACDE93324C8F8046000F310869DF8C7
:1019A0009F2008F1080817E798053FF5E9AE079C66
:1019B000A06D03F033FFB4F90C30E1E6237849F071
:1019C0002009EFE50D9A432BCDE90E3402F1040412
:1019D00000F0628519F0100F40F05E850D9B1B68CA
:1019E0008DF81431012306939B4645AD00220D94DA
:1019F0008DF89F200C920992149210921292DBE6BD
:101A00000D9E56F8045BCDE90E3400238DF89F300F
:101A1000002D00F030850E9B532B00F0018619F04D
:101A20001003129340F0FC85099B5A1C00F06A8752
:101A300012991A46284603F0F3FE0C90002801F094
:101A4000C5820C9B0D96A3EB050B129B09932BEA09
:101A5000EB71149310930C9373239DF89F200691C0
:101A60000E9359E719F0200FCDE90E3400F0CC8029
:101A70000D9B073323F007031A46596852F8083BB9
:101A80000D920A460029C0F225840999013100F01F
:101A9000858253EA020129F0800440F08082099A8D
:101AA000002A40F08182A14693465EAD50E10D9B35
:101AB00053F8042B0B92002A80F2CE830B9A0D93DD
:101AC00052420B92237849F004096BE523786C2B82
:101AD00003BF637849F02009013449F0100961E53A
:101AE0002378682B03BF637849F40079013449F007
:101AF000400957E52B238DF89F30237852E5237852
:101B000049F080094EE5214611F8013B2A2B01F0EE
:101B1000DB82A3F13002092A0C4698BF002101F2B2
:101B2000728114F8013B01EB810102EB4101A3F149
:101B30003002092AF5D9099135E5237849F00109E0
:101B400030E59DF89F202378002A7FF42BAD2022DA
:101B50008DF89F2026E500BFFFFFEF7F34EA0110DC
:101B600038EA011074EA0110CDE90E3449F0100989
:101B700019F0200200F054830D9B073323F0070374
:101B800019465A6851F8083B0D9129F480640021E8
:101B90000020099D8DF89F006F1C00F0C28053EA61
:101BA000020024F0800940F0BB80002D40F0238526
:101BB000002940F0968414F0010B00F0518330238B
:101BC0008DF877310DF27715C2E0CDE90E3449F08A
:101BD000100414F0200200F015830D9B073323F04E
:101BE000070319465A6851F8083B0D910121CFE7C8
:101BF000237849F00809D5E449F0100919F0200FBD
:101C0000CDE90E347FF434AF0D9A19F0100F52F86D
:101C1000043B0D9240F0598319F0400F00F05183BE
:101C200043F3C03211461BB22CE70D9A0F9452F8C1
:101C3000043B0D9247F63002ADF8A0207820B14A5F
:101C40001A9249F00204002202210E90A0E719F036
:101C5000200F0F9400F059830D9B0A9A1B681A609D
:101C6000D2175A600D9B04330D9312E60E9B652B21
:101C700040F34E81DDE91601002200230CF098F9B3
:101C8000002800F0EE81339B9F4AC8F80020013302
:101C900001340122072B34943393C8F8042000F355
:101CA000AF8408F10808299B139A934280F2CF82EF
:101CB000189B199A1C44C8E90023339B34940133C0
:101CC000072B339300F3CB8308F10808139B5D1EA9
:101CD000002D7FF7C0AD102D339B40F3FA848B4F5E
:101CE0001597DDE907AB102605E008F10808103D5F
:101CF000102D40F3F08401331034072BC8E900762F
:101D0000CDE93334F1DD32AA5146584601F072FA7A
:101D100000287FF427ADDDE933340DF1D408E6E780
:101D20004C46012900F03B8102295EAD1ED11A9874
:101D300003F00F011B09415C05F8011D43EA027322
:101D4000120953EA0201F3D15EABA146A3EB050BE6
:101D500009999DF89F2059454FF00003B8BF594697
:101D60000C930691149310931293D5E503F0070199
:101D7000DB0843EA4273D208303153EA02062846B0
:101D800005F8011DF2D1E607DED53029DCD030237D
:101D9000023805F8013C5EABA146A3EB000B0546FB
:101DA000D6E70B9B069A9E1A002E7FF73CAD102EAD
:101DB000339B41F3AD805548DDF820A015902146B6
:101DC00010271A46044604E0103E102E08F10808B9
:101DD00016DD01321031072AC8E90047CDE9332169
:101DE000F2DD079932AA50460DF1D40801F002FA4B
:101DF000002840F0F883103E102EDDE93321E8DCA6
:101E00000C4613460133159AC8F800203444072BBA
:101E1000CDE93334C8F8046000F31483099BA3EBC5
:101E20000B06002E08F108087FF703AD374A339BF5
:101E30001592102E23DD22464FF0100ADDE90747E8
:101E400004E0103E102E08F1080817DD01332F4979
:101E50001032072BC8E9001ACDE93332F1DD32AA7E
:101E60002146384601F0C6F900287FF47AAC103ECE
:101E7000102EDDE933320DF1D408E7DC14460133CE
:101E8000159AC8F800203444072BCDE93334C8F83C
:101E9000046000F3AA8108F10808CAE4DDE907102C
:101EA00032AA01F0A7F900283FF4E9ACDDF820B030
:101EB00058E4189B19991C44C8E90013339B3494C7
:101EC0000133072B339300F3BF8508F10808002A7C
:101ED000C0F2AE87139AC8F8005001331444072BA0
:101EE000CDE93334C8F804207FF7B3ACDDE907103F
:101EF00032AA01F07FF90028D8D1349C0DF1D40822
:101F0000A9E400BFA8E6011060EA011064EA01102C
:101F1000139B339E012B04F1010406F1010608F125
:101F2000080740F31D810123072ECDE93364C8F86B
:101F30000050C8F8043000F3E482189B199A013667
:101F40001C44072EC7E90023CDE9336400F3CD829A
:101F50000837139BDDE9160103F1FF380022002347
:101F60000CF026F8002840F0158101360135444474
:101F7000072ECDE933643D60C7F8048000F3FE808E
:101F800008371C9B7B6001361C44072E2CABCDE927
:101F900033643B60AADC07F108085CE44C460A2B7A
:101FA00072F1000180F0B98230338DF87731A146AB
:101FB0004FF0010B0DF27715CAE6DDE9071032AAE2
:101FC000159301F017F900287FF470AF349C159B2E
:101FD0000DF1D40812E4DDE9071032AA01F00AF984
:101FE00000287FF463AF349C0DF1D40818E4102D61
:101FF000339B40F35287BB4F1597DDE907A91026A5
:1020000004E0103D102D08F1080816DD01331034EE
:10201000072BC8E90076CDE93334F2DD32AA514608
:1020200048460DF1D40801F0E5F8002840F0F582AB
:10203000103D102DDDE93334E8DC0133159A2C44D2
:10204000072BC8E90025CDE933347FF70DACDDE976
:10205000071032AA01F0CEF800287FF427AF349C95
:1020600002E4299A002A40F3FD80DDE912739F42C1
:10207000A8BF1F46002F05EB030B0BDD339B01337D
:102080003C44072BC8E900573494339300F36F8620
:1020900008F10808129E002FA8BFF61B002E00F3BF
:1020A0004783DDF848A019F4806FAA4440F07A8590
:1020B000299D139B9D4203DB19F0010F00F004845E
:1020C000189B199A1C44C8E90023339B34940133AC
:1020D000072B339300F35A8608F10808139BABEBE8
:1020E0000A065D1BAE42A8BF2E46002E0DDD339BB7
:1020F000C8F800A001333444072BC8F804603494B6
:10210000339300F3558608F10808002EA8BFAD1BD5
:10211000002D7FF7A0AB102D339B40F3DA82724F76
:102120001597DDE907AB102605E008F10808103D1A
:10213000102D40F3D08201331034072BC8E900760C
:10214000CDE93334F1DD32AA5146584601F052F858
:1021500000287FF407ABDDE933340DF1D408E6E75E
:1021600019F0010F7FF4DFAE0123072ECDE93364B0
:10217000C8F80050C8F804307FF703AFDDE9071056
:1021800032AA01F037F800287FF490AEDDE933641D
:1021900035AFF6E6139B012B7FF7F3AE112B524BB5
:1021A000159340F3B982CDF82490DDE907BA1025E4
:1021B000994606E00837A8F11008B8F1100F40F36F
:1021C000A98201361034072EC7E90095CDE93364A2
:1021D000F0DD32AA5946504601F00CF8002840F0D4
:1021E0000282DDE9336435AFE5E7DDE9071032AAA5
:1021F00001F000F800287FF459AE349C0DF1D408AA
:10220000FFF717BB0D9951F8043B0D9114F0100125
:1022100055D114F040004DD00A469BB20121B7E4DD
:102220000D9951F8043B0D9119F010017FF4ADACFC
:1022300019F0400000F0A9829BB20A46A5E4079D70
:10224000A86D03F0E9FAB5F90C30FFF759B919F0A8
:10225000010F3FF400AB2BE50D932378FFF7A2B9F4
:102260005EAD75E5339B2149C8F800100133013498
:102270000121072B34943393C8F8041000F35185DF
:1022800008F10808002A7FF414AE139A09F001033C
:1022900013433FF4E0AA189B199A1C44C8E9002391
:1022A000339B34940133072B339300F3CD8308F130
:1022B00008080FE614F400721CBFDBB202460121CD
:1022C00066E419F4007F40F00783DA17114600290D
:1022D000BFF6DBAB5B4262EB42024C462D20012194
:1022E00057E400BF74EA011064EA011060EA0110CB
:1022F0001B9A2378002A3FF455A91278002A3FF44C
:1023000051A949F48069FFF74DB919F0100F40F059
:10231000FB8119F0400F40F0E58219F4007F00F0D6
:10232000F3810D9B0A9A1B681A709BE4DDE9160184
:1023300002460B460BF06EFE002840F038860E9BDE
:10234000612B00F02185412B00F0E382099B0133D2
:1023500000F017860E9B23F02003472B04D1099B26
:10236000002B08BF01230993DDE9161249F48070A0
:10237000002A1590CDF818904FF00003C0F2DF84CA
:10238000CDE924121F930C930E9B413B252B00F2A9
:102390000382DFE813F074030102010201026D03FE
:1023A00071030102010201020102010201020102A4
:1023B0000102010201020102010201020102010205
:1023C00001020102010201020102010201020102F5
:1023D00001020102010201020102010201026D0378
:1023E0007103CDE90E34C34B1A9319F020026AD061
:1023F0000D9B073323F0070319465A6851F8083B31
:102400000D9119F0010F0AD053EA020107D00E997D
:102410008DF8A110302149F002098DF8A01029F49F
:1024200080640221FFF7B4BBCDE90E344C46FFF7C0
:10243000D0BBCDE90E34FFF79BBBCDE90E34AE4BDC
:102440001A93D2E7DDE9071032AA00F0D3FE002884
:102450007FF42CAD349C0DF1D408FFF7E4B9DDE92D
:10246000071032AA00F0C6FE00287FF41FAD349C8E
:102470000DF1D4082AE4099B0C95062B294628BFA8
:10248000062309952A4606939C4D0D969B4614916A
:1024900010911291FFF740BA0822002130A802F0F3
:1024A000DBFE0D9B08981A6845AD30AB294603F05A
:1024B00013FBB0F1FF3F834600F0448520EAE07350
:1024C0000693FFF793BA0D9951F8043B0D9119F05B
:1024D000100196D119F0400000F051819BB20A46DC
:1024E0008FE7DDF824B05EAD32E4DDE9071032AAF3
:1024F00000F080FE00287FF4D9ACDDE9336435AF0D
:1025000027E5DDE9071032AA00F074FE00287FF409
:10251000CDACDDE9336435AF0FE504F4806B002109
:10252000CDF83080DFF8D891DDF86C8006945EAD90
:102530004FF0CC3A05278C465E4605E00A2B72F137
:10254000000233D35B462246991841F10001A9FBF2
:10255000010424F0030000EB9400091A581A62F1F8
:10256000000E0AFB00F4A0FB09B009FB0E440BF0BF
:10257000010E0444AEFB070E40184FEA5B0B3030EF
:1025800005F8010C4BEAC47B0CF1010C013D640819
:10259000002ED3D098F800108C45CFD1BCF1FF0F9E
:1025A000CCD00A2B72F1000280F0C582CDF86C808D
:1025B000069CDDF83080CDF84CC0FFF7C5BBDDE9E7
:1025C000071032AA159300F015FE00287FF46EACB8
:1025D0009DF89F20349C159B0DF1D408FFF7FCB8A3
:1025E000A346FFF7BFB8D346FFF7BCB8584602F082
:1025F0001BFBFEF77CBF01294C467FF495ABD3E46F
:10260000DDE9071032AA00F0F5FD00287FF44EAC9A
:10261000349C0DF1D408FFF746BBCB46FFF7A2B8B8
:1026200030AF0822002138462B9502F015FEDDF868
:1026300024A0BAF1FF3F00F070820024CDF818907A
:10264000A346DDF820900CE045A9484603F044FA83
:10265000411C584400F07684504508DC00F0C384E7
:1026600083462B9A12593B460434002AECD1DDF8FC
:102670001890BBF1000F00F04383BBF1630F40F3F0
:10268000FA8308980BF10101FEF746FC0546002885
:1026900000F058840C9008220021384602F0DCFD3E
:1026A000089800975B462BAA294603F03BFA83451E
:1026B00040F01985002305F80B302BEAEB719DF8EB
:1026C0009F200D9609930691149310931293FFF790
:1026D00023B90C4A15920133159AC8F800202C44EE
:1026E000072BC8F80450CDE933347FF7B2A8FFF7C1
:1026F000FDBB00BF44EA0110A8E6011058EA011032
:10270000CDCCCCCC64EA01100D9B0A9A1B681A60F0
:10271000FFF7A8BADDF82490159B3B6001364444CE
:10272000072ECDE93364C7F804807FF729AC25E58F
:10273000102E339B40F3AD849848159042462146B5
:10274000A846DDE9074A1027054604E00832103E96
:10275000102E40F3CA8101331031072BC2E9005714
:10276000CDE93331F2DD32AA2146504600F042FD78
:1027700000287FF438AFDDE9333135AAE7E719F4F3
:1027800000721CBFDBB202463BE619F400721CBFAC
:10279000DBB20246FFF7F9B9099E0223CDE9003604
:1027A00030AB04932BAB039329AB02930898DDE97C
:1027B000242303F0A5FA0E9B672B054600F07781D2
:1027C0000E9B472B00F073810E9B23F02007462FB2
:1027D00000EB060405D10378302B00F0DB83299E43
:1027E0003444DDE92401002200230BF0E1FB002842
:1027F00000F0CC8123465B1B1393299A1292472F3A
:1028000000F05D81462F00F0E3820E99531E61298E
:10281000299300F04184412940F05C81502101203E
:10282000002BB6BFC2F101032B222D22092B8DF8FC
:10283000B0108DF8B12040F377830DF1C704584EE6
:1028400022461046A6FB0312D20802EB8201A3EB3C
:102850004101303100F8011C19466329134600F18B
:10286000FF32EEDC303302F8013C831EA34280F0DD
:102870000C840DF1B10213F8011B02F8011FA342F1
:10288000F9D15EAB181AA0F1AD031C93139B1C9AEF
:10289000012B03EB020B40F37883189B9B44069BB0
:1028A00023F4806343F480792BEAEB7200231493C2
:1028B0000692109312931F9B002B40F00F819DF8FE
:1028C0009F200993FFF728B8139BABEB0A065D1B0B
:1028D000AE42A8BF2E4618E443F3C01211465BB2C5
:1028E000FFF7D0B80D9B0A9A1B681A80FFF7BAB998
:1028F000079932AA584600F07DFC00283EF422AF2A
:10290000FEF736BF28460D9603F07AF88346FFF7A8
:102910009CB858238DF8A13030238DF8A03049F0B1
:1029200002030693099B632B00F3F68200230C93AA
:1029300045AD49F481731593179B002BC0F20082BB
:1029400000231F93DDE91634CDE924340E9B612B5F
:102950007FF41AAD29AADDE9240103F0F1F8002281
:102960004FF07F530BF0BCF802460B46CDE9102325
:10297000002200230BF01CFB002840F0F882094BDA
:102980001293099BCDF84C8003F1FF392E46149524
:10299000DDF848B04D46DDE910890BE064EA01102E
:1029A000CDCCCCCCA8E60110002200230BF000FB1C
:1029B000F0B93D46A94B0022404649460BF090F83D
:1029C000894680460BF03CFB04460BF01FF802469C
:1029D0000B46404649460AF0CBFE1BF804306A1C01
:1029E000B24605F1FF3706F8013B80468946DBD148
:1029F000CB465746C2469A4BDDF84C8000225046E3
:102A00005946A946149D0BF0FBFA002840F0648259
:102A1000934B5046594600220BF0CAFA10B1E30717
:102A200000F15A82B9F1000FC0F2708209F101037E
:102A30003344302206F8012BB342FBD15B1B1393C6
:102A40000E9B23F02007D8E6DDE9071032AA00F03C
:102A5000D1FB00287FF42AAADDE93334299A0DF14D
:102A6000D408FFF734BA886D02F0D8FEFEF73CBEFA
:102A7000099B5E1C022391E6099E03238EE629AA88
:102A8000DDE9240103F05CF800224FF07F530BF0E6
:102A900027F802460B46CDE91023002200230BF055
:102AA00087FA002840F063826E4B129369E7069B19
:102AB000DF0700F1E481309B299A5B1B1393D31C41
:102AC000129202DB099B934244DA0E9B023B0E9367
:102AD000531E29939DF838100020A1E62D220023D3
:102AE0008DF89F200993FEF71ABF45460C46904685
:102AF0000133159AC8F800203444072BCDE933344C
:102B0000C8F8046000F3268208F10808FFF7C9BA84
:102B10002D228DF89F20FEF7EEBE00230898009727
:102B20002BAA194602F0FEFFB0F1FF3F834600F0EA
:102B300009822B959DE51E9B1D99ED1A1A46284684
:102B400002F0FEFB98F801300BB108F101084FF0DC
:102B5000000CF7E4139B934200F39481069BDC077F
:102B600040F14A82189B02EB030B069B580502D5E5
:102B7000002A00F34A822BEAEB730693DDF85490A7
:102B800067230E9300231493109394E6309BA34283
:102B9000BFF431AE30215A1C30921970309B9C42E8
:102BA000F9D828E6109BCDF824B0CDF838904246ED
:102BB00021462D4FDDF85090DDF87880DDF820B00B
:102BC0005446DDF86CA07BB3B9F1000F00F08580AE
:102BD00009F1FF3933981D9B013041440728C2E9B0
:102BE0000038349133906DDC0832099B9AF800006C
:102BF0001E1B8642A8BF0646002E0BDD339801300F
:102C000031440728C2E90046349133906BDC9AF8CE
:102C100000000832002EACBF851B0546002D14DCD9
:102C20000444109B002BCFD1B9F1000FD0D1DDF8B7
:102C300024B0CDF86CA0A246DA45DDF83890904675
:102C40000C4628BFDA46FFF733BA102D339840F30D
:102C50001A8223463E462C461D460CE000003040BA
:102C60000000E03F44EA011064EA0110103C102C1F
:102C700002F1080216DD0130103110230728CDE9DA
:102C8000330117605360F1DD079932AA584600F00E
:102C9000B1FA00287EF466AD103C102CDDE933015A
:102CA00035AAE8DC2B4625461C4601302944072876
:102CB000CDE93301166055604BDC9AF8000008320C
:102CC0000444AEE7079932AA584600F093FA002868
:102CD0007EF448AD349935AA87E7109B013B0AF191
:102CE000FF3A109376E7079932AA584600F082FA25
:102CF00000287EF437AD9AF80000349935AA89E7A8
:102D00009DF89F200D96CDF818B0CDF824B0CDF8E1
:102D100050B0CDF840B0CDF848B0CDF830B0FEF7A7
:102D2000FBBDDDE9071032AA00F064FA00287FF449
:102D3000BDA8299A349C0DF1D408FFF7A3BA0C93CF
:102D4000DDE91634249304F1004325932D231F93CA
:102D5000FCE5079932AA584600F04CFA00287EF4A8
:102D600001AD9AF80000349935AA044459E7DDE929
:102D7000071032AA00F03EFA00287FF497A8349C8E
:102D80000DF1D408FFF786B97823C3E5DDE9071014
:102D900032AA00F02FFA00287FF488A8299D349CDD
:102DA0000DF1D408FFF79AB9AB491591FEF7EBBDC9
:102DB000DDE9071032AA00F01DFA00287FF476A89A
:102DC000299D139B349C5D1B0DF1D408FFF79DB921
:102DD000069B1299099A03F00103002943EA0203B2
:102DE00040F35D81002B40F009816623DDF848B097
:102DF0000E93069B5A0500F10A812BEAEB73DDF86E
:102E000054900693BEE600220992FEF7CCBB079BC6
:102E10005B6EDF0707D4079B9B899E0503D4079B46
:102E2000986D02F0FBFC4FF0FF330A93FEF7ABBC4A
:102E300056421032894A159234DAAA4610271546AE
:102E400004E008F10808103E102E2ADD013310348A
:102E5000072BC8E90057CDE93334F2DDDDE907106F
:102E600032AA00F0C7F900287FF420A8DDE9333446
:102E70000DF1D408E7E700230C9345AD0BE4AC1942
:102E80004727AEE4139B189A03EB020B129B002B0F
:102E900040F3EE8067230E93ABE76F4A1592FFF77E
:102EA000CCB855460133159AC8F800203444072B96
:102EB000CDE93334C8F804607FF7F9A9DDE90710DC
:102EC00032AA00F097F900287EF4F0AFDDE9333440
:102ED0000DF1D408FEF7FEBF129B3097D97B16F890
:102EE000012C8A42334609D1302003F8010C309B73
:102EF0005A1E309213F8012C9142F6D0392A0BBF9A
:102F0000129A0132927AD2B203F8012C334695E537
:102F1000524A1592FEF776BF0898591CFDF7FCFF40
:102F2000054678B10C9004E5002862D130228DF876
:102F3000B2200DF1B302303302F8013B2CABD31AAF
:102F40001C93A3E4079AB2F90C3043F04003938139
:102F5000FEF711BCDDE9071032AA00F04BF900289A
:102F60007EF4A4AF349C0DF1D408FFF79AB83C4B23
:102F70003C4A0E99612918BF1A46012312922993DF
:102F8000FFE406230993FFF7EFB9069BDE077FF501
:102F900086AC82E4DDE92401002200230BF008F86E
:102FA00000287FF41CACC6F10106299618E4179B93
:102FB0002D4D002BB4BF2D229DF89F202B4BB8BF69
:102FC0008DF89F2029F08009FEF799BC099B069394
:102FD0009B4673239DF89F200D96099014901090A6
:102FE0000E93FEF799BCDDF81890DDF824B0FFF7DA
:102FF00040BB0DF1B2029EE79346B6E5189BCF1891
:103000003A44662393460E93F3E667230E931B9987
:103010000B78FF2B63D00024129A204603E0013086
:103020000131FF2B08D0934206DAD21A4B78002BDD
:10303000F5D10B780134F4E71B911292109014949F
:10304000DDE91439109A13441E9A02FB03BB2BEAE4
:10305000EB7306932FE400BF74EA011064EA0110D9
:1030600044EA0110A8E601103CEA011040EA011010
:10307000C3F101039B442BEAEB7306936723DDF84E
:1030800054900E937EE51C4E0FE602231C93FFF72F
:10309000FDBB194A15922BE57021FFF7C0BBDDF887
:1030A000549033B94FF0010B6623CDF818B00E934E
:1030B00068E5189BDDF824B05F1CBB442BEAEB737A
:1030C000069366230E935DE50D9A63780C4652F8DD
:1030D000041B0D9241EAE1710991FEF763BA0023E6
:1030E00014931093ACE7DDE9072B938943F0400379
:1030F0009381FEF737BB00BF64EA0110F0B51F46AD
:103100008B89ADF26C4D23F00203ADF80C304B6EA1
:103110001993CB89ADF80E30CB6907934B6A0993AD
:103120001AAB009304934FF480631546064602934E
:10313000059316A800230C46069302F069FB2A4665
:103140003B4669463046FEF7B5F9051E07DB694682
:10315000304601F071FB002818BF4FF0FF35BDF875
:103160000C305B0603D5A38943F04003A381169876
:1031700002F050FB28460DF26C4DF0BD2DE9F84FE2
:103180004B6E9C0490462ED5936812684BB30D4647
:10319000064602F1080959E9022A5FEA9A0716D0A1
:1031A000A2F1040B002401E0A7420ED05BF8041F3B
:1031B0002A46304601F0A0FF431C04F10104F3D17C
:1031C0000023C8E90133BDE8F88FD8F808302AF0A9
:1031D000030AA3EB0A03C8F8083009F10809002B19
:1031E000D9D10020ECE701F049FD0023C8E9013303
:1031F000BDE8F88F10B4946814B110BCFFF7BEBFDF
:103200002046546010BC70472DE9F04FC7B016AF90
:103210008346039106920021082238461C460A93F1
:1032200002F01AF8BBF1000F04D0DBF83430002BA9
:1032300000F0BB86039A536EB2F90C20DB0702D470
:10324000960540F19F85950407D403994B6E42F48F
:10325000005223F400538A814B66100740F1C98065
:10326000039B1B69002B00F0C48002F01A030A2B99
:1032700000F0CE800023CDE91B33CDE90E331DAA2B
:10328000DFF860A20D931A92914610930793069D62
:10329000DAF8E44002F088F82A46034614A90097B9
:1032A0005846A047002800F0D280C0F2C880149A87
:1032B000252A034601D01D44EAE7069BEE1A044680
:1032C00040F0C98000234FF0FF316A788DF84B3011
:1032D00008936C1C059102930134A2F120035A2B30
:1032E00000F20281DFE813F0030300010001FD0298
:1032F0000001000100016B000001000118022D0314
:1033000000012302130300010D035B005B005B005F
:103310005B005B005B005B005B005B000001000189
:103320000001000100010001000100010001CE01C7
:103330005D02000100010001000100010001000127
:103340000001000100012902000100010001A601A5
:1033500000017602000100018E050001000100015C
:103360000001000100010001000100010001CE0187
:10337000F301000100010001C402F3017F0000011C
:1033800032030001EE028B05CD027F000001A60191
:103390007D00880500010001B10500017D00A2F15A
:1033A00030030022114614F8012B01EB810103EBDD
:1033B0004101A2F13003092BF5D908918DE7584658
:1033C00001F0F8FF43681093184602F019FB0F90C4
:1033D0000546584601F0EEFF83680E93002D40F03D
:1033E000E584227878E7029B227843F02003029359
:1033F00072E7039D5846294601F0E0FD002840F0A1
:10340000A686B5F90C2002F01A030A2B7FF432AF1E
:103410000399B1F90E30002BFFF62CAF4B6EDB0792
:1034200002D4970540F15E86069A039923465846D2
:1034300000F0C0FE0790079847B0BDE8F08F082263
:103440000021384601F008FF01231D4420E7069BB8
:10345000EE1A044612D0069B1C9AC9E900361B9B43
:1034600001333244072B1C921B9311DC09F108092C
:10347000079B33440793002C7FF424AF1C9B002B45
:1034800040F05086039B0022B3F90C301B921CE0E5
:10349000002A00F02F8403991AAA5846FFF76EFEFF
:1034A00080B90DF17409E3E703991AAA5846FFF7AA
:1034B00065FE002800F0A9800B9B1BB10B995846B4
:1034C00003F09EFB039BB3F90C30039A526ED107B5
:1034D00040F1A6805B0600F14686079847B0BDE83C
:1034E000F08F00BF2C0400200694002AC6D00023D1
:1034F0008DF84B3001238DF8B420049309932DAC43
:1035000000230B930593029B13F0020302D0049A4D
:1035100002320492DDE91B2C029D501C15F084053B
:1035200001460C9505D1089D049EAD1B002D00F3AE
:1035300031839DF84B0088B101220CF1010CC9F8D0
:10354000042007290DF14B02CDE91B1CC9F800200E
:1035500000F3E1820A4609F108090131EBB113AB2E
:103560000CF1020CC9F8003007294FF00203CDE935
:103570001B1CC9F8043040F3EC82BCF1000F00F0D2
:10358000DA8303991AAA5846FFF7F8FD002893D169
:10359000DDE91B2C0DF17409511C0C9B802B00F0F4
:1035A0001382059B09981D1A002D00F36882099A61
:1035B000C9F8004002EB0C030729CDE91B13C9F839
:1035C000042040F3FE81002B00F02B8303991AAAFC
:1035D0005846FFF7D3FD00287FF46EAF1C9B0DF11A
:1035E0007409029A500705D5089A0499541A002CB8
:1035F00000F32283DDE9072104988142ACBF521811
:1036000012180792002B7FF44FAF00231B930B9BE4
:103610001BB11946584603F0F3FA0DF1740936E66A
:103620009A053FF557AF039CA06D02F0F7F8B4F987
:103630000C304FE70A9E069456F8044B00238DF891
:103640004B30002C00F0C984532A00F02184029BE7
:1036500013F0100540F01C84059B5A1C00F04E85A9
:103660001A462946204602F0DBF80B90002800F0AD
:103670003E85031B099323EAE37305950A96049399
:103680000B958DE10A9B0694432A03F1040503D0B0
:10369000029BDE0640F1E4830822002118A801F015
:1036A000DBFD0A9B2DAC1A68214618AB584602F088
:1036B00013FA03460133099000F04185099B23EA80
:1036C000E373049300230A958DF84B3018E7029BAF
:1036D00006949C066DD50A9B073323F00703194611
:1036E0005A6851F8083B0A911146002AC0F2378106
:1036F000059A013200F04081029A22F08002029283
:1037000053EA010240F03881059B002B40F0088508
:103710000493099346AC41E10A9B53F8042B0892A9
:10372000002A80F22783089A0A9352420892029B49
:10373000227843F004030293CEE5029B069443F003
:10374000100212F0200100F0E7820A9B073323F0F9
:1037500007031846596850F8083B0A9022F4806421
:103760000294059C002001348DF84B005DD053EA93
:10377000010422F4906240F01484029C0292059BA2
:10378000002B4AD1002840F0F08214F00102099287
:1037900000F0F48230238DF8173104920DF21714E3
:1037A000FCE0029B069443F010030293029B9C06EC
:1037B00091D40A9A52F8043B0A92029AD00600F178
:1037C000F282029A510640F1EA8243F3C0310A467E
:1037D0001BB28AE7029B069443F0100414F0200108
:1037E00000F08B820A9B073323F007031A465968BF
:1037F00052F8083B0A9200228DF84B20059A0132BC
:1038000000F0D18324F08002029253EA010240F0DA
:10381000B380059B0120002BB4D0012800F08084E8
:1038200000230228194600F0998146AC03F00702F4
:10383000DB0843EA4173C908303253EA01052046E8
:1038400004F8012DF2D1029BDD0740F19581302A69
:1038500000F092813023059A04F8013C023846AB0F
:103860001B1A9A42B8BF1A4609930446049295E07F
:103870002278029B682A00F09D8343F04003029364
:103880002AE5029B0A9A069443F00203029352F837
:10389000043B0A9247F63002ADF84C20BB4A0D9229
:1038A000002100228DF84B20059A013200F056814C
:1038B000029C53EA010024F08002029240F04E8103
:1038C00002205CE7029B06949E0640F17E820A9BE2
:1038D000079A1B681A60D2175A600A9B04330A932E
:1038E000D5E4029B227843F001030293F4E49DF8AF
:1038F0004B302278002B7FF4EFAC20238DF84B3037
:10390000EAE4029B227843F080030293E4E4214638
:1039100011F8012B2A2A00F03384A2F13003092B7D
:103920000C4600F2F6830022114614F8012B01EB3D
:10393000810103EB4101A2F13003092BF5D9059177
:10394000CBE42B2322788DF84B30C5E42278029B00
:103950006C2A00F0368343F010030293BCE42D225E
:103960008DF84B20059A5B4261EB4101013203D097
:10397000029A22F0800202920A2B71F1000280F07A
:10398000BD823033DBB28DF81731059B012BB8BFF8
:1039900001230493012309930DF2171400230B93C1
:1039A0009DF84B30002B3FF4AEAD049B01330493E4
:1039B000A9E5099B1D9401221E931C931B920DF1F6
:1039C000740909F108090CE6089B04981D1A002DDA
:1039D0007FF7E7AD102D40F3CB83DFF8B48143468A
:1039E0001026A04661461C4607E002F1020C09F1D0
:1039F00008090246103D102D1ADD501C1031072811
:103A0000C9E90046CDE91B01EFDD1AAA00297CD0E7
:103A1000039958460DF17409FFF7B0FB00287FF4B5
:103A20004BADDDE91B21103D102D02F1010CE4DC52
:103A30002346604644468C469846AC440728CDE968
:103A40001B0CC9F80080C9F8045040F3A381BCF1F5
:103A5000000F00F0278303991AAA5846FFF78EFB40
:103A600000287FF429AD059B0998DDE91B2C1D1A60
:103A7000002D02F101010DF174097FF798AD102DB1
:103A8000DFF80C812DDD2B461026254660461C46AE
:103A900007E002F1020C09F108090A46103C102C5B
:103AA0001ADD511C3A4B10300729C9E90036CDE91F
:103AB0001B10EEDD1AAA10B3039958460DF17409D4
:103AC000FFF75CFB00287FF4F7ACDDE91B20103C1E
