:020000041000EA
:10E0000000000220B5010110E9FF0010F30101102A
:10E01000F5010110F7010110F901011000000000E5
:10E02000000000000000000000000000FB010110E3
:10E03000FD01011000000000FF01011001020110AC
:10E040000502011007020110090201100B02011064
:10E050000D0201100F020110110201101302011034
:10E060001502011017020110190201101B02011004
:10E070001D0201101F0201102102011023020110D4
:10E080002502011027020110290201102B020110A4
:10E090002D0201102F020110310201103302011074
:10E0A0006DFF001075FF0010390201103B020110D6
:10E0B0003D0201103F020110410201104302011014
:10E0C0004502011047020110490201104B020110E4
:10E0D0004D0201104F0201105102011053020110B4
:10E0E0005502011057020110590201105B02011084
:10E0F0005D0201105F020110610201106302011054
:10E100006502011067020110690201106B02011023
:10E110006D0201106F0201107102011073020110F3
:10E120007502011077020110790201107B020110C3
:10E130007D0201107F020110810201108302011093
:10E140008502011087020110890201108B02011063
:10E150008D0201108F020110910201109302011033
:10E160009502011097020110990201109B02011003
:10E170009D0201109F020110A1020110A3020110D3
:10E18000A5020110A7020110A9020110AB020110A3
:10E19000AD020110AF020110B1020110B302011073
:10E1A000B5020110B7020110B9020110BB02011043
:10E1B000BD020110BF020110C1020110C302011013
:10E1C000C5020110C7020110C9020110CB020110E3
:10E1D000CD020110CF020110D1020110D3020110B3
:10E1E000000000000000000000000000000000002F
:10E1F000000000000000000000000000000000001F
:10E2000000488047B50101100348044B834202D007
:10E21000034B03B118477047CC0B0020CC0B0020F8
:10E22000000000000548064B1B1AD90F01EBA301A3
:10E23000491002D0034B03B118477047CC0B0020A4
:10E24000CC0B00200000000010B5064C237843B929
:10E25000FFF7DAFF044B13B10448AFF3008001234A
:10E26000237010BD000C002000000000E06C0210C4
:10E2700008B5054B1BB105490548AFF30080BDE863
:10E280000840FFF7CFBF00BF00000000040C0020D3
:10E29000E06C02102DE9F047DFF8D8A0364EDAF82E
:10E2A0000430A0B0DBB1DFF8D490DFF8D480354F74
:10E2B0000AF104050024484604F060F955F8041FEB
:10E2C000404604F05BF9384604F058F93368986822
:10E2D00007F054FBDAF804300134A342EBD8274DA1
:10E2E000DFF8A480274F08241FE08DF840E000F0FD
:10E2F00009FC034601336946204612D000F01CFC9D
:10E300000346002B28460CDD04F038F900994046FE
:10E3100004F034F9384604F031F93368986807F0AE
:10E320002DFB0134E4B2782C13D0A4F11803DBB236
:10E33000DFF858C04FF0010E1E2B10AA7146204680
:10E340002CFA03FCD1D81CF0010FCED07444E4B2F7
:10E35000EBE70F4804F012F90E4807F03BF80948C4
:10E3600004F00CF93368986807F008FB002020B02F
:10E37000BDE8F087200C0020980500204CF6011025
:10E3800058F6011064F6011068F601100100014012
:10E3900074F6011080F6011010B562B61A4C00F048
:10E3A0003DFC88221948214600F052FC184B226897
:10E3B0009A421CD0174804F0E1F8174807F00AF811
:10E3C000164804F0DBF8164B1B68986807F0D6FA7D
:10E3D00009A1D1E900010AA3D3E90023C4E900019E
:10E3E000C4E9022309488822214600F033FCBDE835
:10E3F000104000F083BB00BFEFBEADDE02000000A6
:10E400001111111112111111200C002000C0071060
:10E41000EFBEADDE88F6011094F6011064F601102F
:10E420009805002070B59EB00C46054608F0C8FB64
:10E43000064605A801F06AFD3246294605A801F006
:10E4400037FC694605A801F0D3FCEC46BCE80F0098
:10E450002060DCF800006160A260E36020611EB013
:10E4600070BD00BF2DE9F041234F7B68A0B0002BA9
:10E4700036D03D1D00264FF0020803E07B680136D0
:10E48000B3422DD955F8040F00F03AFB012110AA30
:10E4900004468DF8408000F035FB034601336946A1
:10E4A000204621D000F048FB01301DD0009A2B6897
:10E4B0009A42E3D00236114804F060F8104857F849
:10E4C000261004F05BF80F4804F058F80E4B1B6858
:10E4D000986807F053FA4FF0FF3020B0BDE8F081A4
:10E4E000002020B0BDE8F081044804F047F8074858
:10E4F00006F070FFE7E700BF200C0020B8F601101F
:10E50000E4F6011064F6011098050020C4F601102D
:10E510002DE9F04F274F7B68A1B0A3B3DFF89880B7
:10E52000DFF89890DFF898B0DFF898A03E1D00253E
:10E5300056F8040F00F0E4FA0323012110AA044660
:10E540008DF8403000F0DEFA03460133694620467C
:10E5500005F101051BD000F0EFFA034601334846F0
:10E5600015D004F00BF831686A46584604F006F8F6
:10E57000504604F003F8D8F80030986807F0FEF928
:10E580007B68AB42D4D8002021B0BDE8F08F0E48A4
:10E5900003F0F4FF0D4806F01DFF0A4803F0EEFFFC
:10E5A000D8F80030986807F0E9F94FF0FF3021B053
:10E5B000BDE8F08F200C0020980500204CF60110DB
:10E5C00000F7011064F60110B8F601100CF7011005
:10E5D00030B5A1B0044600F093FA042310AA01213B
:10E5E00005468DF8403000F08DFA013025D069469F
:10E5F000284600F0A1FA01301FD0184803F0BEFFF2
:10E6000021461748174C03F0B9FF174803F0B6FF2F
:10E610002368986807F0B2F9104803F0AFFF694625
:10E62000124803F0ABFF104803F0A8FF2368986876
:10E6300007F0A4F9002021B030BD0D4803F09EFF83
:10E640000C4806F0C7FE084803F098FF054B1B680E
:10E65000986807F093F94FF0FF30ECE74CF60110A3
:10E6600028F701109805002064F6011030F701101A
:10E67000B8F6011034F7011008B5134C002001F072
:10E680003DFD204601F058FF012001F037FD2046F6
:10E6900001F052FF022001F031FD204601F04CFF55
:10E6A000002001F04BFD204601F046FF012001F063
:10E6B00045FD204601F040FF022001F03FFD2046CD
:10E6C00001F03AFFDAE700BF20A1070010B5FFF71D
:10E6D000C9FEF8B92648274C03F050FF264806F03B
:10E6E00079FE264803F04AFF2368986807F046F948
:10E6F000FFF70EFFF0B1224803F040FF214806F07B
:10E7000069FE1E4803F03AFF2368BDE81040986890
:10E7100007F034B91A4803F031FF1B4806F05AFEDF
:10E72000164803F02BFF134B1B68BDE81040986898
:10E7300007F024B9154803F021FF1549154803F0E7
:10E740001DFF0E4803F01AFF2368986807F016F9BA
:10E75000114803F013FF114806F03CFE074803F090
:10E760000DFF2368986807F009F9FFF785FF00BFE0
:10E7700088F601109805002074F7011064F6011066
:10E78000B8F6011090F7011050F701104CF6011087
:10E79000B0F70110B8F7011074F60110C0F70110BE
:10E7A000F0B589B007222348234F01A900F0ECF906
:10E7B00003A901A8FFF736FE292003F015FC0DF18F
:10E7C0000B0405460DF11F0614F8012F3946684663
:10E7D00007F00EF902226946284607F049FEB442C6
:10E7E000F2D11649284607F04BFF044680B9144879
:10E7F00003F0C4FE134806F0EDFD134803F0BEFE1F
:10E80000124B1B68986807F0B9F8204609B0F0BDB4
:10E810000F4803F0B3FE0F4803F0B0FE0A4803F0C0
:10E82000ADFE0A4B1B6898684FF0FF3407F0A6F85E
:10E83000EBE700BFC8F70110B0F60110D4F70110E4
:10E8400088F6011000F8011064F601109805002008
:10E85000B8F6011010F8011000B585B0FFF7A0FF61
:10E8600010B105B05DF804FB0F480B2201A900F0C0
:10E870008BF90E496A4601A807F056F90098FFF790
:10E88000A7FE0028EDD10A4803F078FE094806F0FB
:10E89000A1FD094803F072FE084B1B68986807F059
:10E8A0006DF805B05DF804FB20F8011030F8011098
:10E8B00074F6011034F8011064F601109805002078
:10E8C000F0B58DB011222348234F02A900F05CF966
:10E8D00007A902A8FFF7A6FD292003F085FB0DF18B
:10E8E0001B0405460DF12F0614F8012F394601A827
:10E8F00007F07EF8022201A9284607F0B9FDB442CC
:10E90000F2D11649284607F0BBFE044680B91448E8
:10E9100003F034FE134806F05DFD134803F02EFEAD
:10E92000124B1B68986807F029F820460DB0F0BD1F
:10E930000F4803F023FE0F4806F04CFD0A4803F091
:10E940001DFE0A4B1B6898684FF0FF3407F016F85D
:10E95000EBE700BF3CF80110B0F601104CF80110D5
:10E9600088F6011078F8011064F60110980500206F
:10E97000B8F6011088F8011070B586B0FFF7A0FF57
:10E9800008B106B070BD04460B223048304E03A9D2
:10E99000CDE9014400F0F8F82E4901AA03A807F0D8
:10E9A000C3F82D480B2203A900F0EEF8294902AA6A
:10E9B00003A807F0B9F87168002935D0029D331D0E
:10E9C000204602E0013088422ED053F8042FAA429C
:10E9D000F8D1831C019A214846F8232000F036F92B
:10E9E0001B491E481E4C882200F034F91D4803F0D4
:10E9F000C5FDDDE901211C4803F0C0FD1B4803F003
:10EA0000BDFD2368986806F0B9FF194803F0B6FD0C
:10EA1000184806F0DFFC154803F0B0FD236898683D
:10EA200006F0ACFF06B070BD134803F0A7FD0299D5
:10EA3000124803F0A3FD0D4803F0A0FD084B1B682E
:10EA4000986806F09BFF06B070BD00BF98F80110F3
:10EA5000200C002030F80110ACF8011000C00710A5
:10EA60009805002088F60110C0F8011064F6011026
:10EA700074F60110E0F80110B8F60110E8F8011082
:10EA80002DE9F0418AB0FFF787FCDFF86480194F69
:10EA900002AE194D0FCD34460FC495E80F0084E83F
:10EAA0000F0008226946404600F06EF83946684675
:10EAB00007F0BCFC00F128030DEB0300002400F874
:10EAC000284C56F83410684607F0DAFD48B1013496
:10EAD000042CDED056F83410684607F0D1FD00282B
:10EAE000F5D10AAB03EBC40454F81C3C9847D0E7BB
:10EAF00020F9011070F6011050F9011000F0B6B8BD
:10EB0000C0B2704770B504460D46164600F032F9A3
:10EB100000280DDB33462A460021204600F078F914
:10EB2000002805DB0121204600F008F9C01770BD60
:10EB30004FF0FF3070BD00BF70B504460E4602E0D6
:10EB40000CD001F0F9FC204600F0B4F800284FF09A
:10EB50003200F5DA4FF0FF35284670BD204600F050
:10EB6000CBF8051EF6DB3346EAB20321204600F05F
:10EB700037F90028EEDB0121204600F015F90028C6
:10EB8000E8DB284670BD00BFF8B507461248134EB3
:10EB90000C46154603F0F2FC384603F0EFFC104833
:10EBA00003F0ECFC3368986806F0E8FE002006F0FD
:10EBB000E5FE0C4803F0E2FC3368986806F0DEFEE0
:10EBC000336829465A68204606F0A2FFBDE8F8409F
:10EBD000054806F0FFBB00BF88F60110980500202D
:10EBE00064F6011070F901101CF90110094A536A0A
:10EBF000D90703D5516A21F0010151629B0700D466
:10EC00007047044A0448536A23F00203536206F033
:10EC1000E1BB00BF009002407CF9011008B5084933
:10EC2000172001F0C3FC074B4FF400021A604FF4A9
:10EC3000407001F017FEBDE80840034802F042BEF4
:10EC4000EDEB001000E100E000A0024018F03CB83D
:10EC500001F006BE0B4611461A4601F0FFBD00BF8B
:10EC6000014802F055B800BF00E0014010B50C4863
:10EC70000022012101F0E0FF044660B9094908487B
:10EC800002F024F80849242001F090FC074B1022E0
:10EC90005A60204610BD064806F09CFB204610BD79
:10ECA00000E00140A086010061EC001000E100E0FE
:10ECB000A4F9011010B50F498AB00424CDE902105F
:10ECC000002301228DF806400DF107010DF1060425
:10ECD00002A8CDE90442CDE90612CDE908338DF84A
:10ECE000073002F00FF80028A8BF9DF807000AB00F
:10ECF00010BD00BF00E0014010B50F498AB00524E7
:10ED0000CDE90210002301228DF806400DF1070124
:10ED10000DF1060402A8CDE90442CDE90612CDE9C1
:10ED200008338DF8073001F0EDFF0028A8BF9DF8EB
:10ED300007000AB010BD00BF00E0014030B58BB045
:10ED400005460B4A0292012000238DF8040001AA17
:10ED5000022402A8CDE90424CDE90633CDE9083325
:10ED60008DF80510039501F0CDFF0BB030BD00BF4D
:10ED700000E0014010B58AB004460A488DF805103D
:10ED800000230222029001A902A8CDE90412CDE9D4
:10ED90000633CDE908338DF80420039401F0B2FF67
:10EDA0000AB010BD00E0014030B58BB005460B4AFB
:10EDB0000292042000230DEB00028DF804000224CF
:10EDC00002A8CDE90424CDE90633CDE908338DF856
:10EDD0000510039501F096FF0BB030BD00E0014037
:10EDE00030B58BB0094D8DF8071003900DF1070178
:10EDF0000120CDE90410002402A8CDE90632CDE9B6
:10EE00000844029501F07EFF0BB030BD00E00140E8
:10EE100070B5CAB08C46054619460DF1250014465A
:10EE20008DF824C007F01CFE084B019309AE0023A7
:10EE3000013401A8CDE90533CDE9073302950494E7
:10EE4000039601F05FFF4AB070BD00BF00E00140D3
:10EE50002DE9F04FD0E9146CD1E9004597B0F04BA3
:10EE6000876DC26DD0F84C80159096468CEA0700ED
:10EE7000E2187244304002EBF86278401044B24627
:10EE8000E3468CEAB602464632405E467240EE18D1
:10EE9000C4463E444FEABC0932448E68139789EA5F
:10EEA000BA0784EA06080740F418CDF850E05C443D
:10EEB000D1F80CE0CDF840C087EABA0702EBF06267
:10EEC000274489EAB0040EEB030C1440CDF844A0AB
:10EED0000CEBBA0C84EA0904D1F814A0CDF848B0C0
:10EEE00007EBF26764444FEAB202D1F810C08EEA31
:10EEF0000A0B85EA0E0582EAB00ECDF804B00EEAE0
:10EF0000070E0CEB030BCB448EEAB00EDE440AEB8B
:10EF1000030B0BEBB00B886904EBF76486EA0C0675
:10EF200082EAB7098CEA000CCDF808C009EA0409A6
:10EF3000D1F81CC00EEBF46E89EA02094FEAB40462
:10EF40008AEA0C0AD94484EAB70BCDF810A00BEA80
:10EF50000E0B00EB030A92448BEAB70B09EBFE6938
:10EF600084EABE02D3440CEB030A0AEBB70A02EAB6
:10EF700009020F6A6240524488EA070A80EA0708D9
:10EF8000486ACDF814800BEBF96B45404FEAB9099C
:10EF9000009589EABE058CEA000805EA0B0507EB37
:10EFA000030CA44485EABE0502EBFB62654489EAD2
:10EFB000BB0CCDF81880C418D1F828800CEA020CDC
:10EFC00004EBBE048CEA090CA44486EA080403940A
:10EFD000CE6A019C05EBF26584EA060E4FEAB202A6
:10EFE00080EA0604089482EABB0408EB03002C4084
:10EFF000484484EABB040CEBF56C044482EAB50097
:10F0000006EB030900EA0C0009EBBB095040484439
:10F01000D1F83090DDF808B004EBFC644FEABC0C8A
:10F02000CDF804C087EA080788EA090CD1F83480D3
:10F03000CDF824C08AEA080A8EEAFA7CDDF810E0EE
:10F04000CDF808A08EEA080ADDF808E0CDF82CC05B
:10F0500087EAFE770797019F86EA080686EAFC762C
:10F0600087EAB50E0A960EEA040E09EB030600EBDA
:10F07000F46016448EEAB50E87EAB402B644024044
:10F0800008EB030606EBB5067A403244D1E90E766A
:10F090000399009D71408AEAF17ACDF80CA0DDF861
:10F0A00014A08AEA070A8AEAFC7CDDF818A0CDF8E9
:10F0B00030C07D408BEA090B8BEAF57B8AEA060AB1
:10F0C0008AEAFB7A0495CDF814A0079DDDF80CA020
:10F0D00085EAFA7ACDF818A0049DDDF820A08AEA26
:10F0E000F57A8AEAFC7CDDF824A0CDF81CC0DDF8B6
:10F0F00014C00A9D8AEAF17A8AEAFC7ADDF818C01F
:10F1000085EAFC7CCDF820C089EA0709DDF81CC03F
:10F1100089EAFB7989EAFC794D46DDF80C90DDF847
:10F1200004C088EA060888EAF9780EEBF06E88EAEF
:10F13000FA784FEAB000CDF8008080EAB40807EB17
:10F14000030908EA0E08E14488EAB408C844DDF877
:10F150000890DDF830C0029587EAF97787EAFC77F6
:10F16000DDF820C087EAFC77099702EBFE6280EAAF
:10F17000BE0706EB030C17400CEBB40C474067448A
:10F18000DDF810C0059C86EAFC7686EAF47608EB8A
:10F19000F26886EAF5744FEAB2020A9482EABE0483
:10F1A00003EBF97604EA0804064484EABE0407EB9C
:10F1B000F86782EAB800344404EBF76403EBFC76AA
:10F1C00038404FEAB70706EBBE065040654687EA6F
:10F1D000B80C30440CEA040C03EBF176DDF818E0CF
:10F1E0008CEAB80C16444FEAF1710B9A664481EA36
:10F1F000F97C03EBF2738CEAFE7C4FEAF272DDF8E5
:10F200001CE0DDF8249082EAF57503EBB80385EA8B
:10F21000FE75DDF80080DDF830E085EAF97901E07F
:10F220009979825A81EAFB710A9D8CEAF87C81EA1D
:10F23000FA71DDF80C8081EAF571089D039182EA8C
:10F24000F87282EAF57282EAFC7200EBF4600B92CB
:10F2500087EAB40202407A401A44F24B06EBF066A9
:10F260004FEAB00080EAB40503EBFB713944754006
:10F2700002EBF66203EBF8770D4480EAB60105EB8A
:10F28000F265514007EBB4074FEAB202CC1982EAAB
:10F29000B60103EBFE7707446940704639444FEAF4
:10F2A000F070029FDDF814E080EAFB7B8BEAF77BCD
:10F2B0008BEAF977DDF818B00497099F80EAFB70B4
:10F2C00080EAF7700B9F80EAF77004EBF564069014
:10F2D00003EBFE7782EAB50007EBB60760403844DF
:10F2E00077464FEAF77787EAF876DDF8008086EA16
:10F2F000F876DDF80C80DDF81CE086EAF876DDF8BB
:10F30000288087EAFE7787EAF877DDF8108001EB3E
:10F31000F46187EAF8774FEAB404059703EBFB78CA
:10F3200084EAB50790444F4000EBF16084EAB102F3
:10F33000474403EBFE7807EBF067424008EBB50863
:10F340004FEAB00002EB080580EAB10203EBFA785D
:10F350004FEAFA7AA0447A408AEAFB74DDF808B0F2
:10F360004244DDF80C808AEAFB7A8AEAF87ADDF812
:10F370001480DDF820B08AEAF87ACDF81CA005EBFD
:10F38000F76580EAB70803EBFB7A0AEBB10A88EA73
:10F390000508D0444FEAFB7A8AEAFE71DDF818B01E
:10F3A00081EAF97181EAFB7101910099DDF82CB0D5
:10F3B0008AEAF17A8AEAFB7A84EAFC74DDF808B01A
:10F3C00002EBF56284EAF6744FEAB5058AEAF47E48
:10F3D00003EBFB7B85EAB70A83448AEA020A08EB5F
:10F3E000F26885EAB200DA4403EBF17B0999CDF8C3
:10F3F00034E00AEBF86A80EA08000BEBB70B4FEA3F
:10F40000B80800EB0B0788EAB20003EBF17BAB44D2
:10F4100080EA0A005844DDF808B04FEAF175049913
:10F4200085EAFB7B8BEAF17B01998BEAF17BCDF8D6
:10F4300020B0DDF818B085EAFC7585EAFB7585EA31
:10F44000FE75DDF828E0099507EBFA6788EABA054A
:10F4500003EBFE7B7D400BEBB20B05EB0B02009D3B
:10F460004FEAFE7B8BEAF575DDF81CE085EAF67560
:10F4700085EAFE752946059D8BEAF97B8BEAF57BCB
:10F48000089D00EBF7604FEAB7078BEAF57E87EA45
:10F49000BA0B03EBFC7545448BEA000B02EBF06200
:10F4A000AB4487EAB0050BEBF26B4FEAB20855406C
:10F4B00003EBF97202EBBA02DDF80CA0CDF838E0EC
:10F4C00003EBFA7ABA44039F4FEAF777154487EAC9
:10F4D000FC7C88EAB0028CEAF47C82EA0B0252449B
:10F4E0008CEAF17ADDF810C087EAFC77DDF81CC001
:10F4F00087EAFC7787EAFE770C97DDF82CE000912D
:10F5000005EBFB6588EABB0703EBFE7C0CEBB00C5C
:10F510006F40704667444FEAF070DDF804C0DDF8D4
:10F5200034E080EAF97989EAFC7980EAF670DDF85E
:10F5300024C080EAFE70DDF810E002EBF56289EA93
:10F54000FC7C4FEAB505CDF828C080EAFA7985EA57
:10F55000BB0C03EBFE7040448CEA020C844403EBCA
:10F56000F67007EBF26785EAB20800EBBB00DDF846
:10F5700018B0CDF82C900CEBF76C88EA07084FEA2E
:10F58000B70787EAB209804403EBFB7089EA0C09EC
:10F5900028444844DDF8149003EBF97303EBB203FD
:10F5A0005A464FEAF2724D46DDF82090DDF828B059
:10F5B00082EAFE7E4FEAF5758EEAF97E8EEAFB79E5
:10F5C00085EAF676DDF830B0DDF824E086EAF176FB
:10F5D00086EAFB7B82EAF4720B9E0199CDF808B0B3
:10F5E00082EAFE7282EAF67204920E9A85EAF17558
:10F5F00085EAF27585EAF97508EBFC68294687EA21
:10F60000BC0500EBF86085EA0805074A0F911D4428
:10F6100040EAB80303EABC0300EAB80E43EA0E0E60
:10F6200004E000BFA1EBD96EDCBC1B8F02EBF473CE
:10F6300005EBF0653B449E4445EAB00303EAB8039A
:10F6400005EAB0061E43019B02EBF3730EEBF56E69
:10F6500003EBBC031E44DDF81CC04EEAB50303EA0D
:10F66000B0030EEAB5071F4302EBFC7303EBB803CC
:10F670001F4463464FEAF37383EAF47484EAFA742E
:10F6800084EAFB7B089CDDF830C0DDF8348083EA37
:10F69000F47383EAFC7306EBFE6683EAF173059369
:10F6A00046EABE0303EAB50306EABE0C43EA0C0CC5
:10F6B00002EBF87303EBB0039C4443464FEAF3704C
:10F6C000019BDDF8008080EAF3710A9B81EAF37107
:10F6D000049B81EAF3730B9980EAF87080EAF17079
:10F6E00007EBF66780EAFB71069147EAB60101EA8B
:10F6F000BE0107EAB60841EA080802EBF4710CEB18
:10F70000F76C01EBB5018844009D4CEAB70101EAB2
:10F71000B6010CEAB700084302EBF57108EBFC6890
:10F7200001EBBE010844DDF824E048EABC0101EA2F
:10F73000B70108EABC050D4302EBFE7101EBB6010F
:10F740000D447146049EDDF818E04FEAF17181EA3C
:10F75000F47481EAFA7184EAF97481EAF67100EBD3
:10F76000F86084EAF37481EAFE71019403910E9CBF
:10F77000DDF800E040EAB80101EABC0100EAB806A1
:10F780000E4302EBF47101EBB7010E44029F4FEA06
:10F79000F47181EAFE74DDF814E084EAF77484EA17
:10F7A000FE7ECDF800E0DDF828E00F9C81EAFE71D6
:10F7B00081EAF471019C05EBF06581EAF47745EA92
:10F7C000B00101EAB80105EAB00406EBF5660C43A6
:10F7D00002EBFA71079701EBBC0146EAB50707EAAD
:10F7E000B0070C4406EAB501394302EBFE7704EB9F
:10F7F000F66407EBB8073944DDF8308044EAB60711
:10F80000F44607EAB50704EAB60E47EA0E0E02EB25
:10F81000F87707EBB00740464FEAF070DDF800805C
:10F8200080EAFA7A8AEAFB7A8AEAF87ABE44059F85
:10F83000CDF820A001EBF461DDF81CA0DDF82C80F0
:10F8400080EAF97080EAF77041EAB40780EAFA7A50
:10F8500007EAB60701EAB400384302EBF87707EB92
:10F86000B50745464FEAF575384485EAFC77DDF87B
:10F870000CC0DDF8088087EAF37787EAFC7CCDF8D6
:10F8800024C0DDF818C0089F85EAF8750EEBF16E0C
:10F8900085EAFC7585EAF7754EEAB10707EAB40711
:10F8A0000EEAB10C00EBFE6047EA0C0C02EBF977B4
:10F8B00007EBB60740EABE0606EAB106BC4400EA1A
:10F8C000BE07374302EBF8760CEBF06C06EBB406A0
:10F8D000DDF8108037444CEAB00606EABE060CEAB2
:10F8E000B004344302EBF87606EBB10641464FEA2A
:10F8F000F171344481EAF976DDF8049086EAF9760C
:10F90000DDF8249086EAF9760496039E81EAFB717D
:10F9100081EAF67107EBFC6781EAF5710A9147EA23
:10F92000BC08DDF83C90009E08EAB00807EABC017C
:10F9300048EA010102EBF97808EBBE084144DDF822
:10F9400008804FEAF97E8EEAF87888EAF67888EA45
:10F95000FA78CDF80880DDF81C80DDF814908EEA86
:10F96000F37E8EEAF87EDDF8108004EBF7648EEA11
:10F97000F87844EAB70ECDF82C800EEABC0E04EA03
:10F98000B7084EEA080802EBFB7E01EBF4610EEBD0
:10F99000B00EF04441EAB40E0EEAB70E01EAB4002C
:10F9A00008EBF1684EEA000002EBF37E0EEBBC0EB2
:10F9B00048EAB10C0CEAB40C704408EAB10E4CEA07
:10F9C0000E0E02EBF97C0CEBB70CF444DDF818E0FA
:10F9D00002EBFE7202EBB4024C464FEAF47787EA80
:10F9E000FB79DDF820B00A9C4FEAFE7E89EAFB79BC
:10F9F0008EEAF37B029B89EAF379099B8BEAF37B1E
:10FA0000019B8BEAF47B87EAF3770B9C87EAFA7712
:10FA100087EAF4778EEAF67EA44C109E00EBF8603D
:10FA20008EEAF57E8EEAF97E40EAB80304EBF979B6
:10FA30002644CDF814900C9600EAB809019E03EA1A
:10FA4000B1030CEBF06C43EA09034FEAB00004EB9E
:10FA5000F679134480EAB80209EBB10982EA0C0294
:10FA60004A44DDF8009003EBFC6380EABC0104EB40
:10FA7000F97909EBB80959404944DDF80C9002EBDB
:10FA8000F3624FEAB30383EABC0804EBF97988EA2E
:10FA90000208814408EB0900DDF80C804FEAF87990
:10FAA00089EAF678049E88EAF67888EAFB7804EB1F
:10FAB000FB7BCDF804B0DDF820B0CDF8108089EAEA
:10FAC000FB7904EBFB78DDF828B089EAFB7989EA59
:10FAD000FE7904EBFE7ECDF80CE004EBF97EDDF858
:10FAE0001C90CDF818E004EBF97E01EBF26198442C
:10FAF0000EEBBC0E83EAB2034FEAF97CDDF800900E
:10FB00004B4073448CEAF97EDDF808908EEAF97E6A
:10FB10008EEAF77E04EBFE7ECDF800E0DDF824E00F
:10FB200000EBF1608CEAFE7C4FEAB10104EBFE7E53
:10FB30000EEBB20E81EAB20204EBFA7A424003EB1A
:10FB4000F0638A44424481EAB00102EBF36204EBC1
:10FB5000F57559404FEAB30305EBB00583EAB000F1
:10FB600004EBF6767144504001EBF2611E445044C0
:10FB700083EAB20300EBF16004EBF9794B404FEA02
:10FB8000B10109EBB20981EAB202DDF82C8004EB85
:10FB9000FB7B2B44424003EBF0638B44324481EA0D
:10FBA000B00102EBF36204EBF87E59404FEAB30375
:10FBB0000EEBB00E059D83EAB0004944504001EBC6
:10FBC000F2611D44DDF80490584483EAB20300EB6F
:10FBD000F1604B404FEAB10109EBB20604EBF77755
:10FBE000734481EAB20203EBF0630F448CEAF87CC1
:10FBF0004240DDF81080DDF850E081EAB0012A448F
:10FC00005940039D02EBF36231444FEAB30304EB26
:10FC1000F87401EBF26105EBB0051C4483EAB00017
:10FC200083EAB20350404B4038442B44009D129E5F
:10FC3000139F00EBF1604FEAB10105EBB20581EAD9
:10FC4000B20242402244069C8CEAF87CDDF8308007
:10FC500003EBF0630C4481EAB00102EBF36259401C
:10FC600008EBFC7C4FEAB3030CEBB00C83EAB0006A
:10FC700050400D4405EBF2651199044404EBF56422
:10FC800015982144016506EBB501416507EBB2010A
:10FC900083EAB2026A4094440CEBF46473448165D5
:10FCA000C464C365002017B0BDE8F08FD6C162CA36
:10FCB000002800F099802DE9F04F0C4683B0904663
:10FCC00000296BD0824600683F2800F28A80DAF86B
:10FCD0000430D318CAF8043004D3DAF808300133FA
:10FCE000CAF808300AF10C06B0BBB8F13F0F5ED974
:10FCF000A8F1400727F03F07403727440AF10809D9
:10FD00000AF14805334604F1400BD4F800C060689E
:10FD1000A168E268DA6010345C45C3F800C058603E
:10FD2000996003F11003F0D15C464B4653F8042F61
:10FD300012BA9D421A60F9D131465046FFF788F851
:10FD4000BB450346DED108F03F08B8F1000F18D1DB
:10FD5000184603B0BDE8F08FC0F14007474528BF03
:10FD6000474630443A46214606F07AFEDAF800303B
:10FD70003B44402BCAF800301FD03C44A8EB070896
:10FD8000B3E7394630464246019306F069FE019BCF
:10FD9000CAF80080184603B0BDE8F08F002A0CBFF7
:10FDA00000236FF0AC03184603B0BDE8F08F274680
:10FDB0000023B8F1000FCBD0E3E70AF108030AF102
:10FDC000480553F8041F09BA9D421960F9D131461C
:10FDD0005046FFF73DF803460028B9D1CAF80000A5
:10FDE000CBE76FF08303B3E76FF0AC0318467047BF
:10FDF000002800F082802DE9F0410F46002979D0DB
:10FE00008046064658F80C3B3F2B70D85A1C0260BF
:10FE1000802208F803200368382B4AD808EB030037
:10FE2000C3F1380206F1080506F14804002106F086
:10FE3000ABFA2B4653F8042F12BA9C421A60F9D140
:10FE40007368B0685A0F02EBC002DB004146736072
:10FE5000B364B26072643046FEF7FAFF06F14C05F7
:10FE6000234606F15C0153F8042F12BA8B421A6044
:10FE7000F9D16968AB68EC68F26C3A607960BB6094
:10FE8000FC602A691E493A611E4AF16401F1883119
:10FE9000C6E9141202F12C521B4902F5C01202F2FB
:10FEA000F242C6E91612002333607360B360BDE806
:10FEB000F081C3F1400208EB03003546002106F053
:10FEC00063FA402345F8083B06F148042B4653F8F3
:10FED000042F12BA9C421A60F9D141463046FEF70F
:10FEE000B7FF0028E3D13060382240469EE76FF02C
:10FEF000BF00DCE76FF0AC00D9E76FF0AC007047F3
:10FF000001234567FEDCBA9876543210E0B11049FF
:10FF1000104A10B4C0E9131201F1294102F1544210
:10FF20000D4CA1F5961102F5A6220023A1F68B61D6
:10FF300002F26762C0E915410366C265036043606F
:10FF4000836010BC184670476FF0AC00704700BF6C
:10FF50000123456789ABCDEFFEDCBA9808B50346AF
:10FF6000014802F00BFBFEE7C0F90110002000F091
:10FF7000D9BD00BF012000F0D5BD00BF10B50020E5
:10FF800000F05EFB012000F05BFB402000F058FB1E
:10FF9000104B022218684FF4E13101F0EDFC041E11
:10FFA0000CDB00F0EBF858B900F088F8044660B9B3
:10FFB000094B0A484322DA6000F0BEFA204610BD21
:10FFC000074908486F22FFF7C9FF05490548742211
:10FFD000FFF7C4FF0000002000440040400D030074
:10FFE000DCF9011044FA011000BF70474FF0FF30F8
:10FFF000704700BF4FF0FF30704700BF4FF0FF3039
:020000041001E9
:10000000704700BF4FF0FF30704700BFF8B5E0B950
:10001000002A19DD104D0E468F180C4602E0BB4237
:100020000FD01C46284601F09DFDC1B22170284624
:1000300001F09AFD22780D2A04F10103EFD10A2381
:100040002370C6F10106A019F8BD06F0F7FA0923DE
:1000500003604FF0FF30F8BD00200440F8B5431EA8
:10006000012B21D8002A174612DD531E124E4C1EBA
:10007000CD1814F8013F0A2B0CD00F4801F078FD81
:100080000028FAD02178304601F06EFDAC42F0D164
:100090003846F8BD084801F06BFD0028FAD00D2164
:1000A000304601F061FDE8E706F0C8FA0923036075
:1000B0004FF0FF30F8BD00BF00200440F8B50D4BF5
:1000C0001F68A7B100250C4C2E46D4E9000100F0B2
:1000D000F5FC204600F0F8FB0135002818BF6FF052
:1000E0000706AF4204F10C04EFD13046F8BD3E469E
:1000F0003046F8BD4CFA011050FA01100B4B1B684A
:10010000834210B504460BD9094B04EB440403EBBE
:10011000840253F824005168BDE8104000F0E8BCA8
:10012000044905483B22FFF719FFEDE74CFA01109F
:1001300050FA011090FA0110E4FA01100B4B1B6801
:10014000834210B504460BD9094B04EB440403EB7E
:10015000840253F824005168BDE8104000F0AEBCA2
:10016000044905484622FFF7F9FEEDE74CFA011075
:1001700050FA011090FA0110E4FA0110F8B50B4B97
:100180001F6887B100240A4D2646284600F09CFBD4
:100190000134002818BF6FF00706BC4205F10C05BA
:1001A000F3D13046F8BD3E463046F8BD74FA011032
:1001B00078FA0110474885464748804780B9474943
:1001C000474A484B9B1A03DD043BC858D050FBDC20
:1001D0004549464A00209142BCBF41F8040BFAE76A
:1001E000434880474348804743488047FFF7FEFF26
:1001F000FEE7FEE7FEE7FEE7FEE7FEE7FEE7FEE7D7
:10020000FEE7FEE7FEE7FEE7FEE7FEE7FEE7FEE7C6
:10021000FEE7FEE7FEE7FEE7FEE7FEE7FEE7FEE7B6
:10022000FEE7FEE7FEE7FEE7FEE7FEE7FEE7FEE7A6
:10023000FEE7FEE7FEE7FEE7FEE7FEE7FEE7FEE796
:10024000FEE7FEE7FEE7FEE7FEE7FEE7FEE7FEE786
:10025000FEE7FEE7FEE7FEE7FEE7FEE7FEE7FEE776
:10026000FEE7FEE7FEE7FEE7FEE7FEE7FEE7FEE766
:10027000FEE7FEE7FEE7FEE7FEE7FEE7FEE7FEE756
:10028000FEE7FEE7FEE7FEE7FEE7FEE7FEE7FEE746
:10029000FEE7FEE7FEE7FEE7FEE7FEE7FEE7FEE736
:1002A000FEE7FEE7FEE7FEE7FEE7FEE7FEE7FEE726
:1002B000FEE7FEE7FEE7FEE7FEE7FEE7FEE7FEE716
:1002C000FEE7FEE7FEE7FEE7FEE7FEE7FEE7FEE706
:1002D000FEE7FEE700000220A1030110A86D021056
:1002E00000000020CC0B0020000C00206417002030
:1002F000A50301106169011081EA00100B4A08B5DD
:100300000346106828B10A4903448B4207D813609A
:1003100008BD08480649106003448B42F7D906F02F
:100320008DF90C2303604FF0FF3008BDA80C0020AE
:1003300000F00120681700204FF080439A6802F413
:100340006062B2F5206F20D011D9B2F5406F17D09E
:100350000F4B1049B2F5606F18BF0B464FF080424B
:100360000D499268C2F38212D3400B60704752B1BC
:10037000084947F23053B2F5C06F18BF0B46EDE79E
:100380004FF40043EAE7054BE8E74FF4E103E5E704
:10039000C068780400E1F505641700200087930326
:1003A0000020704710B50A4C0A4BA3600A4801F0C0
:1003B00087FAD4F8883043F47003C4F88830BFF368
:1003C0004F8FBFF36F8FFFF7B7FFFFF7D7FD10BD5C
:1003D00000ED00E000E0001000A0024038B54FF052
:1003E000E02318499C691A6922F480320A601A696C
:1003F000D20723D46FF07F4405225C614FF08075F3
:100400009C611A61104B114A19680023A0FB01017D
:100410000EF06EFF0E4BB0FBF5F205FB12008442AE
:100420001A6007D81A6801321A602C44094B201A46
:10043000186038BD074B201A186038BD5D6901355A
:10044000E0E700BFB00C00206417002040420F001E
:1004500004000020B40C002010B50C4C0C4B22689A
:100460001960002A0FDC08B9002010BDFFF7B6FFA5
:100470002368002BF8DD4FF0E0220020136943F0E1
:100480000203136110BD6FF0050010BD04000020D1
:10049000AC0C0020F8B5174C2368002B1EDB266837
:1004A0002EBB154B4FF0E0251B68AA699A421ED857
:1004B000124F3B685BB16FF00F009847104B3E60E6
:1004C0001A682A614FF0FF3323600020F8BD0C4A00
:1004D0004FF0FF3312682A612360F6E7074C236868
:1004E000002BF2D00020984700202060F8BD6FF06C
:1004F0000500F8BD04000020B40C0020AC0C002066
:10050000B00C002010B5094C236823B16FF00F0028
:10051000984700232360064A064B10684FF0E021FD
:100520004FF0FF3208611A6010BD00BFAC0C002014
:10053000B00C00200400002038B5184C2268002AB6
:1005400029DC00B938BDFFF749FF4FF0E02202E097
:100550001369DB031BD42368002BF9DC104B1A68EA
:100560004FF0E0218B699342FCD80E4D2B6823B1EC
:100570006FF00F00984700232B600B4B4FF0E022E9
:10058000196811614FF0FF330020236038BD2368E4
:10059000013B2360DFE76FF0050038BD0400002059
:1005A000B40C0020AC0C0020B00C0020F8B50F4EAD
:1005B0000F4BB2689A4204460D4600F1100707D06F
:1005C00018460C494FF4F07206F04AFA0346B06040
:1005D000002C43F8275008DB074B6209012004F088
:1005E0001F0400FA04F443F82240F8BD00ED00E0D7
:1005F000000E002000E0001000E100E03F2809D9D3
:100600000E4A4038D168C0B2012303FA00F0084313
:10061000D06070471F284FF0804208D92038916C75
:10062000C0B2012303FA00F0084390647047516A96
:10063000012303FA00F008435062704700000840AD
:100640003F280AD910494038CB68C0B2012202FACB
:1006500000F023EA0000C86070471F284FF0804177
:1006600009D920388B6CC0B2012202FA00F023EACB
:100670000000886470474B6A012202FA00F023EA06
:1006800000004862704700BF0000084010B507280E
:100690000AD8DFE800F00C09092333475B04BDE802
:1006A0001040364800F010B96FF0020010BD4FF056
:1006B00080440021A36843F48023A3604FF47A7040
:1006C000FFF7CAFE03E0FFF7E5FE063052D1A3684C
:1006D0005901F8D5FFF716FF002010BD00214FF497
:1006E0007A70FFF7B9FE4FF0804403E0FFF7D2FEC7
:1006F00006303FD1A3689A00ECD4F7E74FF080446E
:100700000021A36843F40023A3604FF47A70FFF73D
:10071000A3FE03E0FFF7BEFE06302BD1A3681B014A
:10072000F8D5D7E74FF080440021A36843F4801345
:10073000A3604FF47A70FFF78FFE03E0FFF7AAFE85
:10074000063017D1A368D800C4D4F7E74FF080442F
:100750000021A36843F40033A3604FF47A70FFF7DD
:100760007BFE03E0FFF796FE063003D1A3689B01F2
:10077000B0D4F7E76FF0090010BD00BFF4FA011024
:100780003F280AD94038114AC0B2012303FA00F0C9
:10079000906093681842FCD170471F280BD920380D
:1007A000C0B201234FF0804203FA00F05064536C52
:1007B0001842FCD1704701234FF0804203FA00F049
:1007C000506053681842FCD1704700BF00000840D9
:1007D000820736D100F17043B3F5002F0A468446F4
:1007E00020F00F0128D201F17043B3F5002F2BD375
:1007F000A1F18451B1F5804F23D243F6F0730CEA96
:10080000030303F5002300B5114883B0614616F0D9
:100810005FFA4FF08042136843F04003136013689F
:100820005B06FCD44FF080520A4B126801921B68A1
:10083000019303B05DF804FBA0F18453B3F5804F3E
:10084000D1D36FF002007047034B0CEA0303DAE7E1
:100850000090024000200010F0FF070016F03CBAA4
:1008600016F02EBA00F000B810F4407306D0054A16
:1008700011684A6A134300204B6270476FF0020010
:10088000704700BF08000020C10710B5044608D417
:10089000A2070BD463070ED42046BDE8104001F038
:1008A0004DBB0020FFF7CCFEA207F3D50120FFF7D8
:1008B000C7FE6307F0D54020FFF7C2FE2046BDE823
:1008C000104001F03BBB00BF38B57A4B05689D4234
:1008D000044659D003F580539D421CD003F5EE2306
:1008E00003F580639D4200F0A68003F500739D42EE
:1008F00013D00020FFF7C8FF6268217A284600F075
:1009000037F9A0B9637A042B00F2D180DFE803F055
:10091000897B6D5E4A000220ECE74068C30719D569
:10092000237A002B32D0012B02D06FF0100038BD9B
:10093000614A136A43F002031362637A012B7CD08D
:10094000022B00F08880002BEFD15B4A136A43F042
:100950000403136210F00200E9D0237AE3B1012B03
:10096000E3D1554A136A43F020031362607A0128E9
:100970007FD0022800F08C800028D6D14E4A136A1E
:1009800043F04003136238BD0120B3E74A4A136ABB
:1009900023F002031362D0E7474A136A23F02003CF
:1009A0001362E3E72B6E626823EA02032B666B6E29
:1009B00013436B66D5F8B83023EA0203C5F8B830A4
:1009C000A17A2846BDE8384000F0BAB82B6E6268BC
:1009D00013432B666B6E23EA02036B66D5F8B830BF
:1009E00023EA0203C5F8B830EAE72B6E626823EA0F
:1009F00002032B666B6E13436B66D5F8B830134356
:100A0000C5F8B830DCE72B6E626813432B666B6E5B
:100A100023EA02036B66D5F8B8301343C5F8B83043
:100A2000CEE72B6E626823EA02032B666B6E23EA25
:100A300002036B66C4E704205CE71F4B1A6A22F0CE
:100A400004021A621A6A22F002021A621A6A42F058
:100A500001021A627EE7184B1A6A22F004021A6237
:100A60001A6A22F002021A621A6A22F001021A625B
:100A700070E7114B1A6A22F040021A621A6A22F0D9
:100A800020021A621A6A42F0100200201A6238BD6F
:100A9000094B1A6A22F040021A621A6A22F02002F6
:100AA0001A621A6A22F0100200201A6238BD6FF032
:100AB000020038BD00800040006C00400A4A9042AD
:100AC0000B4601D000F034B8CA0704D507490A6ABA
:100AD00042F001020A629B0705D5044A136A43F0FB
:100AE000100313627047704700060840006C004016
:100AF0000A4A90420B4601D000F01CB8CA0704D540
:100B000007490A6A22F001020A629B0705D5044AD6
:100B1000136A23F010031362704770470006084001
:100B2000006C004001F01CBA00F006B800F006B8F6
:100B3000C16170470162704781647047006C704703
:100B400069B1012907D1D0F8C03000211A43C0F89B
:100B5000C020084670476FF0020108467047D0F881
:100B6000C03023EA0202C0F8C0200846704700BF28
:100B70000346006B104318635A6005292AD8DFE842
:100B800001F00A12141B2203C3F8882000209A6780
:100B9000DA669A6070475A615A6000201A67DA670D
:100BA000C3F8882070471A61F6E7C3F88820002050
:100BB000DA671A679A607047C3F888200020DA67FE
:100BC000DA669A607047C3F8882000209A671A672F
:100BD0009A6070476FF00200704700BF00F006B9DE
:100BE00008B5124B98420DD0114B984212D0114BC0
:100BF000984217D13820FFF701FD3420FFF7C0FDE0
:100C0000002008BD0D20FFF7F9FC1020FFF7B8FD0C
:100C1000002008BD1C20FFF7F1FC2020FFF7B0FDED
:100C2000002008BD6FF0010008BD00BF00D00140EA
:100C300000E0014000F00140C0B370B504460D462D
:100C40001646FFF7CDFF1B4B9C4212D01A4B9C421D
:100C50001CD01A4B9C4226D13820FFF7F1FC1848D3
:100C6000FFF732FE324629462046BDE8704000F0CC
:100C700055B80D20FFF7E4FC1248FFF725FE324679
:100C800029462046BDE8704000F048B81C20FFF718
:100C9000D7FC0D48FFF718FE324629462046BDE82E
:100CA000704000F03BB86FF0010070BD4FF0FF30B6
:100CB000704700BF00D0014000E0014000F001405B
:100CC00018FB011000FB01100CFB0110034B9942B3
:100CD00001D800F0A5B86FF01000704740E1330074
:100CE00000F0F0B800F0FEB800F00EB900F01AB94C
:100CF00000F030B900F046B900F04CB900F052B93C
:100D000000F054B900F0BEB900F092BA00F0A0BAF9
:100D1000014B196800F0A0BD0C000020F8B50028B8
:100D200058D00F46102115460446FFF7E9FF064646
:100D300008B13046F8BD236843F001032360204624
:100D4000FFF7D8FF2046FFF7D7FF02212046FFF725
:100D5000DDFF06212046FFF7D7FFD7B123681F4AE2
:100D600043F00203944223602ED01D4B9C420ED0D0
:100D70001C4884420CBF02244FF0FF341A4B04EB92
:100D8000440403EBC404012363603046F8BD01242E
:100D9000F4E73A4629462046FFF720FF0F4B9C42D6
:100DA00014D003F580539C4212D00E498C420CBFE4
:100DB00002214FF0FF310C4B01EB410403EBC40463
:100DC000002666603046F8BD3446D7E73946F2E77C
:100DD0000121F0E74FF0FF36ABE700BF00D0014044
:100DE00000E0014000F00140041000200346A0B1E3
:100DF0006AB9B1F5806F0DD27F29C26484BF4FF408
:100E00000042C264C26C11430020D96470476FF085
:100E1000100070476FF0020070474FF0FF307047CE
:100E2000002841D010B4224AA1F574236FF4107445
:100E30002344934214D31F4B994230D81E4B1B6856
:100E40005B08B3FBF1F149088B1EB3F5FF7F01F19D
:100E5000FF3124D841635DF8044B8163FFF740BF45
:100E6000154B164C1B685B08B3FBF1F14A00A4FB61
:100E700001C14908A4FB0242013952080F2902F1BD
:100E8000FF320CDC0F2A0ADC0902D2B289B211430C
:100E9000C16302680A4942F400420260D1E76FF080
:100EA00002005DF8044B70474FF0FF30704700BF01
:100EB000009F240040E1330064170020ABAAAAAAD7
:100EC000801A06000649436B826B0868C2F3080269
:100ED000C3F3080313444008B0FBF3F0704700BFAE
:100EE00064170020034658B1006B1A6B10F0010024
:100EF00016BF42F0020242F0010200201A6370475E
:100F00004FF0FF30704700BF48B1036B43F004035C
:100F10000363036B13F00403FBD1184670474FF0D3
:100F2000FF30704798B191B17AB1002301F1FF3CD5
:100F300006E0C16A0133C9B29A420CF8031004D02A
:100F400041688907F5D518467047104670474FF03D
:100F5000FF30704798B191B17AB1002301F1FF3CA5
:100F600006E001339A421CF80310C9B2C16204D0F2
:100F70004168C906F5D518467047104670474FF0CE
:100F8000FF307047C36943F08003C361C3691B0628
:100F9000FCD47047436A43F080034362436A1B06F4
:100FA000FCD4704781600261704700BF002865D0A3
:100FB000036843F001032DE9F0410360076803680B
:100FC00043F480630E46044607F4806703600029FB
:100FD00043D000252BE0FFF7AFFA236823F080030E
:100FE00023600A20FFF7A8FA236813F400784FF073
:100FF0000A002BD1FFF7A0FA236843F08003236097
:101000000A20FFF799FA23689A054FF00A001DD5C8
:10101000FFF792FA236843F0400323600A20FFF7AA
:101020008BFA2368DB0525D40135AE4215D00A20A2
:10103000FFF782FA236823F0400323600A20FFF7BA
:101040007BFA2368D9054FF00A00C4D5236801351F
:1010500043F0C003AE422360E9D16FF008001FB92E
:10106000236823F480632360236823F00103236053
:10107000BDE8F0814046002FF6D1F1E74FF0FF3098
:10108000704700BF2DE9F041D0E900437F2B00F20B
:10109000C980664B9C42054608D003F580539C42AC
:1010A00004D003F580539C4240F0B6802368980733
:1010B00040F1B58007226FF07F412046FFF71EFE0A
:1010C0002046FFF719FE2046FFF714FE6A69002349
:1010D000E360636142BBEA686B685B00E362236BB9
:1010E00043F0010300262363202704E0A36813F4E0
:1010F000FE4F11D1EA68964219D2A3689906F5D538
:10110000A968921B31442046FFF7F2FDA760A3684F
:1011100013F4FE4F0644EDD0EE602046FFF7E4FDE9
:101120006FF00800BDE8F081EA68002AD4D10022FF
:1011300011212046FFF7E2FD6B69002B4DD0B3F57E
:10114000807F88BF002323622046FFF7CBFD266BFC
:1011500016F00206FBD16B686A695B0043F001037D
:10116000E362002A39D010274FF001081DE0A36880
:1011700013F4FE4329D1A26812F0010F6A6912D05C
:10118000B24210D2911BB1F5807F8CBF23622162E5
:101190006B68216B5B0043F0010341F002012163A6
:1011A000C4F80880E362964217D2A36813F0110FC7
:1011B000DDD02969921B31442046FFF797FDA760D7
:1011C000A36813F4FE430644D5D06E612046FFF7B2
:1011D0008BFD6FF00800BDE8F081AB698BB1236B2C
:1011E00043F002032363A368DB07FCD54123A3601C
:1011F000A36813F4FE4F0CBF00206FF00800BDE899
:10120000F081236B43F004032363A3685A06FCD5E3
:10121000A368DB07E7D5E9E76FF00200EFE76FF0BF
:101220000600ECE76FF01000E9E700BF00D00140D6
:101230008269D2B28A42034607D3C26922F470623D
:1012400042EA01210020D96170476FF00200704727
:101250008269C2F307228A42034607D3426A22F414
:10126000706242EA01210020596270476FF002006B
:10127000704700BF2DE9F84F054668B3012800F01C
:10128000B580022800F043810026DFF8E8B2B46898
:101290005BF820A014F4FE4440F02081DFF8D892DF
:1012A000DAF80C2059F82560DFF8D082B24258F8FD
:1012B0002570134630D8DAF81410B94248D9A3681B
:1012C00013F0110F38D1B24200F0EC8049F82560DC
:1012D00048F82570BDE8F88FA34CDFF898B2A368F2
:1012E000DBF800A013F4FE4FD8D0A368A3602369F5
:1012F00023612046E5606561FFF7F6FCDBF800003E
:10130000C36913B16FF008019847E5606561A36890
:10131000A3602369236194E0A368990600F1968095
:10132000E36843F02003E360DAF814108F42CDD273
:10133000A36813F0110FC6D0CA1BDAF810102046AC
:101340003944FFF7D3FC1023A360DAF80C300744CC
:10135000B342BBD1DAF81410B94240F0A3800023A5
:10136000E3606361A368A360DAF818302269226140
:10137000002B40F0D780236B43F004032363A36862
:1013800013F4FE4F784B00F0DB809C4200F00181AB
:1013900003F580539C4200F00F8103F580539C427B
:1013A0000CBF02234FF0FF335BF82300C369002B0F
:1013B00000F0E6806FF0080198470023E360636166
:1013C000A268A260684A2169216194420AD0674BF1
:1013D0009C4200F0DC8003F580539C420CBF02234A
:1013E0004FF0FF3300224BF8232073E75F4CDFF808
:1013F00084B1A368DBF804A013F4FE4F3FF44EAFB2
:10140000A368A360226922610023E3602046636130
:10141000FFF76AFC5BF82500C3691BB16FF0080198
:1014200098470023E3606361A368A3602369236195
:101430004E4B9C427BD04E4DAC420CBF02254FF030
:10144000FF3500234BF82530BDE8F88FDAF8081097
:10145000921B31442046FFF74BFCDAF80C2006447F
:101460002023B242A3603FF65BAFE36823F0200382
:10147000E3607FF459AFDAF8141000293FF46CAF41
:10148000236B43F0020323630123A360E368B942A3
:1014900043F00103E3607FF65FAFA36813F0110F21
:1014A0007FF44AAFA368DB077FF510AF0123A36089
:1014B0002FB9DAF804305B0043F00103E362CB1B81
:1014C000B3F5807F88BF00232362E3688F4234BF77
:1014D00043F0110323F01103E360F7E6B368B36050
:1014E000336933613046F6607661FFF7FDFB5BF8E8
:1014F000040CC469ECB16FF00801A047F660766196
:10150000B368B360336933614FF0FF3599E7184C26
:10151000DFF860B0A368DBF808A013F4FE4F3FF4D7
:10152000BDAE6DE7236B43F00203236327E701257C
:1015300087E7E4606461A368A360236923617AE7B5
:101540009C4233D003F580539C4237D003F580533F
:101550009C420CBF02234FF0FF335BF82300C369AA
:1015600073B10021984728E700D0014000E0014016
:1015700000F00140EC0F0020F80F0020E00F0020E9
:10158000E3606361A368A360236923611FE701230C
:1015900028E7DBF80000C369002B7FF40BAFE360A2
:1015A0006361A268A260226922611BE7DBF8000088
:1015B000C369002BD5D1F2E70123F5E60123CCE77F
:1015C0002DE9F84398460E469F4B11688768D0F87E
:1015D000009015460B4000220446C8F80020002B5E
:1015E00075D117F4FE4F40F0E580CA0640F127811F
:1015F000FB0606D51EB1002202212046B04710236B
:10160000A3602369D90706D51EB100220621204612
:10161000B04701232361296848F220030B4200F000
:10162000F180BB0606D51EB1002203212046B0473B
:101630002023A3602369980706D51EB10022052147
:101640002046B0470223236139041FD50023C8F880
:1016500000301EB1424604212046B0477B4A002399
:101660004FF400419442A160C5E900330AD0784BA1
:101670009C4200F0E28003F580539C420CBF0223A1
:101680004FF0FF33734A002142F823107A061ED52B
:101690000023C8F800301EB1424604212046B0475E
:1016A0006A4A002340219442A160C5E900330AD070
:1016B000674B9C4200F0BF8003F580539C420CBFF7
:1016C00002234FF0FF33634A002142F823107B02CC
:1016D00011D51EB1002211462046B0474FF48003B9
:1016E000A3600823A3604FF40043A36047F6117C76
:1016F0000123C5E900C338020ED51EB10022012125
:101700002046B0474FF40003A3600823A3604FF6C0
:1017100020710223C5E900133A0716D519F40062B7
:1017200075D01EB1002201212046B0474FF480023F
:101730000823A2604FF40041A3604FF620720223F9
:10174000A160C5E90023BDE8F88317F4FE4FFAD085
:101750006FF00803C8F800301EB14246042120464D
:10176000B04707236FF07F42A2602361636A43F0B2
:1017700080036362636A1B06FCD4E36943F0800361
:10178000E361E36913F08003FBD1304A9442C5E979
:10179000003309D02E4B9C4249D003F580539C4224
:1017A0000CBF02234FF0FF332A4A002142F82310D6
:1017B000BDE8F8836FF00803C8F8003016B1424660
:1017C0000421B04707226FF07F412046FFF796FAC9
:1017D0002046FFF791FA2046FFF78CFA1B4A0023B8
:1017E0009442C5E9003309D0194B9C4221D003F53E
:1017F00080539C420CBF02234FF0FF33154A002157
:1018000042F823106B689A077FF540AF09E716B1DD
:1018100011462046B04708234FF40001A16047F667
:101820001172A3600123C5E90023BDE8F8830123F9
:10183000BAE70123E2E7012345E7012322E76B68CA
:10184000D8073FF5D5AEE7E60800C00000D001405C
:1018500000E00140EC0F002030B5174B984285B0F6
:10186000044624D003F58053984205D003F58053F5
:1018700098421ED005B030BD012023689B0704D5D7
:1018800005B0BDE83040FFF7F5BCE5680B4B626979
:1018900053F82010CDE9025201AB02AA2046FFF70F
:1018A0008FFEDDE90223E260636105B030BD0020F8
:1018B000E3E70220E1E700BF00D00140EC0F002089
:1018C00000F002B800F018B8D0F80031012223F07F
:1018D0000103C0F80031C0F80027D0F80031DA0366
:1018E000FBD5D0F8003143F00103C0F80031D0F847
:1018F0000031DB03FBD57047D0F8003123F0010342
:10190000C0F80031704700BF08B5174B984210D09F
:10191000164B984215D0164B98421AD0154B984248
:101920001FD14420FEF72CFF4420FEF767FE002065
:1019300008BD0B20FEF724FF0920FEF75FFE002004
:1019400008BD0C20FEF71CFF0A20FEF757FE002002
:1019500008BD1C20FEF714FF2120FEF74FFE0020DB
:1019600008BD6FF0020008BD0020044000300440B4
:10197000004004400014084070B504460E46154669
:10198000FFF7C2FFA8BB022D2DD0042D18D0204B8D
:101990009C421BD01F4B9C422CD01F4B9C4230D0F2
:1019A0001E4B9C4223D11E48FEF78EFF4420FEF7BB
:1019B00047FE2A4631462046BDE8704000F0F6B8A2
:1019C0000620FEF763FE124B9C42E3D11548FEF75A
:1019D0007BFF0920FEF734FE2A4631462046BDE84B
:1019E000704000F0E3B80520FEF750FECFE76FF03F
:1019F000020070BD0C48FEF767FF0A20FEF720FECC
:101A0000D7E70A48FEF760FF2120FEF719FED0E76E
:101A1000002004400030044000400440001408400E
:101A200048FB011024FB011030FB01103CFB0110AE
:101A3000304B984210B5044616D003F580539842B7
:101A400012D003F5805398420ED003F575339842B7
:101A500007D10523022A436143D0042A13D0002A68
:101A60003FD06FF0020010BD042AFAD0204600F0EB
:101A7000D5F80028F7DD236843F40043236023688A
:101A80001B03FCD510BD02684FF480331A4302607B
:101A90000068B3FBF1F340F40010B1F5166F20605D
:101AA00001FB03F28CBF00200120C2F5803260618F
:101AB000ABB1B2EB510F12D80F4A1361106800F4AA
:101AC0004030B0F5803F05D0136813F4403FC8D1D3
:101AD0004FF4E100084B1B69B0FBF3F0C9E7013399
:101AE000EAE74FF4E103B3FBF1F301FB03F2C2F5C4
:101AF000E102DDE70020044000140840124B984248
:101B00001CD003F58053984218D003F580539842B7
:101B100014D003F57533984212D1036803F44033AF
:101B2000B3F5803F05D0036813F4403F08D14FF46C
:101B3000E103064A1069B3FBF0F0704700F0BCB84F
:101B40006FF00200704700BF0020044000140840FE
:101B500000F0F0B800F00EB900F032B900F08AB928
:101B600000F0A4B900F008B800F012B800F0BCB959
:101B700000F0BEB900F0C2B910B504462046FFF728
:101B8000F5FF0028FAD02046BDE81040FFF7E6BF79
:101B900038B504460D462046FFF7EAFF0028FAD084
:101BA00029462046BDE83840FFF7DABF1A4B984275
:101BB00070B504460D4616460BD003F58053984287
:101BC00007D003F58053984203D003F5753398424C
:101BD0001FD101212046FFF7CDFF00B170BD0821C4
:101BE0002046FFF7B5FF0028F8D101462046FFF751
:101BF000B3FF0028F2D101462046FFF7ABFF0028D3
:101C0000ECD1324629462046FFF712FF00EAE07089
:101C100070BD6FF0020070BD00200440234B98425D
:101C20000BD003F58053984207D003F580539842B8
:101C300003D003F57533984234D10523012A10B43B
:101C4000436125D0022A16D022B16FF002005DF860
:101C5000044B7047164B1A685208B2FBF1F301FBB4
:101C6000132213B1B2EB510F00D901335DF8044BCD
:101C70000361FFF743BF04684FF4E10344F4003409
:101C8000B3FBF1F301FB03F2C2F5E1020460E8E704
:101C90000468084AB2FBF1F344F48034046001FBA9
:101CA0001322DEE76FF00200704700BF00200440FF
:101CB00064170020C06878041B4B98420BD003F5D2
:101CC0008053984207D003F58053984203D003F520
:101CD0007533984225D1036803F44033B3F5803F50
:101CE00014D0036813F4403F06D1104B00691B6801
:101CF0005B08B3FBF0F07047036803F44033B3F5BF
:101D0000003F08D003686FF002007047084B00697D
:101D1000B3FBF0F0704700694FF4E103B3FBF0F060
:101D200070476FF0020070470020044064170020E5
:101D3000C06878040E4A904203460BD002F58052E8
:101D4000904207D002F58052904203D002F57532DE
:101D500090420AD10539032907D81A6822F4406253
:101D600042EA81210020196070476FF0020070473D
:101D700000200440114B98420BD003F58053984249
:101D800007D003F58053984203D003F5753398428A
:101D900002D161B1012903D06FF0020108467047FA
:101DA0000368002143F480530360084670470368CA
:101DB00023F4805303600846704700BF00200440AE
:101DC0002B4A904203460BD002F58052904207D036
:101DD00002F58052904203D002F57532904244D110
:101DE000042942D8DFE801F01117253303001A68EF
:101DF00042F010021A601A6842F020021A601A6853
:101E000042F0400200201A6070471A6822F0100267
:101E100000201A6070471A6842F010021A601A68AF
:101E200022F020021A601A6822F0400200201A6094
:101E300070471A6842F010021A601A6822F02002F5
:101E40001A601A6842F0400200201A6070471A684F
:101E500042F010021A601A6842F020021A601A68F2
:101E600022F0400200201A6070476FF002007047B5
:101E7000002004400C4B98420BD003F5805398424D
:101E800007D003F58053984203D003F57533984289
:101E900004D14368DB0604D4006A70476FF0020087
:101EA00070476FF00C007047002004400D4B9842C3
:101EB0000BD003F58053984207D003F58053984226
:101EC00003D003F57533984206D1436813F08003BD
:101ED00005D10162184670476FF0020070476FF03D
:101EE0000B007047002004404068C0F30320704797
:101EF0004068C0F30330C0F1080070470E4A9042BA
:101F000003460BD002F58052904207D002F5805272
:101F1000904203D002F57532904209D14A1E072A39
:101F200006D81A6822F00F0211430020196070478A
:101F30006FF00200704700BF0020044010B5064C4F
:101F4000217831B905484FF4007204F01DFA0123DD
:101F50002370002010BD00BF4C1400204C10002046
:101F6000032870B5054625D8E0B9174E3046FEF770
:101F7000DDFD044601463046FEF7D6FD8CB1134E1A
:101F8000134B06EBC51603EBC515E30703D52B680A
:101F90000BB130689847640806F1040605F10405A2
:101FA000F3D170BD01280CD00A4E0B4B022818BF8C
:101FB0001E46DBE709490A485A22FDF7CFFF0026F3
:101FC000D4E7084ED2E700BF008000404C1200204A
:101FD0004C100020000408400006084054FB01108B
:101FE000B4FB011000900040024B0146186800F05D
:101FF0000BB800BF98050020024B0146186805F099
:10200000DFBE00BF980500202DE9F04F01F10B0560
:10201000162D85B0064624D8102900F2B18003F0B1
:1020200081F9102518234FF0020CBA4F3B44A3F15D
:1020300008025C68944200F022816368E268A1684B
:1020400023F00303CA602344304691605A6842F08B
:1020500001025A60083403F06BF9204605B0BDE870
:10206000F08F35F0070500F18B80A94200F28880DF
:1020700003F058F9B5F5FC7FC0F073816B0A00F0EE
:102080008380042B00F22281AB0903F1390C03F1A8
:10209000380E4FEACC039F4F3B44A3F108005C6825
:1020A000A04207D10DE0002AE16880F2E280884278
:1020B00007D00C46636823F003035A1B0F2AF2DD96
:1020C000F446DFF854823C69444500F0BF80636801
:1020D00023F00309A9EB05030F2B00F34781002B25
:1020E000C7E9048880F23181B9F5007FD7F804E0B0
:1020F00080F0CC804FEAD90101314FEA5919012310
:1021000003FA09F357F83120A2604EEA030E07EBF9
:10211000C103083BE360C7F804E047F83140D460EE
:102120004FEAAC0301209840704534D810EA0E0FF6
:1021300007D12CF0030C400010EA0E0F0CF1040C38
:10214000F9D007EBCC0A5246E146D1680EE04B6865
:1021500023F00303A3EB050EBEF10F0F0C46C96875
:1021600000F3C180BEF1000F80F2E2808A42EED11E
:1021700009F1010919F0030F02F10802E5D121E18B
:102180000C233360002468E74FF400734FF0400CD9
:102190004FF03F0E7FE7BC68636823F00309A94551
:1021A00003D3A9EB05030F2B53DC5C4BDFF870B1B5
:1021B0001B68082003F1100804F046FADBF8003031
:1021C00001900133A84404EB090205D008F1FF385F
:1021D0008044434203EA080841463046029204F034
:1021E00005FAB0F1FF3F029A824600F0DC8082429D
:1021F00000F2D7804B4B01991868404401F1FF3140
:102200001860844640F0FC801AEA010F40F0F88024
:10221000D7F808A0C84448F00102CAF80420424B8D
:102220001968814238BF1860404B1968814238BF35
:102230001860544622F00308A845A8EB050301D313
:102240000F2B06DC304603F073F89BE7D7F804E069
:1022500066E7621943F0010345F001056560304609
:10226000BA60536003F064F80834204605B0BDE856
:10227000F08FA2682344D16030468A60E6E6DC68CD
:10228000A3427FF4DAAE0CF1020C1AE7B9F5206F25
:102290004FEA59227ED3142A00F2158102F15C0321
:1022A000DB005B32F918FB580839994203D1F0E0A2
:1022B0009B68994204D05A6822F003024A45F7D835
:1022C000D968C4E902318C60DC6029E7142B6DD930
:1022D000542B00F201812B0B03F16F0C03F16E0EF6
:1022E0004FEACC03D7E63046A668621945F00105EF
:1022F0006560F1608E604EF00101C7E90422C2F80A
:102300000880C2F80C80516044F803E003F010F834
:102310000834A2E6180000202000002080140020CD
:1023200010000020501400207C140020781400209D
:10233000234430465A6842F001025A6054F8083F7C
:10234000D9608B6002F0F4FF87E6A1443046D9F8EB
:10235000043043F00103C9F80430083402F0E8FF08
:102360007BE64FEAD50C05F108035EE6621943F0FF
:10237000010145F0010565603046C7E90422C2F855
:102380000880C2F80C80516044F8093002F0D0FF98
:10239000083462E64FEA991202F13903DB00383261
:1023A00080E7BC4224D0BC68626843E703F15C0C60
:1023B00003F15B0E4FEACC036DE65AF8083953453A
:1023C00040F0D8801CF0030F0CF1FF3CF5D17B6886
:1023D00023EA00037B60400098423FF6DCAE18B968
:1023E000D9E6400009F104091842FAD0CC46A8E623
:1023F000614B0199186808EB000C0139C3F800C063
:10240000DBF8000001301BBFAAEB02026244CBF8EC
:1024100000A01A601AF00702CDE9022342D0C2F1EF
:102420000802019B9244D044134408EA01001A1A9E
:1024300002EA010B5946304604F0D8F8421C039BCF
:102440007AD0A0EB0A0000EB0B081868C7F808A0C8
:1024500048F001025844BC42CAF8042018603FF416
:10246000DEAEB9F10F0F42D96168A9F10C0222F07A
:10247000070201F0010111436160A1184FF0050C42
:102480000F2AC1F804C0C1F808C04AD8DAF80420FD
:10249000C5E69210012000FA02F24EEA020EC7F8D9
:1024A00004E00EE7019B0AEB08020A409A1A02EACE
:1024B000010B5946304604F099F8431C039BC0D1E8
:1024C000DDF808B0C1E7542A15D84FEA193202F1F5
:1024D0006F03DB006E32E5E6B3F5AA7F15D8EB0B90
:1024E00003F1780C03F1770E4FEACC03D3E5012317
:1024F000CAF80430A6E6B2F5AA7F25D84FEAD93249
:1025000002F17803DB007732CCE640F2545293427A
:1025100025D8AB0C03F17D0C03F17C0E4FEACC0304
:10252000B9E5304604F10801019305F049FC019B2F
:10253000D7F808A01868A9E7029A083A9044A8EBCF
:102540000A084FF0000B80E740F254539A420DD82E
:102550004FEA994202F17D03DB007C32A2E64FF4A0
:102560007E734FF07F0C4FF07E0E94E54FF47E7338
:102570007E2297E67B682EE7501400200FB400B54A
:10258000074983B004AB086853F8042B81680193B2
:1025900000F008F803B05DF804EB04B0704700BF2A
:1025A000980500202DE9F04FDFB01C4607919146B9
:1025B000834603F0C3FF03681993184604F000FB39
:1025C0000822189000212EA80D9403F0DDFEBBF127
:1025D000000F04D0DBF83430002B01F07F80079B24
:1025E0005A6EB3F90C30D50702D4980540F19F8696
:1025F000990407D407994A6E43F4005322F4005219
:102600008B814A661A0740F1CC80079A1269002A2A
:1026100000F0C78003F01A020A2A00F0D1800023DC
:10262000CDE93333CDE91B33CDE91D3313931A9331
:102630000A9300240023CDE9163435AA329290463D
:10264000CDF820B04D46089F2E468D4BD3F8E44080
:1026500003F06EFF03462EA8009032462AA93846A2
:10266000A047002800F0CB80C0F2C1802A9A252A1A
:10267000034601D01E44E8E7771B044640F0C280C1
:1026800000238DF89F3099460B934FF0FF327378FB
:102690000992741C0134A3F120025A2A00F2F2803C
:1026A000DFE812F0C702F000F000C302F000F00013
:1026B000F0006A00F000F0007D02A002F000880245
:1026C000A902F000A5025B005B005B005B005B0001
:1026D0005B005B005B005B00F000F000F000F000CE
:1026E000F000F000F0007101F00008022203710117
:1026F00071017101F000F000F000F0001E03F00025
:10270000F000DA02F000F000F0002602F0000B0307
:10271000F000F0001707F000F000F000F000F0000B
:10272000F000F000F0007101F000080258027101A1
:1027300071017101960258020402F0008C02F0004F
:102740004D033F073B030402F00026027D003A07D9
:10275000F000F0004307F0007D00A3F130020021FB
:1027600014F8013B01EB810102EB4101A3F13002BE
:10277000092AF5D90B918EE7089F384603F0DEFE53
:1027800043681D93184604F01BFA1E90064638460F
:1027900003F0D4FE83681B93002E40F0218623783B
:1027A00078E7079D5846294603F0A0FC002841F031
:1027B000A683B5F90C3003F01A020A2A7FF42FAF72
:1027C0000799B1F90E20002AFFF629AF4A6ED50706
:1027D00002D4980541F1BF81079923464A465846DD
:1027E00001F004FD0A900A985FB0BDE8F08F08225E
:1027F00000212EA803F0C8FD01231E4425E7771B06
:10280000044611D0349B3B443493339B0133072B54
:10281000C8E90057339313DC08F108080A9B3B44CE
:102820000A93002C7FF42CAF349BDDF820B0002BF2
:1028300041F0D680079B0022B3F90C30339212E0AE
:10284000DDE9071032AA01F04DFD48B90DF1D408B9
:10285000E4E7BB460C9B1BB10C99584605F0B0FA57
:10286000079BB3F90C30079A526ED40740F11481DC
:10287000590601F150830A985FB0BDE8F08F00BFA0
:102880002C040020CDE90E34002BCDD000228DF891
:10289000143101238DF89F2006930C929B460992D8
:1028A00014921092129245AD19F0020302D00699CB
:1028B0000231069119F08407349C05D10B990698D2
:1028C0000E1A002E00F3A78082B10122C8F804205E
:1028D000339A013201340DF19F01072A3494339267
:1028E000C8F8001000F3E18308F1080883B1339BB6
:1028F00028AA01330234C8F80020072B4FF0020247
:1029000034943393C8F8042000F3DD8308F10808F9
:10291000802F00F0BE82099BA3EB0B06002E00F374
:10292000FD8219F4807F40F01982339BC8F8005073
:1029300001335C44072BC8F804B03494339300F39C
:102940004D8308F1080819F0040F05D00B9B069A77
:102950009D1A002D00F3C383DDE90A3206998A42ED
:10296000ACBF9B185B180A93002C40F00F83002328
:1029700033930C9B1BB10C99089805F021FA0DF1CB
:10298000D4080F9D5FE6CDE90E340D9B073323F08D
:102990000703F3E802670D9327F000432393229681
:1029A000DDE922ABA84B4FF0FF3250465946CDE946
:1029B00016670CF0EFFB002840F03085A24B4FF07B
:1029C000FF32504659460CF0C7FB002840F02685E0
:1029D00000220023304639460CF0B4FB002841F0B9
:1029E0000F819DF89F20994D994B29F080090E99F0
:1029F0004729C8BF1D46002303210C9306918B462F
:102A00000993149310931293002A3FF44DAF069B41
:102A10000133069348E7102E339A41F33D828D48E7
:102A20002195CDE91F372146079D089C15904FF051
:102A3000100A074604E0103E102E08F1080816DDC3
:102A400001321031072AC8E9007ACDE93321F2DDDD
:102A500032AA294620460DF1D40801F043FC002893
:102A600040F03686103E102EDDE93321E8DCDDE94A
:102A70001F37219D0C4601321599C8F800103444C7
:102A8000072ACDE93324C8F8046000F310869DF8C6
:102A90009F2008F1080817E798053FF5E9AE079C65
:102AA000A06D03F08BFFB4F90C30E1E6237849F018
:102AB0002009EFE50D9A432BCDE90E3402F1040411
:102AC00000F0628519F0100F40F05E850D9B1B68C9
:102AD0008DF81431012306939B4645AD00220D94D9
:102AE0008DF89F200C920992149210921292DBE6BC
:102AF0000D9E56F8045BCDE90E3400238DF89F300F
:102B0000002D00F030850E9B532B00F0018619F04C
:102B10001003129340F0FC85099B5A1C00F06A8751
:102B200012991A46284603F04BFF0C90002801F03A
:102B3000C5820C9B0D96A3EB050B129B09932BEA08
:102B4000EB71149310930C9373239DF89F200691BF
:102B50000E9359E719F0200FCDE90E3400F0CC8028
:102B60000D9B073323F007031A46596852F8083BB8
:102B70000D920A460029C0F225840999013100F01E
:102B8000858253EA020129F0800440F08082099A8C
:102B9000002A40F08182A14693465EAD50E10D9B34
:102BA00053F8042B0B92002A80F2CE830B9A0D93DC
:102BB00052420B92237849F004096BE523786C2B81
:102BC00003BF637849F02009013449F0100961E539
:102BD0002378682B03BF637849F40079013449F006
:102BE000400957E52B238DF89F30237852E5237851
:102BF00049F080094EE5214611F8013B2A2B01F0EE
:102C0000DB82A3F13002092A0C4698BF002101F2B1
:102C1000728114F8013B01EB810102EB4101A3F148
:102C20003002092AF5D9099135E5237849F00109DF
:102C300030E59DF89F202378002A7FF42BAD2022D9
:102C40008DF89F2026E500BFFFFFEF7FD4FB01102A
:102C5000D8FB011028FC0110CDE90E3449F0100911
:102C600019F0200200F054830D9B073323F0070373
:102C700019465A6851F8083B0D9129F480640021E7
:102C80000020099D8DF89F006F1C00F0C28053EA60
:102C9000020024F0800940F0BB80002D40F0238525
:102CA000002940F0968414F0010B00F0518330238A
:102CB0008DF877310DF27715C2E0CDE90E3449F089
:102CC000100414F0200200F015830D9B073323F04D
:102CD000070319465A6851F8083B0D910121CFE7C7
:102CE000237849F00809D5E449F0100919F0200FBC
:102CF000CDE90E347FF434AF0D9A19F0100F52F86D
:102D0000043B0D9240F0598319F0400F00F05183BD
:102D100043F3C03211461BB22CE70D9A0F9452F8C0
:102D2000043B0D9247F63002ADF8A0207820B14A5E
:102D30001A9249F00204002202210E90A0E719F035
:102D4000200F0F9400F059830D9B0A9A1B681A609C
:102D5000D2175A600D9B04330D9312E60E9B652B20
:102D600040F34E81DDE91601002200230CF0E0F96A
:102D7000002800F0EE81339B9F4AC8F80020013301
:102D800001340122072B34943393C8F8042000F354
:102D9000AF8408F10808299B139A934280F2CF82EE
:102DA000189B199A1C44C8E90023339B34940133BF
:102DB000072B339300F3CB8308F10808139B5D1EA8
:102DC000002D7FF7C0AD102D339B40F3FA848B4F5D
:102DD0001597DDE907AB102605E008F10808103D5E
:102DE000102D40F3F08401331034072BC8E900762E
:102DF000CDE93334F1DD32AA5146584601F072FA7A
:102E000000287FF427ADDDE933340DF1D408E6E77F
:102E10004C46012900F03B8102295EAD1ED11A9873
:102E200003F00F011B09415C05F8011D43EA027321
:102E3000120953EA0201F3D15EABA146A3EB050BE5
:102E400009999DF89F2059454FF00003B8BF594696
:102E50000C930691149310931293D5E503F0070198
:102E6000DB0843EA4273D208303153EA02062846AF
:102E700005F8011DF2D1E607DED53029DCD030237C
:102E8000023805F8013C5EABA146A3EB000B0546FA
:102E9000D6E70B9B069A9E1A002E7FF73CAD102EAC
:102EA000339B41F3AD805548DDF820A015902146B5
:102EB00010271A46044604E0103E102E08F10808B8
:102EC00016DD01321031072AC8E90047CDE9332168
:102ED000F2DD079932AA50460DF1D40801F002FA4A
:102EE000002840F0F883103E102EDDE93321E8DCA5
:102EF0000C4613460133159AC8F800203444072BBA
:102F0000CDE93334C8F8046000F31483099BA3EBC4
:102F10000B06002E08F108087FF703AD374A339BF4
:102F20001592102E23DD22464FF0100ADDE90747E7
:102F300004E0103E102E08F1080817DD01332F4978
:102F40001032072BC8E9001ACDE93332F1DD32AA7D
:102F50002146384601F0C6F900287FF47AAC103ECD
:102F6000102EDDE933320DF1D408E7DC14460133CD
:102F7000159AC8F800203444072BCDE93334C8F83B
:102F8000046000F3AA8108F10808CAE4DDE907102B
:102F900032AA01F0A7F900283FF4E9ACDDF820B02F
:102FA00058E4189B19991C44C8E90013339B3494C6
:102FB0000133072B339300F3BF8508F10808002A7B
:102FC000C0F2AE87139AC8F8005001331444072B9F
:102FD000CDE93334C8F804207FF7B3ACDDE907103E
:102FE00032AA01F07FF90028D8D1349C0DF1D40821
:102FF000A9E400BFE4FB011014FC011018FC01104F
:10300000139B339E012B04F1010406F1010608F124
:10301000080740F31D810123072ECDE93364C8F86A
:103020000050C8F8043000F3E482189B199A013666
:103030001C44072EC7E90023CDE9336400F3CD8299
:103040000837139BDDE9160103F1FF380022002346
:103050000CF06EF8002840F015810136013544442B
:10306000072ECDE933643D60C7F8048000F3FE808D
:1030700008371C9B7B6001361C44072E2CABCDE926
:1030800033643B60AADC07F108085CE44C460A2B79
:1030900072F1000180F0B98230338DF87731A146AA
:1030A0004FF0010B0DF27715CAE6DDE9071032AAE1
:1030B000159301F017F900287FF470AF349C159B2D
:1030C0000DF1D40812E4DDE9071032AA01F00AF983
:1030D00000287FF463AF349C0DF1D40818E4102D60
:1030E000339B40F35287BB4F1597DDE907A91026A4
:1030F00004E0103D102D08F1080816DD01331034EE
:10310000072BC8E90076CDE93334F2DD32AA514607
:1031100048460DF1D40801F0E5F8002840F0F582AA
:10312000103D102DDDE93334E8DC0133159A2C44D1
:10313000072BC8E90025CDE933347FF70DACDDE975
:10314000071032AA01F0CEF800287FF427AF349C94
:1031500002E4299A002A40F3FD80DDE912739F42C0
:10316000A8BF1F46002F05EB030B0BDD339B01337C
:103170003C44072BC8E900573494339300F36F861F
:1031800008F10808129E002FA8BFF61B002E00F3BE
:103190004783DDF848A019F4806FAA4440F07A858F
:1031A000299D139B9D4203DB19F0010F00F004845D
:1031B000189B199A1C44C8E90023339B34940133AB
:1031C000072B339300F35A8608F10808139BABEBE7
:1031D0000A065D1BAE42A8BF2E46002E0DDD339BB6
:1031E000C8F800A001333444072BC8F804603494B5
:1031F000339300F3558608F10808002EA8BFAD1BD5
:10320000002D7FF7A0AB102D339B40F3DA82724F75
:103210001597DDE907AB102605E008F10808103D19
:10322000102D40F3D08201331034072BC8E900760B
:10323000CDE93334F1DD32AA5146584601F052F857
:1032400000287FF407ABDDE933340DF1D408E6E75D
:1032500019F0010F7FF4DFAE0123072ECDE93364AF
:10326000C8F80050C8F804307FF703AFDDE9071055
:1032700032AA01F037F800287FF490AEDDE933641C
:1032800035AFF6E6139B012B7FF7F3AE112B524BB4
:10329000159340F3B982CDF82490DDE907BA1025E3
:1032A000994606E00837A8F11008B8F1100F40F36E
:1032B000A98201361034072EC7E90095CDE93364A1
:1032C000F0DD32AA5946504601F00CF8002840F0D3
:1032D0000282DDE9336435AFE5E7DDE9071032AAA4
:1032E00001F000F800287FF459AE349C0DF1D408A9
:1032F000FFF717BB0D9951F8043B0D9114F0100125
:1033000055D114F040004DD00A469BB20121B7E4DC
:103310000D9951F8043B0D9119F010017FF4ADACFB
:1033200019F0400000F0A9829BB20A46A5E4079D6F
:10333000A86D03F041FBB5F90C30FFF759B919F04E
:10334000010F3FF400AB2BE50D932378FFF7A2B9F3
:103350005EAD75E5339B2149C8F800100133013497
:103360000121072B34943393C8F8041000F35185DE
:1033700008F10808002A7FF414AE139A09F001033B
:1033800013433FF4E0AA189B199A1C44C8E9002390
:10339000339B34940133072B339300F3CD8308F12F
:1033A00008080FE614F400721CBFDBB202460121CC
:1033B00066E419F4007F40F00783DA17114600290C
:1033C000BFF6DBAB5B4262EB42024C462D20012193
:1033D00057E400BF28FC011018FC011014FC011078
:1033E0001B9A2378002A3FF455A91278002A3FF44B
:1033F00051A949F48069FFF74DB919F0100F40F059
:10340000FB8119F0400F40F0E58219F4007F00F0D5
:10341000F3810D9B0A9A1B681A709BE4DDE9160183
:1034200002460B460BF0B6FE002840F038860E9B95
:10343000612B00F02185412B00F0E382099B0133D1
:1034400000F017860E9B23F02003472B04D1099B25
:10345000002B08BF01230993DDE9161249F480709F
:10346000002A1590CDF818904FF00003C0F2DF84C9
:10347000CDE924121F930C930E9B413B252B00F2A8
:103480000382DFE813F074030102010201026D03FD
:1034900071030102010201020102010201020102A3
:1034A0000102010201020102010201020102010204
:1034B00001020102010201020102010201020102F4
:1034C00001020102010201020102010201026D0377
:1034D0007103CDE90E34C34B1A9319F020026AD060
:1034E0000D9B073323F0070319465A6851F8083B30
:1034F0000D9119F0010F0AD053EA020107D00E997D
:103500008DF8A110302149F002098DF8A01029F49E
:1035100080640221FFF7B4BBCDE90E344C46FFF7BF
:10352000D0BBCDE90E34FFF79BBBCDE90E34AE4BDB
:103530001A93D2E7DDE9071032AA00F0D3FE002883
:103540007FF42CAD349C0DF1D408FFF7E4B9DDE92C
:10355000071032AA00F0C6FE00287FF41FAD349C8D
:103560000DF1D4082AE4099B0C95062B294628BFA7
:10357000062309952A4606939C4D0D969B46149169
:1035800010911291FFF740BA0822002130A802F0F2
:10359000FBFE0D9B08981A6845AD30AB294603F039
:1035A0007BFBB0F1FF3F834600F0448520EAE073E7
:1035B0000693FFF793BA0D9951F8043B0D9119F05A
:1035C000100196D119F0400000F051819BB20A46DB
:1035D0008FE7DDF824B05EAD32E4DDE9071032AAF2
:1035E00000F080FE00287FF4D9ACDDE9336435AF0C
:1035F00027E5DDE9071032AA00F074FE00287FF409
:10360000CDACDDE9336435AF0FE504F4806B002108
:10361000CDF83080DFF8D891DDF86C8006945EAD8F
:103620004FF0CC3A05278C465E4605E00A2B72F136
:10363000000233D35B462246991841F10001A9FBF1
:10364000010424F0030000EB9400091A581A62F1F7
:10365000000E0AFB00F4A0FB09B009FB0E440BF0BE
:10366000010E0444AEFB070E40184FEA5B0B3030EE
:1036700005F8010C4BEAC47B0CF1010C013D640818
:10368000002ED3D098F800108C45CFD1BCF1FF0F9D
:10369000CCD00A2B72F1000280F0C582CDF86C808C
:1036A000069CDDF83080CDF84CC0FFF7C5BBDDE9E6
:1036B000071032AA159300F015FE00287FF46EACB7
:1036C0009DF89F20349C159B0DF1D408FFF7FCB8A2
:1036D000A346FFF7BFB8D346FFF7BCB8584602F081
:1036E0003BFBFEF77CBF01294C467FF495ABD3E44E
:1036F000DDE9071032AA00F0F5FD00287FF44EAC9A
:10370000349C0DF1D408FFF746BBCB46FFF7A2B8B7
:1037100030AF0822002138462B9502F035FEDDF847
:1037200024A0BAF1FF3F00F070820024CDF8189079
:10373000A346DDF820900CE045A9484603F0ACFA1A
:10374000411C584400F07684504508DC00F0C384E6
:1037500083462B9A12593B460434002AECD1DDF8FB
:103760001890BBF1000F00F04383BBF1630F40F3EF
:10377000FA8308980BF10101FEF746FC0546002884
:1037800000F058840C9008220021384602F0FCFD1D
:10379000089800975B462BAA294603F0A3FA8345B5
:1037A00040F01985002305F80B302BEAEB719DF8EA
:1037B0009F200D9609930691149310931293FFF78F
:1037C00023B90C4A15920133159AC8F800202C44ED
:1037D000072BC8F80450CDE933347FF7B2A8FFF7C0
:1037E000FDBB00BFF8FB0110E4FB01100CFC011055
:1037F000CDCCCCCC18FC01100D9B0A9A1B681A602A
:10380000FFF7A8BADDF82490159B3B6001364444CD
:10381000072ECDE93364C7F804807FF729AC25E58E
:10382000102E339B40F3AD849848159042462146B4
:10383000A846DDE9074A1027054604E00832103E95
:10384000102E40F3CA8101331031072BC2E9005713
:10385000CDE93331F2DD32AA2146504600F042FD77
:1038600000287FF438AFDDE9333135AAE7E719F4F2
:1038700000721CBFDBB202463BE619F400721CBFAB
:10388000DBB20246FFF7F9B9099E0223CDE9003603
:1038900030AB04932BAB039329AB02930898DDE97B
:1038A000242303F00DFB0E9B672B054600F0778168
:1038B0000E9B472B00F073810E9B23F02007462FB1
:1038C00000EB060405D10378302B00F0DB83299E42
:1038D0003444DDE92401002200230BF029FC0028F8
:1038E00000F0CC8123465B1B1393299A1292472F39
:1038F00000F05D81462F00F0E3820E99531E61298E
:10390000299300F04184412940F05C81502101203D
:10391000002BB6BFC2F101032B222D22092B8DF8FB
:10392000B0108DF8B12040F377830DF1C704584EE5
:1039300022461046A6FB0312D20802EB8201A3EB3B
:103940004101303100F8011C19466329134600F18A
:10395000FF32EEDC303302F8013C831EA34280F0DC
:103960000C840DF1B10213F8011B02F8011FA342F0
:10397000F9D15EAB181AA0F1AD031C93139B1C9AEE
:10398000012B03EB020B40F37883189B9B44069BAF
:1039900023F4806343F480792BEAEB7200231493C1
:1039A0000692109312931F9B002B40F00F819DF8FD
:1039B0009F200993FFF728B8139BABEB0A065D1B0A
:1039C000AE42A8BF2E4618E443F3C01211465BB2C4
:1039D000FFF7D0B80D9B0A9A1B681A80FFF7BAB997
:1039E000079932AA584600F07DFC00283EF422AF29
:1039F000FEF736BF28460D9603F0E2F88346FFF740
:103A00009CB858238DF8A13030238DF8A03049F0B0
:103A100002030693099B632B00F3F68200230C93A9
:103A200045AD49F481731593179B002BC0F20082BA
:103A300000231F93DDE91634CDE924340E9B612B5E
:103A40007FF41AAD29AADDE9240103F059F9002217
:103A50004FF07F530BF004F902460B46CDE91023DB
:103A6000002200230BF064FB002840F0F882094B91
:103A70001293099BCDF84C8003F1FF392E46149523
:103A8000DDF848B04D46DDE910890BE018FC011067
:103A9000CDCCCCCCE4FB0110002200230BF048FB82
:103AA000F0B93D46A94B0022404649460BF0D8F8F4
:103AB000894680460BF084FB04460BF067F802460B
:103AC0000B46404649460AF013FF1BF804306A1CB7
