:020000041000EA
:10E0000000000220C1EF0010F5ED0010FFEF00103E
:10E0100001F0001003F0001005F0001000000000F7
:10E0200000000000000000000000000007F00010E9
:10E0300009F00010000000000BF000100DF00010BF
:10E0400011F0001013F0001015F0001017F0001080
:10E0500019F000101BF000101DF000101FF0001050
:10E0600021F0001023F0001025F0001027F0001020
:10E0700029F000102BF000102DF000102FF00010F0
:10E0800031F0001033F0001035F0001037F00010C0
:10E0900039F000103BF000103DF000103FF0001090
:10E0A00079ED001081ED001045F0001047F00010F0
:10E0B00049F000104BF000104DF000104FF0001030
:10E0C00051F0001053F0001055F0001057F0001000
:10E0D00059F000105BF000105DF000105FF00010D0
:10E0E00061F0001063F0001065F0001067F00010A0
:10E0F00069F000106BF000106DF000106FF0001070
:10E1000071F0001073F0001075F0001077F000103F
:10E1100079F000107BF000107DF000107FF000100F
:10E1200081F0001083F0001085F0001087F00010DF
:10E1300089F000108BF000108DF000108FF00010AF
:10E1400091F0001093F0001095F0001097F000107F
:10E1500099F000109BF000109DF000109FF000104F
:10E16000A1F00010A3F00010A5F00010A7F000101F
:10E17000A9F00010ABF00010ADF00010AFF00010EF
:10E18000B1F00010B3F00010B5F00010B7F00010BF
:10E19000B9F00010BBF00010BDF00010BFF000108F
:10E1A000C1F00010C3F00010C5F00010C7F000105F
:10E1B000C9F00010CBF00010CDF00010CFF000102F
:10E1C000D1F00010D3F00010D5F00010D7F00010FF
:10E1D000D9F00010DBF00010DDF00010DFF00010CF
:10E1E000000000000000000000000000000000002F
:10E1F000000000000000000000000000000000001F
:10E2000000488047C1EF00100348044B834202D00E
:10E21000034B03B118477047CC0B0020CC0B0020F8
:10E22000000000000548064B1B1AD90F01EBA301A3
:10E23000491002D0034B03B118477047CC0B0020A4
:10E24000CC0B00200000000010B5064C237843B929
:10E25000FFF7DAFF044B13B10448AFF3008001234A
:10E26000237010BD000C002000000000285A02108E
:10E2700008B5054B1BB105490548AFF30080BDE863
:10E280000840FFF7CFBF00BF00000000040C0020D3
:10E29000285A02102DE9F047DFF8D8A0364EDAF8F8
:10E2A0000430A0B0DBB1DFF8D490DFF8D480354F74
:10E2B0000AF104050024484603F066F855F8041FE7
:10E2C000404603F061F8384603F05EF8336898681A
:10E2D00006F05AFADAF804300134A342EBD8274D9D
:10E2E000DFF8A480274F08241FE08DF840E000F0FD
:10E2F00095FB034601336946204612D000F0A8FB87
:10E300000346002B28460CDD03F03EF800994046FA
:10E3100003F03AF8384603F037F83368986806F0A7
:10E3200033FA0134E4B2782C13D0A4F11803DBB231
:10E33000DFF858C04FF0010E1E2B10AA7146204680
:10E340002CFA03FCD1D81CF0010FCED07444E4B2F7
:10E35000EBE70F4803F018F80E4805F041FF0948B5
:10E3600003F012F83368986806F00EFA002020B027
:10E37000BDE8F087200C002098050020CCE30110B8
:10E38000D8E30110E4E30110E8E3011001000140CB
:10E39000F4E3011000E4011010B562B61A4C00F06D
:10E3A000C9FB88221948214600F0DEFB184B226881
:10E3B0009A421CD0174802F0E7FF174805F010FFFB
:10E3C000164802F0E1FF164B1B68986806F0DCF96E
:10E3D00009A1D1E900010AA3D3E90023C4E900019E
:10E3E000C4E9022309488822214600F0BFFBBDE8AA
:10E3F000104000F00FBB00BFEFBEADDE020000001A
:10E400001111111112111111200C002000C0071060
:10E41000EFBEADDE08E4011014E40110E4E30110E6
:10E42000980500202DE9F041234F7B68A0B0002B18
:10E4300036D03D1D00264FF0020803E07B68013610
:10E44000B3422DD955F8040F00F0E6FA012110AAC5
:10E4500004468DF8408000F0E1FA03460133694636
:10E46000204621D000F0F4FA01301DD0009A2B682C
:10E470009A42E3D00236114802F086FF104857F85E
:10E48000261002F081FF0F4802F07EFF0E4B1B6842
:10E49000986806F079F94FF0FF3020B0BDE8F081C0
:10E4A000002020B0BDE8F081044802F06DFF07486D
:10E4B00005F096FEE7E700BF200C002030E40110D5
:10E4C0005CE40110E4E30110980500203CE4011035
:10E4D0002DE9F04F274F7B68A1B0A3B3DFF89880F8
:10E4E000DFF89890DFF898B0DFF898A03E1D00257F
:10E4F00056F8040F00F090FA0323012110AA0446F5
:10E500008DF8403000F08AFA034601336946204610
:10E5100005F101051BD000F09BFA03460133484684
:10E5200015D002F031FF31686A46584602F02CFFE0
:10E53000504602F029FFD8F80030986806F024F918
:10E540007B68AB42D4D8002021B0BDE8F08F0E48E4
:10E5500002F01AFF0D4805F043FE0A4802F014FFCE
:10E56000D8F80030986806F00FF94FF0FF3021B06E
:10E57000BDE8F08F200C002098050020CCE30110AE
:10E580007CE40110E4E3011030E4011088E40110A0
:10E5900030B5A1B0044600F03FFA042310AA0121CF
:10E5A00005468DF8403000F039FA013025D0694633
:10E5B000284600F04DFA01301FD0184802F0E4FE62
:10E5C00021461748174C02F0DFFE174802F0DCFE28
:10E5D0002368986806F0D8F8104802F0D5FE69461E
:10E5E000124802F0D1FE104802F0CEFE236898686F
:10E5F00006F0CAF8002021B030BD0D4802F0C4FE7C
:10E600000C4805F0EDFD084802F0BEFE054B1B6806
:10E61000986806F0B9F84FF0FF30ECE7CCE3011052
:10E62000A4E4011098050020E4E30110ACE401101B
:10E6300030E40110B0E4011008B5134C002000F0E4
:10E6400063FC204600F07EFE012000F05DFC2046C9
:10E6500000F078FE022000F057FC204600F072FE29
:10E66000002000F071FC204600F06CFE012000F05C
:10E670006BFC204600F066FE022000F065FC2046A0
:10E6800000F060FEDAE700BF20A1070010B5FFF739
:10E69000C9FEF8B92648274C02F076FE264805F058
:10E6A0009FFD264802F070FE2368986806F06CF81B
:10E6B000FFF70EFFF0B1224802F066FE214805F098
:10E6C0008FFD1E4802F060FE2368BDE81040986888
:10E6D00006F05AB81A4802F057FE1B4805F080FDB4
:10E6E000164802F051FE134B1B68BDE810409868B5
:10E6F00006F04AB8154802F047FE1549154802F0E1
:10E7000043FE0E4802F040FE2368986806F03CF88D
:10E71000114802F039FE114805F062FD074802F089
:10E7200033FE2368986806F02FF8FFF785FF00BFD7
:10E7300008E4011098050020F0E40110E4E3011062
:10E7400030E401100CE50110CCE40110CCE3011021
:10E750002CE5011034E50110F4E301103CE5011053
:10E7600010B58CB0164801A9292200F099F9154975
:10E7700001A806F035FE88B90446134802F004FEED
:10E78000124805F02DFD124802F0FEFD114B1B68EA
:10E79000986805F0F9FF20460CB010BD0E4802F055
:10E7A000F3FD0E4805F01CFD094802F0EDFD094B94
:10E7B0001B6898684FF0FF3405F0E6FFEBE700BFF9
:10E7C00044E5011050E5011008E401107CE501105A
:10E7D000E4E301109805002030E401108CE50110FD
:10E7E00000B585B0FFF7BCFF10B105B05DF804FBC4
:10E7F0000F480B2201A900F053F90E496A4601A8FF
:10E8000006F078F80098FFF7C3FE0028EDD10A481B
:10E8100002F0BAFD094805F0E3FC094802F0B4FD36
:10E82000084B1B68986805F0AFFF05B05DF804FB66
:10E830009CE50110ACE50110F4E30110B0E5011016
:10E84000E4E301109805002000B587B0112201A96A
:10E850000A4800F025F90A4802F096FD094805F03B
:10E86000BFFC094802F090FD084B1B68986805F052
:10E870008BFF4FF0FF3007B05DF804FBB8E50110E7
:10E8800030E40110C8E50110E4E301109805002010
:10E8900070B586B0FFF7D8FF08B106B070BD04466A
:10E8A0000B223048304E03A9CDE9014400F0F8F8BE
:10E8B0002E4901AA03A806F01DF82D480B2203A932
:10E8C00000F0EEF8294902AA03A806F013F87168CF
:10E8D000002935D0029D331D204602E001308842D8
:10E8E0002ED053F8042FAA42F8D1831C019A214854
:10E8F00046F8232000F036F91B491E481E4C88229A
:10E9000000F034F91D4802F03FFDDDE901211C480B
:10E9100002F03AFD1B4802F037FD2368986805F0C5
:10E9200033FF194802F030FD184805F059FC15482E
:10E9300002F02AFD2368986805F026FF06B070BD36
:10E94000134802F021FD0299124802F01DFD0D4806
:10E9500002F01AFD084B1B68986805F015FF06B019
:10E9600070BD00BFD8E50110200C0020ECE50110BF
:10E97000F4E5011000C007109805002008E401101C
:10E9800008E60110E4E30110F4E3011028E60110A9
:10E9900030E4011030E601102DE9F0418AB0FFF7B4
:10E9A000FBFCDFF86480194F02AE194D0FCD3446E1
:10E9B0000FC495E80F0084E80F000822694640461E
:10E9C00000F06EF83946684606F016FC00F12803A0
:10E9D0000DEB0300002400F8284C56F8341068466C
:10E9E00006F0FEFC48B10134042CDED056F8341099
:10E9F000684606F0F5FC0028F5D10AAB03EBC40429
:10EA000054F81C3C9847D0E768E6011078E4011000
:10EA100098E6011000F0B6B8C0B2704770B5044671
:10EA20000D46164600F032F900280DDB33462A4623
:10EA30000021204600F078F9002805DB012120465E
:10EA400000F008F9C01770BD4FF0FF3070BD00BF77
:10EA500070B504460E4602E00CD000F073FC204670
:10EA600000F0B4F800284FF03200F5DA4FF0FF352F
:10EA7000284670BD204600F0CBF8051EF6DB334675
:10EA8000EAB20321204600F037F90028EEDB01212D
:10EA9000204600F015F90028E8DB284670BD00BFCD
:10EAA000F8B507461248134E0C46154602F06CFCAA
:10EAB000384602F069FC104802F066FC336898683A
:10EAC00005F062FE002005F05FFE0C4802F05CFCE1
:10EAD0003368986805F058FE336829465A6820461E
:10EAE00005F0FCFEBDE8F840054805F079BB00BF25
:10EAF00008E4011098050020E4E30110B8E60110D5
:10EB000064E60110094A536AD90703D5516A21F016
:10EB1000010151629B0700D47047044A0448536ABC
:10EB200023F00203536205F05BBB00BF009002407C
:10EB3000C4E6011008B50849172000F03DFC074B5A
:10EB40004FF400021A604FF4407000F091FDBDE8F0
:10EB50000840034801F0BCBD05EB001000E100E0F7
:10EB600000A0024016F05CBF00F080BD0B461146CD
:10EB70001A4600F079BD00BF014800F0CFBF00BFCA
:10EB800000E0014010B50C480022012100F05AFFBE
:10EB9000044660B90949084800F09EFF084924204E
:10EBA00000F00AFC074B10225A60204610BD0648B0
:10EBB00005F016FB204610BD00E00140A0860100D4
:10EBC00079EB001000E100E0ECE6011010B50F4910
:10EBD0008AB00424CDE90210002301228DF80640FA
:10EBE0000DF107010DF1060402A8CDE90442CDE9BB
:10EBF0000612CDE908338DF8073000F089FF0028B0
:10EC0000A8BF9DF807000AB010BD00BF00E001409A
:10EC100010B50F498AB00524CDE902100023012266
:10EC20008DF806400DF107010DF1060402A8CDE9AB
:10EC30000442CDE90612CDE908338DF8073000F023
:10EC400067FF0028A8BF9DF807000AB010BD00BFED
:10EC500000E0014030B58BB005460B4A029201201E
:10EC600000238DF8040001AA022402A8CDE904249F
:10EC7000CDE90633CDE908338DF80510039500F092
:10EC800047FF0BB030BD00BF00E0014010B58AB0B7
:10EC900004460A488DF8051000230222029001A9BB
:10ECA00002A8CDE90412CDE90633CDE908338DF889
:10ECB0000420039400F02CFF0AB010BD00E00140D6
:10ECC00030B58BB005460B4A0292042000230DEBB1
:10ECD00000028DF80400022402A8CDE90424CDE945
:10ECE0000633CDE908338DF80510039500F010FFC9
:10ECF0000BB030BD00E0014030B58BB0094D8DF850
:10ED0000071003900DF107010120CDE90410002444
:10ED100002A8CDE90632CDE90844029500F0F8FEDC
:10ED20000BB030BD00E0014070B5CAB08C4605465E
:10ED300019460DF1250014468DF824C006F040FD5B
:10ED4000084B019309AE0023013401A8CDE9053336
:10ED5000CDE9073302950494039600F0D9FE4AB03A
:10ED600070BD00BF00E0014008B50346014802F055
:10ED70000BFBFEE708E70110002000F0D9BD00BF43
:10ED8000012000F0D5BD00BF10B5002000F05EFBF3
:10ED9000012000F05BFB402000F058FB104B0222EA
:10EDA00018684FF4E13101F0EDFC041E0CDB00F0BB
:10EDB000EBF858B900F088F8044660B9094B0A48E6
:10EDC0004322DA6000F0BEFA204610BD0749084829
:10EDD0006F22FFF7C9FF054905487422FFF7C4FFFA
:10EDE0000000002000440040400D030024E7011013
:10EDF0008CE7011000BF70474FF0FF30704700BF35
:10EE00004FF0FF30704700BF4FF0FF30704700BF3A
:10EE10004FF0FF30704700BFF8B5E0B9002A19DDA8
:10EE2000104D0E468F180C4602E0BB420FD01C4618
:10EE3000284601F09DFDC1B22170284601F09AFDDF
:10EE400022780D2A04F10103EFD10A232370C6F1C1
:10EE50000106A019F8BD06F0ABFA092303604FF0D4
:10EE6000FF30F8BD00200440F8B5431E012B21D827
:10EE7000002A174612DD531E124E4C1ECD1814F8F0
:10EE8000013F0A2B0CD00F4801F078FD0028FAD082
:10EE90002178304601F06EFDAC42F0D13846F8BD25
:10EEA000084801F06BFD0028FAD00D21304601F032
:10EEB00061FDE8E706F07CFA092303604FF0FF30BC
:10EEC000F8BD00BF00200440F8B50D4B1F68A7B186
:10EED00000250C4C2E46D4E9000100F0F5FC20463C
:10EEE00000F0F8FB0135002818BF6FF00706AF42AD
:10EEF00004F10C04EFD13046F8BD3E463046F8BD73
:10EF000094E7011098E701100B4B1B68834210B582
:10EF100004460BD9094B04EB440403EB840253F879
:10EF200024005168BDE8104000F0E8BC04490548E1
:10EF30003B22FFF719FFEDE794E7011098E7011076
:10EF4000D8E701102CE801100B4B1B68834210B569
:10EF500004460BD9094B04EB440403EB840253F839
:10EF600024005168BDE8104000F0AEBC04490548DB
:10EF70004622FFF7F9FEEDE794E7011098E701104C
:10EF8000D8E701102CE80110F8B50B4B1F6887B1CA
:10EF900000240A4D2646284600F09CFB0134002838
:10EFA00018BF6FF00706BC4205F10C05F3D13046DF
:10EFB000F8BD3E463046F8BDBCE70110C0E7011081
:10EFC000474885464748804780B94749474A484BA4
:10EFD0009B1A03DD043BC858D050FBDC4549464A28
:10EFE00000209142BCBF41F8040BFAE74348804738
:10EFF0004348804743488047FFF7FEFFFEE7FEE7B0
:10F00000FEE7FEE7FEE7FEE7FEE7FEE7FEE7FEE7D8
:10F01000FEE7FEE7FEE7FEE7FEE7FEE7FEE7FEE7C8
:10F02000FEE7FEE7FEE7FEE7FEE7FEE7FEE7FEE7B8
:10F03000FEE7FEE7FEE7FEE7FEE7FEE7FEE7FEE7A8
:10F04000FEE7FEE7FEE7FEE7FEE7FEE7FEE7FEE798
:10F05000FEE7FEE7FEE7FEE7FEE7FEE7FEE7FEE788
:10F06000FEE7FEE7FEE7FEE7FEE7FEE7FEE7FEE778
:10F07000FEE7FEE7FEE7FEE7FEE7FEE7FEE7FEE768
:10F08000FEE7FEE7FEE7FEE7FEE7FEE7FEE7FEE758
:10F09000FEE7FEE7FEE7FEE7FEE7FEE7FEE7FEE748
:10F0A000FEE7FEE7FEE7FEE7FEE7FEE7FEE7FEE738
:10F0B000FEE7FEE7FEE7FEE7FEE7FEE7FEE7FEE728
:10F0C000FEE7FEE7FEE7FEE7FEE7FEE7FEE7FEE718
:10F0D000FEE7FEE7FEE7FEE7FEE7FEE7FEE7FEE708
:10F0E00000000220ADF10010E85A021000000020DC
:10F0F000CC0B0020000C002064170020B1F10010A0
:10F10000C156011099E900100B4A08B50346106872
:10F1100028B10A4903448B4207D8136008BD084848
:10F120000649106003448B42F7D906F041F90C23DD
:10F1300003604FF0FF3008BDA80C002000F0012054
:10F14000681700204FF080439A6802F46062B2F5BD
:10F15000206F20D011D9B2F5406F17D00F4B104956
:10F16000B2F5606F18BF0B464FF080420D499268B0
:10F17000C2F38212D3400B60704752B1084947F284
:10F180003053B2F5C06F18BF0B46EDE74FF40043A4
:10F19000EAE7054BE8E74FF4E103E5E7C0687804E8
:10F1A00000E1F505641700200087930300207047F5
:10F1B00010B50A4C0A4BA3600A4801F087FAD4F84C
:10F1C000883043F47003C4F88830BFF34F8FBFF327
:10F1D0006F8FFFF7B7FFFFF7D7FD10BD00ED00E021
:10F1E00000E0001000A0024038B54FF0E0231849BD
:10F1F0009C691A6922F480320A601A69D20723D402
:10F200006FF07F4405225C614FF080759C611A614C
:10F21000104B114A19680023A0FB01010EF028FFD2
:10F220000E4BB0FBF5F205FB120084421A6007D8C2
:10F230001A6801321A602C44094B201A186038BD34
:10F24000074B201A186038BD5D690135E0E700BF43
:10F25000B00C00206417002040420F000400002082
:10F26000B40C002010B50C4C0C4B22681960002A1D
:10F270000FDC08B9002010BDFFF7B6FF2368002B94
:10F28000F8DD4FF0E0220020136943F00203136120
:10F2900010BD6FF0050010BD04000020AC0C002074
:10F2A000F8B5174C2368002B1EDB26682EBB154BC8
:10F2B0004FF0E0251B68AA699A421ED8124F3B689E
:10F2C0005BB16FF00F009847104B3E601A682A61DF
:10F2D0004FF0FF3323600020F8BD0C4A4FF0FF339E
:10F2E00012682A612360F6E7074C2368002BF2D0EE
:10F2F0000020984700202060F8BD6FF00500F8BDA1
:10F3000004000020B40C0020AC0C0020B00C002045
:10F3100010B5094C236823B16FF00F009847002304
:10F320002360064A064B10684FF0E0214FF0FF3291
:10F3300008611A6010BD00BFAC0C0020B00C0020AA
:10F340000400002038B5184C2268002A29DC00B9D6
:10F3500038BDFFF749FF4FF0E02202E01369DB03FD
:10F360001BD42368002BF9DC104B1A684FF0E02106
:10F370008B699342FCD80E4D2B6823B16FF00F00C0
:10F38000984700232B600B4B4FF0E0221968116166
:10F390004FF0FF330020236038BD2368013B23601A
:10F3A000DFE76FF0050038BD04000020B40C00203A
:10F3B000AC0C0020B00C0020F8B50F4E0F4BB2681B
:10F3C0009A4204460D4600F1100707D018460C4932
:10F3D0004FF4F07206F0F4F90346B060002C43F8E5
:10F3E000275008DB074B6209012004F01F0400FAD4
:10F3F00004F443F82240F8BD00ED00E0000E0020C8
:10F4000000E0001000E100E03F2809D90E4A403832
:10F41000D168C0B2012303FA00F00843D0607047FE
:10F420001F284FF0804208D92038916CC0B20123C8
:10F4300003FA00F0084390647047516A012303FA0D
:10F4400000F0084350627047000008403F280AD986
:10F4500010494038CB68C0B2012202FA00F023EA1A
:10F460000000C86070471F284FF0804109D920383C
:10F470008B6CC0B2012202FA00F023EA000088641B
:10F4800070474B6A012202FA00F023EA000048624A
:10F49000704700BF0000084010B507280AD8DFE811
:10F4A00000F00C09092333475B04BDE810403648DF
:10F4B00000F010B96FF0020010BD4FF08044002141
:10F4C000A36843F48023A3604FF47A70FFF7CAFE69
:10F4D00003E0FFF7E5FE063052D1A3685901F8D5E5
:10F4E000FFF716FF002010BD00214FF47A70FFF7E0
:10F4F000B9FE4FF0804403E0FFF7D2FE06303FD163
:10F50000A3689A00ECD4F7E74FF080440021A36889
:10F5100043F40023A3604FF47A70FFF7A3FE03E0E7
:10F52000FFF7BEFE06302BD1A3681B01F8D5D7E745
:10F530004FF080440021A36843F48013A3604FF48C
:10F540007A70FFF78FFE03E0FFF7AAFE063017D1AF
:10F55000A368D800C4D4F7E74FF080440021A36823
:10F5600043F40033A3604FF47A70FFF77BFE03E0AF
:10F57000FFF796FE063003D1A3689B01B0D4F7E7EE
:10F580006FF0090010BD00BF3CE801103F280AD908
:10F590004038114AC0B2012303FA00F0906093682A
:10F5A0001842FCD170471F280BD92038C0B2012364
:10F5B0004FF0804203FA00F05064536C1842FCD1C3
:10F5C000704701234FF0804203FA00F05060536807
:10F5D0001842FCD1704700BF00000840820736D1B6
:10F5E00000F17043B3F5002F0A46844620F00F0166
:10F5F00028D201F17043B3F5002F2BD3A1F1845130
:10F60000B1F5804F23D243F6F0730CEA030303F500
:10F61000002300B5114883B0614616F0F5F94FF0AC
:10F620008042136843F04003136013685B06FCD408
:10F630004FF080520A4B126801921B68019303B08D
:10F640005DF804FBA0F18453B3F5804FD1D36FF084
:10F6500002007047034B0CEA0303DAE70090024014
:10F6600000200010F0FF070016F0D6B916F0D0B950
:10F6700000F000B810F4407306D0054A11684A6AD9
:10F68000134300204B6270476FF00200704700BFC9
:10F6900008000020C10710B5044608D4A2070BD407
:10F6A00063070ED42046BDE8104001F04DBB00209A
:10F6B000FFF7CCFEA207F3D50120FFF7C7FE6307D3
:10F6C000F0D54020FFF7C2FE2046BDE8104001F013
:10F6D0003BBB00BF38B57A4B05689D42044659D004
:10F6E00003F580539D421CD003F5EE2303F58063A0
:10F6F0009D4200F0A68003F500739D4213D00020C8
:10F70000FFF7C8FF6268217A284600F037F9A0B9F0
:10F71000637A042B00F2D180DFE803F0897B6D5E11
:10F720004A000220ECE74068C30719D5237A002B72
:10F7300032D0012B02D06FF0100038BD614A136A3D
:10F7400043F002031362637A012B7CD0022B00F09A
:10F750008880002BEFD15B4A136A43F004031362E5
:10F7600010F00200E9D0237AE3B1012BE3D1554A2E
:10F77000136A43F020031362607A01287FD00228C5
:10F7800000F08C800028D6D14E4A136A43F0400323
:10F79000136238BD0120B3E74A4A136A23F002031B
:10F7A0001362D0E7474A136A23F020031362E3E7AA
:10F7B0002B6E626823EA02032B666B6E13436B6643
:10F7C000D5F8B83023EA0203C5F8B830A17A284644
:10F7D000BDE8384000F0BAB82B6E626813432B6660
:10F7E0006B6E23EA02036B66D5F8B83023EA020396
:10F7F000C5F8B830EAE72B6E626823EA02032B668D
:10F800006B6E13436B66D5F8B8301343C5F8B83048
:10F81000DCE72B6E626813432B666B6E23EA0203F0
:10F820006B66D5F8B8301343C5F8B830CEE72B6E09
:10F83000626823EA02032B666B6E23EA02036B669F
:10F84000C4E704205CE71F4B1A6A22F004021A6224
:10F850001A6A22F002021A621A6A42F001021A625D
:10F860007EE7184B1A6A22F004021A621A6A22F022
:10F8700002021A621A6A22F001021A6270E7114B40
:10F880001A6A22F040021A621A6A22F020021A62F0
:10F890001A6A42F0100200201A6238BD094B1A6A37
:10F8A00022F040021A621A6A22F020021A621A6AD0
:10F8B00022F0100200201A6238BD6FF0020038BD3D
:10F8C00000800040006C00400A4A90420B4601D084
:10F8D00000F034B8CA0704D507490A6A42F00102A9
:10F8E0000A629B0705D5044A136A43F010031362AA
:10F8F0007047704700060840006C00400A4A90427A
:10F900000B4601D000F01CB8CA0704D507490A6AA3
:10F9100022F001020A629B0705D5044A136A23F00C
:10F92000100313627047704700060840006C0040E7
:10F9300001F01CBA00F006B800F006B8C1617047CB
:10F940000162704781647047006C704769B101299A
:10F9500007D1D0F8C03000211A43C0F8C0200846B3
:10F9600070476FF0020108467047D0F8C03023EAB4
:10F970000202C0F8C0200846704700BF0346006B73
:10F98000104318635A6005292AD8DFE801F00A12EB
:10F99000141B2203C3F8882000209A67DA669A6055
:10F9A00070475A615A6000201A67DA67C3F88820E6
:10F9B00070471A61F6E7C3F888200020DA671A67F3
:10F9C0009A607047C3F888200020DA67DA669A6088
:10F9D0007047C3F8882000209A671A679A607047BA
:10F9E0006FF00200704700BF00F006B908B5124B77
:10F9F00098420DD0114B984212D0114B984217D11A
:10FA00003820FFF701FD3420FFF7C0FD002008BDBE
:10FA10000D20FFF7F9FC1020FFF7B8FD002008BD0E
:10FA20001C20FFF7F1FC2020FFF7B0FD002008BDEF
:10FA30006FF0010008BD00BF00D0014000E00140B0
:10FA400000F00140C0B370B504460D461646FFF7FE
:10FA5000CDFF1B4B9C4212D01A4B9C421CD01A4B20
:10FA60009C4226D13820FFF7F1FC1848FFF732FE00
:10FA7000324629462046BDE8704000F055B80D20BA
:10FA8000FFF7E4FC1248FFF725FE324629462046E0
:10FA9000BDE8704000F048B81C20FFF7D7FC0D48C7
:10FAA000FFF718FE324629462046BDE8704000F0B8
:10FAB0003BB86FF0010070BD4FF0FF30704700BFE2
:10FAC00000D0014000E0014000F0014060E801107A
:10FAD00048E8011054E80110034B994201D800F0A6
:10FAE000A5B86FF01000704740E1330000F0F0B8A7
:10FAF00000F0FEB800F00EB900F01AB900F030B90D
:10FB000000F046B900F04CB900F052B900F054B919
:10FB100000F0BEB900F092BA00F0A0BA014B19682B
:10FB200000F0A0BD0C000020F8B5002858D00F460A
:10FB3000102115460446FFF7E9FF064608B1304696
:10FB4000F8BD236843F0010323602046FFF7D8FF88
:10FB50002046FFF7D7FF02212046FFF7DDFF0621F1
:10FB60002046FFF7D7FFD7B123681F4A43F00203AF
:10FB7000944223602ED01D4B9C420ED01C488442E0
:10FB80000CBF02244FF0FF341A4B04EB440403EB88
:10FB9000C404012363603046F8BD0124F4E73A460B
:10FBA00029462046FFF720FF0F4B9C4214D003F557
:10FBB00080539C4212D00E498C420CBF02214FF060
:10FBC000FF310C4B01EB410403EBC40400266660DB
:10FBD0003046F8BD3446D7E73946F2E70121F0E771
:10FBE0004FF0FF36ABE700BF00D0014000E001401E
:10FBF00000F00140041000200346A0B16AB9B1F53D
:10FC0000806F0DD27F29C26484BF4FF40042C2646A
:10FC1000C26C11430020D96470476FF01000704728
:10FC20006FF0020070474FF0FF307047002841D05E
:10FC300010B4224AA1F574236FF410742344934244
:10FC400014D31F4B994230D81E4B1B685B08B3FB83
:10FC5000F1F149088B1EB3F5FF7F01F1FF3124D884
:10FC600041635DF8044B8163FFF740BF154B164CB1
:10FC70001B685B08B3FBF1F14A00A4FB01C1490812
:10FC8000A4FB0242013952080F2902F1FF320CDCB9
:10FC90000F2A0ADC0902D2B289B21143C163026899
:10FCA0000A4942F400420260D1E76FF002005DF8B9
:10FCB000044B70474FF0FF30704700BF009F240097
:10FCC00040E1330064170020ABAAAAAA801A0600FC
:10FCD0000649436B826B0868C2F30802C3F308034A
:10FCE00013444008B0FBF3F0704700BF64170020D6
:10FCF000034658B1006B1A6B10F0010016BF42F0BA
:10FD0000020242F0010200201A6370474FF0FF30F8
:10FD1000704700BF48B1036B43F004030363036BF8
:10FD200013F00403FBD1184670474FF0FF307047C3
:10FD300098B191B17AB1002301F1FF3C06E0C16AAC
:10FD40000133C9B29A420CF8031004D04168890704
:10FD5000F5D518467047104670474FF0FF30704792
:10FD600098B191B17AB1002301F1FF3C06E0013373
:10FD70009A421CF80310C9B2C16204D04168C90696
:10FD8000F5D518467047104670474FF0FF30704762
:10FD9000C36943F08003C361C3691B06FCD4704789
:10FDA000436A43F080034362436A1B06FCD47047F6
:10FDB00081600261704700BF002865D0036843F08E
:10FDC00001032DE9F04103600768036843F4806391
:10FDD0000E46044607F480670360002943D00025DF
:10FDE0002BE0FFF7AFFA236823F0800323600A209B
:10FDF000FFF7A8FA236813F400784FF00A002BD11C
:10FE0000FFF7A0FA236843F0800323600A20FFF77E
:10FE100099FA23689A054FF00A001DD5FFF792FA68
:10FE2000236843F0400323600A20FFF78BFA23681E
:10FE3000DB0525D40135AE4215D00A20FFF782FA42
:10FE4000236823F0400323600A20FFF77BFA23682E
:10FE5000D9054FF00A00C4D52368013543F0C0032B
:10FE6000AE422360E9D16FF008001FB9236823F484
:10FE700080632360236823F001032360BDE8F081E1
:10FE80004046002FF6D1F1E74FF0FF30704700BF3A
:10FE90002DE9F041D0E900437F2B00F2C980664B89
:10FEA0009C42054608D003F580539C4204D003F5DC
:10FEB00080539C4240F0B6802368980740F1B5809B
:10FEC00007226FF07F412046FFF71EFE2046FFF716
:10FED00019FE2046FFF714FE6A690023E3606361A0
:10FEE00042BBEA686B685B00E362236B43F001038B
:10FEF00000262363202704E0A36813F4FE4F11D1EA
:10FF0000EA68964219D2A3689906F5D5A968921BAA
:10FF100031442046FFF7F2FDA760A36813F4FE4FBB
:10FF20000644EDD0EE602046FFF7E4FD6FF00800D8
:10FF3000BDE8F081EA68002AD4D1002211212046D0
:10FF4000FFF7E2FD6B69002B4DD0B3F5807F88BFD2
:10FF5000002323622046FFF7CBFD266B16F0020636
:10FF6000FBD16B686A695B0043F00103E362002A1E
:10FF700039D010274FF001081DE0A36813F4FE43A9
:10FF800029D1A26812F0010F6A6912D0B24210D2D0
:10FF9000911BB1F5807F8CBF236221626B68216B5E
:10FFA0005B0043F0010341F002012163C4F80880C3
:10FFB000E362964217D2A36813F0110FDDD02969CE
:10FFC000921B31442046FFF797FDA760A36813F406
:10FFD000FE430644D5D06E612046FFF78BFD6FF0DF
:10FFE0000800BDE8F081AB698BB1236B43F00203DD
:10FFF0002363A368DB07FCD54123A360A36813F444
:020000041001E9
:10000000FE4F0CBF00206FF00800BDE8F081236BAD
:1000100043F004032363A3685A06FCD5A368DB07F7
:10002000E7D5E9E76FF00200EFE76FF00600ECE7D5
:100030006FF01000E9E700BF00D001408269D2B242
:100040008A42034607D3C26922F4706242EA012160
:100050000020D96170476FF0020070478269C2F3D7
:1000600007228A42034607D3426A22F4706242EAB8
:1000700001210020596270476FF00200704700BFF5
:100080002DE9F84F054668B3012800F0B580022835
:1000900000F043810026DFF8E8B2B4685BF820A0E6
:1000A00014F4FE4440F02081DFF8D892DAF80C20F6
:1000B00059F82560DFF8D082B24258F8257013460F
:1000C00030D8DAF81410B94248D9A36813F0110FE8
:1000D00038D1B24200F0EC8049F8256048F825702C
:1000E000BDE8F88FA34CDFF898B2A368DBF800A056
:1000F00013F4FE4FD8D0A368A36023692361204680
:10010000E5606561FFF7F6FCDBF80000C36913B139
:100110006FF008019847E5606561A368A3602369F3
:10012000236194E0A368990600F19680E36843F0A8
:100130002003E360DAF814108F42CDD2A36813F0E5
:10014000110FC6D0CA1BDAF8101020463944FFF749
:10015000D3FC1023A360DAF80C300744B342BBD1C0
:10016000DAF81410B94240F0A3800023E360636121
:10017000A368A360DAF8183022692261002B40F0EE
:10018000D780236B43F004032363A36813F4FE4F6B
:10019000784B00F0DB809C4200F0018103F5805336
:1001A0009C4200F00F8103F580539C420CBF022358
:1001B0004FF0FF335BF82300C369002B00F0E680AB
:1001C0006FF0080198470023E3606361A268A260B2
:1001D000684A2169216194420AD0674B9C4200F031
:1001E000DC8003F580539C420CBF02234FF0FF33A9
:1001F00000224BF8232073E75F4CDFF884B1A3683B
:10020000DBF804A013F4FE4F3FF44EAFA368A360E5
:10021000226922610023E36020466361FFF76AFCE4
:100220005BF82500C3691BB16FF0080198470023F4
:10023000E3606361A368A360236923614E4B9C4222
:100240007BD04E4DAC420CBF02254FF0FF35002352
:100250004BF82530BDE8F88FDAF80810921B3144CE
:100260002046FFF74BFCDAF80C2006442023B2426C
:10027000A3603FF65BAFE36823F02003E3607FF405
:1002800059AFDAF8141000293FF46CAF236B43F038
:10029000020323630123A360E368B94243F001032F
:1002A000E3607FF65FAFA36813F0110F7FF44AAFEE
:1002B000A368DB077FF510AF0123A3602FB9DAF83D
:1002C00004305B0043F00103E362CB1BB3F5807F96
:1002D00088BF00232362E3688F4234BF43F01103D9
:1002E00023F01103E360F7E6B368B3603369336169
:1002F0003046F6607661FFF7FDFB5BF8040CC469DD
:10030000ECB16FF00801A047F6607661B368B360A6
:10031000336933614FF0FF3599E7184CDFF860B06F
:10032000A368DBF808A013F4FE4F3FF4BDAE6DE701
:10033000236B43F00203236327E7012587E7E4608B
:100340006461A368A360236923617AE79C4233D088
:1003500003F580539C4237D003F580539C420CBF79
:1003600002234FF0FF335BF82300C36973B1002110
:10037000984728E700D0014000E0014000F001402C
:10038000EC0F0020F80F0020E00F0020E360636115
:10039000A368A360236923611FE7012328E7DBF833
:1003A0000000C369002B7FF40BAFE3606361A268B8
:1003B000A260226922611BE7DBF80000C369002B01
:1003C000D5D1F2E70123F5E60123CCE72DE9F84387
:1003D00098460E469F4B11688768D0F800901546E6
:1003E0000B4000220446C8F80020002B75D117F4FA
:1003F000FE4F40F0E580CA0640F12781FB0606D596
:100400001EB1002202212046B0471023A3602369B9
:10041000D90706D51EB1002206212046B047012388
:100420002361296848F220030B4200F0F180BB06EB
:1004300006D51EB1002203212046B0472023A36029
:100440002369980706D51EB1002205212046B04732
:100450000223236139041FD50023C8F800301EB1E0
:10046000424604212046B0477B4A00234FF4004116
:100470009442A160C5E900330AD0784B9C4200F059
:10048000E28003F580539C420CBF02234FF0FF3300
:10049000734A002142F823107A061ED50023C8F8BB
:1004A00000301EB1424604212046B0476A4A00236C
:1004B00040219442A160C5E900330AD0674B9C42B9
:1004C00000F0BF8003F580539C420CBF02234FF025
:1004D000FF33634A002142F823107B0211D51EB17D
:1004E000002211462046B0474FF48003A360082342
:1004F000A3604FF40043A36047F6117C0123C5E9D4
:1005000000C338020ED51EB1002201212046B0479B
:100510004FF40003A3600823A3604FF62071022369
:10052000C5E900133A0716D519F4006275D01EB15B
:10053000002201212046B0474FF480020823A26028
:100540004FF40041A3604FF620720223A160C5E979
:100550000023BDE8F88317F4FE4FFAD06FF00803CC
:10056000C8F800301EB1424604212046B047072398
:100570006FF07F42A2602361636A43F0800363628D
:10058000636A1B06FCD4E36943F08003E361E3691B
:1005900013F08003FBD1304A9442C5E9003309D0FF
:1005A0002E4B9C4249D003F580539C420CBF022342
:1005B0004FF0FF332A4A002142F82310BDE8F883A8
:1005C0006FF00803C8F8003016B142460421B04766
:1005D00007226FF07F412046FFF796FA2046FFF78B
:1005E00091FA2046FFF78CFA1B4A00239442C5E992
:1005F000003309D0194B9C4221D003F580539C4213
:100600000CBF02234FF0FF33154A002142F823109C
:100610006B689A077FF540AF09E716B1114620468F
:10062000B04708234FF40001A16047F61172A360A0
:100630000123C5E90023BDE8F8830123BAE70123BC
:10064000E2E7012345E7012322E76B68D8073FF57E
:10065000D5AEE7E60800C00000D0014000E0014050
:10066000EC0F002030B5174B984285B0044624D0DB
:1006700003F58053984205D003F5805398421ED06D
:1006800005B030BD012023689B0704D505B0BDE847
:100690003040FFF7F5BCE5680B4B626953F820105A
:1006A000CDE9025201AB02AA2046FFF78FFEDDE939
:1006B0000223E260636105B030BD0020E3E7022061
:1006C000E1E700BF00D00140EC0F002000F002B8CD
:1006D00000F018B8D0F80031012223F00103C0F86F
:1006E0000031C0F80027D0F80031DA03FBD5D0F88C
:1006F000003143F00103C0F80031D0F80031DB03D2
:10070000FBD57047D0F8003123F00103C0F8003169
:10071000704700BF08B5174B984210D0164B98424F
:1007200015D0164B98421AD0154B98421FD1442031
:10073000FEF72CFF4420FEF767FE002008BD0B20CB
:10074000FEF724FF0920FEF75FFE002008BD0C2005
:10075000FEF71CFF0A20FEF757FE002008BD1C20F4
:10076000FEF714FF2120FEF74FFE002008BD6FF0BA
:10077000020008BD00200440003004400040044056
:100780000014084070B504460E461546FFF7C2FF38
:10079000A8BB022D2DD0042D18D0204B9C421BD07D
:1007A0001F4B9C422CD01F4B9C4230D01E4B9C4276
:1007B00023D11E48FEF78EFF4420FEF747FE2A464F
:1007C00031462046BDE8704000F0F6B80620FEF73E
:1007D00063FE124B9C42E3D11548FEF77BFF0920D4
:1007E000FEF734FE2A4631462046BDE8704000F050
:1007F000E3B80520FEF750FECFE76FF0020070BDB2
:100800000C48FEF767FF0A20FEF720FED7E70A48EC
:10081000FEF760FF2120FEF719FED0E7002004401C
:1008200000300440004004400014084090E80110EB
:100830006CE8011078E8011084E80110304B984210
:1008400010B5044616D003F58053984212D003F534
:10085000805398420ED003F57533984207D1052393
:10086000022A436143D0042A13D0002A3FD06FF0FC
:10087000020010BD042AFAD0204600F0D5F8002866
:10088000F7DD236843F40043236023681B03FCD592
:1008900010BD02684FF480331A4302600068B3FB56
:1008A000F1F340F40010B1F5166F206001FB03F284
:1008B0008CBF00200120C2F580326061ABB1B2EB89
:1008C000510F12D80F4A1361106800F44030B0F590
:1008D000803F05D0136813F4403FC8D14FF4E100C6
:1008E000084B1B69B0FBF3F0C9E70133EAE74FF4AB
:1008F000E103B3FBF1F301FB03F2C2F5E102DDE733
:100900000020044000140840124B98421CD003F50C
:100910008053984218D003F58053984214D003F5C1
:100920007533984212D1036803F44033B3F5803F26
:1009300005D0036813F4403F08D14FF4E103064AA1
:100940001069B3FBF0F0704700F0BCB86FF0020024
:10095000704700BF002004400014084000F0F0B8C9
:1009600000F00EB900F032B900F08AB900F0A4B975
:1009700000F008B800F012B800F0BCB900F0BEB941
:1009800000F0C2B910B504462046FFF7F5FF002875
:10099000FAD02046BDE81040FFF7E6BF38B5044660
:1009A0000D462046FFF7EAFF0028FAD029462046E8
:1009B000BDE83840FFF7DABF1A4B984270B50446DD
:1009C0000D4616460BD003F58053984207D003F529
:1009D0008053984203D003F5753398421FD101210B
:1009E0002046FFF7CDFF00B170BD08212046FFF77C
:1009F000B5FF0028F8D101462046FFF7B3FF0028D5
:100A0000F2D101462046FFF7ABFF0028ECD1324679
:100A100029462046FFF712FF00EAE07070BD6FF034
:100A2000020070BD00200440234B98420BD003F518
:100A30008053984207D003F58053984203D003F5C2
:100A40007533984234D10523012A10B4436125D06F
:100A5000022A16D022B16FF002005DF8044B7047F5
:100A6000164B1A685208B2FBF1F301FB132213B1C3
:100A7000B2EB510F00D901335DF8044B0361FFF76E
:100A800043BF04684FF4E10344F40034B3FBF1F3D3
:100A900001FB03F2C2F5E1020460E8E70468084ADA
:100AA000B2FBF1F344F48034046001FB1322DEE76F
:100AB0006FF00200704700BF002004406417002060
:100AC000C06878041B4B98420BD003F580539842C2
:100AD00007D003F58053984203D003F5753398424D
:100AE00025D1036803F44033B3F5803F14D0036885
:100AF00013F4403F06D1104B00691B685B08B3FB41
:100B0000F0F07047036803F44033B3F5003F08D0BA
:100B100003686FF002007047084B0069B3FBF0F008
:100B2000704700694FF4E103B3FBF0F070476FF0DA
:100B3000020070470020044064170020C068780459
:100B40000E4A904203460BD002F58052904207D0E5
:100B500002F58052904203D002F5753290420AD1DC
:100B60000539032907D81A6822F4406242EA812134
:100B70000020196070476FF00200704700200440A9
:100B8000114B98420BD003F58053984207D003F5E0
:100B90008053984203D003F57533984202D161B176
:100BA000012903D06FF00201084670470368002155
:100BB00043F48053036008467047036823F480536E
:100BC00003600846704700BF002004402B4A904253
:100BD00003460BD002F58052904207D002F58052B6
:100BE000904203D002F57532904244D1042942D894
:100BF000DFE801F01117253303001A6842F01002F4
:100C00001A601A6842F020021A601A6842F0400224
:100C100000201A6070471A6822F0100200201A6043
:100C200070471A6842F010021A601A6822F0200217
:100C30001A601A6822F0400200201A6070471A6891
:100C400042F010021A601A6822F020021A601A6834
:100C500042F0400200201A6070471A6842F0100209
:100C60001A601A6842F020021A601A6822F04002E4
:100C700000201A6070476FF00200704700200440A7
:100C80000C4B98420BD003F58053984207D003F5E4
:100C90008053984203D003F57533984204D14368DA
:100CA000DB0604D4006A70476FF0020070476FF0F3
:100CB0000C007047002004400D4B98420BD003F508
:100CC0008053984207D003F58053984203D003F530
:100CD0007533984206D1436813F0800305D1016251
:100CE000184670476FF0020070476FF00B007047B6
:100CF000002004404068C0F3032070474068C0F300
:100D00000330C0F1080070470E4A904203460BD0F2
:100D100002F58052904207D002F58052904203D0F3
:100D200002F57532904209D14A1E072A06D81A6880
:100D300022F00F0211430020196070476FF002008B
:100D4000704700BF0020044010B5064C217831B92F
:100D500005484FF4007204F0FDF9012323700020D0
:100D600010BD00BF4C1400204C100020032870B5AB
:100D7000054625D8E0B9174E3046FEF7DDFD04469E
:100D800001463046FEF7D6FD8CB1134E134B06EBF1
:100D9000C51603EBC515E30703D52B680BB1306807
:100DA0009847640806F1040605F10405F3D170BD07
:100DB00001280CD00A4E0B4B022818BF1E46DBE759
:100DC00009490A485A22FDF7CFFF0026D4E7084E0A
:100DD000D2E700BF008000404C1200204C100020E1
:100DE00000040840000608409CE80110FCE80110DF
:100DF00000900040024B0146186800F00BB800BF9D
:100E000098050020024B0146186805F079BE00BF26
:100E1000980500202DE9F04F01F10B05162D85B046
:100E2000064624D8102900F2B18003F081F910257C
:100E300018234FF0020CBA4F3B44A3F108025C6840
:100E4000944200F022816368E268A16823F0030302
:100E5000CA602344304691605A6842F001025A60E9
:100E6000083403F06BF9204605B0BDE8F08F35F08B
:100E7000070500F18B80A94200F2888003F058F941
:100E8000B5F5FC7FC0F073816B0A00F08380042B02
:100E900000F22281AB0903F1390C03F1380E4FEA5D
:100EA000CC039F4F3B44A3F108005C68A04207D1EC
:100EB0000DE0002AE16880F2E280884207D00C460B
:100EC000636823F003035A1B0F2AF2DDF446DFF8B0
:100ED00054823C69444500F0BF80636823F00309F5
:100EE000A9EB05030F2B00F34781002BC7E904880A
:100EF00080F23181B9F5007FD7F804E080F0CC8032
:100F00004FEAD90101314FEA5919012303FA09F3D4
:100F100057F83120A2604EEA030E07EBC103083BED
:100F2000E360C7F804E047F83140D4604FEAAC030F
:100F300001209840704534D810EA0E0F07D12CF0EC
:100F4000030C400010EA0E0F0CF1040CF9D007EB73
:100F5000CC0A5246E146D1680EE04B6823F0030309
:100F6000A3EB050EBEF10F0F0C46C96800F3C1805C
:100F7000BEF1000F80F2E2808A42EED109F1010950
:100F800019F0030F02F10802E5D121E10C233360CF
:100F9000002468E74FF400734FF0400C4FF03F0E11
:100FA0007FE7BC68636823F00309A94503D3A9EB75
:100FB00005030F2B53DC5C4BDFF870B11B68082076
:100FC00003F1100804F0FAF9DBF800300190013366
:100FD000A84404EB090205D008F1FF3880444342DD
:100FE00003EA080841463046029204F0B9F9B0F12C
:100FF000FF3F029A824600F0DC80824200F2D780F6
:101000004B4B01991868404401F1FF311860844648
:1010100040F0FC801AEA010F40F0F880D7F808A0F1
:10102000C84448F00102CAF80420424B19688142C2
:1010300038BF1860404B1968814238BF1860544669
:1010400022F00308A845A8EB050301D30F2B06DC0B
:10105000304603F073F89BE7D7F804E066E76219BF
:1010600043F0010345F0010565603046BA60536006
:1010700003F064F80834204605B0BDE8F08FA2689C
:101080002344D16030468A60E6E6DC68A3427FF400
:10109000DAAE0CF1020C1AE7B9F5206F4FEA5922CB
:1010A0007ED3142A00F2158102F15C03DB005B326F
:1010B000F918FB580839994203D1F0E09B6899422E
:1010C00004D05A6822F003024A45F7D8D968C4E927
:1010D00002318C60DC6029E7142B6DD9542B00F2AF
:1010E00001812B0B03F16F0C03F16E0E4FEACC0361
:1010F000D7E63046A668621945F001056560F160E3
:101100008E604EF00101C7E90422C2F80880C2F8DF
:101110000C80516044F803E003F010F80834A2E6B4
:101120001800002020000020801400201000002063
:10113000501400207C1400207814002023443046F2
:101140005A6842F001025A6054F8083FD9608B6037
:1011500002F0F4FF87E6A1443046D9F8043043F0AA
:101160000103C9F80430083402F0E8FF7BE64FEAD7
:10117000D50C05F108035EE6621943F0010145F064
:10118000010565603046C7E90422C2F80880C2F84C
:101190000C80516044F8093002F0D0FF083462E658
:1011A0004FEA991202F13903DB00383280E7BC4282
:1011B00024D0BC68626843E703F15C0C03F15B0E6A
:1011C0004FEACC036DE65AF80839534540F0D88011
:1011D0001CF0030F0CF1FF3CF5D17B6823EA000300
:1011E0007B60400098423FF6DCAE18B9D9E640007B
:1011F00009F104091842FAD0CC46A8E6614B0199DE
:10120000186808EB000C0139C3F800C0DBF80000D7
:1012100001301BBFAAEB02026244CBF800A01A60A7
:101220001AF00702CDE9022342D0C2F10802019B65
:101230009244D044134408EA01001A1A02EA010B4E
:101240005946304604F08CF8421C039B7AD0A0EB40
:101250000A0000EB0B081868C7F808A048F0010264
:101260005844BC42CAF8042018603FF4DEAEB9F11D
:101270000F0F42D96168A9F10C0222F0070201F0B8
:10128000010111436160A1184FF0050C0F2AC1F84C
:1012900004C0C1F808C04AD8DAF80420C5E69210A4
:1012A000012000FA02F24EEA020EC7F804E00EE74F
:1012B000019B0AEB08020A409A1A02EA010B5946FE
:1012C000304604F04DF8431C039BC0D1DDF808B054
:1012D000C1E7542A15D84FEA193202F16F03DB0037
:1012E0006E32E5E6B3F5AA7F15D8EB0B03F1780C67
:1012F00003F1770E4FEACC03D3E50123CAF804309B
:10130000A6E6B2F5AA7F25D84FEAD93202F17803D2
:10131000DB007732CCE640F25452934225D8AB0C36
:1013200003F17D0C03F17C0E4FEACC03B9E53046A6
:1013300004F10801019305F0E3FB019BD7F808A035
:101340001868A9E7029A083A9044A8EB0A084FF0F7
:10135000000B80E740F254539A420DD84FEA99426D
:1013600002F17D03DB007C32A2E64FF47E734FF086
:101370007F0C4FF07E0E94E54FF47E737E2297E64D
:101380007B682EE7501400200FB400B5074983B0E6
:1013900004AB086853F8042B8168019300F008F847
:1013A00003B05DF804EB04B0704700BF980500205F
:1013B0002DE9F04FDFB01C4607919146834603F0BC
:1013C00077FF03681993184604F09AFA08221890D8
:1013D00000212EA80D9403F0BDFEBBF1000F04D038
:1013E000DBF83430002B01F07F80079B5A6EB3F995
:1013F0000C30D50702D4980540F19F86990407D494
:1014000007994A6E43F4005322F400528B814A66D6
:101410001A0740F1CC80079A1269002A00F0C780B1
:1014200003F01A020A2A00F0D1800023CDE93333F9
:10143000CDE91B33CDE91D3313931A930A9300248E
:101440000023CDE9163435AA32929046CDF820B06B
:101450004D46089F2E468D4BD3F8E44003F022FF03
:1014600003462EA8009032462AA93846A0470028F5
:1014700000F0CB80C0F2C1802A9A252A034601D011
:101480001E44E8E7771B044640F0C28000238DF835
:101490009F3099460B934FF0FF3273780992741C7A
:1014A0000134A3F120025A2A00F2F280DFE812F0A0
:1014B000C702F000F000C302F000F000F0006A0084
:1014C000F000F0007D02A002F0008802A902F00006
:1014D000A5025B005B005B005B005B005B005B00E8
:1014E0005B005B00F000F000F000F000F000F000A6
:1014F000F0007101F0000802220371017101710115
:10150000F000F000F000F0001E03F000F000DA023E
:10151000F000F000F0002602F0000B03F000F000F5
:101520001707F000F000F000F000F000F000F0000D
:10153000F0007101F000080258027101710171019F
:10154000960258020402F0008C02F0004D033F079F
:101550003B030402F00026027D003A07F000F00091
:101560004307F0007D00A3F13002002114F8013B95
:1015700001EB810102EB4101A3F13002092AF5D907
:101580000B918EE7089F384603F092FE43681D9347
:10159000184604F0B5F91E900646384603F088FE5A
:1015A00083681B93002E40F02186237878E7079DFF
:1015B0005846294603F080FC002841F0A683B5F97F
:1015C0000C3003F01A020A2A7FF42FAF0799B1F901
:1015D0000E20002AFFF629AF4A6ED50702D49805DF
:1015E00041F1BF81079923464A46584601F004FD60
:1015F0000A900A985FB0BDE8F08F082200212EA85B
:1016000003F0A8FD01231E4425E7771B044611D0F3
:10161000349B3B443493339B0133072BC8E9005779
:10162000339313DC08F108080A9B3B440A93002C0F
:101630007FF42CAF349BDDF820B0002B41F0D68036
:10164000079B0022B3F90C30339212E0DDE907105A
:1016500032AA01F04DFD48B90DF1D408E4E7BB46CC
:101660000C9B1BB10C99584605F04AFA079BB3F93D
:101670000C30079A526ED40740F11481590601F1DB
:1016800050830A985FB0BDE8F08F00BF2C040020A3
:10169000CDE90E34002BCDD000228DF8143101237A
:1016A0008DF89F2006930C929B46099214921092FB
:1016B000129245AD19F0020302D00699023106914B
:1016C00019F08407349C05D10B9906980E1A002E48
:1016D00000F3A78082B10122C8F80420339A0132B6
:1016E00001340DF19F01072A34943392C8F8001099
:1016F00000F3E18308F1080883B1339B28AA013382
:101700000234C8F80020072B4FF0020234943393C0
:10171000C8F8042000F3DD8308F10808802F00F0EA
:10172000BE82099BA3EB0B06002E00F3FD8219F489
:10173000807F40F01982339BC8F8005001335C442D
:10174000072BC8F804B03494339300F34D8308F1A9
:10175000080819F0040F05D00B9B069A9D1A002D5E
:1017600000F3C383DDE90A3206998A42ACBF9B18B5
:101770005B180A93002C40F00F83002333930C9BDB
:101780001BB10C99089805F0BBF90DF1D4080F9D19
:101790005FE6CDE90E340D9B073323F00703F3E832
:1017A00002670D9327F0004323932296DDE922ABD5
:1017B000A84B4FF0FF3250465946CDE916670CF062
:1017C000A9FB002840F03085A24B4FF0FF32504675
:1017D00059460CF081FB002840F0268500220023AA
:1017E000304639460CF06EFB002841F00F819DF821
:1017F0009F20994D994B29F080090E994729C8BF20
:101800001D46002303210C9306918B4609931493E4
:1018100010931293002A3FF44DAF069B01330693B9
:1018200048E7102E339A41F33D828D482195CDE94A
:101830001F372146079D089C15904FF0100A074658
:1018400004E0103E102E08F1080816DD01321031B8
:10185000072AC8E9007ACDE93321F2DD32AA294608
:1018600020460DF1D40801F043FC002840F03686F4
:10187000103E102EDDE93321E8DCDDE91F37219D24
:101880000C4601321599C8F800103444072ACDE9F6
:101890003324C8F8046000F310869DF89F2008F1F7
:1018A000080817E798053FF5E9AE079CA06D03F01F
:1018B00035FFB4F90C30E1E6237849F02009EFE573
:1018C0000D9A432BCDE90E3402F1040400F0628539
:1018D00019F0100F40F05E850D9B1B688DF81431D8
:1018E000012306939B4645AD00220D948DF89F2061
:1018F0000C920992149210921292DBE60D9E56F809
:10190000045BCDE90E3400238DF89F30002D00F0EC
:1019100030850E9B532B00F0018619F010031293B3
:1019200040F0FC85099B5A1C00F06A8712991A4600
:10193000284603F0F5FE0C90002801F0C5820C9BB0
:101940000D96A3EB050B129B09932BEAEB711493F5
:1019500010930C9373239DF89F2006910E9359E7E3
:1019600019F0200FCDE90E3400F0CC800D9B073329
:1019700023F007031A46596852F8083B0D920A46AD
:101980000029C0F225840999013100F0858253EACB
:10199000020129F0800440F08082099A002A40F078
:1019A0008182A14693465EAD50E10D9B53F8042B16
:1019B0000B92002A80F2CE830B9A0D9352420B9227
:1019C000237849F004096BE523786C2B03BF637817
:1019D00049F02009013449F0100961E52378682BAA
:1019E00003BF637849F40079013449F0400957E5B1
:1019F0002B238DF89F30237852E5237849F0800916
:101A00004EE5214611F8013B2A2B01F0DB82A3F1C0
:101A10003002092A0C4698BF002101F2728114F8A5
:101A2000013B01EB810102EB4101A3F13002092AE4
:101A3000F5D9099135E5237849F0010930E59DF89C
:101A40009F202378002A7FF42BAD20228DF89F2041
:101A500026E500BFFFFFEF7F1CE9011020E9011020
:101A600070E90110CDE90E3449F0100919F0200297
:101A700000F054830D9B073323F0070319465A687F
:101A800051F8083B0D9129F4806400210020099D44
:101A90008DF89F006F1C00F0C28053EA020024F012
:101AA000800940F0BB80002D40F02385002940F0E4
:101AB000968414F0010B00F0518330238DF87731B8
:101AC0000DF27715C2E0CDE90E3449F0100414F0A0
:101AD000200200F015830D9B073323F007031946FE
:101AE0005A6851F8083B0D910121CFE7237849F05E
:101AF0000809D5E449F0100919F0200FCDE90E349A
:101B00007FF434AF0D9A19F0100F52F8043B0D9288
:101B100040F0598319F0400F00F0518343F3C03275
:101B200011461BB22CE70D9A0F9452F8043B0D920C
:101B300047F63002ADF8A0207820B14A1A9249F059
:101B40000204002202210E90A0E719F0200F0F944A
:101B500000F059830D9B0A9A1B681A60D2175A60CD
:101B60000D9B04330D9312E60E9B652B40F34E81C3
:101B7000DDE91601002200230CF09AF9002800F09C
:101B8000EE81339B9F4AC8F80020013301340122C3
:101B9000072B34943393C8F8042000F3AF8408F182
:101BA0000808299B139A934280F2CF82189B199AB6
:101BB0001C44C8E90023339B34940133072B33932F
:101BC00000F3CB8308F10808139B5D1E002D7FF7FF
:101BD000C0AD102D339B40F3FA848B4F1597DDE990
:101BE00007AB102605E008F10808103D102D40F362
:101BF000F08401331034072BC8E90076CDE9333483
:101C0000F1DD32AA5146584601F072FA00287FF4FD
:101C100027ADDDE933340DF1D408E6E74C46012960
:101C200000F03B8102295EAD1ED11A9803F00F012E
:101C30001B09415C05F8011D43EA0273120953EACE
:101C40000201F3D15EABA146A3EB050B09999DF808
:101C50009F2059454FF00003B8BF59460C93069199
:101C6000149310931293D5E503F00701DB0843EAC0
:101C70004273D208303153EA0206284605F8011DA6
:101C8000F2D1E607DED53029DCD03023023805F862
:101C9000013C5EABA146A3EB000B0546D6E70B9BD0
:101CA000069A9E1A002E7FF73CAD102E339B41F30F
:101CB000AD805548DDF820A01590214610271A4622
:101CC000044604E0103E102E08F1080816DD01322B
:101CD0001031072AC8E90047CDE93321F2DD079921
:101CE00032AA50460DF1D40801F002FA002840F063
:101CF000F883103E102EDDE93321E8DC0C46134654
:101D00000133159AC8F800203444072BCDE9333449
:101D1000C8F8046000F31483099BA3EB0B06002EA4
:101D200008F108087FF703AD374A339B1592102E50
:101D300023DD22464FF0100ADDE9074704E0103E9C
:101D4000102E08F1080817DD01332F491032072B38
:101D5000C8E9001ACDE93332F1DD32AA214638460E
:101D600001F0C6F900287FF47AAC103E102EDDE9B0
:101D700033320DF1D408E7DC14460133159AC8F864
:101D800000203444072BCDE93334C8F8046000F355
:101D9000AA8108F10808CAE4DDE9071032AA01F0B7
:101DA000A7F900283FF4E9ACDDF820B058E4189B0F
:101DB00019991C44C8E90013339B34940133072B51
:101DC000339300F3BF8508F10808002AC0F2AE87FC
:101DD000139AC8F8005001331444072BCDE933346B
:101DE000C8F804207FF7B3ACDDE9071032AA01F090
:101DF0007FF90028D8D1349C0DF1D408A9E400BFA4
:101E00002CE901105CE9011060E90110139B339E7D
:101E1000012B04F1010406F1010608F1080740F363
:101E20001D810123072ECDE93364C8F80050C8F89E
:101E3000043000F3E482189B199A01361C44072EE3
:101E4000C7E90023CDE9336400F3CD820837139B43
:101E5000DDE9160103F1FF38002200230CF028F819
:101E6000002840F01581013601354444072ECDE9A4
:101E700033643D60C7F8048000F3FE8008371C9B84
:101E80007B6001361C44072E2CABCDE933643B60EC
:101E9000AADC07F108085CE44C460A2B72F1000149
:101EA00080F0B98230338DF87731A1464FF0010BC5
:101EB0000DF27715CAE6DDE9071032AA159301F095
:101EC00017F900287FF470AF349C159B0DF1D408EE
:101ED00012E4DDE9071032AA01F00AF900287FF4C4
:101EE00063AF349C0DF1D40818E4102D339B40F3FC
:101EF0005287BB4F1597DDE907A9102604E0103D76
:101F0000102D08F1080816DD01331034072BC8E93D
:101F10000076CDE93334F2DD32AA514648460DF160
:101F2000D40801F0E5F8002840F0F582103D102DAE
:101F3000DDE93334E8DC0133159A2C44072BC8E97A
:101F40000025CDE933347FF70DACDDE9071032AA67
:101F500001F0CEF800287FF427AF349C02E4299AE0
:101F6000002A40F3FD80DDE912739F42A8BF1F469F
:101F7000002F05EB030B0BDD339B01333C44072B98
:101F8000C8E900573494339300F36F8608F10808CA
:101F9000129E002FA8BFF61B002E00F34783DDF82A
:101FA00048A019F4806FAA4440F07A85299D139BBC
:101FB0009D4203DB19F0010F00F00484189B199A6D
:101FC0001C44C8E90023339B34940133072B33931B
:101FD00000F35A8608F10808139BABEB0A065D1B59
:101FE000AE42A8BF2E46002E0DDD339BC8F800A0E0
:101FF00001333444072BC8F804603494339300F35E
:10200000558608F10808002EA8BFAD1B002D7FF7EC
:10201000A0AB102D339B40F3DA82724F1597DDE9A8
:1020200007AB102605E008F10808103D102D40F31D
:10203000D08201331034072BC8E90076CDE9333460
:10204000F1DD32AA5146584601F052F800287FF4DB
:1020500007ABDDE933340DF1D408E6E719F0010FE1
:102060007FF4DFAE0123072ECDE93364C8F80050BA
:10207000C8F804307FF703AFDDE9071032AA01F09A
:1020800037F800287FF490AEDDE9336435AFF6E62B
:10209000139B012B7FF7F3AE112B524B159340F39B
:1020A000B982CDF82490DDE907BA1025994606E0FB
:1020B0000837A8F11008B8F1100F40F3A9820136D3
:1020C0001034072EC7E90095CDE93364F0DD32AA5C
:1020D0005946504601F00CF8002840F00282DDE934
:1020E000336435AFE5E7DDE9071032AA01F000F807
:1020F00000287FF459AE349C0DF1D408FFF717BBCC
:102100000D9951F8043B0D9114F0100155D114F0C4
:1021100040004DD00A469BB20121B7E40D9951F819
:10212000043B0D9119F010017FF4ADAC19F04000A3
:1021300000F0A9829BB20A46A5E4079DA86D03F0B2
:10214000EBFAB5F90C30FFF759B919F0010F3FF46C
:1021500000AB2BE50D932378FFF7A2B95EAD75E5D3
:10216000339B2149C8F80010013301340121072BAA
:1021700034943393C8F8041000F3518508F108082B
:10218000002A7FF414AE139A09F0010313433FF4BD
:10219000E0AA189B199A1C44C8E90023339B349485
:1021A0000133072B339300F3CD8308F108080FE6C2
:1021B00014F400721CBFDBB20246012166E419F47C
:1021C000007F40F00783DA1711460029BFF6DBAB2A
:1021D0005B4262EB42024C462D20012157E400BFD6
:1021E00070E9011060E901105CE901101B9A237885
:1021F000002A3FF455A91278002A3FF451A949F466
:102200008069FFF74DB919F0100F40F0FB8119F00C
:10221000400F40F0E58219F4007F00F0F3810D9B40
:102220000A9A1B681A709BE4DDE9160102460B4608
:102230000BF070FE002840F038860E9B612B00F0FA
:102240002185412B00F0E382099B013300F01786C2
:102250000E9B23F02003472B04D1099B002B08BFC2
:1022600001230993DDE9161249F48070002A1590C4
:10227000CDF818904FF00003C0F2DF84CDE92412AE
:102280001F930C930E9B413B252B00F20382DFE84A
:1022900013F074030102010201026D0371030102D4
:1022A0000102010201020102010201020102010216
:1022B0000102010201020102010201020102010206
:1022C00001020102010201020102010201020102F6
:1022D000010201020102010201026D037103CDE955
:1022E0000E34C34B1A9319F020026AD00D9B0733AA
:1022F00023F0070319465A6851F8083B0D9119F06D
:10230000010F0AD053EA020107D00E998DF8A110EF
:10231000302149F002098DF8A01029F480640221CF
:10232000FFF7B4BBCDE90E344C46FFF7D0BBCDE987
:102330000E34FFF79BBBCDE90E34AE4B1A93D2E7B8
:10234000DDE9071032AA00F0D3FE00287FF42CAD9F
:10235000349C0DF1D408FFF7E4B9DDE9071032AA87
:1023600000F0C6FE00287FF41FAD349C0DF1D408A8
:102370002AE4099B0C95062B294628BF06230995BC
:102380002A4606939C4D0D969B46149110911291EE
:10239000FFF740BA0822002130A802F0DBFE0D9BB7
:1023A00008981A6845AD30AB294603F015FBB0F12B
:1023B000FF3F834600F0448520EAE0730693FFF771
:1023C00093BA0D9951F8043B0D9119F0100196D173
:1023D00019F0400000F051819BB20A468FE7DDF80A
:1023E00024B05EAD32E4DDE9071032AA00F080FED1
:1023F00000287FF4D9ACDDE9336435AF27E5DDE9AA
:10240000071032AA00F074FE00287FF4CDACDDE99D
:10241000336435AF0FE504F4806B0021CDF83080D4
:10242000DFF8D891DDF86C8006945EAD4FF0CC3AC1
:1024300005278C465E4605E00A2B72F1000233D375
:102440005B462246991841F10001A9FB010424F0E2
:10245000030000EB9400091A581A62F1000E0AFBFF
:1024600000F4A0FB09B009FB0E440BF0010E04447C
:10247000AEFB070E40184FEA5B0B303005F8010C3D
:102480004BEAC47B0CF1010C013D6408002ED3D053
:1024900098F800108C45CFD1BCF1FF0FCCD00A2B9F
:1024A00072F1000280F0C582CDF86C80069CDDF8E8
:1024B0003080CDF84CC0FFF7C5BBDDE9071032AA6C
:1024C000159300F015FE00287FF46EAC9DF89F2058
:1024D000349C159B0DF1D408FFF7FCB8A346FFF719
:1024E000BFB8D346FFF7BCB8584602F01BFBFEF757
:1024F0007CBF01294C467FF495ABD3E4DDE907109E
:1025000032AA00F0F5FD00287FF44EAC349C0DF1AA
:10251000D408FFF746BBCB46FFF7A2B830AF08227E
:10252000002138462B9502F015FEDDF824A0BAF103
:10253000FF3F00F070820024CDF81890A346DDF82C
:1025400020900CE045A9484603F046FA411C584447
:1025500000F07684504508DC00F0C38483462B9A53
:1025600012593B460434002AECD1DDF81890BBF137
:10257000000F00F04383BBF1630F40F3FA83089828
:102580000BF10101FEF746FC0546002800F05884D7
:102590000C9008220021384602F0DCFD08980097D4
:1025A0005B462BAA294603F03DFA834540F0198586
:1025B000002305F80B302BEAEB719DF89F200D9658
:1025C00009930691149310931293FFF723B90C4AC1
:1025D00015920133159AC8F800202C44072BC8F82F
:1025E0000450CDE933347FF7B2A8FFF7FDBB00BF3D
:1025F00040E901102CE9011054E90110CDCCCCCCFC
:1026000060E901100D9B0A9A1B681A60FFF7A8BACF
:10261000DDF82490159B3B6001364444072ECDE93C
:102620003364C7F804807FF729AC25E5102E339B6F
:1026300040F3AD849848159042462146A846DDE90E
:10264000074A1027054604E00832103E102E40F3DA
:10265000CA8101331031072BC2E90057CDE933316C
:10266000F2DD32AA2146504600F042FD00287FF4F8
:1026700038AFDDE9333135AAE7E719F400721CBF42
:10268000DBB202463BE619F400721CBFDBB2024625
:10269000FFF7F9B9099E0223CDE9003630AB049368
:1026A0002BAB039329AB02930898DDE9242303F0B5
:1026B000A7FA0E9B672B054600F077810E9B472BF0
:1026C00000F073810E9B23F02007462F00EB0604D9
:1026D00005D10378302B00F0DB83299E3444DDE9FB
:1026E0002401002200230BF0E3FB002800F0CC8142
:1026F00023465B1B1393299A1292472F00F05D81AA
:10270000462F00F0E3820E99531E6129299300F0B1
:102710004184412940F05C8150210120002BB6BF4B
:10272000C2F101032B222D22092B8DF8B0108DF858
:10273000B12040F377830DF1C704584E224610466E
:10274000A6FB0312D20802EB8201A3EB4101303158
:1027500000F8011C19466329134600F1FF32EEDC34
:10276000303302F8013C831EA34280F00C840DF14B
:10277000B10213F8011B02F8011FA342F9D15EABAD
:10278000181AA0F1AD031C93139B1C9A012B03EBA9
:10279000020B40F37883189B9B44069B23F48063D1
:1027A00043F480792BEAEB72002314930692109382
:1027B00012931F9B002B40F00F819DF89F200993DF
:1027C000FFF728B8139BABEB0A065D1BAE42A8BF10
:1027D0002E4618E443F3C01211465BB2FFF7D0B89F
:1027E0000D9B0A9A1B681A80FFF7BAB9079932AA9B
:1027F000584600F07DFC00283EF422AFFEF736BFBD
:1028000028460D9603F07CF88346FFF79CB85823C2
:102810008DF8A13030238DF8A03049F002030693E3
:10282000099B632B00F3F68200230C9345AD49F41A
:1028300081731593179B002BC0F2008200231F9316
:10284000DDE91634CDE924340E9B612B7FF41AADFB
:1028500029AADDE9240103F0F3F800224FF07F53A9
:102860000BF0BEF802460B46CDE9102300220023F0
:102870000BF01EFB002840F0F882094B1293099BD5
:10288000CDF84C8003F1FF392E461495DDF848B0A1
:102890004D46DDE910890BE060E90110CDCCCCCCD0
:1028A0002CE90110002200230BF002FBF0B93D4699
:1028B000A94B0022404649460BF092F889468046D3
:1028C0000BF03EFB04460BF021F802460B46404657
:1028D00049460AF0CDFE1BF804306A1CB24605F1E9
:1028E000FF3706F8013B80468946DBD1CB46574689
:1028F000C2469A4BDDF84C80002250465946A94604
:10290000149D0BF0FDFA002840F06482934B504672
:10291000594600220BF0CCFA10B1E30700F15A82BD
:10292000B9F1000FC0F2708209F101033344302283
:1029300006F8012BB342FBD15B1B13930E9B23F0D4
:102940002007D8E6DDE9071032AA00F0D1FB002805
:102950007FF42AAADDE93334299A0DF1D408FFF770
:1029600034BA886D02F0DAFEFEF73CBE099B5E1CAD
:10297000022391E6099E03238EE629AADDE92401BC
:1029800003F05EF800224FF07F530BF029F8024667
:102990000B46CDE91023002200230BF089FA002812
:1029A00040F063826E4B129369E7069BDF0700F1EC
:1029B000E481309B299A5B1B1393D31C129202DB98
:1029C000099B934244DA0E9B023B0E93531E2993BC
:1029D0009DF838100020A1E62D2200238DF89F20BD
:1029E0000993FEF71ABF45460C4690460133159AE7
:1029F000C8F800203444072BCDE93334C8F804600C
:102A000000F3268208F10808FFF7C9BA2D228DF8D5
:102A10009F20FEF7EEBE0023089800972BAA1946C8
:102A200003F000F8B0F1FF3F834600F009822B95D8
:102A30009DE51E9B1D99ED1A1A46284602F0FEFBE5
:102A400098F801300BB108F101084FF0000CF7E4E1
:102A5000139B934200F39481069BDC0740F14A826A
:102A6000189B02EB030B069B580502D5002A00F3C6
:102A70004A822BEAEB730693DDF8549067230E939A
:102A800000231493109394E6309BA342BFF431AE1D
:102A900030215A1C30921970309B9C42F9D828E69C
:102AA000109BCDF824B0CDF83890424621462D4FEA
:102AB000DDF85090DDF87880DDF820B05446DDF880
:102AC0006CA07BB3B9F1000F00F0858009F1FF39EC
:102AD00033981D9B013041440728C2E900383491E6
:102AE00033906DDC0832099B9AF800001E1B864269
:102AF000A8BF0646002E0BDD33980130314407286D
:102B0000C2E90046349133906BDC9AF80000083239
:102B1000002EACBF851B0546002D14DC0444109B21
:102B2000002BCFD1B9F1000FD0D1DDF824B0CDF812
:102B30006CA0A246DA45DDF8389090460C4628BFD6
:102B4000DA46FFF733BA102D339840F31A82234642
:102B50003E462C461D460CE0000030400000E03FA1
:102B600040E9011060E90110103C102C02F108024C
:102B700016DD0130103110230728CDE9330117602D
:102B80005360F1DD079932AA584600F0B1FA0028E7
:102B90007EF466AD103C102CDDE9330135AAE8DC8B
:102BA0002B4625461C46013029440728CDE9330130
:102BB000166055604BDC9AF8000008320444AEE71A
:102BC000079932AA584600F093FA00287EF448ADDF
:102BD000349935AA87E7109B013B0AF1FF3A10931D
:102BE00076E7079932AA584600F082FA00287EF468
:102BF00037AD9AF80000349935AA89E79DF89F20EF
:102C00000D96CDF818B0CDF824B0CDF850B0CDF871
:102C100040B0CDF848B0CDF830B0FEF7FBBDDDE9EF
:102C2000071032AA00F064FA00287FF4BDA8299AA0
:102C3000349C0DF1D408FFF7A3BA0C93DDE91634E8
:102C4000249304F1004325932D231F93FCE507995A
:102C500032AA584600F04CFA00287EF401AD9AF8EA
:102C60000000349935AA044459E7DDE9071032AA77
:102C700000F03EFA00287FF497A8349C0DF1D408A8
:102C8000FFF786B97823C3E5DDE9071032AA00F023
:102C90002FFA00287FF488A8299D349C0DF1D408D0
:102CA000FFF79AB9AB491591FEF7EBBDDDE90710C7
:102CB00032AA00F01DFA00287FF476A8299D139B04
:102CC000349C5D1B0DF1D408FFF79DB9069B12994A
:102CD000099A03F00103002943EA020340F35D81EE
:102CE000002B40F009816623DDF848B00E93069B67
:102CF0005A0500F10A812BEAEB73DDF85490069334
:102D0000BEE600220992FEF7CCBB079B5B6EDF0795
:102D100007D4079B9B899E0503D4079B986D02F0FF
:102D2000FDFC4FF0FF330A93FEF7ABBC5642103266
:102D3000894A159234DAAA461027154604E008F1AC
:102D40000808103E102E2ADD01331034072BC8E985
:102D50000057CDE93334F2DDDDE9071032AA00F087
:102D6000C7F900287FF420A8DDE933340DF1D40839
:102D7000E7E700230C9345AD0BE4AC194727AEE41D
:102D8000139B189A03EB020B129B002B40F3EE806F
:102D900067230E93ABE76F4A1592FFF7CCB8554601
:102DA0000133159AC8F800203444072BCDE9333499
:102DB000C8F804607FF7F9A9DDE9071032AA00F02E
:102DC00097F900287EF4F0AFDDE933340DF1D40833
:102DD000FEF7FEBF129B3097D97B16F8012C8A4272
:102DE000334609D1302003F8010C309B5A1E309233
:102DF00013F8012C9142F6D0392A0BBF129A0132F6
:102E0000927AD2B203F8012C334695E5524A1592D4
:102E1000FEF776BF0898591CFDF7FCFF054678B110
:102E20000C9004E5002862D130228DF8B2200DF11B
:102E3000B302303302F8013B2CABD31A1C93A3E44A
:102E4000079AB2F90C3043F040039381FEF711BCAE
:102E5000DDE9071032AA00F04BF900287EF4A4AF98
:102E6000349C0DF1D408FFF79AB83C4B3C4A0E99BC
:102E7000612918BF1A46012312922993FFE4062301
:102E80000993FFF7EFB9069BDE077FF586AC82E476
:102E9000DDE92401002200230BF00AF800287FF46A
:102EA0001CACC6F10106299618E4179B2D4D002B8A
:102EB000B4BF2D229DF89F202B4BB8BF8DF89F20CB
:102EC00029F08009FEF799BC099B06939B46732362
:102ED0009DF89F200D960990149010900E93FEF788
:102EE00099BCDDF81890DDF824B0FFF740BB0DF178
:102EF000B2029EE79346B6E5189BCF183A44662384
:102F000093460E93F3E667230E931B990B78FF2BE2
:102F100063D00024129A204603E001300131FF2BD8
:102F200008D0934206DAD21A4B78002BF5D10B78F1
:102F30000134F4E71B91129210901494DDE91439D6
:102F4000109A13441E9A02FB03BB2BEAEB73069301
:102F50002FE400BF70E9011060E9011040E90110A1
:102F60002CE9011024E9011028E90110C3F1010343
:102F70009B442BEAEB7306936723DDF854900E9382
:102F80007EE51C4E0FE602231C93FFF7FDBB194A9A
:102F900015922BE57021FFF7C0BBDDF8549033B9D3
:102FA0004FF0010B6623CDF818B00E9368E5189B1F
:102FB000DDF824B05F1CBB442BEAEB730693662359
:102FC0000E935DE50D9A63780C4652F8041B0D9242
:102FD00041EAE1710991FEF763BA0023149310935B
:102FE000ACE7DDE9072B938943F040039381FEF7BB
:102FF00037BB00BF60E90110F0B51F468B89ADF209
:103000006C4D23F00203ADF80C304B6E1993CB8955
:10301000ADF80E30CB6907934B6A09931AAB009356
:1030200004934FF48063154606460293059316A851
:1030300000230C46069302F06BFB2A463B4669468A
:103040003046FEF7B5F9051E07DB6946304601F04C
:1030500071FB002818BF4FF0FF35BDF80C305B0640
:1030600003D5A38943F04003A381169802F052FBD5
:1030700028460DF26C4DF0BD2DE9F84F4B6E9C04C7
:1030800090462ED5936812684BB30D46064602F162
:10309000080959E9022A5FEA9A0716D0A2F1040B3F
:1030A000002401E0A7420ED05BF8041F2A463046F8
:1030B00001F0A0FF431C04F10104F3D10023C8E98F
:1030C0000133BDE8F88FD8F808302AF0030AA3EBE3
:1030D0000A03C8F8083009F10809002BD9D10020EB
:1030E000ECE701F049FD0023C8E90133BDE8F88FA2
:1030F00010B4946814B110BCFFF7BEBF20465460F2
:1031000010BC70472DE9F04FC7B016AF834603914E
:1031100006920021082238461C460A9302F01AF84B
:10312000BBF1000F04D0DBF83430002B00F0BB867D
:10313000039A536EB2F90C20DB0702D4960540F1D6
:103140009F85950407D403994B6E42F4005223F4F3
:1031500000538A814B66100740F1C980039B1B69AD
:10316000002B00F0C48002F01A030A2B00F0CE807E
:103170000023CDE91B33CDE90E331DAADFF860A291
:103180000D931A92914610930793069DDAF8E44046
:1031900002F088F82A46034614A900975846A0472B
:1031A000002800F0D280C0F2C880149A252A034675
:1031B00001D01D44EAE7069BEE1A044640F0C980A0
:1031C00000234FF0FF316A788DF84B3008936C1C68
:1031D000059102930134A2F120035A2B00F20281DF
:1031E000DFE813F0030300010001FD02000100010C
:1031F00000016B000001000118022D0300012302F1
:10320000130300010D035B005B005B005B005B00D0
:103210005B005B005B005B0000010001000100013E
:1032200000010001000100010001CE015D0200016A
:103230000001000100010001000100010001000186
:1032400000012902000100010001A601000176022F
:10325000000100018E0500010001000100010001D4
:1032600000010001000100010001CE01F301000195
:1032700000010001C402F3017F00000132030001DC
:10328000EE028B05CD027F000001A6017D008805BE
:1032900000010001B10500017D00A2F13003002210
:1032A000114614F8012B01EB810103EB4101A2F15E
:1032B0003003092BF5D908918DE7584601F0F8FF46
:1032C00043681093184602F01BFB0F9005465846C2
:1032D00001F0EEFF83680E93002D40F0E584227824
:1032E00078E7029B227843F02003029372E7039D64
:1032F0005846294601F0E0FD002840F0A686B5F9C1
:103300000C2002F01A030A2B7FF432AF0399B1F9B3
:103310000E30002BFFF62CAF4B6EDB0702D4970567
:1033200040F15E86069A03992346584600F0C0FE97
:103330000790079847B0BDE8F08F08220021384673
:1033400001F008FF01231D4420E7069BEE1A044606
:1033500012D0069B1C9AC9E900361B9B01333244EC
:10336000072B1C921B9311DC09F10809079B3344BE
:103370000793002C7FF424AF1C9B002B40F0508659
:10338000039B0022B3F90C301B921CE0002A00F0D2
:103390002F8403991AAA5846FFF76EFE80B90DF1E3
:1033A0007409E3E703991AAA5846FFF765FE002857
:1033B00000F0A9800B9B1BB10B99584603F0A0FBB2
:1033C000039BB3F90C30039A526ED10740F1A680EB
:1033D0005B0600F14686079847B0BDE8F08F00BF56
:1033E0002C0400200694002AC6D000238DF84B3010
:1033F00001238DF8B420049309932DAC00230B9383
:103400000593029B13F0020302D0049A0232049245
:10341000DDE91B2C029D501C15F0840501460C951E
:1034200005D1089D049EAD1B002D00F331839DF84E
:103430004B0088B101220CF1010CC9F804200729C6
:103440000DF14B02CDE91B1CC9F8002000F3E1820D
:103450000A4609F108090131EBB113AB0CF1020C7A
:10346000C9F8003007294FF00203CDE91B1CC9F849
:10347000043040F3EC82BCF1000F00F0DA830399D2
:103480001AAA5846FFF7F8FD002893D1DDE91B2C56
:103490000DF17409511C0C9B802B00F01382059BCD
:1034A00009981D1A002D00F36882099AC9F8004096
:1034B00002EB0C030729CDE91B13C9F8042040F3E4
:1034C000FE81002B00F02B8303991AAA5846FFF7C0
:1034D000D3FD00287FF46EAF1C9B0DF17409029A96
:1034E000500705D5089A0499541A002C00F322833A
:1034F000DDE9072104988142ACBF521812180792E7
:10350000002B7FF44FAF00231B930B9B1BB119467D
:10351000584603F0F5FA0DF1740936E69A053FF5C1
:1035200057AF039CA06D02F0F9F8B4F90C304FE7E7
:103530000A9E069456F8044B00238DF84B30002C5D
:1035400000F0C984532A00F02184029B13F0100577
:1035500040F01C84059B5A1C00F04E851A462946F3
:10356000204602F0DDF80B90002800F03E85031B9A
:10357000099323EAE37305950A9604930B958DE16D
:103580000A9B0694432A03F1040503D0029BDE063E
:1035900040F1E4830822002118A801F0DBFD0A9B1A
:1035A0002DAC1A68214618AB584602F015FA0346AE
:1035B0000133099000F04185099B23EAE3730493EA
:1035C00000230A958DF84B3018E7029B06949C0661
:1035D0006DD50A9B073323F0070319465A6851F843
:1035E000083B0A911146002AC0F23781059A013240
:1035F00000F04081029A22F08002029253EA010216
:1036000040F03881059B002B40F008850493099316
:1036100046AC41E10A9B53F8042B0892002A80F241
:103620002783089A0A9352420892029B227843F019
:1036300004030293CEE5029B069443F0100212F0BD
:10364000200100F0E7820A9B073323F007031846A6
:10365000596850F8083B0A9022F480640294059C53
:10366000002001348DF84B005DD053EA010422F4B0
:10367000906240F01484029C0292059B002B4AD178
:10368000002840F0F08214F00102099200F0F48268
:1036900030238DF8173104920DF21714FCE0029BD1
:1036A000069443F010030293029B9C0691D40A9A5D
:1036B00052F8043B0A92029AD00600F1F282029A72
:1036C000510640F1EA8243F3C0310A461BB28AE751
:1036D000029B069443F0100414F0200100F08B824A
:1036E0000A9B073323F007031A46596852F8083B30
:1036F0000A9200228DF84B20059A013200F0D18306
:1037000024F08002029253EA010240F0B380059B4C
:103710000120002BB4D0012800F08084002302286F
:10372000194600F0998146AC03F00702DB0843EA32
:103730004173C908303253EA0105204604F8012DCF
:10374000F2D1029BDD0740F19581302A00F0928191
:103750003023059A04F8013C023846AB1B1A9A4202
:10376000B8BF1A4609930446049295E02278029B5A
:10377000682A00F09D8343F0400302932AE5029BF0
:103780000A9A069443F00203029352F8043B0A9209
:1037900047F63002ADF84C20BB4A0D9200210022C2
:1037A0008DF84B20059A013200F05681029C53EAB5
:1037B000010024F08002029240F04E8102205CE77A
:1037C000029B06949E0640F17E820A9B079A1B6824
:1037D0001A60D2175A600A9B04330A93D5E4029BFD
:1037E000227843F001030293F4E49DF84B302278F1
:1037F000002B7FF4EFAC20238DF84B30EAE4029BE2
:10380000227843F080030293E4E4214611F8012B6F
:103810002A2A00F03384A2F13003092B0C4600F26F
:10382000F6830022114614F8012B01EB810103EB12
:103830004101A2F13003092BF5D90591CBE42B23EB
:1038400022788DF84B30C5E42278029B6C2A00F078
:10385000368343F010030293BCE42D228DF84B20F5
:10386000059A5B4261EB4101013203D0029A22F0DA
:10387000800202920A2B71F1000280F0BD82303387
:10388000DBB28DF81731059B012BB8BF01230493E0
:10389000012309930DF2171400230B939DF84B306D
:1038A000002B3FF4AEAD049B01330493A9E5099BC3
:1038B0001D9401221E931C931B920DF1740909F1B2
:1038C00008090CE6089B04981D1A002D7FF7E7AD48
:1038D000102D40F3CB83DFF8B48143461026A04679
:1038E00061461C4607E002F1020C09F10809024694
:1038F000103D102D1ADD501C10310728C9E9004673
:10390000CDE91B01EFDD1AAA00297CD003995846A6
:103910000DF17409FFF7B0FB00287FF44BADDDE932
:103920001B21103D102D02F1010CE4DC2346604602
:1039300044468C469846AC440728CDE91B0CC9F890
:103940000080C9F8045040F3A381BCF1000F00F0DF
:10395000278303991AAA5846FFF78EFB00287FF4A5
:1039600029AD059B0998DDE91B2C1D1A002D02F1DC
:1039700001010DF174097FF798AD102DDFF80C816E
:103980002DDD2B461026254660461C4607E002F139
:10399000020C09F108090A46103C102C1ADD511CD2
:1039A0003A4B10300729C9E90036CDE91B10EEDD8E
:1039B0001AAA10B3039958460DF17409FFF75CFB7E
:1039C00000287FF4F7ACDDE91B20103C102C02F13D
:1039D000010CE4DC234661462C4684461D46AC447B
:1039E0000729CDE91B1CC9F80080C9F8045000F371
:1039F000EC8009F10809013157E54FF0010C02464E
:103A00000DF17409C8E74FF0010C0A460DF1740975
:103A10006EE7BCF1000F0FD0039911931AAA584614
:103A2000FFF72AFB00287FF4C5ACDDE91B2C119BB6
:103A3000511C0DF174090FE5002B00F05581022394
:103A40001E939C4613AB1D9301210DF174090A4688
:103A500009F1080901311EE50D9846AC03F00F028B
:103A60001B09825C04F8012D43EA0173090953EA3A
:103A70000102F3D1059A46AB1B1B9A42B8BF1A4606
:103A80000993049208E700BF2CE9011080E90110B6
:103A9000102D40F3C082AE4E119349464FF01008EE
:103AA000A1463446664607E002F1020E083102469E
:103AB000103D102D18DD501C10360728C1E90048B4
:103AC000CDE91B06F0DD03991AAA584616B3FFF795
