:020000041000EA
:10E000000000022009FD00103DFB001047FD00103C
:10E0100049FD00104BFD00104DFD001000000000F8
:10E020000000000000000000000000004FFD001094
:10E0300051FD00100000000053FD001055FD0010C0
:10E0400059FD00105BFD00105DFD00105FFD00102C
:10E0500061FD001063FD001065FD001067FD0010FC
:10E0600069FD00106BFD00106DFD00106FFD0010CC
:10E0700071FD001073FD001075FD001077FD00109C
:10E0800079FD00107BFD00107DFD00107FFD00106C
:10E0900081FD001083FD001085FD001087FD00103C
:10E0A000C1FA0010C9FA00108DFD00108FFD00109C
:10E0B00091FD001093FD001095FD001097FD0010DC
:10E0C00099FD00109BFD00109DFD00109FFD0010AC
:10E0D000A1FD0010A3FD0010A5FD0010A7FD00107C
:10E0E000A9FD0010ABFD0010ADFD0010AFFD00104C
:10E0F000B1FD0010B3FD0010B5FD0010B7FD00101C
:10E10000B9FD0010BBFD0010BDFD0010BFFD0010EB
:10E11000C1FD0010C3FD0010C5FD0010C7FD0010BB
:10E12000C9FD0010CBFD0010CDFD0010CFFD00108B
:10E13000D1FD0010D3FD0010D5FD0010D7FD00105B
:10E14000D9FD0010DBFD0010DDFD0010DFFD00102B
:10E15000E1FD0010E3FD0010E5FD0010E7FD0010FB
:10E16000E9FD0010EBFD0010EDFD0010EFFD0010CB
:10E17000F1FD0010F3FD0010F5FD0010F7FD00109B
:10E18000F9FD0010FBFD0010FDFD0010FFFD00106B
:10E1900001FE001003FE001005FE001007FE001037
:10E1A00009FE00100BFE00100DFE00100FFE001007
:10E1B00011FE001013FE001015FE001017FE0010D7
:10E1C00019FE00101BFE00101DFE00101FFE0010A7
:10E1D00021FE001023FE001025FE001027FE001077
:10E1E000000000000000000000000000000000002F
:10E1F000000000000000000000000000000000001F
:10E200000048804709FD00100348044B834202D0B8
:10E21000034B03B118477047F8060020F8060020AA
:10E22000000000000548064B1B1AD90F01EBA301A3
:10E23000491002D0034B03B118477047F80600207D
:10E24000F80600200000000010B5064C237843B902
:10E25000FFF7DAFF044B13B10448AFF3008001234A
:10E26000237010BD000800200000000050C90110FC
:10E2700008B5054B1BB105490548AFF30080BDE863
:10E280000840FFF7CFBF00BF0000000004080020D7
:10E2900050C9011000F030BAC0B2704710B5094C37
:10E2A000636918700246E06807F0CAF92369002222
:10E2B0001A7022691378002BFCD0636800221A7050
:10E2C00010BD00BF1800002010B507494A68137838
:10E2D000002BFCD08B6809681C78E4B2224607F05A
:10E2E000AFF9204610BD00BF1800002008B500207F
:10E2F00001F0CEFC012001F0CBFC022001F0C8FCB3
:10E30000124C002001F0A4FC204601F0BFFE0120C9
:10E3100001F09EFC204601F0B9FE022001F098FCBD
:10E32000204601F0B3FE002001F0B2FC204601F0CF
:10E33000ADFE012001F0ACFC204601F0A7FE02205A
:10E3400001F0A6FC204601F0A1FEDAE720A10700BB
:10E35000064A92E8030008B5054B1860998006202C
:10E360001946FFF79BFFFFF7C1FF00BF2CA201106A
:10E370001C08002030B50E4D0E480F4B0F4A1049B7
:10E380008BB002AC0090284606F02AFC0022CDE9B2
:10E390000622CDE90822234606AA1021272000F0F4
:10E3A00051F8294604F0F800FFF778FF0BB030BDB4
:10E3B0001C08002060A2011034A2011040A201102C
:10E3C00048A2011008B50E4B19784B1E032B11D82B
:10E3D000DFE803F002020E0A0A490B4B0B6004202F
:10E3E000BDE80840FFF75ABFBDE80840FFF7C2BFCD
:10E3F000FFF7AEFFBDE80840044803F0EFB900BFE7
:10E400001C0900201C0800201211111168A2011023
:10E4100010B5094806F014F962B60848084CFFF731
:10E420003BFFFFF737FF012001F012FC2046FFF70A
:10E430004BFFFFF7C7FFF9E794A20110121111116A
:10E440001C0900202DE9F0410C46DCB009B31E4642
:10E4500011F00F031DD1114605460093102203A8A9
:10E4600001F0FEFA804680B9012C04F1FF370CD090
:10E47000044601E0A74208D92A19311903A810342B
:10E4800001F0FEFA0028F5D0804640465CB0BDE8B9
:10E49000F0814FF0FF38F8E79048F8B584686306DC
:10E4A00049D58F4E3378002B40F0CB808D4D8B4873
:10E4B0002B78052B1BD802F069F929788A4B8B4DF4
:10E4C00053F821202B68D21A824240F3DA80884A1E
:10E4D000824852F821701F4402F058F9394602462A
:10E4E0007E4802F051F92B6803442B6002E002F0F1
:10E4F00053F97E4D79480022102102F055F97748F2
:10E500000022202102F050F9744802F03FF900285F
:10E5100040F0DF80714802F03DF9082802D06F48D2
:10E5200002F03CF9734B6D48002240212A601A60CA
:10E53000327002F035F9A70603D56848C3689E0615
:10E5400033D420023FD462026CD4E30611D5644C6C
:10E550002378002B7CD1634C60482378052B09D9A4
:10E5600002F01AF9BDE8F8405C480022102102F0E0
:10E5700017B9F8BD02F00AF921785B4A5B4C52F8F2
:10E5800021202368D21A824270DD594A534852F83A
:10E5900021501D4402F0FAF8294602464F4802F085
:10E5A000F3F8236803442360DCE7250400F18B8043
:10E5B0004C4D2B78052B69D948480022202102F0C8
:10E5C000EFF82002BFD54FF400014448002202F0CA
:10E5D000E7F82104B7D5434D404800224FF40041ED
:10E5E00002F0DEF83D480122294602F0CDF82B78F2
:10E5F000052BA8D83C4E3E4A384852F8231056F80E
:10E60000232002F0C5F83B4B2A78196856F82220DF
:10E6100008449042186096DA30480022202102F027
:10E62000C1F890E72E4B2D480022102101251D70C6
:10E6300002F0B8F8294800224FF4800102F0B0F847
:10E6400083E72849012202F09FF8002333702DE769
:10E6500024492248012202F097F800232370214C1C
:10E660001E482378052B3FF67BAF83E7204850F800
:10E6700021101A48194402F087F8236803442360E4
:10E6800070E71B4850F82110194429E7194E164F1E
:10E690001749326851F8231057F823300F481144B6
:10E6A0009A1A02F075F82B78326857F82330104424
:10E6B000013B984230607FF47FAF08480022202160
:10E6C00002F072F878E700224FF4004102F068F897
:10E6D0006EE7024802F060F81CE700BF00E001406E
:10E6E000250A0020240A002000000020200A002023
:10E6F000180000201C0A002010B5024600211B480B
:10E7000001F0F4FF044660BB1949184802F038F8DC
:10E71000164802F041F8224614484FF4800102F0F6
:10E7200041F8224611484FF4000102F03BF822461E
:10E730000E48402102F036F80E49242001F0E0FC9A
:10E740000D4B10225A604FF0FF321146074802F07D
:10E7500027F80A4B59680C701B6901221A70204671
:10E7600010BD074805F06CFF204610BD00E00140D9
:10E77000A086010099E4001000E100E018000020EC
:10E78000A8A201102DE9F04F87B00D684F688E6880
:10E79000CC68CDE9003203682DBA5D4043683FBACA
:10E7A0005F40836836BA5E40C368F9B2F2B224BAF9
:10E7B0005C4001F54071EA4B02F540725FFA84FE5D
:10E7C00053F8218053F822100EF5407E2A0E53F89C
:10E7D0002EE053F822205FFA85FC82EA0E020CF547
:10E7E000407C4FEA176E53F82CC053F82EE08EEAA7
:10E7F0000C0E4FEA166C53F82CC08CEA080C4FEA4A
:10E80000146853F8288088EA0101C7F30748C7F362
:10E81000072707F50077029153F827B00169C6F37F
:10E820000747C6F3072606F5007608F5807853F803
:10E83000269053F828A0C4F30746C4F3072407F52D
:10E84000807704F500744A40416953F8278053F8F3
:10E85000247006F58076C5F30744C5F307258EEAD4
:10E86000010E05F50075816953F8266053F82550AF
:10E870008CEA010C04F580748CEA060C8CEA050C19
:10E8800053F82440C56902996940614081EA0B014F
:10E89000CCB28EEA080E04F540748EEA070E53F8E7
:10E8A0002450CEF3074404F5807482EA0A0253F838
:10E8B00024705FFA8EF404F5407482EA090203942E
:10E8C0005FFA8CF404F54079140ED6B2C2F3074B0C
:10E8D000C2F3072253F82440CDF8149002F50072D9
:10E8E0000492CCF30728026A08F500786C40544083
:10E8F0004FEA1E697C4006F5407653F8287053F8BD
:10E900002660674053F82940CEF3072E84EA0602BA
:10E910000EF5007A039C53F82AA04FEA1C6ECCF344
:10E92000074C53F82E6053F824E0059C0CF58075D5
:10E930004FEA116C029553F82CC086EA0E0653F884
:10E9400024E0029CC1F30745C1F3072101F50071E2
:10E950008CEA0E0C53F824E0446A53F82190049991
:10E9600005F580755440826A53F8258053F82110CC
:10E9700056400BF5807B86EA08064E40C16A53F884
:10E980002B508CEA010C8CEA050C8CEA0A0C5FFA1D
:10E990008CF284EA0E0402F5407284EA090453F80A
:10E9A0002210C4F3074202F580725FFA86FE53F824
:10E9B00022A0C6F3072202F500720EF5407E53F83E
:10E9C00022200292FAB202F5407253F82250C6F3A6
:10E9D000074202F58072360E53F822200392CCF3E0
:10E9E000072202F5007253F8266053F822200492A1
:10E9F000E2B202F5407253F822B0CCF3074202F5BE
:10EA000080724FEA1C6C53F8229053F82C20C7F305
:10EA1000072C0CF5007C86EA0B0653F82C804FEA95
:10EA2000176CC7F3074753F82CB08BEA010B07F5B7
:10EA30008071270EC4F3072453F8277087EA050C6A
:10EA4000056B8BEA050B029D8BEA0A076F40456B4D
:10EA50008CEA050C039D8CEA050C049D8CEA050CE0
:10EA6000856B6E4053F82E5004F5007482EA050E53
:10EA700053F82150C16B53F824208EEA010E8EEA20
:10EA8000050E8EEA020E5FFA8EF202F5407286EAF9
:10EA9000090653F82210FAB202F5407286EA080617
:10EAA00053F822805FFA8CF202F5407253F822503C
:10EAB000F2B202F5407253F822403A0E53F8222087
:10EAC00051404FEA1C6253F8222082EA08024FEAC2
:10EAD000166853F8288088EA05054FEA1E6853F83F
:10EAE000288088EA0404CCF30748CCF3072C08F507
:10EAF00080780CF5007C53F828B0029453F82C4031
:10EB00000394C6F3074C0CF5807CC6F3072606F584
:10EB1000007653F82C90046C53F826A0CEF3074CE3
:10EB2000CEF3072E0EF500766140446C53F8268034
:10EB30000CF5807CC7F30746C7F30727624007F54B
:10EB40000077846C53F82CE053F82770654085EA11
:10EB50000E0506F580767D40029CC76C02E000BF82
:10EB6000C4B2011053F826607C40039F74407C407F
:10EB7000E6B282EA090206F5407682EA080253F814
:10EB80002670C2F3074606F58076C5F3074C53F8A6
:10EB90002660029681EA0B010CF5807B5FFA82FC0D
:10EBA00081EA0A01C5F307260CF540795FFA85FC76
:10EBB0002D0E049506F500760D0E53F8266053F8D9
:10EBC00025500396CEB26F4006F54076150E53F8E9
:10EBD000266053F8255053F829907540066D77400C
:10EBE000029E7740039E7740466D754053F82B6038
:10EBF0007540049E4FEA1468C4F3074EC4F307241B
:10EC000053F826600CF5407A04F50074C1F3074C04
:10EC1000C2F30722C1F3072186EA090902F500724F
:10EC200053F8286053F82A8053F824400EF5807E6C
:10EC300001F5007153F82EA00CF5807C85EA040ED6
:10EC400053F8214053F82210826D86EA080653F8E3
:10EC50002C8089EA020CC26D564086EA08064E40B6
:10EC6000F2B202F540728CEA0A0C53F82280FAB232
:10EC700002F540728CEA040C53F822505FFA8EF2CF
:10EC800002F5407253F822405FFA8CF202F54072AE
:10EC900053F822103A0E53F8222082EA08024FEA73
:10ECA0001E6853F8288088EA05054FEA1C6853F867
:10ECB000288088EA04044FEA166853F8288088EA16
:10ECC0000101CEF30748CEF3072E0EF5007E029128
:10ECD00053F82E100391CCF3074ECCF3072C0CF510
:10ECE000007C016E53F82CA0C6F3074CC6F3072630
:10ECF00008F5807806F500764A40416E53F828B052
:10ED000053F826800EF5807E0CF5807CC7F307460D
:10ED1000C7F307274D4007F50077816E53F82E9013
:10ED200053F82CE053F827704C4084EA0E0406F5A3
:10ED300080767C400299C76E53F826607940039F25
:10ED40007140794082EA0B0285EA090582EA0A02EB
:10ED500085EA08055FFA81F8170E08F540785FFA32
:10ED600082FEE6B253F8279053F828700EF5407EE5
:10ED700006F540765FFA85FC53F826B00CF5407C2A
:10ED800089EA07072E0E53F82E9053F82C8053F87B
:10ED90002660C5F3074EC5F3072505F500754FEA54
:10EDA000146C53F82550029553F82CC0C4F3074552
:10EDB000C4F3072404F500748CEA080C4FEA1168C8
:10EDC00086EA090653F8249053F82880C1F30744D3
:10EDD000C1F3072105F5807504F5807401F5007114
:10EDE00088EA0B0B53F8258053F8245053F8214040
:10EDF000C2F30741C2F307220EF5807E02F50072CE
:10EE000053F82EA053F822E0026F5740426F56404D
:10EE100086EA08066640846F01F580718CEA040C6E
:10EE2000C46F53F821108CEA050C8BEA0404029D90
:10EE30004C406C40E2B202F540728CEA0E0C53F882
:10EE40002250C6F3074202F5807287EA0A0753F898
:10EE500022200292CCF3072202F5007287EA09070A
:10EE600053F822100391FAB202F540725FFA8CFE59
:10EE700053F82210CCF3074202F580724FEA1C6C63
:10EE800053F822200492C4F3072202F50072C7F35C
:10EE9000074953F822200592F2B202F540724FEA78
:10EEA000146853F8222053F82CC053F828808CEAB9
:10EEB00002024FEA176CC7F3072753F82CB08BEA0E
:10EEC000050B350E07F5007C53F8255085EA010A3D
:10EED000D0F880508BEA050B029D8BEA0507039D55
:10EEE0006F40D0F884508AEA050A049DC4F30744B1
:10EEF0008AEA050A059DC6F3072604F5807406F51F
:10EF000000718AEA0506D0F8885053F8244053F877
:10EF100021100EF5407E6A4053F82E5082EA040E0E
:10EF200053F82C2009F580798EEA020ED0F88C2057
:10EF300053F8294088EA050585EA020C8CEA040C9E
:10EF40008CEA010C5FFA8CF202F540724FEA176806
:10EF500053F8221053F82880FAB202F5407288EA7A
:10EF600001014FEA166853F8225053F82880F2B294
:10EF700002F5407288EA05054FEA1E6853F8224000
:10EF800053F828805FFA8EF288EA040402F5407292
:10EF90004FEA1C6853F8222053F8288088EA0202BE
:10EFA000C6F30748C6F3072606F5007608F580780D
:10EFB00053F826600396CEF3074606F58076CEF327
:10EFC000072E53F8269053F828B00292CCF3074648
:10EFD0000EF5007E06F5807653F82EA053F826E055
:10EFE000D0F890205140D0F89420C7F30746C7F3DB
:10EFF0000727554007F50077D0F8982053F8277079
:10F00000544006F5807684EA0E04029A53F826608E
:10F010007C40D0F89C70CCF3072C7A400CF5007C37
:10F020007240009E53F82C80039F81EA0B0185EA11
:10F030000905052E81EA0A0185EA080582EA070228
:10F0400040F2E981D6B206F54076C5F3074E53F893
:10F050002670CEB206F540760EF5807E53F826C0B7
:10F06000EEB206F5407653F82680E6B206F5407615
:10F0700053F826B00E0E53F8266077402E0EC5F3D7
:10F08000072553F8266005F5007586EA0C064FEA59
:10F09000146C53F82550029553F82CC0C4F307455F
:10F0A000C4F3072404F500748CEA080C4FEA1268D4
:10F0B00053F8249053F82880C2F30744C2F3072280
:10F0C00005F5807502F5007288EA0B0B53F82E8067
:10F0D00053F825E053F82250C1F30742C1F307214A
:10F0E00001F5007102F5807253F821A0D0F8A0104C
:10F0F00053F822204F40D0F8A4104E4086EA0E0666
:10F100007540D0F8AC10D0F8A86004F580748CEA93
:10F11000060C8BEA01065640029A53F824405640EA
:10F120008CEA040CF2B28CEA0A0C02F54072CCF3C1
:10F13000074453F8221004F58074C5F3074202F522
:10F14000807253F8244053F822B00394CCF3072282
:10F15000C6F3072402F5007204F5007487EA080775
:10F1600087EA090753F8222053F8244002920494B6
:10F17000FAB2ECB25FFA8CFE02F5407204F540740C
:10F180004FEA1C6C53F8222053F8244053F82CC04B
:10F190008CEA04044FEA176C4FEA166853F82CC047
:10F1A00053F828808CEA01014FEA156CC6F3074634
:10F1B00053F82CA08AEA020AD0F8B0205140029AF3
:10F1C00081EA0B015140D0F8B4208AEA020A039A7E
:10F1D0008AEA020A049AC5F3072506F5807605F542
:10F1E000007CC7F307498AEA0205C7F30727D0F86E
:10F1F000B82053F8266007F500770EF5407E54409E
:10F20000744053F8276053F82E2053F82C7009F5FA
:10F2100080797440D0F8BC6053F829E088EA020293
:10F220007240009E82EA0E02062E82EA070200F079
:10F23000F280D6B206F54076C5F3074E53F8267035
:10F24000CEB206F540760EF5807E53F826C0EEB2BB
:10F2500006F5407653F82680E6B206F5407653F878
:10F2600026B00E0E53F8266077402E0EC5F3072504
:10F2700053F8266005F5007586EA0C064FEA146C13
:10F2800053F82550029553F82CC0C4F30745C4F336
:10F29000072404F500748CEA080C4FEA126853F84E
:10F2A000249053F82880C2F30744C2F3072205F5DF
:10F2B000807502F5007288EA0B0B53F82E8053F824
:10F2C00025E053F82250C1F30742C1F3072101F5AD
:10F2D000007102F5807253F821A0D0F8C01053F8E5
:10F2E00022204F40D0F8C4104E4086EA0E067540EA
:10F2F000D0F8CC10D0F8C86004F580748CEA060C05
:10F300008BEA01065640029A53F8244056408CEA94
:10F31000040CF2B28CEA0A0C02F54072CCF30744FA
:10F3200053F8221004F58074C5F3074202F5807289
:10F3300053F8244053F822B00394CCF30722C6F3C9
:10F34000072402F5007204F5007487EA080787EACB
:10F35000090753F8222053F8244002920494FAB289
:10F36000ECB25FFA8CFE02F5407204F540744FEA8D
:10F370001C6C53F8222053F8244053F82CC08CEA1C
:10F3800004044FEA176C4FEA166853F82CC053F880
:10F3900028808CEA01014FEA156CC6F3074653F842
:10F3A0002CA08AEA020AD0F8D0205140029A81EAC1
:10F3B0000B015140D0F8D4208AEA020A039A8AEA63
:10F3C000020A049AC5F3072506F5807605F5007C48
:10F3D000C7F307498AEA0205C7F30727D0F8D82000
:10F3E00053F8266007F500770EF5407E54407440D0
:10F3F00053F8276053F82E2053F82C7009F58079C4
:10F400007440D0F8DC6053F829E088EA02027240C8
:10F4100082EA0E027A40D6B206F580764FEA146987
:10F4200013F826C0C5F3074606F5407609F50079BE
:10F4300053F8266053F8299006F47F080E0E06F55F
:10F4400000765FFA84FA53F8266006F07F4648EAB1
:10F450000608CEB206F580760AF5807A13F8267093
:10F46000C4F3074606F54076C4F3072453F8266034
:10F4700006F47F0E2E0E06F5007609F07F4953F84C
:10F48000266006F07F464EEA060EEEB2C5F307256B
:10F490004FEA126B53F8255005F47F450295C2F3ED
:10F4A000074505F54075C2F3072253F8255053F878
:10F4B000222005F47F0545EA090553F8249013F846
:10F4C0002A40C1F3074A0BF5007B06F58076C1F3AD
:10F4D00007210AF5407A13F8266053F8211053F8F3
:10F4E0002AA053F82B3002F47F4B009A0AF47F0ACB
:10F4F00003F07F434AEA030300EB421A520101F48E
:10F500007F4182588CEA020CDAF804205740DAF87E
:10F51000082056404E40DAF80C2001996E40029DBA
:10F5200009F47F4954408CEA090C87EA0B076C40C8
:10F530008CEA080C87EA0E075C409CFA8CFC3FBA08
:10F5400036BA24BAC1F800C04F608E60CC6007B0F4
:10F55000BDE8F08F002800F077822DE9F04FA2F18E
:10F560001005102D85B0924604D81F46D54BEB40B0
:10F57000DB0704D46FF0AC0005B0BDE8F08F4FEAB4
:10F58000920808F1060389460446C0F8F420C0F842
:10F59000F030064600F1F80B002F47D0D7F800E016
:10F5A000D7F804C0BD68FB68C0F8F8E0CBF804C029
:10F5B000CBF80850CBF80C3006F042F804EB880882
:10F5C000254623461A6812BA43F8042B9845F9D108
:10F5D00049465246204606F033F823461A6812BAC6
:10F5E00043F8042B9845F9D1BAF1180F00F0E281E5
:10F5F000BAF1200F00F05781BAF1100F00F011811D
:10F600000E9B012B1DD0002F00F002813868796815
:10F61000BA68FB68C4F8F800CBF80410CBF80820EF
:10F62000CBF80C30002005B0BDE8F08FC0F8F870C2
:10F63000CBF80470CBF80870CBF80C7006F000F82B
:10F64000BCE7D4F8F0309E001FD004EB0313224631
:10F650000021A44610681C681460186050685C683B
:10F660005460586090689C6894609860D068DC68CA
:10F67000D4600431D860701A814202F11002A3F103
:10F680001003E7D3DCF8F0306446012BBBD98E4B76
:10F690008E4ACDF808B04FF0010EA3460397D5E986
:10F6A0000460F4B204F58074A96913F8244004F5E9
:10F6B00040744FEA166A52F82490C4B204F580747C
:10F6C0000AF5807A13F8244013F82AA004F5407450
:10F6D00052F82AA052F824C0CCB204F580748AEA09
:10F6E000090A13F8244004F54074C1F3074752F89F
:10F6F00024400194C6F3074404F58074C6F307263A
:10F7000006F5807613F8244013F8266004F580741B
:10F7100006F5007652F8248052F826608AEA080A34
:10F72000C0F307448AEA06062E6104F58074060ECB
:10F7300006F58076C0F3072013F8244013F82660FE
:10F7400000F5807004F5807413F8208052F82600CC
:10F7500052F8244008F5007880EA0C00604052F826
:10F7600028406040686107F58077080EC1F30721E3
:10F7700000F5807001F5807113F8277013F82040B0
:10F7800013F8210052F82410019C07F5807700F54A
:10F79000007052F8277052F82000614079404140D3
:10F7A000A961E969080E00F58070103513F8206032
:10F7B000C8B200F580700EF1010E13F8204052F827
:10F7C000260004F5407452F824406040C1F3074419
:10F7D00004F58074C1F3072113F8246001F58071EA
:10F7E00013F8214006F5807104F5007452F82110D9
:10F7F000414052F824004140E960DBF8F0108E45AA
:10F80000FFF44DAF5C46DDE902B7002F7FF4FEAE9A
:10F81000C4F8F870CBF80470CBF80870CBF80C7013
:10F8200000E7D4E901CE284BDFF8A4802068E16826
:10F83000A2461A467446634608F128099446D646FD
:10F8400000E01036CAB24FEA116A0AF5807A5CF815
:10F8500022201CF82AA002F47F4242EA0A02C1F3E5
:10F86000074A0AF5007A5CF82AA00AF07F4A82EA81
:10F870000A02C1F3072A0AF5407A5CF82AA00AF4C2
:10F880007F0A82EA0A0258F804AB82EA0A02504070
:10F8900043405C406140C145C6E90403C6E90641F6
:10F8A000CFD17446ACE6D4E9008ED4E902C1224639
:10F8B00001956446DFF81C90034B0297404675465D
:10F8C00094463DE001010100C4B20110C4A2011040
:10F8D000C4C20110C0C20110C1F3074E0EF5407E34
:10F8E000C1F3072853F82EE053F82880376908F44D
:10F8F0007F480EF47F0E4EEA080E4FEA116808F5B5
:10F9000000788EEA070E53F828A077695FFA81F82D
:10F9100008F580780AF07F4A13F828804AEA080838
:10F920008EEA080EC6F830E08EEA070EB769C6F810
:10F9300034E08EEA070E82EA0E02C6E90EE22036B5
:10F94000F26959F804AF424F5FFA82FE4FEA12683B
:10F9500008F5807853F82EE013F828800EF47F4ED7
:10F960004EEA080EC2F3074808F500788EEA0A0E40
:10F9700053F8288008F07F488EEA080EC2F3072863
:10F9800008F540784F4553F8288008F47F088EEA40
:10F99000080E80EA0E0085EA000584EA050481EA83
:10F9A0000401C6E90805C6E90A4195D1019D029FF7
:10F9B000644625E6D4E902C9264BD4F800E0606825
:10F9C00001951A46A0466346DFF890A075464C465E
:10F9D000944605E0326962405140C6E90A21183672
:10F9E00071695AF8049FCAB24FEA116E0EF5807E13
:10F9F0005CF822201CF82EE002F47F4242EA0E025C
:10FA0000C1F3074E0EF5007E82EA09025CF82EE093
:10FA10000EF07F4E82EA0E02C1F3072E0EF5407EF5
:10FA20005CF82EE00EF47F0E82EA0E02554068402C
:10FA3000094A43405C405245C6E90650C6E90834CD
:10FA4000C8D1019D4446DBE56FF0AC00704700BFB4
:10FA5000DCC20110C4B20110E0C20110C0C201102A
:10FA600010B4019C30B1F02A04D801945DF8044B25
:10FA7000FFF770BD6FF0AC005DF8044B704700BF3E
:10FA800090B108B513460A461946D0F8F0305B0825
:10FA900003F1FF3CBCF1060F03D8FEF773FE002014
:10FAA00008BD6FF0E10008BD6FF0AC00704700BF0B
:10FAB00008B50346014801F091FEFEE7ECC20110D3
:10FAC000002000F079BD00BF012000F075BD00BF2F
:10FAD00010B5002000F05CFB012000F059FB402035
:10FAE00000F056FB104B022218684FF4E13101F090
:10FAF00091F8041E0CDB00F0EBF858B900F088F820
:10FB0000044660B9094B0A484322DA6000F0BEFAA5
:10FB1000204610BD074908486F22FFF7C9FF054975
:10FB200005487422FFF7C4FF300000200044004065
:10FB3000400D030008C3011070C3011000BF7047DF
:10FB40004FF0FF30704700BF4FF0FF30704700BFED
:10FB50004FF0FF30704700BF4FF0FF30704700BFDD
:10FB6000F8B5E0B9002A19DD104D0E468F180C4685
:10FB700002E0BB420FD01C46284601F043F9C1B257
:10FB80002170284601F040F922780D2A04F1010382
:10FB9000EFD10A232370C6F10106A019F8BD05F0C4
:10FBA000B7FC092303604FF0FF30F8BD002004408C
:10FBB000F8B5431E012B21D8002A174612DD531E2B
:10FBC000124E4C1ECD1814F8013F0A2B0CD00F48D2
:10FBD00001F01EF90028FAD02178304601F014F91E
:10FBE000AC42F0D13846F8BD084801F011F90028C0
:10FBF000FAD00D21304601F007F9E8E705F088FC5E
:10FC0000092303604FF0FF30F8BD00BF002004401F
:10FC1000F8B50D4B1F68A7B100250C4C2E46D4E952
:10FC2000000100F09BFC204600F092FB013500280B
:10FC300018BF6FF00706AF4204F10C04EFD1304655
:10FC4000F8BD3E463046F8BD78C301107CC30110B4
:10FC50000B4B1B68834210B504460BD9094B04EBD0
:10FC6000440403EB840253F824005168BDE81040BB
:10FC700000F08ABC044905483B22FFF719FFEDE775
:10FC800078C301107CC30110BCC3011010C4011063
:10FC90000B4B1B68834210B504460BD9094B04EB90
:10FCA000440403EB840253F824005168BDE810407B
:10FCB00000F054BC044905484622FFF7F9FEEDE781
:10FCC00078C301107CC30110BCC3011010C4011023
:10FCD000F8B50B4B1F6887B100240A4D264628460D
:10FCE00000F036FB0134002818BF6FF00706BC4255
:10FCF00005F10C05F3D13046F8BD3E463046F8BD5F
:10FD0000A0C30110A4C30110474885464748804757
:10FD100080B94749474A484B9B1A03DD043BC85802
:10FD2000D050FBDC4549464A00209142BCBF41F817
:10FD3000040BFAE7434880474348804743488047DD
:10FD4000FFF7FEFFFEE7FEE7FEE7FEE7FEE7FEE762
:10FD5000FEE7FEE7FEE7FEE7FEE7FEE7FEE7FEE77B
:10FD6000FEE7FEE7FEE7FEE7FEE7FEE7FEE7FEE76B
:10FD7000FEE7FEE7FEE7FEE7FEE7FEE7FEE7FEE75B
:10FD8000FEE7FEE7FEE7FEE7FEE7FEE7FEE7FEE74B
:10FD9000FEE7FEE7FEE7FEE7FEE7FEE7FEE7FEE73B
:10FDA000FEE7FEE7FEE7FEE7FEE7FEE7FEE7FEE72B
:10FDB000FEE7FEE7FEE7FEE7FEE7FEE7FEE7FEE71B
:10FDC000FEE7FEE7FEE7FEE7FEE7FEE7FEE7FEE70B
:10FDD000FEE7FEE7FEE7FEE7FEE7FEE7FEE7FEE7FB
:10FDE000FEE7FEE7FEE7FEE7FEE7FEE7FEE7FEE7EB
:10FDF000FEE7FEE7FEE7FEE7FEE7FEE7FEE7FEE7DB
:10FE0000FEE7FEE7FEE7FEE7FEE7FEE7FEE7FEE7CA
:10FE1000FEE7FEE7FEE7FEE7FEE7FEE7FEE7FEE7BA
:10FE2000FEE7FEE7FEE7FEE700000220F5FE001019
:10FE300018CA011000000020F80600200008002069
:10FE400040170020F9FE00103955011011E4001090
:10FE50000B4A08B50346106828B10A4903448B428F
:10FE600007D8136008BD08480649106003448B4258
:10FE7000F7D905F04DFB0C2303604FF0FF3008BDB0
:10FE8000380C002000F00120481700204FF080437C
:10FE90009A6802F46062B2F5206F20D011D9B2F5F1
:10FEA000406F17D00F4B1049B2F5606F18BF0B466B
:10FEB0004FF080420D499268C2F38212D3400B602A
:10FEC000704752B1084947F23053B2F5C06F18BFBE
:10FED0000B46EDE74FF40043EAE7054BE8E74FF444
:10FEE000E103E5E7C068780400E1F505401700206C
:10FEF000008793030020704710B50A4C0A4BA3609B
:10FF00000A4800F037FED4F8883043F47003C4F890
:10FF10008830BFF34F8FBFF36F8FFFF7B7FFFFF747
:10FF2000D7FD10BD00ED00E000E0001000A0024091
:10FF300038B54FF0E02318499C691A6922F48032E1
:10FF40000A601A69D2071FD46FF07F4405225C61F2
:10FF50004FF080759C611A61104B114A196800239B
:10FF6000A0FB010109F0EAFF0E4BB0FBF5F205FB27
:10FF7000120084421A600AD81A6801321A602544B5
:10FF8000094B281A186038BD5D690135E4E7064B56
:10FF9000201A186038BD00BF400C00204017002018
:10FFA00040420F0034000020440C002010B50C4CDF
:10FFB0000C4B22681960002A0EDC08B9002010BD25
:10FFC000FFF7B6FF2368002BF8DD4FF0E02213693E
:10FFD00043F002031361F1E76FF0050010BD00BFAD
:10FFE000340000203C0C0020F8B5174C2368002B8F
:10FFF0001EDB26682EBB154B4FF0E0251B68AA6957
:020000041001E9
:100000009A421ED8124F3B685BB16FF00F009847C1
:10001000104B3E601A682A614FF0FF3323600020C6
:10002000F8BD0C4A4FF0FF3312682A612360F6E7EF
:10003000074C2368002BF2D0002098470023236050
:10004000EDE76FF00500F8BD34000020440C0020FF
:100050003C0C0020400C002010B5094C236823B153
:100060006FF00F00984700232360064A064B106884
:100070004FF0E0214FF0FF3208611A6010BD00BF61
:100080003C0C0020400C00203400002038B5184CF7
:100090002268002A29DC08B9002038BDFFF748FF94
:1000A0004FF0E02202E01369DB031AD42368002B2F
:1000B000F9DC104B1A684FF0E0218B699342FCD8B1
:1000C0000D4D2B6823B16FF00F00984700232B6074
:1000D0000A4B4FF0E022196811614FF0FF332360A3
:1000E000DAE72368013B2360E0E76FF0050038BDE5
:1000F00034000020440C00203C0C0020400C002068
:10010000F8B50F4E0F4BB2689A4204460D4600F107
:10011000100707D018460C494FF4F07205F090FA1A
:100120000346B060002C43F8275007DB074A6109FB
:10013000012304F01F04A34042F82130F8BD00BFA2
:1001400000ED00E0000E002000E0001000E100E003
:100150003F2808D90D4A4038D168C0B201238340F6
:100160000B43D36070471F284FF0804207D92038D7
:10017000916CC0B2012383400B4393647047516A72
:10018000012383400B435362704700BF00000840C7
:100190003F2809D90E494038CB68C0B201228240BD
:1001A00023EA0203CB6070471F284FF0804108D933
:1001B00020388B6CC0B20122824023EA02038B6498
:1001C00070474B6A0122824023EA02034B62704768
:1001D0000000084010B507280AD8DFE800F00C0935
:1001E000092333475B04BDE81040364800F0B0B83F
:1001F0006FF0020010BD4FF080440021A36843F46B
:100200008023A3604FF47A70FFF7D0FE03E0FFF77E
:10021000EBFE063052D1A3685901F8D5FFF71CFF59
:10022000002010BD00214FF47A70FFF7BFFE4FF0A1
:10023000804403E0FFF7D8FE06303FD1A3689A0060
:10024000ECD4F7E74FF080440021A36843F4002387
:10025000A3604FF47A70FFF7A9FE03E0FFF7C4FE36
:1002600006302BD1A3681B01F8D5D7E74FF08044A7
:100270000021A36843F48013A3604FF47A70FFF762
:1002800095FE03E0FFF7B0FE063017D1A368D80053
:10029000C4D4F7E74FF080440021A36843F400334F
:1002A000A3604FF47A70FFF781FE03E0FFF79CFE36
:1002B000063003D1A3689B01B0D4F7E76FF00900C3
:1002C00010BD00BF74C401103F2809D940380F4940
:1002D000C0B2012282408A608B681A42FCD170470A
:1002E0001F280AD92038C0B201224FF08041824035
:1002F0004A644B6C1A42FCD1704701224FF0804196
:1003000082404A604B681A42FCD1704700000840A6
:10031000C10710B5044608D4A2070BD463070ED456
:100320002046BDE8104000F053BF0020FFF730FF2B
:10033000A207F3D50120FFF72BFF6307F0D540207C
:10034000FFF726FF2046BDE8104000F041BF00BF88
:1003500070B57F4B05689D42044637D003F5805346
:100360009D4220D003F5EE2303F580639D427FD0AC
:100370007848281AB0FA80F04009C000FFF7C8FF9B
:10038000744B22689A4215D06268217A284600F0A0
:100390004BF9D0B9637A042B00F2D780DFE803F081
:1003A0005A4C3E2F18000220FFF7B2FF694B22681B
:1003B0009A42E9D1237A012B00F0BB80022B00F096
:1003C000A580002B56D06FF0100070BD0120D5E73E
:1003D0002B6E626823EA02032B666B6E13436B6617
:1003E000D5F8B83023EA0203C5F8B830594BA17AE2
:1003F0009D4239D02846BDE8704000F0FFB82B6E12
:10040000626813432B666B6E23EA02036B66D5F8B2
:10041000B83023EA0203C5F8B830E7E72B6E62680C
:1004200023EA02032B666B6E13436B66D5F8B83074
:100430001343C5F8B830D9E72B6E626813432B66B7
:100440006B6E23EA02036B66D5F8B8301343C5F828
:10045000B830CBE72B6E626823EA02032B666B6E23
:1004600023EA02036B66C1E70029ACD0002070BD0F
:10047000042083E76368384958001A010E6A00F0C7
:10048000020002F02002024326EA02020A628A689F
:10049000C3F34003034322EA03038B60637A042B14
:1004A00091D8DFE803F0261B031B030062682A498A
:1004B000D300086A03F0100302F00106334320EA78
:1004C00003030B6256019300086A03F0040306F06D
:1004D0004006334320EA03030B6287E71E49626844
:1004E0000E6AD30002F0010003F01003304303430F
:1004F000E7E76268184893005101066A03F00403B5
:1005000001F040010B43334303626FE76368124914
:1005100058001A010E6A00F0020002F020020243A5
:1005200032430A628A68C3F34003034313438B6078
:10053000B4E76368084958001A010E6A00F0020027
:1005400002F0200202433243A0E76FF0020070BDC8
:100550000080004000060840006C0040084A9042BD
:1005600001D000F043B8074810B4046ACA0001F093
:100570000101214302F010030B4310BC03627047DA
:1005800000060840006C0040094A904201D000F08B
:100590002FB810B4074CCA00206A02F0100201F014
:1005A000010142EA010320EA0303236210BC704701
:1005B00000060840006C004000F01CBE034A904258
:1005C00001D000F017B8024AD16170470006084018
:1005D00000680040034B984201D000F00DB8024B78
:1005E000D86970470006084000680040C161704744
:1005F0000162704781647047006C704759B10129EE
:1006000006D1D0F8C0301343C0F8C0300020704786
:100610006FF002007047D0F8C03023EA0203C0F840
:10062000C0300020704700BF036B13430363426078
:1006300005292CD8DFE801F00A12191F2503C0F89C
:1006400088208267C26682600020704742614260F3
:100650000267C267C0F888200020704702614260CC
:100660000267C267C0F88820EEE7C0F88820C2673A
:1006700002678260E8E7C0F88820C267C2668260CD
:10068000E2E7C0F88820826702678260DCE76FF0EB
:100690000200704700F0F6B808B5114B98420DD033
:1006A000104B984211D0104B984215D13820FFF7CB
:1006B0004FFD3420FFF708FE002008BD0D20FFF796
:1006C00047FD1020FFF700FEF6E71C20FFF740FD76
:1006D0002020FFF7F9FDEFE76FF0010008BD00BF34
:1006E00000D0014000E0014000F00140C0B370B50F
:1006F00004460D461646FFF7CFFF1B4B9C4212D017
:100700001A4B9C421CD01A4B9C4226D13820FFF732
:100710003FFD1848FFF71CFE324629462046BDE83B
:10072000704000F049B80D20FFF732FD1248FFF786
:100730000FFE324629462046BDE8704000F03CB826
:100740001C20FFF725FD0D48FFF702FE3246294623
:100750002046BDE8704000F02FB86FF0010070BD7A
:100760004FF0FF30704700BF00D0014000E0014073
:1007700000F0014050C4011068C401105CC40110B5
:1007800000F09AB800F0E8B800F0F6B800F012B93E
:1007900000F018B900F02EB900F038B900F03EB9F9
:1007A00000F044B900F046B900F04CB900F054B97B
:1007B00000F0BEB900F0CCB9F8B5002857D00F460C
:1007C000102115460446FFF7F1FF064608B13046F2
:1007D000F8BD236843F0010323602046FFF7DCFFE8
:1007E0002046FFF7DBFF02212046FFF7E3FF06214B
:1007F0002046FFF7DDFFDFB123681E4A43F0020306
:10080000944223602FD01C4B9C420FD003F58053A1
:100810009C4214BF4FF0FF340224184B04EB4404F5
:1008200003EBC40301225A603046F8BD0124F4E70B
:100830003A4629462046FFF72DFF0E4B9C4209D031
:1008400003F580539C4210D00D4FBC4214BF4FF0B3
:10085000FF370227094B07EB470103EBC1030022D7
:100860005A603046F8BD3446D7E70127F2E74FF02B
:10087000FF36ACE700D0014000E00140E00F00206F
:1008800000F001400346A0B16AB9B1F5806F0DD206
:100890007F29C26484BF4FF40042C264C26C0A4321
:1008A0000020DA6470476FF0100070476FF00200AC
:1008B00070474FF0FF30704700283FD010B4214AF6
:1008C000A1F574236FF410742344934213D31E4B89
:1008D00099422FD81D4B1B685B08B3FBF1F35B08F3
:1008E0009A1EB2F5FF7F03F1FF3323D8436310BC98
:1008F0008363FFF747BF154B154C1B685B08B3FBC1
:10090000F1F14A00A4FB01C14908A4FB02420139EC
:1009100052080F2902F1FF320CDC0F2A0ADC09020F
:1009200089B2D2B20A43C26302680A4942F4004261
:100930000260D2E76FF0020010BC70474FF0FF304A
:10094000704700BF009F240040E1330040170020A3
:10095000ABAAAAAA801A06000649436B826B0868F4
:10096000C2F30802C3F3080313444008B0FBF3F0DA
:10097000704700BF40170020C8B1C1B1AAB100B58F
:10098000002301F1FF3E07E0C16A01335FFA81FCF9
:100990009A420EF803C005D041688907F4D518467D
:1009A0005DF804FB10465DF804FB104670474FF0FD
:1009B000FF30704718B1006AC0F3032070474FF052
:1009C000FF30704798B191B17AB1002301F1FF3C3B
:1009D00006E001339A421CF80310C9B2C16204D088
:1009E0004168C906F5D518467047104670474FF064
:1009F000FF30704738B18369826AC3F30720C2F3BE
:100A00000323C01A70474FF0FF307047C36943F0AB
:100A10008003C361C3691B06FCD47047436A43F07B
:100A200080034362436A1B06FCD470478160026105
:100A3000704700BFC3680B43C360436913434361FE
:100A4000704700BFC36823EA0103C360436923EA18
:100A500002034361704700BF002865D0036843F07C
:100A600001032DE9F04103600768036843F48063E4
:100A70000E46044607F480670360002943D0002532
:100A80002BE0FFF703FB236823F0800323600A2099
:100A9000FFF7FCFA236813F400784FF00A002BD11B
:100AA000FFF7F4FA236843F0800323600A20FFF77E
:100AB000EDFA23689A054FF00A001DD5FFF7E6FA14
:100AC000236843F0400323600A20FFF7DFFA23681E
:100AD000DB0525D40135AE4215D00A20FFF7D6FA42
:100AE000236823F0400323600A20FFF7CFFA23682E
:100AF000D9054FF00A00C4D52368013543F0C0037F
:100B0000AE422360E9D16FF008001FB9236823F4D7
:100B100080632360236823F001032360BDE8F08134
:100B20004046002FF6D1F1E74FF0FF30704700BF8D
:100B30008269D2B28A42034607D3C26922F4706244
:100B400042EA01210020D96170476FF0020070472E
:100B50008269C2F307228A42034607D3426A22F41B
:100B6000706242EA01210020596270476FF0020072
:100B7000704700BF00F000B8D0F80031012223F028
:100B80000103C0F80031C0F80027D0F80031DA03C3
:100B9000FBD5D0F8003143F00103C0F80031D0F8A4
:100BA0000031DB03FBD5704708B5164B984210D0D7
:100BB000154B984214D0154B984218D0144B9842BC
:100BC0001CD14420FFF780FB4420FFF7C1FA00202E
:100BD00008BD0B20FFF778FB0920FFF7B9FAF6E70D
:100BE0000C20FFF771FB0A20FFF7B2FAEFE71C2099
:100BF000FFF76AFB2120FFF7ABFAE8E76FF002008E
:100C000008BD00BF00200440003004400040044004
:100C10000014084070B504460E461546FFF7C4FFA1
:100C2000A8BB022D2DD0042D18D0204B9C421BD0E8
:100C30001F4B9C422CD01F4B9C4230D01E4B9C42E1
:100C400023D11E48FFF784FB4420FFF7A1FA2A4670
:100C500031462046BDE8704000F0F8B80620FFF7A6
:100C6000B9FA124B9C42E3D11548FFF771FB0920FA
:100C7000FFF78EFA2A4631462046BDE8704000F064
:100C8000E5B80520FFF7A6FACFE76FF0020070BDC8
:100C90000C48FFF75DFB0A20FFF77AFAD7E70A480E
:100CA000FFF756FB2120FFF773FAD0E7002004403E
:100CB00000300440004004400014084020C40110EB
:100CC00044C4011038C401102CC40110314B9842A7
:100CD00010B5044615D003F58053984211D003F5A2
:100CE000805398420DD003F57533984206D1052301
:100CF000022A436114D0042A32D08AB16FF0020074
:100D000010BD042AFAD0204600F0D8F80028F7DDFC
:100D1000236843F40043236023681B03FCD510BD04
:100D20004FF4E103B3FBF1F301FB03F2C2F5E1027F
:100D300013B1B2EB510F00D90133174A1361106898
:100D400000F44030B0F5803F05D0136813F4403F05
:100D5000D4D14FF4E100104B1B69B0FBF3F0D5E7A1
:100D6000036843F4803303600368B1F5166F43F4FE
:100D7000001303600AD9002343614FF48033B3FBAF
:100D8000F1F301FB03F2C2F58032D1E701234361A5
:100D9000F3E700BF0020044000140840124B9842C3
:100DA0001CD003F58053984218D003F58053984225
:100DB00014D003F57533984212D1036803F440331D
:100DC000B3F5803F05D0036813F4403F08D14FF4DA
:100DD000E103064A1069B3FBF0F0704700F0BAB8BF
:100DE0006FF00200704700BF00200440001408406C
:100DF00000F0F0B800F00EB900F030B900F084B99E
:100E000000F09EB900F008B800F012B800F0B6B9D2
:100E100000F0B8B900F0BCB910B504462046FFF7A1
:100E2000F5FF0028FAD02046BDE81040FFF7E6BFE6
:100E300038B504460D462046FFF7EAFF0028FAD0F1
:100E400029462046BDE83840FFF7DABF1A4B9842E2
:100E500070B504460D4616460BD003F580539842F4
:100E600007D003F58053984203D003F575339842B9
:100E70001FD101212046FFF7CDFF00B170BD082131
:100E80002046FFF7B5FF0028F8D101462046FFF7BE
:100E9000B3FF0028F2D101462046FFF7ABFF002840
:100EA000ECD1324629462046FFF710FF00EAE070F9
:100EB00070BD6FF0020070BD00200440224B9842CC
:100EC0000BD003F58053984207D003F58053984226
:100ED00003D003F57533984232D10523012A10B4AB
:100EE000436123D0022A14D01AB16FF0020010BC63
:100EF0007047164B1A685208B2FBF1F301FB13223C
:100F000013B1B2EB510F00D9013310BC0361FFF7ED
:100F100045BF04684FF4E10344F40034B3FBF1F33C
:100F200001FB03F2C2F5E1020460E9E70468084A44
:100F3000B2FBF1F344F48034046001FB1322DFE7D9
:100F40006FF00200704700BF0020044040170020EF
:100F5000C06878041C4B98420BD003F5805398422C
:100F600007D003F58053984203D003F575339842B8
:100F700022D1036803F44033B3F5803F17D00368F0
:100F800013F4403F0CD0036803F44033B3F5003F43
:100F900008BF4FF4E10312D10069B3FBF0F07047D2
:100FA0000A4B00691B685B08B3FBF0F07047084B05
:100FB0000069B3FBF0F070476FF002007047036800
:100FC0006FF00200704700BF00200440401700206F
:100FD000C06878040E4A904203460BD002F5805256
:100FE000904207D002F58052904203D002F575324C
:100FF00090420AD10539032907D81A6822F44062C1
:1010000042EA812200201A6070476FF002007047A8
:1010100000200440104B98420BD003F580539842B7
:1010200007D003F58053984203D003F575339842F7
:1010300008D151B1012905D1036843F480530360FD
:10104000002070476FF002007047036823F480535C
:1010500003600020704700BF00200440294B9842E5
:101060000BD003F58053984207D003F58053984284
:1010700003D003F57533984241D104293FD8DFE806
:1010800001F0111724310300036843F010030360DB
:10109000036843F020030360036843F040030360E8
:1010A00000207047036823F010030360002070479E
:1010B000036843F010030360036823F02003036018
:1010C000036823F040030360EAE7036843F010037A
:1010D0000360036823F020030360036843F04003C8
:1010E0000360DDE7036843F010030360036843F027
:1010F00020030360036823F040030360D0E76FF030
:1011000002007047002004400C4B98420BD003F5BE
:101110008053984207D003F58053984203D003F5DB
:101120007533984204D14368DB0604D4006A7047E3
:101130006FF0020070476FF00C0070470020044011
:101140000D4A904203460BD002F58052904207D0E0
:1011500002F58052904203D002F57532904205D1DB
:10116000586810F0800004D1196270476FF00200D7
:1011700070476FF00B007047002004404068C0F3D8
:10118000032070474068C0F30330C0F10800704787
:101190000E4A904203460BD002F58052904207D08F
:1011A00002F58052904203D002F57532904209D187
:1011B0004A1E072A06D81A6822F00F02114300209F
:1011C000196070476FF00200704700BF00200440B4
:1011D00010B5064C217831B905484FF4007204F07F
:1011E000DFF801232370002010BD00BF281000206D
:1011F0002C1200200328F8B507461DD818BB144D43
:101200002846FFF7E7F9044601462846FFF7D6F9D6
:101210008CB1104E104D06EBC71605EBC715E30752
:1012200003D52B680BB130689847640806F10406B3
:1012300005F10405F3D1F8BD084909485A22FEF723
:1012400037FC0025DCE7074B421E53F82250D7E756
:10125000008000402C1000202C12002080C40110BF
:10126000F0C4011010C501102DE9F04F01F10B057C
:10127000162D85B0064624D8102900F2B18003F05F
:1012800087F9102518234FF0020CBA4F3B44A3F105
:1012900008025C68944200F022816368E268A168F9
:1012A00023F00303CA602344304691605A6842F039
:1012B00001025A60083403F071F9204605B0BDE818
:1012C000F08F35F0070500F18B80A94200F288808D
:1012D00003F05EF9B5F5FC7FC0F073816B0A00F096
:1012E0008380042B00F22281AB0903F1390C03F156
:1012F000380E4FEACC039F4F3B44A3F108005C68D3
:10130000A04207D10DE0002AE16880F2E280884225
:1013100007D00C46636823F003035A1B0F2AF2DD43
:10132000F446DFF864823C69444500F0BF8063689E
:1013300023F00309A9EB05030F2B00F34781002BD2
:10134000C7E9048880F23181B9F5007FD7F804E05D
:1013500080F0CC804FEAD90101314FEA59190123BD
:1013600003FA09F357F83120A2604EEA030E07EBA7
:10137000C103083BE360C7F804E047F83140D4609C
:101380004FEAAC0301209840704534D810EA0E0FA4
:1013900007D12CF0030C400010EA0E0F0CF1040CE6
:1013A000F9D007EBCC0A5246E146D1680EE04B6813
:1013B00023F00303A3EB050EBEF10F0F0C46C96823
:1013C00000F3C180BEF1000F80F2E2808A42EED1CC
:1013D00009F1010919F0030F02F10802E5D121E139
:1013E0000C233360002468E74FF400734FF0400C87
:1013F0004FF03F0E7FE7BC68636823F00309A945FF
:1014000003D3A9EB05030F2B53DC5B4BDFF87CB157
:101410001B68082003F1100804F080F8DBF80030A6
:1014200001900133A84404EB090205D008F1FF380C
:101430008044434203EA080841463046029204F0E1
:1014400055F8B0F1FF3F029A824600F0DC808242FC
:1014500000F2D780494B01991868404401F1FF31EF
:101460001860844640F0FC801AEA010F40F0F880D2
:10147000D7F808A0C84448F00102CAF80420404B3D
:101480001968814238BF18603E4B1968814238BFE5
:101490001860544622F00308A845A8EB050301D3C1
:1014A0000F2B06DC304603F079F89BE7D7F804E011
:1014B00066E7621943F0010345F0010565603046B7
:1014C000BA60536003F06AF80834204605B0BDE8FE
:1014D000F08FA2682344D16030468A60E6E6DC687B
:1014E000A3427FF4DAAE0CF1020C1AE7B9F5206FD3
:1014F0004FEA59227ED3142A00F2158102F15C03CF
:10150000DB005B32F918FB580839994203D1F0E04F
:101510009B68994204D05A6822F003024A45F7D8E2
:10152000D968C4E902318C60DC6029E7142B6DD9DD
:10153000542B00F201812B0B03F16F0C03F16E0EA3
:101540004FEACC03D7E63046A668621945F001059C
:101550006560F1608E604EF00101C7E90422C2F8B7
:101560000880C2F80C80516044F803E003F016F8DC
:101570000834A2E6400000205C1400202C14002057
:101580005814002054140020480000203800002087
:10159000234430465A6842F001025A6054F8083F2A
:1015A000D9608B6002F0FAFF87E6A1443046D9F893
:1015B000043043F00103C9F80430083402F0EEFFB0
:1015C0007BE64FEAD50C05F108035EE6621943F0AD
:1015D000010145F0010565603046C7E90422C2F803
:1015E0000880C2F80C80516044F8093002F0D6FF40
:1015F000083462E64FEA991202F13903DB0038320F
:1016000080E7BC4224D0BC68626843E703F15C0C0D
:1016100003F15B0E4FEACC036DE65AF808395345E7
:1016200040F0D8801CF0030F0CF1FF3CF5D17B6833
:1016300023EA00037B60400098423FF6DCAE18B915
:10164000D9E6400009F104091842FAD0CC46A8E6D0
:10165000614B0199186808EB000C0139C3F800C010
:10166000DBF8000001301BBFAAEB02026244CBF89A
:1016700000A01A601AF00702CDE9022342D0C2F19D
:101680000802019B9244D044134408EA01001A1A4C
:1016900002EA010B5946304603F028FF421C039B27
:1016A0007AD0A0EB0A0000EB0B081868C7F808A076
:1016B00048F001025844BC42CAF8042018603FF4C4
:1016C000DEAEB9F10F0F42D96168A9F10C0222F028
:1016D000070201F0010111436160A1184FF0050CF0
:1016E0000F2AC1F804C0C1F808C04AD8DAF80420AB
:1016F000C5E69210012000FA02F24EEA020EC7F887
:1017000004E00EE7019B0AEB08020A409A1A02EA7B
:10171000010B5946304603F0E9FE431C039BC0D140
:10172000DDF808B0C1E7542A15D84FEA193202F1A2
:101730006F03DB006E32E5E6B3F5AA7F15D8EB0B3D
:1017400003F1780C03F1770E4FEACC03D3E50123C4
:10175000CAF80430A6E6B2F5AA7F25D84FEAD932F6
:1017600002F17803DB007732CCE640F25452934228
:1017700025D8AB0C03F17D0C03F17C0E4FEACC03B2
:10178000B9E5304604F10801019305F0F3F8019B37
:10179000D7F808A01868A9E7029A083A9044A8EB7D
:1017A0000A084FF0000B80E740F254539A420DD8DC
:1017B0004FEA994202F17D03DB007C32A2E64FF44E
:1017C0007E734FF07F0C4FF07E0E94E54FF47E73E6
:1017D0007E2297E67B682EE72C1400200FB400B51C
:1017E000074983B004AB086853F8042B8168019360
:1017F00000F00AF803B05DF804EB04B0704700BFD6
:10180000C0050020000000002DE9F04FDFB01C46AD
:1018100007919146834603F04FFE036819931846DB
:1018200003F0AEFF0822189000212EA80D9403F0BB
:10183000B7FDBBF1000F04D0DBF83430002B01F012
:101840008780079B5A6EB3F90C30D10702D49A05F2
:1018500040F1A7869F0407D407994A6E43F40053CA
:1018600022F400528B814A661E0740F1CC80079A11
:101870001269002A00F0C78003F01A020A2A00F059
:10188000D1809FED997B0023CDE93333CDE91B3324
:10189000CDE91D338DED167B35AA13933292904618
:1018A0001A930A93CDF820B04D46089F2E46904BD0
:1018B000D3F8E44003F0FAFD03462EA80090324628
:1018C0002AA93846A047002800F0CB80C0F2C1808A
:1018D0002A9A252A034601D01E44E8E7771B0446CE
:1018E00040F0C28000238DF89F3099460B934FF053
:1018F000FF3273780992741C0134A3F120025A2A32
:1019000000F2F880DFE812F0D002F600F600CC0218
:10191000F600F600F6006A00F600F6008602A9025C
:10192000F6009102B202F600AE025B005B005B00C3
:101930005B005B005B005B005B005B00F600F60099
:10194000F600F600F600F600F6007701F600110248
:101950002A03770177017701F600F600F600F6001A
:101960002603F600F600E202F600F600F6002F026B
:10197000F6001303F600F6001F07F600F600F60067
:10198000F600F600F600F600F6007701F600110208
:1019900061027701770177019F0261020D02F60073
:1019A0009502F6005503470743030D02F6002F0288
:1019B0007D004207F600F6004B07F6007D00A3F11C
:1019C0003002002114F8013B01EB810102EB4101DF
:1019D000A3F13002092AF5D90B918EE7089F38460A
:1019E00003F06AFD43681D93184603F0C9FE1E907C
:1019F0000646384603F060FD83681B93002E40F0D6
:101A00002986237878E7079D5846294603F07AFB14
:101A1000002841F0AC83B5F90C3003F01A020A2A11
:101A20007FF42FAF0799B1F90E20002AFFF629AFF6
:101A30004A6ED00702D49A0541F1C5810799234621
:101A40004A46584601F008FD0A900A985FB0BDE882
:101A5000F08F082200212EA803F0A2FC01231E44CF
:101A600025E7771B044611D0349B3B443493339BCA
:101A70000133072BC8E90057339313DC08F108083A
:101A80000A9B3B440A93002C7FF42CAF349BDDF877
:101A900020B0002B41F0DC80079B0022B3F90C3012
:101AA000339212E0DDE9071032AA01F051FD48B986
:101AB0000DF1D408E4E7BB460C9B1BB10C995846CA
:101AC00004F058FF079BB3F90C30079A526ED40705
:101AD00040F11D81590601F156830A985FB0BDE8B7
:101AE000F08F00BFAFF30080000000000000000096
:101AF00054040020CDE90E34002BC7D000228DF80D
:101B0000143101238DF89F2006930C929B46099275
:101B100014921092129245AD19F0020302D0069968
:101B20000231069119F08407349C05D10B9906986F
:101B30000E1A002E00F3AA8082B10122C8F80420F8
:101B4000339A013201340DF19F01072A3494339204
:101B5000C8F8001000F3E38308F1080883B1339B51
:101B600028AA01330234C8F80020072B4FF00202E4
:101B700034943393C8F8042000F3DF8308F1080895
:101B8000802F00F0C082099BA3EB0B06002E00F310
:101B9000FF8219F4807F40F01B82339BC8F800500D
:101BA00001335C44072BC8F804B03494339300F33A
:101BB0004F8308F1080819F0040F05D00B9B069A13
:101BC0009D1A002D00F3C583DDE90A3206998A4289
:101BD000ACBF9B185B180A93002C40F011830023C4
:101BE00033930C9B1BB10C99089804F0C3FE0DF1C4
:101BF000D4080F9D59E6CDE90E340D9B073323F031
:101C00000703B3EC027B57EC176B0D9327F00043EF
:101C100023938DED227ADDE922ABA84B4FF0FF3202
:101C2000504659468DED167B08F04AF9002840F0E1
:101C30002F85A24B4FF0FF325046594608F022F94B
:101C4000002840F02585002200233046394608F060
:101C50000FF9002841F00C819DF89F20984D994B79
:101C600029F080090E994729C8BF1D46002303218A
:101C70000C9306918B460993149310931293002AA8
:101C80003FF44AAF069B0133069345E7102E339A83
:101C900041F33A828C482195CDE91F372146079DB3
:101CA000089C15904FF0100A074604E0103E102ED5
:101CB00008F1080816DD01321031072AC8E9007A58
:101CC000CDE93321F2DD32AA294620460DF1D408B0
:101CD00001F03EFC002840F03586103E102EDDE974
:101CE0003321E8DCDDE91F37219D0C4601321599CF
:101CF000C8F800103444072ACDE93324C8F804603A
:101D000000F30F869DF89F2008F1080814E7980556
:101D10003FF5E0AE079CA06D03F03CFCB4F90C303D
:101D2000D8E6237849F02009E6E50D9A432BCDE962
:101D30000E3402F1040400F0618519F0100F40F038
:101D40005D850D9B1B688DF81431012306939B461E
:101D500045AD00220D948DF89F200C9209921492AB
:101D600010921292D8E60D9E56F8045BCDE90E341F
:101D700000238DF89F30002D00F02F850E9B532BF4
:101D800000F0008619F01003129340F0FB85099BC8
:101D90005A1C00F0678712991A46284603F000FC87
:101DA0000C90002801F0C2820C9B0D96A3EB050B52
:101DB000129B09932BEAEB71149310930C937323EA
:101DC0009DF89F2006910E9359E719F0200FCDE959
:101DD0000E3400F0CB800D9B073323F007031A4627
:101DE000596852F8083B0D920A460029C0F2248433
:101DF0000999013100F0848253EA020129F080043C
:101E000040F07F82099A002A40F08082A1469346E2
:101E10005EAD4FE10D9B53F8042B0B92002A80F22C
:101E2000CD830B9A0D9352420B92237849F004090B
:101E300062E523786C2B03BF637849F020090134F5
:101E400049F0100958E52378682B03BF637849F4FB
:101E50000079013449F040094EE52B238DF89F307D
:101E6000237849E5237849F0800945E5214611F8B2
:101E7000013B2A2B01F0D782A3F13002092A0C463C
:101E800098BF002101F26F8114F8013B01EB810141
:101E900002EB4101A3F13002092AF5D909912CE5A1
:101EA000237849F0010927E59DF89F202378002A2F
:101EB0007FF422AD20228DF89F201DE5FFFFEF7FEC
:101EC0001CC5011020C5011070C50110CDE90E34EC
:101ED00049F0100919F0200200F054830D9B0733DC
:101EE00023F0070319465A6851F8083B0D9129F46D
:101EF000806400210020099D8DF89F006F1C00F078
:101F0000C28053EA020024F0800940F0BB80002D1B
:101F100040F02385002940F0968414F0010B00F076
:101F2000518330238DF877310DF27715C2E0CDE97A
:101F30000E3449F0100414F0200200F015830D9BBC
:101F4000073323F0070319465A6851F8083B0D91EF
:101F50000121CFE7237849F00809CDE449F01009C1
:101F600019F0200FCDE90E347FF435AF0D9A19F03A
:101F7000100F52F8043B0D9240F0598319F0400FB6
:101F800000F0518343F3C03211461BB22DE70D9A86
:101F90000F9452F8043B0D9247F63002ADF8A020A2
:101FA0007820B14A1A9249F00204002202210E90D0
:101FB000A0E719F0200F0F9400F059830D9B0A9AA7
:101FC0001B681A60D2175A600D9B04330D9310E6FC
:101FD0000E9B652B40F34E81DDE9160100220023A4
:101FE00007F03CFF002800F0EE81339B9F4AC8F8C1
:101FF0000020013301340122072B34943393C8F8B5
:10200000042000F3AF8408F10808299B139A934237
:1020100080F2CF82189B199A1C44C8E90023339B95
:1020200034940133072B339300F3CB8308F1080872
:10203000139B5D1E002D7FF7BEAD102D339B40F32B
:10204000F9848B4F1597DDE907AB102605E008F101
:102050000808103D102D40F3EF8401331034072B96
:10206000C8E90076CDE93334F1DD32AA514658464D
:1020700001F06EFA00287FF41FADDDE933340DF175
:10208000D408E6E74C46012900F03B8102295EAD09
:102090001ED11A9803F00F011B09415C05F8011DC0
:1020A00043EA0273120953EA0201F3D15EABA1467F
:1020B000A3EB050B09999DF89F2059454FF00003AC
:1020C000B8BF59460C930691149310931293D6E51A
:1020D00003F00701DB0843EA4273D208303153EAC8
:1020E0000206284605F8011DF2D1E607DED53029A3
:1020F000DCD03023023805F8013C5EABA146A3EBEF
:10210000000B0546D6E70B9B069A9E1A002E7FF71A
:102110003AAD102E339B41F3AB805548DDF820A03B
:102120001590214610271A46044604E0103E102E52
:1021300008F1080816DD01321031072AC8E9004706
:10214000CDE93321F2DD079932AA50460DF1D408CA
:1021500001F0FEF9002840F0F883103E102EDDE972
:102160003321E8DC0C4613460133159AC8F80020E9
:102170003444072BCDE93334C8F8046000F31483EA
:10218000099BA3EB0B06002E08F108087FF701ADB1
:10219000374A339B1592102E23DD22464FF0100A4A
:1021A000DDE9074704E0103E102E08F1080817DDAE
:1021B00001332F491032072BC8E9001ACDE9333219
:1021C000F1DD32AA2146384601F0C2F900287FF439
:1021D00072AC103E102EDDE933320DF1D408E7DC8D
:1021E00014460133159AC8F800203444072BCDE972
:1021F0003334C8F8046000F3AA8108F10808C8E481
:10220000DDE9071032AA01F0A3F900283FF4E7AC9A
:10221000DDF820B050E4189B19991C44C8E900135C
:10222000339B34940133072B339300F3BD8508F1BE
:102230000808002AC0F2AC87139AC8F8005001338E
:102240001444072BCDE93334C8F804207FF7B1AC30
:10225000DDE9071032AA01F07BF90028D8D1349CBF
:102260000DF1D408A7E400BF2CC501105CC5011016
:1022700060C50110139B339E012B04F1010406F18C
:10228000010608F1080740F31D810123072ECDE95F
:102290003364C8F80050C8F8043000F3E482189B97
:1022A000199A01361C44072EC7E90023CDE933648F
:1022B00000F3CD820837139BDDE9160103F1FF38E7
:1022C0000022002307F0CAFD002840F015810136E6
:1022D00001354444072ECDE933643D60C7F80480DE
:1022E00000F3FE8008371C9B7B6001361C44072EE0
:1022F0002CABCDE933643B60AADC07F108085AE453
:102300004C460A2B72F1000180F0B98230338DF80F
:102310007731A1464FF0010B0DF27715CAE6DDE9E2
:10232000071032AA159301F013F900287FF470AF5B
:10233000349C159B0DF1D40810E4DDE9071032AA96
:1023400001F006F900287FF463AF349C0DF1D40846
:1023500016E4102D339B40F35087BB4F1597DDE9F2
:1023600007A9102604E0103D102D08F1080816DD1D
:1023700001331034072BC8E90076CDE93334F2DDA0
:1023800032AA514648460DF1D40801F0E1F8002880
:1023900040F0F582103D102DDDE93334E8DC0133E7
:1023A000159A2C44072BC8E90025CDE933347FF773
:1023B0000BACDDE9071032AA01F0CAF800287FF45F
:1023C00027AF349C00E4299A002A40F3FD80DDE920
:1023D00012739F42A8BF1F46002F05EB030B0BDDB6
:1023E000339B01333C44072BC8E9005734943393A3
:1023F00000F36D8608F10808129E002FA8BFF61B97
:10240000002E00F34583129B19F4806F2B449A46EB
:1024100040F07885299D139B9D4203DB19F0010F45
:1024200000F00284189B199A1C44C8E90023339BCE
:1024300034940133072B339300F3588608F10808CE
:10244000139BABEB0A065D1BAE42A8BF2E46002EC7
:102450000DDD339BC8F800A001333444072BC8F8C6
:1024600004603494339300F3538608F10808002E77
:10247000A8BFAD1B002D7FF79EAB102D339B40F303
:10248000D982724F1597DDE907AB102605E008F1F8
:102490000808103D102D40F3CF8201331034072B74
:1024A000C8E90076CDE93334F1DD32AA5146584609
:1024B00001F04EF800287FF4FFAADDE933340DF176
:1024C000D408E6E719F0010F7FF4DFAE0123072EF1
:1024D000CDE93364C8F80050C8F804307FF703AF83
:1024E000DDE9071032AA01F033F800287FF490AE3E
:1024F000DDE9336435AFF6E6139B012B7FF7F3AECE
:10250000112B524B159340F3B782CDF82490DDE99F
:1025100007BA1025994606E00837A8F11008B8F167
:10252000100F40F3A78201361034072EC7E900953B
:10253000CDE93364F0DD32AA5946504601F008F87F
:10254000002840F00282DDE9336435AFE5E7DDE9DC
:10255000071032AA00F0FCFF00287FF459AE349C2B
:102560000DF1D408FFF715BB0D9951F8043B0D91FF
:1025700014F0100155D114F040004DD00A469BB222
:102580000121B7E40D9951F8043B0D9119F01001A8
:102590007FF4ADAC19F0400000F0A7829BB20A4670
:1025A000A5E4079DA86D02F0F3FFB5F90C30FFF725
:1025B00051B919F0010F3FF4FEAA2BE50D932378D2
:1025C000FFF79AB95EAD75E5339B2149C8F8001055
:1025D000013301340121072B34943393C8F80410DC
:1025E00000F34F8508F10808002A7FF414AE139A0F
:1025F00009F0010313433FF4DEAA189B199A1C4407
:10260000C8E90023339B34940133072B339300F341
:10261000CB8308F108080FE614F400721CBFDBB28C
:102620000246012166E419F4007F40F00583DA17C1
:1026300011460029BFF6DCAB5B4262EB42024C461E
:102640002D20012157E400BF70C5011060C50110A5
:102650005CC501101B9A2378002A3FF44DA912781B
:10266000002A3FF449A949F48069FFF745B919F0F8
:10267000100F40F0F98119F0400F40F0E38219F497
:10268000007F00F0F1810D9B0A9A1B681A709BE491
:10269000DDE9160102460B4607F012FC002840F067
:1026A00036860E9B612B00F01F85412B00F0E182E6
:1026B000099B013300F015860E9B23F02003472B66
:1026C00004D1099B002B08BF01230993DDE9160102
:1026D00049F4807200291592CDF818904FF000034C
:1026E000C0F2DD84CDE924011F930C930E9B413B86
:1026F000252B00F20182DFE813F07203FF01FF01D6
:10270000FF016B036F03FF01FF01FF01FF01FF01E9
:10271000FF01FF01FF01FF01FF01FF01FF01FF01B9
:10272000FF01FF01FF01FF01FF01FF01FF01FF01A9
:10273000FF01FF01FF01FF01FF01FF01FF01FF0199
:10274000FF016B036F03CDE90E34C24B1A9319F0EE
:1027500020026AD00D9B073323F0070319465A68FD
:1027600051F8083B0D9119F0010F0AD053EA02010C
:1027700007D00E998DF8A110302149F002098DF88B
:10278000A01029F480640221FFF7B4BBCDE90E3418
:102790004C46FFF7D0BBCDE90E34FFF79BBBCDE92C
:1027A0000E34AD4B1A93D2E7DDE9071032AA00F0E0
:1027B000CFFE00287FF42CAD349C0DF1D408FFF738
:1027C000E2B9DDE9071032AA00F0C2FE00287FF46A
:1027D0001FAD349C0DF1D4082AE4099B0C95062BFF
:1027E000294628BF062309952A4606939B4D0D9638
:1027F0009B46149110911291FFF741BA08220021D3
:1028000030A802F0CDFD0D9B08981A6845AD30AB9D
:10281000294603F021F8B0F1FF3F834600F04285DE
:1028200020EAE0730693FFF794BA0D9951F8043B40
:102830000D9119F0100196D119F0400000F04F8170
:102840009BB20A468FE7DDF824B05EAD32E4DDE9E5
:10285000071032AA00F07CFE00287FF4D9ACDDE935
:10286000336435AF27E5DDE9071032AA00F070FECA
:1028700000287FF4CDACDDE9336435AF0FE504F417
:10288000806B0021CDF83080DFF8D891DDF86C80C6
:1028900006945EAD4FF0CC3A05278C465E4605E0C7
:1028A0000A2B72F1000233D35B462246991841F19C
:1028B0000001A9FB010424F0030000EB9400091AB5
:1028C000581A62F1000E0AFB00F4A0FB09B009FBE4
:1028D0000E440BF0010E0444AEFB070E40184FEA05
:1028E0005B0B303005F8010C4BEAC47B0CF1010C9A
:1028F000013D6408002ED3D098F800108C45CFD14C
:10290000BCF1FF0FCCD00A2B72F1000280F0C38221
:10291000CDF86C80069CDDF83080CDF84CC0FFF718
:10292000C5BBDDE9071032AA159300F011FE00289F
:102930007FF46EAC9DF89F20349C159B0DF1D4085C
:10294000FFF7FAB8A346FFF7B7B8D346FFF7B4B816
:10295000584602F009FAFEF774BF01294C467FF48D
:1029600095ABD3E4DDE9071032AA00F0F1FD0028B1
:102970007FF44EAC349C0DF1D408FFF746BBCB4638
:10298000FFF79AB830AF0822002138462B9502F0A5
:1029900007FD099B581C00F070820024CDF81890A8
:1029A000A346DDF820909A460CE045A9484602F07F
:1029B00053FF411C584400F07584504508DC00F07A
:1029C000C28483462B9A12593B460434002AECD128
:1029D000DDF81890BBF1000F00F04283BBF1630FEC
:1029E00040F3F98308980BF10101FEF73DFC054621
:1029F000002800F057840C9008220021384602F08D
:102A0000CFFC089800975B462BAA294602F04AFFA4
:102A1000834540F01785002305F80B302BEAEB7156
:102A20009DF89F200D96099306911493109312938D
:102A3000FFF725B90A4A15920133159AC8F8002004
:102A40002C44072BC8F80450CDE933347FF7B1A8E4
:102A5000FFF7FEBB40C501102CC5011054C5011085
:102A600060C50110CDCCCCCC0D9B0A9A1B681A60B6
:102A7000FFF7AABADDF82490159B3B600136444469
:102A8000072ECDE93364C7F804807FF72BAC27E528
:102A9000102E339B40F3AD84984815904246214652
:102AA000A846DDE9074A1027054604E00832103E33
:102AB000102E40F3CA8101331031072BC2E90057B1
:102AC000CDE93331F2DD32AA2146504600F040FD17
:102AD00000287FF43AAFDDE9333135AAE7E719F48E
:102AE00000721CBFDBB202463DE619F400721CBF47
:102AF000DBB20246FFF7FBB9099E0223CDE900369F
:102B000030AB04932BAB039329AB02930898DDE918
:102B1000242302F0B1FF0E9B672B054600F077815E
:102B20000E9B472B00F073810E9B23F02007462F4E
:102B300000EB060405D10378302B00F0DB83299EDF
:102B40003444DDE924010022002307F087F900283E
:102B500000F0CC8123465B1B1393299A1292472FD6
:102B600000F05D81462F00F0E3820E99531E61292B
:102B7000299300F04184412940F05C8150210120DB
:102B8000002BB6BFC2F101032B222D22092B8DF899
:102B9000B0108DF8B12040F377830DF1C704584E83
:102BA00022461046A6FB0312D20802EB8201A3EBD9
:102BB0004101303100F8011C19466329134600F128
:102BC000FF32EEDC303302F8013C831EA34280F07A
:102BD0000C840DF1B10213F8011B02F8011FA3428E
:102BE000F9D15EAB181AA0F1AD031C93139B1C9A8C
:102BF000012B03EB020B40F37883189B9B44069B4D
:102C000023F4806343F480792BEAEB72002314935E
:102C10000692109312931F9B002B40F00F819DF89A
:102C20009F200993FFF72BB8139BABEB0A065D1BA4
:102C3000AE42A8BF2E461AE443F3C01211465BB25F
:102C4000FFF7D3B80D9B0A9A1B681A80FFF7BCB92F
:102C5000079932AA584600F07BFC00283EF41CAFCE
:102C6000FEF730BF28460D9602F08AFD8346FFF737
:102C70009FB858238DF8A13030238DF8A03049F04B
:102C800002030693099B632B00F3F68200230C9347
:102C900045AD49F481731593179B002BC0F2008258
:102CA0009DED167B8DED247B00231F930E9B612BE6
:102CB0007FF41CAD29AADDE9240102F0FFFD00220A
:102CC0004FF07F5306F062FE02460B46CDE910231B
:102CD0000022002307F0C2F8002840F0F882094BD8
:102CE0001293099BCDF84C8003F1FF392E461495C1
:102CF000DDF848B04D46DDE910890BE060C50110F4
:102D0000CDCCCCCC2CC501100022002307F0A6F8B6
:102D1000F0B93D46A94B00224046494606F036FE32
:102D20008946804607F0E2F8044606F0C5FD0B46EA
:102D300002464946404606F071FC1BF80430B24694
:102D400006F8013B6B1C05F1FF3780468946DBD155
:102D5000CB465746C2469A4BDDF84C80002250467F
:102D60005946A946149D07F0A1F8002840F0648256
:102D7000934B50465946002207F070F810B1E20715
:102D800000F15A82B9F1000FC0F2708209F101031B
:102D90003344302206F8012BB342FBD15B1B139363
:102DA0000E9B23F02007D8E6DDE9071032AA00F0D9
:102DB000CFFB00287FF42CAADDE93334299A0DF1EA
:102DC000D408FFF736BA886D02F0E4FBFEF736BE92
:102DD000099B5E1C022391E6099E03238EE629AA25
:102DE000DDE9240102F06AFD00224FF07F5306F076
:102DF000CDFD02460B46CDE910230022002307F04B
:102E00002DF8002840F063826E4B129369E7069B11
:102E1000DB0700F1E481309B299A5B1B1393D31CE1
:102E2000129202DB099B934244DA0E9B023B0E9303
:102E3000531E29939DF838100020A1E62D2200236F
:102E40008DF89F200993FEF71DBF45460C4690461E
:102E50000133159AC8F800203444072BCDE93334E8
:102E6000C8F8046000F3268208F10808FFF7CBBA1F
:102E70002D228DF89F20FEF7F1BE002308980097C1
:102E80002BAA194602F00EFDB0F1FF3F834600F079
:102E900009822B959EE51E9B1D99ED1A1A46284620
:102EA00002F0D0FA98F801300BB108F101084FF0A8
:102EB000000CF9E4139B934200F39481069BDE0718
:102EC00040F14A82189B02EB030B069B5C0502D57E
:102ED000002A00F34A822BEAEB730693DDF8549044
:102EE00067230E9300231493109394E6309BA34220
:102EF000BFF431AE30215A1C30921970309B9C4285
:102F0000F9D828E621461C46109BCDF824B0CDF810
:102F1000389042462C4FDDF85090DDF87880DDF88F
:102F20006CA0DDF820B07BB3B9F1000F00F0858014
:102F300009F1FF3933981D9B013041440728C2E94C
:102F40000038349133906DDC0832099B9AF8000008
:102F50001E1B8642A8BF0646002E0BDD33980130AB
:102F600031440728C2E90046349133906BDC9AF86B
:102F700000000832002EACBF851B0546002D14DC76
:102F80000444109B002BCFD1B9F1000FD0D1DDF854
:102F900024B0CDF86CA0A246DA45DDF83890904612
:102FA0000C4628BFDA46FFF735BA102D339840F3A8
:102FB0001A8223463E462C461D460CE00000304057
:102FC0000000E03F40C5011060C50110103C102C0E
:102FD00002F1080216DD0130103110230728CDE977
:102FE000330117605360F1DD079932AA584600F0AB
:102FF000AFFA00287EF460AD103C102CDDE93301FF
:1030000035AAE8DC2B4625461C4601302944072812
:10301000CDE93301166055604BDC9AF800000832A8
:103020000444AEE7079932AA584600F091FA002806
:103030007EF442AD349935AA87E7109B013B0AF133
:10304000FF3A109376E7079932AA584600F080FAC3
:1030500000287EF431AD9AF80000349935AA89E74A
:103060009DF89F200D96CDF818B0CDF824B0CDF87E
:1030700050B0CDF840B0CDF848B0CDF830B0FEF744
:10308000FEBDDDE9071032AA00F062FA00287FF4E5
:10309000BFA8299A349C0DF1D408FFF7A5BA0C9368
:1030A000DDE9161202F1004325932D2324911F938D
:1030B000FCE5079932AA584600F04AFA00287EF447
:1030C000FBAC9AF80000349935AA044459E7DDE9CD
:1030D000071032AA00F03CFA00287FF499A8349C2B
:1030E0000DF1D408FFF788B97823C3E5DDE90710AF
:1030F00032AA00F02DFA00287FF48AA8299D349C7A
:103100000DF1D408FFF79CB9AB491591FEF7EEBD60
:10311000DDE9071032AA00F01BFA00287FF478A836
:10312000299D139B349C5D1B0DF1D408FFF79FB9BB
:10313000069B1299099A03F00103002943EA02034E
:1031400040F35D81002B40F009816623DDF848B033
:103150000E93069B5A0500F10A812BEAEB73DDF80A
:1031600054900693BEE600220992FEF7C6BB079B69
:103170005B6EDD0707D4079B9B899C0503D4079BE7
:10318000986D02F007FA4FF0FF330A93FEF7A5BCE3
:1031900056421032894A159234DAAA46102715464B
:1031A00004E008F10808103E102E2ADD0133103427
:1031B000072BC8E90057CDE93334F2DDDDE907100C
:1031C00032AA00F0C5F900287FF422A8DDE93334E3
:1031D0000DF1D408E7E700230C9345AD0CE4AC19DE
:1031E0004727AEE4139B189A03EB020B129B002BAC
:1031F00040F3EE8067230E93ABE76F4A1592FFF71B
:10320000CEB855460133159AC8F800203444072B30
:10321000CDE93334C8F804607FF7FBA9DDE9071076
:1032200032AA00F095F900287EF4F2AFDDE93334DC
:103230000DF1D408FFF700B8129B3097D97B16F830
:10324000012C8A42334609D1302003F8010C309B0F
:103250005A1E309213F8012C9142F6D0392A0BBF36
:10326000129A0132927AD2B203F8012C334695E5D4
:10327000524A1592FEF778BF0898591CFDF7F4FFE3
:10328000054678B10C9004E5002862D130228DF813
:10329000B2200DF1B302303302F8013B2CABD31A4C
:1032A0001C93A3E4079AB2F90C3043F040039381D6
:1032B000FEF70BBCDDE9071032AA00F049F900283F
:1032C0007EF4A6AF349C0DF1D408FFF79CB83C4BBC
:1032D0003C4A0E99612918BF1A460123129229937C
:1032E000FFE406230993FFF7F1B9069BDF077FF59B
:1032F00086AC82E4DDE924010022002306F0AEFD65
:1033000000287FF41CACC6F10106299618E4179B2F
:103310002D4D002BB4BF2D229DF89F202B4BB8BF05
:103320008DF89F2029F08009FEF79CBC099B06932D
:103330009B4673239DF89F200D9609901490109042
:103340000E93FEF79CBCDDF81890DDF824B0FFF773
:1033500041BB0DF1B2029EE79346B6E5189BCF182C
:103360003A44662393460E93F3E667230E931B9924
:103370000B78FF2B62D00024129A204603E0013024
:103380000131FF2B08D0934206DAD21A4B78002B7A
:10339000F5D10B780134F4E71B911292109014943C
:1033A000DDE91439109A13441E9A02FB03BB2BEA81
:1033B000EB7306932FE400BF70C5011060C50110C8
:1033C00040C501102CC5011024C5011028C50110ED
:1033D000C3F101039B442BEAEB7306936723DDF8EB
:1033E00054900E937EE51B4E0FE602231C93FFF7CD
:1033F000FDBB184A15922BE57021FFF7C0BBDDF825
:1034000054902BB90123662206930E929B4669E5E0
:10341000189B5F1C099B3B449B4623EAE37306937E
:1034200066230E935EE50D9A63780C4652F8041BF2
:103430000D9241EAE1710991FEF75EBA00231493FF
:103440001093ADE7DDE9072B938943F040039381A7
:10345000FEF732BB60C50110F0B51F468B89ADF297
:103460006C4D23F00203ADF80C304B6E1993CB89F1
:10347000ADF80E30CB6907934B6A09931AAB0093F2
:1034800004934FF48063154606460293059316A8ED
:1034900000230C46069302F077F82A463B4669461D
:1034A0003046FEF7B1F9051E07DB6946304601F0EC
:1034B0006DFB002818BF4FF0FF35BDF80C305B06E0
:1034C00003D5A38943F04003A381169802F05EF868
:1034D00028460DF26C4DF0BD2DE9F84F4B6E9C0463
:1034E00090462ED5936812684BB30D46064602F1FE
:1034F000080959E9022A5FEA9A0716D0A2F1040BDB
:10350000002401E0A7420ED05BF8041F2A46304693
:1035100001F096FE431C04F10104F3D10023C8E935
:103520000133BDE8F88FD8F808302AF0030AA3EB7E
:103530000A03C8F8083009F10809002BD9D1002086
:10354000ECE701F03BFC0023C8E90133BDE8F88F4C
:1035500010B494681CB15DF8044BFFF7BDBF204662
:1035600054605DF8044B70472DE9F04FC7B016AFBB
:103570008346039106920021082238461C460A938E
:1035800001F00EFFBBF1000F04D0DBF83430002B4C
:1035900000F0B886039A536EB2F90C20DB0702D410
:1035A000960540F19D85950407D403994B6E42F42E
:1035B000005223F400538A814B66100740F1C98002
:1035C000039B1B69002B00F0C48002F01A030A2B36
:1035D00000F0CE800023CDE91B33CDE90E331DAAC8
:1035E000DFF804A90D931A92914610930793069D54
:1035F000DAF8E44001F05AFF2A46034614A900977E
:103600005846A047002800F0D280C0F2C880149A23
:10361000252A034601D01D44EAE7069BEE1A04461C
:1036200040F0C98000234FF0FF316A788DF84B30AD
:1036300008936C1C059102930134A2F120035A2BCC
:1036400000F2FF80DFE813F00003FD00FD00FA0246
:10365000FD00FD00FD006B00FD00FD0015022A03CA
:10366000FD0020021003FD000A035B005B005B000D
:103670005B005B005B005B005B005B00FD00FD002E
:10368000FD00FD00FD00FD00FD00FD00FD00CB0183
:103690005A02FD00FD00FD00FD00FD00FD00FD00E3
:1036A000FD00FD00FD002602FD00FD00FD00A30160
:1036B000FD007302FD00FD008C05FD00FD00FD0016
:1036C000FD00FD00FD00FD00FD00FD00FD00CB0143
:1036D000F001FD00FD00FD00C102F0017F00FD00D2
:1036E0002F03FD00EB028905CA027F00FD00A30144
:1036F0007D008605FD00FD00AF05FD007D00A2F107
:1037000030030022114614F8012B01EB810103EB79
:103710004101A2F13003092BF5D908918DE75846F4
:1037200001F0CAFE43681093184602F029F80F9082
:103730000546584601F0C0FE83680E93002D40F008
:10374000E384227878E7029B227843F020030293F7
:1037500072E7039D5846294601F0D4FC002840F04A
:10376000A386B5F90C2002F01A030A2B7FF432AFBE
:103770000399B1F90E30002BFFF62CAF4B6EDB072F
:1037800002D4970540F15B86069A03992346584672
:1037900000F0BEFE0790079847B0BDE8F08F082202
:1037A0000021384601F0FCFD01231D4420E7069B63
:1037B000EE1A044612D0069B1C9AC9E900361B9BE0
:1037C00001333244072B1C921B9311DC09F10809C9
:1037D000079B33440793002C7FF424AF1C9B002BE2
:1037E00040F04D86039B0022B3F90C301B921CE085
:1037F000002A00F02D8403991AAA5846FFF76CFEA0
:1038000080B90DF17409E3E703991AAA5846FFF746
:1038100063FE002800F0A6800B9B1BB10B99584655
:1038200003F0A8F8039BB3F90C30039A526ED1074A
:1038300040F1A3805B0600F14386079847B0BDE8DE
:10384000F08F0694002AC9D000238DF84B30012355
:103850008DF8B420049309932DAC00230B930593AA
:10386000029B13F0020302D0049A02320492DDE9B3
:103870001B2C029D501C15F0840501460C9505D1AA
:10388000089D049EAD1B002D00F332839DF84B0074
:1038900088B101220CF1010CC9F8042007290DF1AF
:1038A0004B02CDE91B1CC9F8002000F3E1820A4657
:1038B00009F108090131EBB113AB0CF1020CC9F8A5
:1038C000003007294FF00203CDE91B1CC9F8043072
:1038D00040F3EC82BCF1000F00F0DB8303991AAADD
:1038E0005846FFF7F9FD002896D1DDE91B2C0DF1B4
:1038F0007409511C0C9B802B00F01382059B0998C6
:103900001D1A002D00F36882099AC9F8004002EBE5
:103910000C030729CDE91B13C9F8042040F3FE81ED
:10392000002B00F02C8303991AAA5846FFF7D4FD08
:1039300000287FF471AF1C9B0DF17409029A5007A7
:1039400005D5089A0499541A002C00F32383DDE965
:10395000072104988142ACBF521812180792002B1D
:103960007FF452AF00231B930B9B1BB119465846A3
:1039700003F000F80DF1740939E69A053FF55AAFE6
:10398000039CA06D01F006FEB4F90C3052E70A9ECC
:10399000069456F8044B00238DF84B30002C00F0B1
:1039A000C984532A00F02284029B13F0100540F0D2
:1039B0001D84059B5A1C00F04E851A462946204658
:1039C00001F0EEFD0B90002800F03E85031B0993EB
:1039D00023EAE37305950A9604930B958DE10A9B00
:1039E0000694432A03F1040503D0029BDE0640F14E
:1039F000E5830822002118A801F0D2FC0A9B2DAC17
:103A00001A68214618AB584601F026FF03460133D9
:103A1000099000F04185099B23EAE3730493002396
:103A20000A958DF84B3018E7029B06949C066DD5DD
:103A30000A9B073323F0070319465A6851F8083BDD
:103A40000A911146002AC0F23781059A013200F02E
:103A50004081029A22F08002029253EA010240F071
:103A60003881059B002B40F008850493099346ACF0
:103A700041E10A9B53F8042B0892002A80F2288324
:103A8000089A0A9352420892029B227843F0040358
:103A90000293D1E5029B069443F0100212F020013C
:103AA00000F0E8820A9B073323F0070318465968A1
:103AB00050F8083B0A9022F480640294059C002090
:103AC00001348DF84B005DD053EA010422F490627A
