S02B00002F55736572732F73706F696C65722F446F63756D656E74732F4769744875622F4341542D656374663D
S3151000E0000000022069E900109DE70010A7E9001042
S3151000E010A9E90010ABE90010ADE9001000000000FE
S3151000E020000000000000000000000000AFE9001032
S3151000E030B1E9001000000000B3E90010B5E90010C6
S3151000E040B9E90010BBE90010BDE90010BFE90010E6
S3151000E050C1E90010C3E90010C5E90010C7E90010B6
S3151000E060C9E90010CBE90010CDE90010CFE9001086
S3151000E070D1E90010D3E90010D5E90010D7E9001056
S3151000E080D9E90010DBE90010DDE90010DFE9001026
S3151000E090E1E90010E3E90010E5E90010E7E90010F6
S3151000E0A021E7001029E70010EDE90010EFE9001054
S3151000E0B0F1E90010F3E90010F5E90010F7E9001096
S3151000E0C0F9E90010FBE90010FDE90010FFE9001066
S3151000E0D001EA001003EA001005EA001007EA001032
S3151000E0E009EA00100BEA00100DEA00100FEA001002
S3151000E0F011EA001013EA001015EA001017EA0010D2
S3151000E10019EA00101BEA00101DEA00101FEA0010A1
S3151000E11021EA001023EA001025EA001027EA001071
S3151000E12029EA00102BEA00102DEA00102FEA001041
S3151000E13031EA001033EA001035EA001037EA001011
S3151000E14039EA00103BEA00103DEA00103FEA0010E1
S3151000E15041EA001043EA001045EA001047EA0010B1
S3151000E16049EA00104BEA00104DEA00104FEA001081
S3151000E17051EA001053EA001055EA001057EA001051
S3151000E18059EA00105BEA00105DEA00105FEA001021
S3151000E19061EA001063EA001065EA001067EA0010F1
S3151000E1A069EA00106BEA00106DEA00106FEA0010C1
S3151000E1B071EA001073EA001075EA001077EA001091
S3151000E1C079EA00107BEA00107DEA00107FEA001061
S3151000E1D081EA001083EA001085EA001087EA001031
S3151000E1E00000000000000000000000000000000019
S3151000E1F00000000000000000000000000000000009
S3151000E2000048804769E900100348044B834202D056
S3151000E210034B03B118477047F8060020F806002094
S3151000E220000000000548064B1B1AD90F01EBA3018D
S3151000E230491002D0034B03B118477047F806002067
S3151000E240F80600200000000010B5064C237843B9EC
S3151000E250FFF7DAFF044B13B10448AFF30080012334
S3151000E260237010BD000800200000000078950110F2
S3151000E27008B5054B1BB105490548AFF30080BDE84D
S3151000E2800840FFF7CFBF00BF0000000004080020C1
S3151000E2907895011000F0F6B9C0B2704710B5094C68
S3151000E2A0636918700246E06806F002F823690022D6
S3151000E2B01A7022691378002BFCD0636800221A703A
S3151000E2C010BD00BF1800002010B507494A68137822
S3151000E2D0002BFCD08B6809681C78E4B2224605F046
S3151000E2E0E7FF204610BD00BF1800002008B500202B
S3151000E2F000F0FEFA012000F0FBFA022000F0F8FA16
S3151000E300124C002000F0D4FA204600F0EFFC012059
S3151000E31000F0CEFA204600F0E9FC022000F0C8FA20
S3151000E320204600F0E3FC002000F0E2FA204600F060
S3151000E330DDFC012000F0DCFA204600F0D7FC0220BC
S3151000E34000F0D6FA204600F0D1FCDAE720A107004B
S3151000E350094B93E8070010B5084C234603C323F86E
S3151000E360022B4FEA124C21460B2083F800C0FFF710
S3151000E37095FFFFF7BBFF00BFAC8E01101C080020F5
S3151000E38010B5154B19784B1E82B0032B1DD8DFE83C
S3151000E39003F002021A0B1149114B0B60042002B054
S3151000E3A0BDE81040FFF77ABF0E4C0F490F4B104ACD
S3151000E3B000940A4805F050FA0849242002B0BDE836
S3151000E3C01040FFF76BBFFFF7C3FF0A4802B0BDE866
S3151000E3D0104002F041B800BF5C0800201C08002065
S3151000E3E012111111E48E0110CC8E0110B88E01108D
S3151000E3F0C48E0110EC8E011010B562B60748084C99
S3151000E400FFF74AFFFFF746FF012000F051FA2046BA
S3151000E410FFF75AFFFFF7B4FFF9E700BF121111110A
S3151000E4205C0800209048F8B58468630649D58F4E7D
S3151000E4303378002B40F0CB808D4D8B482B78052BF5
S3151000E4401BD800F0CFFF29788A4B8B4D53F821202B
S3151000E4502B68D21A824240F3DA80884A824852F8F0
S3151000E46021701F4400F0BEFF394602467E4800F078
S3151000E470B7FF2B6803442B6002E000F0B9FF7E4D16
S3151000E48079480022102100F0BBFF77480022202196
S3151000E49000F0B6FF744800F0A5FF002840F0DF80BA
S3151000E4A0714800F0A3FF082802D06F4800F0A2FFC1
S3151000E4B0734B6D48002240212A601A60327000F0BA
S3151000E4C09BFFA70603D56848C3689E0633D420026F
S3151000E4D03FD462026CD4E30611D5644C2378002B2A
S3151000E4E07CD1634C60482378052B09D900F080FF56
S3151000E4F0BDE8F8405C480022102100F07DBFF8BD51
S3151000E50000F070FF21785B4A5B4C52F8212023689B
S3151000E510D21A824270DD594A534852F821501D448E
S3151000E52000F060FF294602464F4800F059FF236865
S3151000E53003442360DCE7250400F18B804C4D2B78D7
S3151000E540052B69D948480022202100F055FF2002EA
S3151000E550BFD54FF400014448002200F04DFF2104BE
S3151000E560B7D5434D404800224FF4004100F044FF18
S3151000E5703D480122294600F033FF2B78052BA8D8F9
S3151000E5803C4E3E4A384852F8231056F8232000F0E5
S3151000E5902BFF3B4B2A78196856F8222008449042E4
S3151000E5A0186096DA30480022202100F027FF90E705
S3151000E5B02E4B2D480022102101251D7000F01EFF44
S3151000E5C0294800224FF4800100F016FF83E72849FE
S3151000E5D0012200F005FF002333702DE7244922485D
S3151000E5E0012200F0FDFE00232370214C1E482378E3
S3151000E5F0052B3FF67BAF83E7204850F821101A48C9
S3151000E600194400F0EDFE23680344236070E71B48AD
S3151000E61050F82110194429E7194E164F1749326838
S3151000E62051F8231057F823300F4811449A1A00F066
S3151000E630DBFE2B78326857F823301044013B9842A2
S3151000E64030607FF47FAF08480022202100F0D8FE0A
S3151000E65078E700224FF4004100F0CEFE6EE7024844
S3151000E66000F0C6FE1CE700BF00E00140A508002030
S3151000E670A408002000000020A00800201800002098
S3151000E6809C08002010B5024600211B4800F052FEDF
S3151000E690044660BB1949184800F096FE164800F06B
S3151000E6A0A7FE224614484FF4800100F0A7FE22462A
S3151000E6B011484FF4000100F0A1FE22460E484021F9
S3151000E6C000F09CFE0E49242000F04AFB0D4B102250
S3151000E6D05A604FF0FF321146074800F08DFE0A4B84
S3151000E6E059680C701B6901221A70204610BD074824
S3151000E6F004F0E2FD204610BD00E00140A0860100B6
S3151000E70025E4001000E100E018000020188F011029
S3151000E71008B50346014801F09FFEFEE7348F01104D
S3151000E720002000F07DBD00BF012000F079BD00BFC4
S3151000E73010B5002000F05EFB012000F05BFB4020CE
S3151000E74000F058FB104B022218684FF4E13101F02B
S3151000E75091F8041E0CDB00F0EBF858B900F088F8BD
S3151000E760044660B9094B0A484322DA6000F0BEFA43
S3151000E770204610BD074908486F22FFF7C9FF054913
S3151000E78005487422FFF7C4FF300000200044004003
S3151000E790400D0300508F0110B88F011000BF704755
S3151000E7A04FF0FF30704700BF4FF0FF30704700BF8B
S3151000E7B04FF0FF30704700BF4FF0FF30704700BF7B
S3151000E7C0F8B5E0B9002A19DD104D0E468F180C4623
S3151000E7D002E0BB420FD01C46284601F041F9C1B2F7
S3151000E7E02170284601F03EF922780D2A04F1010322
S3151000E7F0EFD10A232370C6F10106A019F8BD05F062
S3151000E800C3FC092303604FF0FF30F8BD002004401D
S3151000E810F8B5431E012B21D8002A174612DD531EC8
S3151000E820124E4C1ECD1814F8013F0A2B0CD00F486F
S3151000E83001F01CF90028FAD02178304601F012F9BF
S3151000E840AC42F0D13846F8BD084801F00FF900285F
S3151000E850FAD00D21304601F005F9E8E705F094FCF1
S3151000E860092303604FF0FF30F8BD00BF00200440BD
S3151000E870F8B50D4B1F68A7B100250C4C2E46D4E9F0
S3151000E880000100F099FC204600F09CFB01350028A1
S3151000E89018BF6FF00706AF4204F10C04EFD13046F3
S3151000E8A0F8BD3E463046F8BDC08F0110C48F01102A
S3151000E8B00B4B1B68834210B504460BD9094B04EB6E
S3151000E8C0440403EB840253F824005168BDE8104059
S3151000E8D000F08CBC044905483B22FFF719FFEDE711
S3151000E8E0C08F0110C48F01100490011058900110B0
S3151000E8F00B4B1B68834210B504460BD9094B04EB2E
S3151000E900440403EB840253F824005168BDE8104018
S3151000E91000F052BC044905484622FFF7F9FEEDE720
S3151000E920C08F0110C48F011004900110589001106F
S3151000E930F8B50B4B1F6887B100240A4D26462846AA
S3151000E94000F040FB0134002818BF6FF00706BC42E8
S3151000E95005F10C05F3D13046F8BD3E463046F8BDFC
S3151000E960E88F0110EC8F01104748854647488047CD
S3151000E97080B94749474A484B9B1A03DD043BC858A0
S3151000E980D050FBDC4549464A00209142BCBF41F8B5
S3151000E990040BFAE74348804743488047434880477B
S3151000E9A0FFF7FEFFFEE7FEE7FEE7FEE7FEE7FEE700
S3151000E9B0FEE7FEE7FEE7FEE7FEE7FEE7FEE7FEE719
S3151000E9C0FEE7FEE7FEE7FEE7FEE7FEE7FEE7FEE709
S3151000E9D0FEE7FEE7FEE7FEE7FEE7FEE7FEE7FEE7F9
S3151000E9E0FEE7FEE7FEE7FEE7FEE7FEE7FEE7FEE7E9
S3151000E9F0FEE7FEE7FEE7FEE7FEE7FEE7FEE7FEE7D9
S3151000EA00FEE7FEE7FEE7FEE7FEE7FEE7FEE7FEE7C8
S3151000EA10FEE7FEE7FEE7FEE7FEE7FEE7FEE7FEE7B8
S3151000EA20FEE7FEE7FEE7FEE7FEE7FEE7FEE7FEE7A8
S3151000EA30FEE7FEE7FEE7FEE7FEE7FEE7FEE7FEE798
S3151000EA40FEE7FEE7FEE7FEE7FEE7FEE7FEE7FEE788
S3151000EA50FEE7FEE7FEE7FEE7FEE7FEE7FEE7FEE778
S3151000EA60FEE7FEE7FEE7FEE7FEE7FEE7FEE7FEE768
S3151000EA70FEE7FEE7FEE7FEE7FEE7FEE7FEE7FEE758
S3151000EA80FEE7FEE7FEE7FEE70000022055EB00106A
S3151000EA903896011000000020F8060020000800201B
S3151000EAA04013002059EB0010B1410110F9E300109A
S3151000EAB00B4A08B50346106828B10A4903448B422D
S3151000EAC007D8136008BD08480649106003448B42F6
S3151000EAD0F7D905F059FB0C2303604FF0FF3008BD42
S3151000EAE03809002000F00120481300204FF0804321
S3151000EAF09A6802F46062B2F5206F20D011D9B2F58F
S3151000EB00406F17D00F4B1049B2F5606F18BF0B4608
S3151000EB104FF080420D499268C2F38212D3400B60C7
S3151000EB20704752B1084947F23053B2F5C06F18BF5B
S3151000EB300B46EDE74FF40043EAE7054BE8E74FF4E1
S3151000EB40E103E5E7C068780400E1F505401300200D
S3151000EB50008793030020704710B50A4C0A4BA36038
S3151000EB600A4800F035FED4F8883043F47003C4F830
S3151000EB708830BFF34F8FBFF36F8FFFF7B7FFFFF7E5
S3151000EB80D7FD10BD00ED00E000E0001000A002402F
S3151000EB9038B54FF0E02318499C691A6922F480327F
S3151000EBA00A601A69D20723D46FF07F4405225C618C
S3151000EBB04FF080759C611A61104B114A1968002339
S3151000EBC0A0FB010109F0FAFF0E4BB0FBF5F205FBB5
S3151000EBD0120084421A6007D81A6801321A602C444F
S3151000EBE0094B201A186038BD074B201A186038BD1B
S3151000EBF05D690135E0E700BF4009002040130020A1
S3151000EC0040420F00340000204409002010B50C4C7F
S3151000EC100C4B22681960002A0FDC08B9002010BDC1
S3151000EC20FFF7B6FF2368002BF8DD4FF0E022002037
S3151000EC30136943F00203136110BD6FF0050010BD98
S3151000EC40340000203C090020F8B5174C2368002B2F
S3151000EC501EDB26682EBB154B4FF0E0251B68AA69F4
S3151000EC609A421ED8124F3B685BB16FF00F0098475F
S3151000EC70104B3E601A682A614FF0FF332360002064
S3151000EC80F8BD0C4A4FF0FF3312682A612360F6E78D
S3151000EC90074C2368002BF2D00020984700202060F4
S3151000ECA0F8BD6FF00500F8BD3400002044090020BF
S3151000ECB03C0900204009002010B5094C236823B1F7
S3151000ECC06FF00F00984700232360064A064B106822
S3151000ECD04FF0E0214FF0FF3208611A6010BD00BFFF
S3151000ECE03C090020400900203400002038B5184C9B
S3151000ECF02268002A29DC00B938BDFFF749FF4FF01A
S3151000ED00E02202E01369DB031BD42368002BF9DC35
S3151000ED10104B1A684FF0E0218B699342FCD80E4DC8
S3151000ED202B6823B16FF00F00984700232B600B4B15
S3151000ED304FF0E022196811614FF0FF330020236075
S3151000ED4038BD2368013B2360DFE76FF0050038BD4F
S3151000ED5034000020440900203C090020400900200E
S3151000ED60F8B50F4E0F4BB2689A4204460D4600F1A5
S3151000ED70100707D018460C494FF4F07205F098FAB0
S3151000ED800346B060002C43F8275008DB074B620996
S3151000ED90012004F01F0400FA04F443F82240F8BDE1
S3151000EDA000ED00E0000A002000E0001000E100E0A5
S3151000EDB03F2809D90E4A4038D168C0B2012303FA58
S3151000EDC000F00843D06070471F284FF0804208D9E2
S3151000EDD02038916CC0B2012303FA00F00843906406
S3151000EDE07047516A012303FA00F0084350627047D6
S3151000EDF0000008403F280AD910494038CB68C0B2F5
S3151000EE00012202FA00F023EA0000C86070471F28AA
S3151000EE104FF0804109D920388B6CC0B2012202FA1A
S3151000EE2000F023EA0000886470474B6A012202FA58
S3151000EE3000F023EA00004862704700BF0000084057
S3151000EE4010B507280AD8DFE800F00C090923334764
S3151000EE505B04BDE81040364800F0B4B86FF002000D
S3151000EE6010BD4FF080440021A36843F48023A360B3
S3151000EE704FF47A70FFF7CAFE03E0FFF7E5FE06309F
S3151000EE8052D1A3685901F8D5FFF716FF002010BD1F
S3151000EE9000214FF47A70FFF7B9FE4FF0804403E07B
S3151000EEA0FFF7D2FE06303FD1A3689A00ECD4F7E7FD
S3151000EEB04FF080440021A36843F40023A3604FF46D
S3151000EEC07A70FFF7A3FE03E0FFF7BEFE06302BD1E4
S3151000EED0A3681B01F8D5D7E74FF080440021A3683B
S3151000EEE043F48013A3604FF47A70FFF78FFE03E0AC
S3151000EEF0FFF7AAFE063017D1A368D800C4D4F7E7E7
S3151000EF004FF080440021A36843F40033A3604FF40C
S3151000EF107A70FFF77BFE03E0FFF796FE063003D10B
S3151000EF20A3689B01B0D4F7E76FF0090010BD00BFCE
S3151000EF30689001103F280AD94038114AC0B20123FF
S3151000EF4003FA00F0906093681842FCD170471F28AE
S3151000EF500BD92038C0B201234FF0804203FA00F0DB
S3151000EF605064536C1842FCD1704701234FF0804215
S3151000EF7003FA00F0506053681842FCD1704700BF86
S3151000EF8000000840C10710B5044608D4A2070BD4E8
S3151000EF9063070ED42046BDE8104000F04DBF002098
S3151000EFA0FFF728FFA207F3D50120FFF723FF63071A
S3151000EFB0F0D54020FFF71EFF2046BDE8104000F0B8
S3151000EFC03BBF00BF38B57A4B05689D42044659D001
S3151000EFD003F580539D421CD003F5EE2303F58063A1
S3151000EFE09D4200F0A68003F500739D4213D00020C9
S3151000EFF0FFF7C8FF6268217A284600F037F9A0B9F2
S3151000F000637A042B00F2D180DFE803F0897B6D5E12
S3151000F0104A000220ECE74068C30719D5237A002B73
S3151000F02032D0012B02D06FF0100038BD614A136A3E
S3151000F03043F002031362637A012B7CD0022B00F09B
S3151000F0408880002BEFD15B4A136A43F004031362E6
S3151000F05010F00200E9D0237AE3B1012BE3D1554A2F
S3151000F060136A43F020031362607A01287FD00228C6
S3151000F07000F08C800028D6D14E4A136A43F0400324
S3151000F080136238BD0120B3E74A4A136A23F002031C
S3151000F0901362D0E7474A136A23F020031362E3E7AB
S3151000F0A02B6E626823EA02032B666B6E13436B6644
S3151000F0B0D5F8B83023EA0203C5F8B830A17A284645
S3151000F0C0BDE8384000F0BAB82B6E626813432B6661
S3151000F0D06B6E23EA02036B66D5F8B83023EA020397
S3151000F0E0C5F8B830EAE72B6E626823EA02032B668E
S3151000F0F06B6E13436B66D5F8B8301343C5F8B8304A
S3151000F100DCE72B6E626813432B666B6E23EA0203F1
S3151000F1106B66D5F8B8301343C5F8B830CEE72B6E0A
S3151000F120626823EA02032B666B6E23EA02036B66A0
S3151000F130C4E704205CE71F4B1A6A22F004021A6225
S3151000F1401A6A22F002021A621A6A42F001021A625E
S3151000F1507EE7184B1A6A22F004021A621A6A22F023
S3151000F16002021A621A6A22F001021A6270E7114B41
S3151000F1701A6A22F040021A621A6A22F020021A62F1
S3151000F1801A6A42F0100200201A6238BD094B1A6A38
S3151000F19022F040021A621A6A22F020021A621A6AD1
S3151000F1A022F0100200201A6238BD6FF0020038BD3E
S3151000F1B000800040006C00400A4A90420B4601D085
S3151000F1C000F034B8CA0704D507490A6A42F00102AA
S3151000F1D00A629B0705D5044A136A43F010031362AB
S3151000F1E07047704700060840006C00400A4A90427B
S3151000F1F00B4601D000F01CB8CA0704D507490A6AA5
S3151000F20022F001020A629B0705D5044A136A23F00D
S3151000F210100313627047704700060840006C0040E8
S3151000F22000F01CBE00F006B800F006B8C1617047C9
S3151000F2300162704781647047006C704769B101299B
S3151000F24007D1D0F8C03000211A43C0F8C0200846B4
S3151000F25070476FF0020108467047D0F8C03023EAB5
S3151000F2600202C0F8C0200846704700BF0346006B74
S3151000F270104318635A6005292AD8DFE801F00A12EC
S3151000F280141B2203C3F8882000209A67DA669A6056
S3151000F29070475A615A6000201A67DA67C3F88820E7
S3151000F2A070471A61F6E7C3F888200020DA671A67F4
S3151000F2B09A607047C3F888200020DA67DA669A6089
S3151000F2C07047C3F8882000209A671A679A607047BB
S3151000F2D06FF00200704700BF00F002B908B5124B7C
S3151000F2E098420DD0114B984212D0114B984217D11B
S3151000F2F03820FFF75DFD3420FFF71CFE002008BD07
S3151000F3000D20FFF755FD1020FFF714FE002008BD55
S3151000F3101C20FFF74DFD2020FFF70CFE002008BD36
S3151000F3206FF0010008BD00BF00D0014000E00140B1
S3151000F33000F00140C0B370B504460D461646FFF7FF
S3151000F340CDFF1B4B9C4212D01A4B9C421CD01A4B21
S3151000F3509C4226D13820FFF74DFD1848FFF732FEA4
S3151000F360324629462046BDE8704000F051B80D20BF
S3151000F370FFF740FD1248FFF725FE32462946204684
S3151000F380BDE8704000F044B81C20FFF733FD0D486F
S3151000F390FFF718FE324629462046BDE8704000F0B9
S3151000F3A037B86FF0010070BD4FF0FF30704700BFE7
S3151000F3B000D0014000E0014000F001408C900110A7
S3151000F3C07490011080900110034B994201D800F0FF
S3151000F3D0A1B86FF01000704740E1330000F0ECB8B0
S3151000F3E000F0FAB800F010B900F016B900F02CB918
S3151000F3F000F036B900F03CB900F042B900F044B95B
S3151000F40000F04CB900F056B900F0C0B900F0CEB912
S3151000F410F8B5002858D00F46102115460446FFF7B8
S3151000F420F1FF064608B13046F8BD236843F00103E4
S3151000F43023602046FFF7DCFF2046FFF7DBFF0221A3
S3151000F4402046FFF7E3FF06212046FFF7DDFFD7B181
S3151000F45023681F4A43F00203944223602ED01D4BAB
S3151000F4609C420ED01C4884420CBF02244FF0FF343D
S3151000F4701A4B04EB440403EBC404012363603046C7
S3151000F480F8BD0124F4E73A4629462046FFF724FF43
S3151000F4900F4B9C4214D003F580539C4212D00E4958
S3151000F4A08C420CBF02214FF0FF310C4B01EB410493
S3151000F4B003EBC404002666603046F8BD3446D7E731
S3151000F4C03946F2E70121F0E74FF0FF36ABE700BF10
S3151000F4D000D0014000E0014000F00140E00B0020A8
S3151000F4E00346A0B16AB9B1F5806F0DD27F29C26407
S3151000F4F084BF4FF40042C264C26C11430020D96429
S3151000F50070476FF0100070476FF0020070474FF0B1
S3151000F510FF307047002841D010B4224AA1F5742359
S3151000F5206FF410742344934214D31F4B994230D86E
S3151000F5301E4B1B685B08B3FBF1F149088B1EB3F534
S3151000F540FF7F01F1FF3124D841635DF8044B8163DD
S3151000F550FFF744BF154B164C1B685B08B3FBF1F164
S3151000F5604A00A4FB01C14908A4FB02420139520812
S3151000F5700F2902F1FF320CDC0F2A0ADC0902D2B283
S3151000F58089B21143C16302680A4942F4004202601B
S3151000F590D1E76FF002005DF8044B70474FF0FF3073
S3151000F5A0704700BF009F240040E133004013002045
S3151000F5B0ABAAAAAA801A06000649436B826B086892
S3151000F5C0C2F30802C3F3080313444008B0FBF3F078
S3151000F5D0704700BF4013002098B191B17AB1002353
S3151000F5E001F1FF3C06E0C16A0133C9B29A420CF838
S3151000F5F0031004D041688907F5D5184670471046A0
S3151000F60070474FF0FF30704718B1006AC0F30320FF
S3151000F61070474FF0FF30704798B191B17AB100231F
S3151000F62001F1FF3C06E001339A421CF80310C9B2FF
S3151000F630C16204D04168C906F5D518467047104610
S3151000F64070474FF0FF30704738B18369826AC3F351
S3151000F6500720C2F30323C01A70474FF0FF307047DC
S3151000F660C36943F08003C361C3691B06FCD47047AA
S3151000F670436A43F080034362436A1B06FCD4704717
S3151000F68081600261704700BF10B4C4682143C16035
S3151000F69043695DF8044B1A434261704710B4C4685D
S3151000F6A024EA0101C16043695DF8044B23EA0202B2
S3151000F6B042617047002865D0036843F001032DE9C5
S3151000F6C0F04103600768036843F480630E460446FE
S3151000F6D007F480670360002943D000252BE0FFF76D
S3151000F6E005FB236823F0800323600A20FFF7FEFA48
S3151000F6F0236813F400784FF00A002BD1FFF7F6FABF
S3151000F700236843F0800323600A20FFF7EFFA23688B
S3151000F7109A054FF00A001DD5FFF7E8FA236843F063
S3151000F720400323600A20FFF7E1FA2368DB0525D49E
S3151000F7300135AE4215D00A20FFF7D8FA236823F018
S3151000F740400323600A20FFF7D1FA2368D9054FF04A
S3151000F7500A00C4D52368013543F0C003AE422360C6
S3151000F760E9D16FF008001FB9236823F48063236082
S3151000F770236823F001032360BDE8F0814046002F83
S3151000F780F6D1F1E74FF0FF30704700BF8269D2B271
S3151000F7908A42034607D3C26922F4706242EA012103
S3151000F7A00020D96170476FF0020070478269C2F37A
S3151000F7B007228A42034607D3426A22F4706242EA5B
S3151000F7C001210020596270476FF00200704700BF98
S3151000F7D000F000B8D0F80031012223F00103C0F880
S3151000F7E00031C0F80027D0F80031DA03FBD5D0F885
S3151000F7F0003143F00103C0F80031D0F80031DB03CB
S3151000F800FBD5704708B5174B984210D0164B984247
S3151000F81015D0164B98421AD0154B98421FD144203A
S3151000F820FFF788FB4420FFF7C3FA002008BD0B2022
S3151000F830FFF780FB0920FFF7BBFA002008BD0C205C
S3151000F840FFF778FB0A20FFF7B3FA002008BD1C204B
S3151000F850FFF770FB2120FFF7ABFA002008BD6FF011
S3151000F860020008BD0020044000300440004004405F
S3151000F8700014084070B504460E461546FFF7C2FF41
S3151000F880A8BB022D2DD0042D18D0204B9C421BD086
S3151000F8901F4B9C422CD01F4B9C4230D01E4B9C427F
S3151000F8A023D11E48FFF78EFB4420FFF7A3FA2A4602
S3151000F8B031462046BDE8704000F0F6B80620FFF746
S3151000F8C0BFFA124B9C42E3D11548FFF77BFB092088
S3151000F8D0FFF790FA2A4631462046BDE8704000F000
S3151000F8E0E3B80520FFF7ACFACFE76FF0020070BD62
S3151000F8F00C48FFF767FB0A20FFF77CFAD7E70A48A0
S3151000F900FFF760FB2120FFF775FAD0E700200440CF
S3151000F910003004400040044000140840BC90011020
S3151000F92098900110A4900110B0900110304B98429D
S3151000F93010B5044616D003F58053984212D003F53D
S3151000F940805398420ED003F57533984207D105239C
S3151000F950022A436143D0042A13D0002A3FD06FF005
S3151000F960020010BD042AFAD0204600F0D5F800286F
S3151000F970F7DD236843F40043236023681B03FCD59B
S3151000F98010BD02684FF480331A4302600068B3FB5F
S3151000F990F1F340F40010B1F5166F206001FB03F28D
S3151000F9A08CBF00200120C2F580326061ABB1B2EB92
S3151000F9B0510F12D80F4A1361106800F44030B0F599
S3151000F9C0803F05D0136813F4403FC8D14FF4E100CF
S3151000F9D0084B1B69B0FBF3F0C9E70133EAE74FF4B4
S3151000F9E0E103B3FBF1F301FB03F2C2F5E102DDE73C
S3151000F9F00020044000140840124B98421CD003F516
S3151000FA008053984218D003F58053984214D003F5CA
S3151000FA107533984212D1036803F44033B3F5803F2F
S3151000FA2005D0036813F4403F08D14FF4E103064AAA
S3151000FA301069B3FBF0F0704700F0BCB86FF002002D
S3151000FA40704700BF002004400014084000F0F0B8D2
S3151000FA5000F00EB900F032B900F08AB900F0A4B97E
S3151000FA6000F008B800F012B800F0BCB900F0BEB94A
S3151000FA7000F0C2B910B504462046FFF7F5FF00287E
S3151000FA80FAD02046BDE81040FFF7E6BF38B5044669
S3151000FA900D462046FFF7EAFF0028FAD029462046F1
S3151000FAA0BDE83840FFF7DABF1A4B984270B50446E6
S3151000FAB00D4616460BD003F58053984207D003F532
S3151000FAC08053984203D003F5753398421FD1012114
S3151000FAD02046FFF7CDFF00B170BD08212046FFF785
S3151000FAE0B5FF0028F8D101462046FFF7B3FF0028DE
S3151000FAF0F2D101462046FFF7ABFF0028ECD1324683
S3151000FB0029462046FFF712FF00EAE07070BD6FF03D
S3151000FB10020070BD00200440234B98420BD003F521
S3151000FB208053984207D003F58053984203D003F5CB
S3151000FB307533984234D10523012A10B4436125D078
S3151000FB40022A16D022B16FF002005DF8044B7047FE
S3151000FB50164B1A685208B2FBF1F301FB132213B1CC
S3151000FB60B2EB510F00D901335DF8044B0361FFF777
S3151000FB7043BF04684FF4E10344F40034B3FBF1F3DC
S3151000FB8001FB03F2C2F5E1020460E8E70468084AE3
S3151000FB90B2FBF1F344F48034046001FB1322DEE778
S3151000FBA06FF00200704700BF002004404013002091
S3151000FBB0C06878041B4B98420BD003F580539842CB
S3151000FBC007D003F58053984203D003F57533984256
S3151000FBD025D1036803F44033B3F5803F14D003688E
S3151000FBE013F4403F06D1104B00691B685B08B3FB4A
S3151000FBF0F0F07047036803F44033B3F5003F08D0C4
S3151000FC0003686FF002007047084B0069B3FBF0F011
S3151000FC10704700694FF4E103B3FBF0F070476FF0E3
S3151000FC20020070470020044040130020C06878048A
S3151000FC300E4A904203460BD002F58052904207D0EE
S3151000FC4002F58052904203D002F5753290420AD1E5
S3151000FC500539032907D81A6822F4406242EA81213D
S3151000FC600020196070476FF00200704700200440B2
S3151000FC70114B98420BD003F58053984207D003F5E9
S3151000FC808053984203D003F57533984202D161B17F
S3151000FC90012903D06FF0020108467047036800215E
S3151000FCA043F48053036008467047036823F4805377
S3151000FCB003600846704700BF002004402B4A90425C
S3151000FCC003460BD002F58052904207D002F58052BF
S3151000FCD0904203D002F57532904244D1042942D89D
S3151000FCE0DFE801F01117253303001A6842F01002FD
S3151000FCF01A601A6842F020021A601A6842F040022E
S3151000FD0000201A6070471A6822F0100200201A604C
S3151000FD1070471A6842F010021A601A6822F0200220
S3151000FD201A601A6822F0400200201A6070471A689A
S3151000FD3042F010021A601A6822F020021A601A683D
S3151000FD4042F0400200201A6070471A6842F0100212
S3151000FD501A601A6842F020021A601A6822F04002ED
S3151000FD6000201A6070476FF00200704700200440B0
S3151000FD700C4B98420BD003F58053984207D003F5ED
S3151000FD808053984203D003F57533984204D14368E3
S3151000FD90DB0604D4006A70476FF0020070476FF0FC
S3151000FDA00C007047002004400D4B98420BD003F511
S3151000FDB08053984207D003F58053984203D003F539
S3151000FDC07533984206D1436813F0800305D101625A
S3151000FDD0184670476FF0020070476FF00B007047BF
S3151000FDE0002004404068C0F3032070474068C0F309
S3151000FDF00330C0F1080070470E4A904203460BD0FC
S3151000FE0002F58052904207D002F58052904203D0FC
S3151000FE1002F57532904209D14A1E072A06D81A6889
S3151000FE2022F00F0211430020196070476FF0020094
S3151000FE30704700BF0020044010B5064C217831B938
S3151000FE4005484FF4007204F0E7F8012323700020F0
S3151000FE5010BD00BF28100020280C0020032870B504
S3151000FE60054625D8E0B9174E3046FFF7DDF90446AA
S3151000FE7001463046FFF7D6F98CB1134E134B06EBFD
S3151000FE80C51603EBC515E30703D52B680BB1306810
S3151000FE909847640806F1040605F10405F3D170BD10
S3151000FEA001280CD00A4E0B4B022818BF1E46DBE762
S3151000FEB009490A485A22FEF72BFC0026D4E7084EB9
S3151000FEC0D2E700BF00800040280E0020280C00203A
S3151000FED00004084000060840C8900110289101103F
S3151000FEE0009000402DE9F04F01F10B05162D85B05D
S3151000FEF0064624D8102900F2B18003F085F91025A2
S3151000FF0018234FF0020CBA4F3B44A3F108025C6869
S3151000FF10944200F022816368E268A16823F003032B
S3151000FF20CA602344304691605A6842F001025A6012
S3151000FF30083403F06FF9204605B0BDE8F08F35F0B0
S3151000FF40070500F18B80A94200F2888003F05CF966
S3151000FF50B5F5FC7FC0F073816B0A00F08380042B2B
S3151000FF6000F22281AB0903F1390C03F1380E4FEA86
S3151000FF70CC039F4F3B44A3F108005C68A04207D115
S3151000FF800DE0002AE16880F2E280884207D00C4634
S3151000FF90636823F003035A1B0F2AF2DDF446DFF8D9
S3151000FFA064823C69444500F0BF80636823F003090E
S3151000FFB0A9EB05030F2B00F34781002BC7E9048833
S3151000FFC080F23181B9F5007FD7F804E080F0CC805B
S3151000FFD04FEAD90101314FEA5919012303FA09F3FE
S3151000FFE057F83120A2604EEA030E07EBC103083B17
S3151000FFF0E360C7F804E047F83140D4604FEAAC0339
S3151001000001209840704534D810EA0E0F07D12CF014
S31510010010030C400010EA0E0F0CF1040CF9D007EB9B
S31510010020CC0A5246E146D1680EE04B6823F0030331
S31510010030A3EB050EBEF10F0F0C46C96800F3C18084
S31510010040BEF1000F80F2E2808A42EED109F1010978
S3151001005019F0030F02F10802E5D121E10C233360F7
S31510010060002468E74FF400734FF0400C4FF03F0E39
S315100100707FE7BC68636823F00309A94503D3A9EB9D
S3151001008005030F2B53DC5B4BDFF87CB11B68082093
S3151001009003F1100804F07EF8DBF80030019001330B
S315100100A0A84404EB090205D008F1FF388044434205
S315100100B003EA080841463046029204F053F8B0F1BB
S315100100C0FF3F029A824600F0DC80824200F2D7801E
S315100100D0494B01991868404401F1FF311860844673
S315100100E040F0FC801AEA010F40F0F880D7F808A01A
S315100100F0C84448F00102CAF80420404B19688142ED
S3151001010038BF18603E4B1968814238BF1860544693
S3151001011022F00308A845A8EB050301D30F2B06DC33
S31510010120304603F077F89BE7D7F804E066E76219E3
S3151001013043F0010345F0010565603046BA6053602E
S3151001014003F068F80834204605B0BDE8F08FA268C0
S315100101502344D16030468A60E6E6DC68A3427FF428
S31510010160DAAE0CF1020C1AE7B9F5206F4FEA5922F3
S315100101707ED3142A00F2158102F15C03DB005B3297
S31510010180F918FB580839994203D1F0E09B68994256
S3151001019004D05A6822F003024A45F7D8D968C4E94F
S315100101A002318C60DC6029E7142B6DD9542B00F2D7
S315100101B001812B0B03F16F0C03F16E0E4FEACC0389
S315100101C0D7E63046A668621945F001056560F1600B
S315100101D08E604EF00101C7E90422C2F80880C2F808
S315100101E00C80516044F803E003F014F80834A2E6D9
S315100101F0400000205C1000202C1000205810002018
S3151001020054100020480000203800002023443046B6
S315100102105A6842F001025A6054F8083FD9608B605F
S3151001022002F0F8FF87E6A1443046D9F8043043F0CE
S315100102300103C9F80430083402F0ECFF7BE64FEAFB
S31510010240D50C05F108035EE6621943F0010145F08C
S31510010250010565603046C7E90422C2F80880C2F874
S315100102600C80516044F8093002F0D4FF083462E67C
S315100102704FEA991202F13903DB00383280E7BC42AA
S3151001028024D0BC68626843E703F15C0C03F15B0E92
S315100102904FEACC036DE65AF80839534540F0D88039
S315100102A01CF0030F0CF1FF3CF5D17B6823EA000328
S315100102B07B60400098423FF6DCAE18B9D9E64000A3
S315100102C009F104091842FAD0CC46A8E6614B019906
S315100102D0186808EB000C0139C3F800C0DBF8000000
S315100102E001301BBFAAEB02026244CBF800A01A60D0
S315100102F01AF00702CDE9022342D0C2F10802019B8E
S315100103009244D044134408EA01001A1A02EA010B76
S315100103105946304603F026FF421C039B7AD0A0EBC8
S315100103200A0000EB0B081868C7F808A048F001028C
S315100103305844BC42CAF8042018603FF4DEAEB9F145
S315100103400F0F42D96168A9F10C0222F0070201F0E0
S31510010350010111436160A1184FF0050C0F2AC1F874
S3151001036004C0C1F808C04AD8DAF80420C5E69210CC
S31510010370012000FA02F24EEA020EC7F804E00EE777
S31510010380019B0AEB08020A409A1A02EA010B594626
S31510010390304603F0E7FE431C039BC0D1DDF808B0DD
S315100103A0C1E7542A15D84FEA193202F16F03DB005F
S315100103B06E32E5E6B3F5AA7F15D8EB0B03F1780C8F
S315100103C003F1770E4FEACC03D3E50123CAF80430C3
S315100103D0A6E6B2F5AA7F25D84FEAD93202F17803FB
S315100103E0DB007732CCE640F25452934225D8AB0C5F
S315100103F003F17D0C03F17C0E4FEACC03B9E53046CF
S3151001040004F10801019305F0F5F8019BD7F808A04E
S315100104101868A9E7029A083A9044A8EB0A084FF01F
S31510010420000B80E740F254539A420DD84FEA994295
S3151001043002F17D03DB007C32A2E64FF47E734FF0AE
S315100104407F0C4FF07E0E94E54FF47E737E2297E675
S315100104507B682EE72C1000200FB400B5074983B036
S3151001046004AB086853F8042B8168019300F008F86F
S3151001047003B05DF804EB04B0704700BFC00500205F
S315100104802DE9F04FDFB01C4607919146834603F0E4
S315100104904FFE03681993184603F0B2FF082218900D
S315100104A000212EA80D9403F0B7FDBBF1000F04D067
S315100104B0DBF83430002B01F08780079B5A6EB3F9B5
S315100104C00C30D10702D49A0540F1A7869F0407D4B0
S315100104D007994A6E43F4005322F400528B814A66FF
S315100104E01E0740F1CC80079A1269002A00F0C780D6
S315100104F003F01A020A2A00F0D1809FED997B00239E
S31510010500CDE93333CDE91B33CDE91D338DED167BA3
S3151001051035AA1393329290461A930A93CDF820B0C6
S315100105204D46089F2E46904BD3F8E44003F0FAFD52
S3151001053003462EA8009032462AA93846A04700281D
S3151001054000F0CB80C0F2C1802A9A252A034601D039
S315100105501E44E8E7771B044640F0C28000238DF85D
S315100105609F3099460B934FF0FF3273780992741CA2
S315100105700134A3F120025A2A00F2F880DFE812F0C2
S31510010580D002F600F600CC02F600F600F6006A007C
S31510010590F600F6008602A902F6009102B202F600F2
S315100105A0AE025B005B005B005B005B005B005B0007
S315100105B05B005B00F600F600F600F600F600F600AA
S315100105C0F6007701F60011022A0377017701770108
S315100105D0F600F600F600F6002603F600F600E20233
S315100105E0F600F600F6002F02F6001303F600F600E9
S315100105F01F07F600F600F600F600F600F600F60004
S31510010600F6007701F6001102610277017701770191
S315100106109F0261020D02F6009502F6005503470787
S3151001062043030D02F6002F027D004207F600F60085
S315100106304B07F6007D00A3F13002002114F8013BAF
S3151001064001EB810102EB4101A3F13002092AF5D92F
S315100106500B918EE7089F384603F06AFD43681D9398
S31510010660184603F0CDFE1E900646384603F060FD8F
S3151001067083681B93002E40F02986237878E7079D1F
S315100106805846294603F07AFB002841F0AC83B5F9A8
S315100106900C3003F01A020A2A7FF42FAF0799B1F929
S315100106A00E20002AFFF629AF4A6ED00702D49A050A
S315100106B041F1C581079923464A46584601F008FD7E
S315100106C00A900A985FB0BDE8F08F082200212EA883
S315100106D003F0A2FC01231E4425E7771B044611D023
S315100106E0349B3B443493339B0133072BC8E90057A2
S315100106F0339313DC08F108080A9B3B440A93002C38
S315100107007FF42CAF349BDDF820B0002B41F0DC8058
S31510010710079B0022B3F90C30339212E0DDE9071082
S3151001072032AA01F051FD48B90DF1D408E4E7BB46F0
S315100107300C9B1BB10C99584604F05CFF079BB3F94F
S315100107400C30079A526ED40740F11D81590601F1FA
S3151001075056830A985FB0BDE8F08F00BFAFF30080F3
S31510010760000000000000000054040020CDE90E3402
S31510010770002BC7D000228DF8143101238DF89F204C
S3151001078006930C929B46099214921092129245ADC1
S3151001079019F0020302D006990231069119F0840765
S315100107A0349C05D10B9906980E1A002E00F3AA80D7
S315100107B082B10122C8F80420339A013201340DF1B5
S315100107C09F01072A34943392C8F8001000F3E3838B
S315100107D008F1080883B1339B28AA01330234C8F8FB
S315100107E00020072B4FF0020234943393C8F80420EB
S315100107F000F3DF8308F10808802F00F0C082099BFF
S31510010800A3EB0B06002E00F3FF8219F4807F40F054
S315100108101B82339BC8F8005001335C44072BC8F880
S3151001082004B03494339300F34F8308F1080819F098
S31510010830040F05D00B9B069A9D1A002D00F3C58354
S31510010840DDE90A3206998A42ACBF9B185B180A93F6
S31510010850002C40F01183002333930C9B1BB10C9990
S31510010860089804F0C7FE0DF1D4080F9D59E6CDE99D
S315100108700E340D9B073323F00703B3EC027B57ECC1
S31510010880176B0D9327F0004323938DED227ADDE943
S3151001089022ABA84B4FF0FF32504659468DED167BD1
S315100108A008F04EF9002840F02F85A24B4FF0FF3289
S315100108B05046594608F026F9002840F025850022B1
S315100108C000233046394608F013F9002841F00C810F
S315100108D09DF89F20984D994B29F080090E9947292B
S315100108E0C8BF1D46002303210C9306918B4609931D
S315100108F0149310931293002A3FF44AAF069B0133C7
S31510010900069345E7102E339A41F33A828C48219586
S31510010910CDE91F372146079D089C15904FF0100A07
S31510010920074604E0103E102E08F1080816DD0132C4
S315100109301031072AC8E9007ACDE93321F2DD32AA4E
S31510010940294620460DF1D40801F03EFC002840F05E
S315100109503586103E102EDDE93321E8DCDDE91F373F
S31510010960219D0C4601321599C8F800103444072A06
S31510010970CDE93324C8F8046000F30F869DF89F2053
S3151001098008F1080814E798053FF5E0AE079CA06D3D
S3151001099003F03CFCB4F90C30D8E6237849F0200971
S315100109A0E6E50D9A432BCDE90E3402F1040400F06D
S315100109B0618519F0100F40F05D850D9B1B688DF850
S315100109C01431012306939B4645AD00220D948DF8F3
S315100109D09F200C920992149210921292D8E60D9EB3
S315100109E056F8045BCDE90E3400238DF89F30002DA7
S315100109F000F02F850E9B532B00F0008619F0100383
S31510010A00129340F0FB85099B5A1C00F067871299D7
S31510010A101A46284603F0FCFB0C90002801F0C2820E
S31510010A200C9B0D96A3EB050B129B09932BEAEB710D
S31510010A30149310930C9373239DF89F2006910E9394
S31510010A4059E719F0200FCDE90E3400F0CB800D9B3C
S31510010A50073323F007031A46596852F8083B0D92DB
S31510010A600A460029C0F224840999013100F08482D2
S31510010A7053EA020129F0800440F07F82099A002A84
S31510010A8040F08082A14693465EAD4FE10D9B53F82F
S31510010A90042B0B92002A80F2CD830B9A0D935242AE
S31510010AA00B92237849F0040962E523786C2B03BF76
S31510010AB0637849F02009013449F0100958E5237883
S31510010AC0682B03BF637849F40079013449F0400972
S31510010AD04EE52B238DF89F30237849E5237849F08D
S31510010AE0800945E5214611F8013B2A2B01F0D782F1
S31510010AF0A3F13002092A0C4698BF002101F26F8139
S31510010B0014F8013B01EB810102EB4101A3F1300223
S31510010B10092AF5D909912CE5237849F0010927E528
S31510010B209DF89F202378002A7FF422AD20228DF88C
S31510010B309F201DE5FFFFEF7F489101104C91011099
S31510010B409C910110CDE90E3449F0100919F02002DB
S31510010B5000F054830D9B073323F0070319465A6897
S31510010B6051F8083B0D9129F4806400210020099D5C
S31510010B708DF89F006F1C00F0C28053EA020024F02A
S31510010B80800940F0BB80002D40F02385002940F0FC
S31510010B90968414F0010B00F0518330238DF87731D0
S31510010BA00DF27715C2E0CDE90E3449F0100414F0B8
S31510010BB0200200F015830D9B073323F00703194616
S31510010BC05A6851F8083B0D910121CFE7237849F076
S31510010BD00809CDE449F0100919F0200FCDE90E34BA
S31510010BE07FF435AF0D9A19F0100F52F8043B0D92A0
S31510010BF040F0598319F0400F00F0518343F3C0328E
S31510010C0011461BB22DE70D9A0F9452F8043B0D9223
S31510010C1047F63002ADF8A0207820B14A1A9249F071
S31510010C200204002202210E90A0E719F0200F0F9462
S31510010C3000F059830D9B0A9A1B681A60D2175A60E5
S31510010C400D9B04330D9310E60E9B652B40F34E81DD
S31510010C50DDE916010022002307F040FF002800F00D
S31510010C60EE81339B9F4AC8F80020013301340122DB
S31510010C70072B34943393C8F8042000F3AF8408F19A
S31510010C800808299B139A934280F2CF82189B199ACE
S31510010C901C44C8E90023339B34940133072B339347
S31510010CA000F3CB8308F10808139B5D1E002D7FF717
S31510010CB0BEAD102D339B40F3F9848B4F1597DDE9AB
S31510010CC007AB102605E008F10808103D102D40F37A
S31510010CD0EF8401331034072BC8E90076CDE933349C
S31510010CE0F1DD32AA5146584601F06EFA00287FF41A
S31510010CF01FADDDE933340DF1D408E6E74C46012981
S31510010D0000F03B8102295EAD1ED11A9803F00F0146
S31510010D101B09415C05F8011D43EA0273120953EAE6
S31510010D200201F3D15EABA146A3EB050B09999DF820
S31510010D309F2059454FF00003B8BF59460C930691B1
S31510010D40149310931293D6E503F00701DB0843EAD7
S31510010D504273D208303153EA0206284605F8011DBE
S31510010D60F2D1E607DED53029DCD03023023805F87A
S31510010D70013C5EABA146A3EB000B0546D6E70B9BE8
S31510010D80069A9E1A002E7FF73AAD102E339B41F329
S31510010D90AB805548DDF820A01590214610271A463C
S31510010DA0044604E0103E102E08F1080816DD013243
S31510010DB01031072AC8E90047CDE93321F2DD079939
S31510010DC032AA50460DF1D40801F0FEF9002840F080
S31510010DD0F883103E102EDDE93321E8DC0C4613466C
S31510010DE00133159AC8F800203444072BCDE9333462
S31510010DF0C8F8046000F31483099BA3EB0B06002EBD
S31510010E0008F108087FF701AD374A339B1592102E6A
S31510010E1023DD22464FF0100ADDE9074704E0103EB4
S31510010E20102E08F1080817DD01332F491032072B50
S31510010E30C8E9001ACDE93332F1DD32AA2146384626
S31510010E4001F0C2F900287FF472AC103E102EDDE9D4
S31510010E5033320DF1D408E7DC14460133159AC8F87C
S31510010E6000203444072BCDE93334C8F8046000F36D
S31510010E70AA8108F10808C8E4DDE9071032AA01F0D1
S31510010E80A3F900283FF4E7ACDDF820B050E4189B35
S31510010E9019991C44C8E90013339B34940133072B69
S31510010EA0339300F3BD8508F10808002AC0F2AC8718
S31510010EB0139AC8F8005001331444072BCDE9333483
S31510010EC0C8F804207FF7B1ACDDE9071032AA01F0AA
S31510010ED07BF90028D8D1349C0DF1D408A7E400BFC2
S31510010EE058910110889101108C910110139B339E1A
S31510010EF0012B04F1010406F1010608F1080740F37C
S31510010F001D810123072ECDE93364C8F80050C8F8B6
S31510010F10043000F3E482189B199A01361C44072EFB
S31510010F20C7E90023CDE9336400F3CD820837139B5B
S31510010F30DDE9160103F1FF380022002307F0CEFD8B
S31510010F40002840F01581013601354444072ECDE9BC
S31510010F5033643D60C7F8048000F3FE8008371C9B9C
S31510010F607B6001361C44072E2CABCDE933643B6004
S31510010F70AADC07F108085AE44C460A2B72F1000163
S31510010F8080F0B98230338DF87731A1464FF0010BDD
S31510010F900DF27715CAE6DDE9071032AA159301F0AD
S31510010FA013F900287FF470AF349C159B0DF1D4080A
S31510010FB010E4DDE9071032AA01F006F900287FF4E2
S31510010FC063AF349C0DF1D40816E4102D339B40F316
S31510010FD05087BB4F1597DDE907A9102604E0103D90
S31510010FE0102D08F1080816DD01331034072BC8E956
S31510010FF00076CDE93334F2DD32AA514648460DF179
S31510011000D40801F0E1F8002840F0F582103D102DCA
S31510011010DDE93334E8DC0133159A2C44072BC8E992
S315100110200025CDE933347FF70BACDDE9071032AA81
S3151001103001F0CAF800287FF427AF349C00E4299AFE
S31510011040002A40F3FD80DDE912739F42A8BF1F46B7
S31510011050002F05EB030B0BDD339B01333C44072BB0
S31510011060C8E900573494339300F36D8608F10808E4
S31510011070129E002FA8BFF61B002E00F34583129B6C
S3151001108019F4806F2B449A4640F07885299D139B5D
S315100110909D4203DB19F0010F00F00284189B199A87
S315100110A01C44C8E90023339B34940133072B339333
S315100110B000F3588608F10808139BABEB0A065D1B73
S315100110C0AE42A8BF2E46002E0DDD339BC8F800A0F8
S315100110D001333444072BC8F804603494339300F376
S315100110E0538608F10808002EA8BFAD1B002D7FF707
S315100110F09EAB102D339B40F3D982724F1597DDE9C4
S3151001110007AB102605E008F10808103D102D40F335
S31510011110CF8201331034072BC8E90076CDE9333479
S31510011120F1DD32AA5146584601F04EF800287FF4F7
S31510011130FFAADDE933340DF1D408E6E719F0010F02
S315100111407FF4DFAE0123072ECDE93364C8F80050D2
S31510011150C8F804307FF703AFDDE9071032AA01F0B2
S3151001116033F800287FF490AEDDE9336435AFF6E647
S31510011170139B012B7FF7F3AE112B524B159340F3B3
S31510011180B782CDF82490DDE907BA1025994606E015
S315100111900837A8F11008B8F1100F40F3A7820136ED
S315100111A01034072EC7E90095CDE93364F0DD32AA74
S315100111B05946504601F008F8002840F00282DDE950
S315100111C0336435AFE5E7DDE9071032AA00F0FCFF1D
S315100111D000287FF459AE349C0DF1D408FFF715BBE6
S315100111E00D9951F8043B0D9114F0100155D114F0DD
S315100111F040004DD00A469BB20121B7E40D9951F832
S31510011200043B0D9119F010017FF4ADAC19F04000BB
S3151001121000F0A7829BB20A46A5E4079DA86D02F0CD
S31510011220F3FFB5F90C30FFF751B919F0010F3FF47F
S31510011230FEAA2BE50D932378FFF79AB95EAD75E5F6
S31510011240339B2149C8F80010013301340121072BC2
S3151001125034943393C8F8041000F34F8508F1080845
S31510011260002A7FF414AE139A09F0010313433FF4D5
S31510011270DEAA189B199A1C44C8E90023339B34949F
S315100112800133072B339300F3CB8308F108080FE6DC
S3151001129014F400721CBFDBB20246012166E419F494
S315100112A0007F40F00583DA1711460029BFF6DCAB43
S315100112B05B4262EB42024C462D20012157E400BFEE
S315100112C09C9101108C910110889101101B9A237821
S315100112D0002A3FF44DA91278002A3FF449A949F48E
S315100112E08069FFF745B919F0100F40F0F98119F02F
S315100112F0400F40F0E38219F4007F00F0F1810D9B5D
S315100113000A9A1B681A709BE4DDE9160102460B4620
S3151001131007F016FC002840F036860E9B612B00F074
S315100113201F85412B00F0E182099B013300F01586E0
S315100113300E9B23F02003472B04D1099B002B08BFDA
S3151001134001230993DDE9160149F4807200291592EA
S31510011350CDF818904FF00003C0F2DD84CDE92401D9
S315100113601F930C930E9B413B252B00F20182DFE864
S3151001137013F07203FF01FF01FF016B036F03FF01FE
S31510011380FF01FF01FF01FF01FF01FF01FF01FF0146
S31510011390FF01FF01FF01FF01FF01FF01FF01FF0136
S315100113A0FF01FF01FF01FF01FF01FF01FF01FF0126
S315100113B0FF01FF01FF01FF01FF016B036F03CDE980
S315100113C00E34C24B1A9319F020026AD00D9B0733C3
S315100113D023F0070319465A6851F8083B0D9119F085
S315100113E0010F0AD053EA020107D00E998DF8A11008
S315100113F0302149F002098DF8A01029F480640221E8
S31510011400FFF7B4BBCDE90E344C46FFF7D0BBCDE99F
S315100114100E34FFF79BBBCDE90E34AD4B1A93D2E7D1
S31510011420DDE9071032AA00F0CFFE00287FF42CADBB
S31510011430349C0DF1D408FFF7E2B9DDE9071032AAA1
S3151001144000F0C2FE00287FF41FAD349C0DF1D408C4
S315100114502AE4099B0C95062B294628BF06230995D4
S315100114602A4606939B4D0D969B4614911091129107
S31510011470FFF741BA0822002130A802F0CDFD0D9BDD
S3151001148008981A6845AD30AB294603F025F8B0F136
S31510011490FF3F834600F0428520EAE0730693FFF78B
S315100114A094BA0D9951F8043B0D9119F0100196D18A
S315100114B019F0400000F04F819BB20A468FE7DDF824
S315100114C024B05EAD32E4DDE9071032AA00F07CFEED
S315100114D000287FF4D9ACDDE9336435AF27E5DDE9C2
S315100114E0071032AA00F070FE00287FF4CDACDDE9BA
S315100114F0336435AF0FE504F4806B0021CDF83080ED
S31510011500DFF8D891DDF86C8006945EAD4FF0CC3AD9
S3151001151005278C465E4605E00A2B72F1000233D38D
S315100115205B462246991841F10001A9FB010424F0FA
S31510011530030000EB9400091A581A62F1000E0AFB17
S3151001154000F4A0FB09B009FB0E440BF0010E044494
S31510011550AEFB070E40184FEA5B0B303005F8010C55
S315100115604BEAC47B0CF1010C013D6408002ED3D06B
S3151001157098F800108C45CFD1BCF1FF0FCCD00A2BB7
S3151001158072F1000280F0C382CDF86C80069CDDF802
S315100115903080CDF84CC0FFF7C5BBDDE9071032AA84
S315100115A0159300F011FE00287FF46EAC9DF89F2074
S315100115B0349C159B0DF1D408FFF7FAB8A346FFF733
S315100115C0B7B8D346FFF7B4B8584602F009FAFEF792
S315100115D074BF01294C467FF495ABD3E4DDE90710BE
S315100115E032AA00F0F1FD00287FF44EAC349C0DF1C7
S315100115F0D408FFF746BBCB46FFF79AB830AF08229F
S31510011600002138462B9502F007FD099B581C00F066
S3151001161070820024CDF81890A346DDF820909A46E2
S315100116200CE045A9484602F057FF411C584400F00A
S315100116307584504508DC00F0C28483462B9A1259F2
S315100116403B460434002AECD1DDF81890BBF1000FAB
S3151001165000F04283BBF1630F40F3F98308980BF155
S315100116600101FEF73FFC0546002800F057840C9057
S3151001167008220021384602F0CFFC089800975B46F5
S315100116802BAA294602F04EFF834540F01785002309
S3151001169005F80B302BEAEB719DF89F200D960993F7
S315100116A00691149310931293FFF725B90A4A1592CE
S315100116B00133159AC8F800202C44072BC8F804509A
S315100116C0CDE933347FF7B1A8FFF7FEBB6C9101105A
S315100116D058910110809101108C910110CDCCCCCC78
S315100116E00D9B0A9A1B681A60FFF7AABADDF82490B7
S315100116F0159B3B6001364444072ECDE93364C7F888
S3151001170004807FF72BAC27E5102E339B40F3AD8475
S315100117109848159042462146A846DDE9074A102702
S31510011720054604E00832103E102E40F3CA810133FB
S315100117301031072BC2E90057CDE93331F2DD32AA58
S315100117402146504600F040FD00287FF43AAFDDE90E
S31510011750333135AAE7E719F400721CBFDBB2024632
S315100117603DE619F400721CBFDBB20246FFF7FBB966
S31510011770099E0223CDE9003630AB04932BAB0393BC
S3151001178029AB02930898DDE9242302F0B5FF0E9BDD
S31510011790672B054600F077810E9B472B00F073816E
S315100117A00E9B23F02007462F00EB060405D1037884
S315100117B0302B00F0DB83299E3444DDE9240100221D
S315100117C0002307F08BF9002800F0CC8123465B1B20
S315100117D01393299A1292472F00F05D81462F00F03C
S315100117E0E3820E99531E6129299300F04184412900
S315100117F040F05C8150210120002BB6BFC2F10103DC
S315100118002B222D22092B8DF8B0108DF8B12040F323
S3151001181077830DF1C704584E22461046A6FB0312D4
S31510011820D20802EB8201A3EB4101303100F8011C11
S3151001183019466329134600F1FF32EEDC303302F804
S31510011840013C831EA34280F00C840DF1B10213F802
S31510011850011B02F8011FA342F9D15EAB181AA0F1C0
S31510011860AD031C93139B1C9A012B03EB020B40F344
S315100118707883189B9B44069B23F4806343F48079F9
S315100118802BEAEB72002314930692109312931F9B6B
S31510011890002B40F00F819DF89F200993FFF72BB87D
S315100118A0139BABEB0A065D1BAE42A8BF2E461AE48C
S315100118B043F3C01211465BB2FFF7D3B80D9B0A9AD8
S315100118C01B681A80FFF7BCB9079932AA584600F06F
S315100118D07BFC00283EF41CAFFEF730BF28460D9660
S315100118E002F08EFD8346FFF79FB858238DF8A1307D
S315100118F030238DF8A03049F002030693099B632B20
S3151001190000F3F68200230C9345AD49F481731593C8
S31510011910179B002BC0F200829DED167B8DED247B6B
S3151001192000231F930E9B612B7FF41CAD29AADDE9C1
S31510011930240102F003FE00224FF07F5306F066FEEB
S3151001194002460B46CDE910230022002307F0C6F804
S31510011950002840F0F882094B1293099BCDF84C8070
S3151001196003F1FF392E461495DDF848B04D46DDE9F1
S3151001197010890BE08C910110CDCCCCCC5891011073
S315100119800022002307F0AAF8F0B93D46A94B002220
S315100119904046494606F03AFE8946804607F0E6F883
S315100119A0044606F0C9FD0B4602464946404606F076
S315100119B075FC1BF80430B24606F8013B6B1C05F1A9
S315100119C0FF3780468946DBD1CB465746C2469A4BEE
S315100119D0DDF84C80002250465946A946149D07F061
S315100119E0A5F8002840F06482934B504659460022D0
S315100119F007F074F810B1E20700F15A82B9F1000F3D
S31510011A00C0F2708209F101033344302206F8012B2A
S31510011A10B342FBD15B1B13930E9B23F02007D8E631
S31510011A20DDE9071032AA00F0CFFB00287FF42CAABB
S31510011A30DDE93334299A0DF1D408FFF736BA886DEA
S31510011A4002F0E4FBFEF736BE099B5E1C022391E60B
S31510011A50099E03238EE629AADDE9240102F06EFD13
S31510011A6000224FF07F5306F0D1FD02460B46CDE919
S31510011A7010230022002307F031F8002840F063827A
S31510011A806E4B129369E7069BDB0700F1E481309BED
S31510011A90299A5B1B1393D31C129202DB099B934267
S31510011AA044DA0E9B023B0E93531E29939DF8381070
S31510011AB00020A1E62D2200238DF89F200993FEF721
S31510011AC01DBF45460C4690460133159AC8F80020AD
S31510011AD03444072BCDE93334C8F8046000F3268269
S31510011AE008F10808FFF7CBBA2D228DF89F20FEF7D3
S31510011AF0F1BE0023089800972BAA194602F012FD91
S31510011B00B0F1FF3F834600F009822B959EE51E9B9F
S31510011B101D99ED1A1A46284602F0D0FA98F80130A6
S31510011B200BB108F101084FF0000CF9E4139B934235
S31510011B3000F39481069BDE0740F14A82189B02EB63
S31510011B40030B069B5C0502D5002A00F34A822BEA99
S31510011B50EB730693DDF8549067230E9300231493C9
S31510011B60109394E6309BA342BFF431AE30215A1C38
S31510011B7030921970309B9C42F9D828E621461C46B2
S31510011B80109BCDF824B0CDF8389042462C4FDDF895
S31510011B905090DDF87880DDF86CA0DDF820B07BB3CD
S31510011BA0B9F1000F00F0858009F1FF3933981D9BBB
S31510011BB0013041440728C2E90038349133906DDC75
S31510011BC00832099B9AF800001E1B8642A8BF0646DA
S31510011BD0002E0BDD3398013031440728C2E9004647
S31510011BE0349133906BDC9AF800000832002EACBFAA
S31510011BF0851B0546002D14DC0444109B002BCFD108
S31510011C00B9F1000FD0D1DDF824B0CDF86CA0A24601
S31510011C10DA45DDF8389090460C4628BFDA46FFF7CC
S31510011C2035BA102D339840F31A8223463E462C4678
S31510011C301D460CE0000030400000E03F6C910110A1
S31510011C408C910110103C102C02F1080216DD0130A6
S31510011C50103110230728CDE9330117605360F1DDE8
S31510011C60079932AA584600F0AFFA00287EF460AD03
S31510011C70103C102CDDE9330135AAE8DC2B4625464C
S31510011C801C46013029440728CDE9330116605560F9
S31510011C904BDC9AF8000008320444AEE7079932AAE1
S31510011CA0584600F091FA00287EF442AD349935AACF
S31510011CB087E7109B013B0AF1FF3A109376E70799E4
S31510011CC032AA584600F080FA00287EF431AD9AF80F
S31510011CD00000349935AA89E79DF89F200D96CDF815
S31510011CE018B0CDF824B0CDF850B0CDF840B0CDF83D
S31510011CF048B0CDF830B0FEF7FEBDDDE9071032AAC7
S31510011D0000F062FA00287FF4BFA8299A349C0DF1DD
S31510011D10D408FFF7A5BA0C93DDE9161202F10043B8
S31510011D2025932D2324911F93FCE5079932AA584632
S31510011D3000F04AFA00287EF4FBAC9AF800003499B8
S31510011D4035AA044459E7DDE9071032AA00F03CFA36
S31510011D5000287FF499A8349C0DF1D408FFF788B9AF
S31510011D607823C3E5DDE9071032AA00F02DFA002821
S31510011D707FF48AA8299D349C0DF1D408FFF79CB9EC
S31510011D80AB491591FEF7EEBDDDE9071032AA00F059
S31510011D901BFA00287FF478A8299D139B349C5D1BA0
S31510011DA00DF1D408FFF79FB9069B1299099A03F012
S31510011DB00103002943EA020340F35D81002B40F041
S31510011DC009816623DDF848B00E93069B5A0500F18A
S31510011DD00A812BEAEB73DDF854900693BEE60022D6
S31510011DE00992FEF7C6BB079B5B6EDD0707D4079BFF
S31510011DF09B899C0503D4079B986D02F007FA4FF057
S31510011E00FF330A93FEF7A5BC56421032894A159242
S31510011E1034DAAA461027154604E008F10808103EE0
S31510011E20102E2ADD01331034072BC8E90057CDE9EE
S31510011E303334F2DDDDE9071032AA00F0C5F90028C6
S31510011E407FF422A8DDE933340DF1D408E7E7002346
S31510011E500C9345AD0CE4AC194727AEE4139B189AC5
S31510011E6003EB020B129B002B40F3EE8067230E93BC
S31510011E70ABE76F4A1592FFF7CEB855460133159A5F
S31510011E80C8F800203444072BCDE93334C8F8046070
S31510011E907FF7FBA9DDE9071032AA00F095F90028B2
S31510011EA07EF4F2AFDDE933340DF1D408FFF700B853
S31510011EB0129B3097D97B16F8012C8A42334609D1E9
S31510011EC0302003F8010C309B5A1E309213F8012C66
S31510011ED09142F6D0392A0BBF129A0132927AD2B2B6
S31510011EE003F8012C334695E5524A1592FEF778BF51
S31510011EF00898591CFDF7F6FF054678B10C9004E5D4
S31510011F00002862D130228DF8B2200DF1B3023033A0
S31510011F1002F8013B2CABD31A1C93A3E4079AB2F92E
S31510011F200C3043F040039381FEF70BBCDDE907103B
S31510011F3032AA00F049F900287EF4A6AF349C0DF1BF
S31510011F40D408FFF79CB83C4B3C4A0E99612918BF3F
S31510011F501A46012312922993FFE406230993FFF7E8
S31510011F60F1B9069BDF077FF586AC82E4DDE9240132
S31510011F700022002306F0B2FD00287FF41CACC6F146
S31510011F800106299618E4179B2D4D002BB4BF2D225F
S31510011F909DF89F202B4BB8BF8DF89F2029F0800903
S31510011FA0FEF79CBC099B06939B4673239DF89F20C5
S31510011FB00D960990149010900E93FEF79CBCDDF8C7
S31510011FC01890DDF824B0FFF741BB0DF1B2029EE780
S31510011FD09346B6E5189BCF183A44662393460E935B
S31510011FE0F3E667230E931B990B78FF2B62D000241F
S31510011FF0129A204603E001300131FF2B08D093429B
S3151001200006DAD21A4B78002BF5D10B780134F4E7A6
S315100120101B91129210901494DDE91439109A1344FD
S315100120201E9A02FB03BB2BEAEB7306932FE400BF48
S315100120309C9101108C9101106C9101105891011015
S315100120405091011054910110C3F101039B442BEAE5
S31510012050EB7306936723DDF854900E937EE51B4EC2
S315100120600FE602231C93FFF7FDBB184A15922BE5C9
S315100120707021FFF7C0BBDDF854902BB901236622FE
S3151001208006930E929B4669E5189B5F1C099B3B4480
S315100120909B4623EAE373069366230E935EE50D9A38
S315100120A063780C4652F8041B0D9241EAE1710991CD
S315100120B0FEF75EBA002314931093ADE7DDE9072B03
S315100120C0938943F040039381FEF732BB8C91011043
S315100120D0F0B51F468B89ADF26C4D23F00203ADF8B6
S315100120E00C304B6E1993CB89ADF80E30CB69079333
S315100120F04B6A09931AAB009304934FF48063154608
S3151001210006460293059316A800230C46069302F081
S3151001211077F82A463B4669463046FEF7B1F9051E61
S3151001212007DB6946304601F06DFB002818BF4FF0FA
S31510012130FF35BDF80C305B0603D5A38943F0400388
S31510012140A381169802F05EF828460DF26C4DF0BD8B
S315100121502DE9F84F4B6E9C0490462ED59368126864
S315100121604BB30D46064602F1080959E9022A5FEA00
S315100121709A0716D0A2F1040B002401E0A7420ED053
S315100121805BF8041F2A46304601F096FE431C04F103
S315100121900104F3D10023C8E90133BDE8F88FD8F85B
S315100121A008302AF0030AA3EB0A03C8F8083009F12C
S315100121B00809002BD9D10020ECE701F03BFC0023E4
S315100121C0C8E90133BDE8F88F10B494681CB15DF805
S315100121D0044BFFF7BDBF204654605DF8044B7047B2
S315100121E02DE9F04FC7B016AF834603910692002131
S315100121F0082238461C460A9301F00EFFBBF1000F68
S3151001220004D0DBF83430002B00F0B886039A536EF5
S31510012210B2F90C20DB0702D4960540F19D85950491
S3151001222007D403994B6E42F4005223F400538A816A
S315100122304B66100740F1C980039B1B69002B00F008
S31510012240C48002F01A030A2B00F0CE800023CDE9D8
S315100122501B33CDE90E331DAADFF804A90D931A928B
S31510012260914610930793069DDAF8E44001F05AFF60
S315100122702A46034614A900975846A047002800F09D
S31510012280D280C0F2C880149A252A034601D01D4473
S31510012290EAE7069BEE1A044640F0C98000234FF088
S315100122A0FF316A788DF84B3008936C1C05910293B7
S315100122B00134A2F120035A2B00F2FF80DFE813F05C
S315100122C00003FD00FD00FA02FD00FD00FD006B009C
S315100122D0FD00FD0015022A03FD0020021003FD007A
S315100122E00A035B005B005B005B005B005B005B004D
S315100122F05B005B00FD00FD00FD00FD00FD00FD0023
S31510012300FD00FD00FD00CB015A02FD00FD00FD00A0
S31510012310FD00FD00FD00FD00FD00FD00FD00260293
S31510012320FD00FD00FD00A301FD007302FD00FD008F
S315100123308C05FD00FD00FD00FD00FD00FD00FD000A
S31510012340FD00FD00FD00CB01F001FD00FD00FD00CB
S31510012350C102F0017F00FD002F03FD00EB0289058C
S31510012360CA027F00FD00A3017D008605FD00FD0068
S31510012370AF05FD007D00A2F130030022114614F8CD
S31510012380012B01EB810103EB4101A2F13003092B72
S31510012390F5D908918DE7584601F0CAFE43681093A6
S315100123A0184602F02DF80F900546584601F0C0FE6A
S315100123B083680E93002D40F0E384227878E7029B20
S315100123C0227843F02003029372E7039D584629466B
S315100123D001F0D4FC002840F0A386B5F90C2002F0D8
S315100123E01A030A2B7FF432AF0399B1F90E30002B81
S315100123F0FFF62CAF4B6EDB0702D4970540F15B86D7
S31510012400069A03992346584600F0BEFE0790079890
S3151001241047B0BDE8F08F08220021384601F0FCFDD7
S3151001242001231D4420E7069BEE1A044612D0069B93
S315100124301C9AC9E900361B9B01333244072B1C92A7
S315100124401B9311DC09F10809079B33440793002CF0
S315100124507FF424AF1C9B002B40F04D86039B00227A
S31510012460B3F90C301B921CE0002A00F02D8403995D
S315100124701AAA5846FFF76CFE80B90DF17409E3E705
S3151001248003991AAA5846FFF763FE002800F0A680A2
S315100124900B9B1BB10B99584603F0ACF8039BB3F990
S315100124A00C30039A526ED10740F1A3805B0600F1FE
S315100124B04386079847B0BDE8F08F0694002AC9D025
S315100124C000238DF84B3001238DF8B4200493099322
S315100124D02DAC00230B930593029B13F0020302D03C
S315100124E0049A02320492DDE91B2C029D501C15F050
S315100124F0840501460C9505D1089D049EAD1B002D42
S3151001250000F332839DF84B0088B101220CF1010CC6
S31510012510C9F8042007290DF14B02CDE91B1CC9F896
S31510012520002000F3E1820A4609F108090131EBB1F5
S3151001253013AB0CF1020CC9F8003007294FF0020356
S31510012540CDE91B1CC9F8043040F3EC82BCF1000F35
S3151001255000F0DB8303991AAA5846FFF7F9FD002804
S3151001256096D1DDE91B2C0DF17409511C0C9B802BA6
S3151001257000F01382059B09981D1A002D00F368823D
S31510012580099AC9F8004002EB0C030729CDE91B1380
S31510012590C9F8042040F3FE81002B00F02C83039927
S315100125A01AAA5846FFF7D4FD00287FF471AF1C9B79
S315100125B00DF17409029A500705D5089A0499541A0F
S315100125C0002C00F32383DDE9072104988142ACBF77
S315100125D0521812180792002B7FF452AF00231B9347
S315100125E00B9B1BB11946584603F004F80DF17409FB
S315100125F039E69A053FF55AAF039CA06D01F006FE28
S31510012600B4F90C3052E70A9E069456F8044B00238F
S315100126108DF84B30002C00F0C984532A00F0228427
S31510012620029B13F0100540F01D84059B5A1C00F007
S315100126304E851A462946204601F0EAFD0B900028E0
S3151001264000F03E85031B099323EAE37305950A9669
S3151001265004930B958DE10A9B0694432A03F1040515
S3151001266003D0029BDE0640F1E5830822002118A85B
S3151001267001F0D2FC0A9B2DAC1A68214618AB5846BC
S3151001268001F02AFF03460133099000F04185099BA9
S3151001269023EAE373049300230A958DF84B3018E768
S315100126A0029B06949C066DD50A9B073323F00703FC
S315100126B019465A6851F8083B0A911146002AC0F288
S315100126C03781059A013200F04081029A22F0800288
S315100126D0029253EA010240F03881059B002B40F02B
S315100126E008850493099346AC41E10A9B53F8042BE0
S315100126F00892002A80F22883089A0A935242089275
S31510012700029B227843F004030293D1E5029B0694BF
S3151001271043F0100212F0200100F0E8820A9B073301
S3151001272023F007031846596850F8083B0A9022F41B
S3151001273080640294059C002001348DF84B005DD015
S3151001274053EA010422F4906240F01484029C02922E
S31510012750059B002B4AD1002840F0F18214F00102AA
S31510012760099200F0F58230238DF8173104920DF29B
S315100127701714FCE0029B069443F010030293029B8C
S315100127809C0691D40A9A52F8043B0A92029AD006F0
S3151001279000F1F382029A510640F1EB8243F3C03104
S315100127A00A461BB28AE7029B069443F0100414F002
S315100127B0200100F08C820A9B073323F007031A4687
S315100127C0596852F8083B0A9200228DF84B20059A57
S315100127D0013200F0D18324F08002029253EA010201
S315100127E040F0B380059B0120002BB4D0012800F0E6
S315100127F0808400230228194600F0998146AC03F023
S315100128000702DB0843EA4173C908303253EA01056E
S31510012810204604F8012DF2D1029BDD0740F1958186
S31510012820302A00F092813023059A04F8013C0238CF
S3151001283046AB1B1A9A42B8BF1A460993044604922C
S3151001284095E02278029B682A00F09D8343F04003AD
S3151001285002932DE5029B0A9A069443F00203029312
S3151001286052F8043B0A9247F63002ADF84C20BB4AA7
S315100128700D92002100228DF84B20059A013200F0AD
S315100128805681029C53EA010024F08002029240F024
S315100128904E8102205CE7029B06949B0640F17F82E3
S315100128A00A9B079A1B681A60D2175A600A9B04334F
S315100128B00A93D8E4029B227843F001030293F7E4CA
S315100128C09DF84B302278002B7FF4F2AC20238DF843
S315100128D04B30EDE4029B227843F080030293E7E448
S315100128E0214611F8012B2A2A00F03384A2F1300374
S315100128F0092B0C4600F2F6830022114614F8012B1F
S3151001290001EB810103EB4101A2F13003092BF5D94A
S315100129100591CEE42B2322788DF84B30C8E422782A
S31510012920029B6C2A00F0368343F010030293BFE436
S315100129302D228DF84B20059A5B4261EB4101013244
S3151001294003D0029A22F0800202920A2B71F1000240
S3151001295080F0BD823033DBB28DF81731059B012B28
S31510012960B8BF01230493012309930DF21714002311
S315100129700B939DF84B30002B3FF4AEAD049B013306
S315100129800493A9E5099B1D9401221E931C931B9286
S315100129900DF1740909F108090CE6089B04981D1A32
S315100129A0002D7FF7E7AD102D40F3CB83DFF8B4810F
S315100129B043461026A04661461C4607E002F1020C6A
S315100129C009F108090246103D102D1ADD501C10316F
S315100129D00728C9E90046CDE91B01EFDD1AAA00292E
S315100129E07CD0039958460DF17409FFF7B1FB002805
S315100129F07FF44EADDDE91B21103D102D02F1010CC6
S31510012A00E4DC2346604644468C469846AC44072887
S31510012A10CDE91B0CC9F80080C9F8045040F3A48114
S31510012A20BCF1000F00F0278303991AAA5846FFF745
S31510012A308FFB00287FF42CAD059B0998DDE91B2C33
S31510012A401D1A002D02F101010DF174097FF798ADE0
S31510012A50102DDFF810812DDD2B46102625466046F8
S31510012A601C4607E002F1020C09F108090A46103C5E
S31510012A70102C1ADD511C3B4B10300729C9E90036C1
S31510012A80CDE91B10EEDD1AAA10B3039958460DF1C4
S31510012A907409FFF75DFB00287FF4FAACDDE91B2012
S31510012AA0103C102C02F1010CE4DC234661462C4645
S31510012AB084461D46AC440729CDE91B1CC9F8008084
S31510012AC0C9F8045000F3ED8009F10809013157E501
S31510012AD04FF0010C02460DF17409C8E74FF0010CD5
S31510012AE00A460DF174096EE7BCF1000F0FD0039978
S31510012AF011931AAA5846FFF72BFB00287FF4C8AC8E
S31510012B00DDE91B2C119B511C0DF174090FE5002BEE
S31510012B1000F0568102231E939C4613AB1D9301218F
S31510012B200DF174090A4609F1080901311EE50D98DE
S31510012B3046AC03F00F021B09825C04F8012D43EA2F
S31510012B400173090953EA0102F3D1059A46AB1B1B1E
S31510012B509A42B8BF1A460993049208E75891011090
S31510012B6054040020AC910110102D40F3BF82AE4EDB
S31510012B70119349464FF01008A1463446664607E0C0
S31510012B8002F1020E08310246103D102D18DD501CBF
S31510012B9010360728C1E90048CDE91B06F0DD039977
S31510012BA01AAA584616B3FFF7D3FA00287FF470AC69
S31510012BB0DDE91B26103D102D02F1010E1DA9E6DCE3
S31510012BC0119BB44626464C468946AC44BEF1070FC6
S31510012BD0CDE91BECC9F80060C9F8045000F39A80DE
S31510012BE009F108090EF1010172468BE432464FF0E4
S31510012BF0010E1DA9C8E7029A1B93540748D5089AD6
S31510012C000499541A002C43DD0DF17409102C1B99EB
S31510012C1040F37B82844EDDF80C80102506E0881C7B
S31510012C2009F108091146103C102C19DD4A1C103304
S31510012C30072AC9E90065CDE91B23F0DD1AAA13B3EA
S31510012C4041465846FFF784FA00287FF421ACDDE9A6
S31510012C501B13103C102C01F101000DF17409E5DC78
S31510012C6023440728C9E90064CDE91B037FF7ABAC00
S31510012C7073B103991AAA5846FFF76AFA00287FF426
S31510012C8007AC1C9B9FE4012019460DF17409CAE794
S31510012C90DDE9073204998A42ACBF9B185B1807938A
S31510012CA09CE4BCF1000F3FF46DAE03991AAA584685
S31510012CB0FFF74EFA00287FF4EBAB1B99DDF870C0D5
S31510012CC001310DF174095BE41B92FFF7D6BB0A9A29
S31510012CD052F8043B0A9214F010027FF475AD14F009
S31510012CE0400000F06D819BB211466DE50A9850F8CF
S31510012CF0043B0A9012F010007FF419AD12F0400453
S31510012D0000F066819BB2014611E5012162460DF183
S31510012D1074092BE4BCF1000F00F09580039911930F
S31510012D201AAA5846FFF714FA00287FF4B1ABDDE969
S31510012D301B2C119B511C0DF17409FFF7E3BB059B6D
S31510012D400493099346AC12E622780A93FFF7B0BAB8
S31510012D50059B049346AC0AE6039DA86D01F054FA4F
S31510012D60B5F90C20FFF75BBA09F10809411C0246B7
S31510012D7000E4029A920500F18481D9170A469DE46E
S31510012D800E9B2278002B3FF493AA1B78002B3FF45D
S31510012D908FAA029B43F480630293FFF789BA029BC1
S31510012DA0DE0600F1FE80029B5D0600F17681029B34
S31510012DB09C0540F1F6800A9B079A1B681A7075E507
S31510012DC0624601210DF17409FFF7D0BB0694029CEE
S31510012DD0EDE4029A06949DE4144B06940D93029B1E
S31510012DE013F0200163D00A9B073323F0070318461B
S31510012DF0596850F8083B0A90029CE6070AD553EA2F
S31510012E00010007D08DF84D2044F0020202923022C3
S31510012E108DF84C20029A22F4806202922AE5044B24
S31510012E2006940D93DBE700BFBC9101106C91011064
S31510012E30589101100A9B1B688DF8B4300123049335
S31510012E4009932DAC27E49DF84B20002A00F01F8131
S31510012E5001210DF14B021E911D920DF174098C4643
S31510012E60FFF761BB0822002118A8159401F0D4F8C8
S31510012E70059B581C00F0BA800025049498462C46F0
S31510012E800CE02DA9584601F027FB411C204400F007
S31510012E903F81404508DC00F058810446159A525985
S31510012EA018AB0435002AECD10994049CACE00A98BD
S31510012EB050F8043B0A90029810F010009CD1029928
S31510012EC011F0400400F08B809BB2014694E7029A00
S31510012ED0CDF8109046AC02F48062A146CDF824B02C
S31510012EE0A54EDDF838B04FF0000C144605E00A2B5C
S31510012EF071F1000136D3434629465A1842F10002B0
S31510012F00A6FB020525F0030000EB9500121A981A8C
S31510012F104FF0CC3561F1000E05FB00F506FB0E55A1
S31510012F20A0FB0680054408F0010E0520AEFB000E3D
S31510012F3080184FEA5808303009F8010C48EAC5786C
S31510012F400CF1010C09F1FF396D08002CCFD09BF85B
S31510012F5000206245CBD1BCF1FF0FC8D00A2B71F10D
S31510012F60000172D2CDF838B04C46DDF824B0DDF848
S31510012F701090EAE5029241E40294E6E4584600F024
S31510012F802FFDFFF743B943F40073627802930134BE
S31510012F90FFF78EB943F02003627802930134FFF7ED
S31510012FA087B90A9B079A1B681A607FE4059B734CC5
S31510012FB0062B28BF0623CDE909360493FFF789BAF4
S31510012FC014F400713FF400ACDBB20146FFF7FCBB11
S31510012FD012F400711CBFDBB22146FFF7A8BB0299A0
S31510012FE011F400711CBFDBB2214605E718AB009343
S31510012FF00023194615AA584601F094FA03460133DF
S31510013000099000F085801594099B73B3632B49DCF5
S3151001301000230B932DAC0822002118A800F0FCFF09
S31510013020099D18AB009315AA2B462146584601F067
S3151001303079FA854240F09880099A0A960023A3549A
S31510013040059322EAE273049393E40F9B1099A9EB7B
S3151001305003091A46484601F031F89BF801300BB1C5
S315100130600BF1010B4FF0000C45E7099B0A96CDE9D0
S3151001307004330B937DE4012162460DF17409FFF7C8
S3151001308079BA43F3C0110A465BB2FFF717BB624622
S3151001309001210DF17409FFF74ABA0A9B079A1B68B9
S315100130A01A8003E4591C5846FCF71CFF04460028F5
S315100130B02ED00B90AFE7886D01F0A8F8FFF7A0B9F5
S315100130C0059B049309930B9B0A96059351E420469D
S315100130D005950A9601F094F920EAE0730990049394
S315100130E00B9546E400230593FFF7E3B8244E864675
S315100130F06BE5302330E403991AAA5846FFF728F8EE
S3151001310000283FF4ABA9FFF7C9B91D4E481CA7E526
S31510013110039AB2F90C3043F040039381FFF7C1B91A
S31510013120039B5B6ED90707D4039B9B899A0503D42E
S31510013130039B986D01F06AF84FF0FF330793FFF781
S31510013140B8B9DFF84080084660E4DDE90443099325
S315100131505AE70A9B62780C4653F8041B0A9341EA14
S31510013160E1710591FFF7A4B8039A938943F04003DF
S315100131709381FFF78DB900BFCDCCCCCC80910110D6
S31510013180BC910110AC910110F0B51F468B89ADF2BF
S315100131906C4D23F00203ADF80C304B6E1993CB89AD
S315100131A0ADF80E30CB6907934B6A09931AAB0093AE
S315100131B004934FF48063154606460293059316A8A9
S315100131C000230C46069301F01BF82A463B46694636
S315100131D03046FFF705F8051E07DB6946304600F055
S315100131E011FB002818BF4FF0FF35BDF80C305B06F8
S315100131F003D5A38943F04003A381169801F002F881
S3151001320028460DF26C4DF0BD014800F0FDBF00BF20
S315100132109C110020014800F0F9BF00BF9C1100204D
S3151001322070B5054688B008460C4601F0E9F8214EFE
S315100132306A6B059001214318CDE9066104A80221A4
S3151001324004940393AC6801900291002A2ED0626E09
S31510013250B4F90C30D60701D4980521D5990406D4B2
S31510013260626E43F4005322F40052A381626628462B
S3151001327001AA214600F0DEFB636E00280CBF0A2569
S315100132804FF0FF35DA0702D4A3899B0502D52846EC
S3151001329008B070BDA06D00F0B9FF284608B070BD2A
S315100132A0A06D00F0B1FFB4F90C30D7E7284600F055
S315100132B097FBCCE7CC910110024B01461868FFF73A
S315100132C0AFBF00BFC005002070B500293FD005462D
S315100132D00C4610B1436B002B3CD0636EB4F90C2035
S315100132E0DE0732D4900538D52146284600F0EEF98E
S315100132F0E36A064633B1E169284698470028B8BF04
S315100133004FF0FF36A3891A0639D4216B41B104F166
S315100133104003994202D0284602F06CF90023236338
S31510013320616C21B1284602F065F90023636400F04F
S3151001333075FB636E0022DB07A2811CD5A06D00F020
S3151001334061FF00F071FB304670BD002ACCD100261A
S31510013350304670BD00F044FBBFE7A06D00F054FF8E
S31510013360B4F90C30002BBFD1636ED907EFD4A06D21
S3151001337000F04CFFEBE7A06D00F048FFDEE7216996
S31510013380284602F037F9C0E72DE9F84F164600290D
S3151001339000F096800C46804606F10B05FFF734FFC8
S315100133A054F8041C162DA4F1080921F0030758D866
S315100133B01025AE4258D8AF4260DABE4B9A6809EB77
S315100133C0070C6245DCF8040000F0908020F0010340
S315100133D063445B68DA0768D420F003003B189D420A
S315100133E047DDCB0712D454F8083CA9EB030BDBF8E5
S315100133F0043023F00302104400EB070A554540F34D
S31510013400F68007EB020A554540F3CC80314640461B
S31510013410FCF768FD0646002800F0208154F8043CAC
S3151001342023F001034B44A0F10802934200F0B4804B
S315100134303A1F242A00F2D780132A00F2A2800346EB
S315100134402246116819605168596092689A6021463E
S31510013450404602F0CFF84046FFF7DCFE3046BDE8A5
S31510013460F88F35F00705A4D50C23C8F800300026CF
S3151001347018E01F46DCE90223D3609A60D9F80430BC
S315100134807A1B0F2A03F0010309EB07001DD83B43F2
S31510013490C9F80430436843F0010343604046FFF71F
S315100134A0B9FE26463046BDE8F88FC907AED454F8A2
S315100134B0083CA9EB030BDBF8043023F00302A0E769
S315100134C0BDE8F84F1146FCF70DBD09EB05012B437D
S315100134D042F00102C9F804304A60436843F001031F
S315100134E043600831404602F085F8D7E720F0030023
